{
  "_format": "hh-sol-artifact-1",
  "contractName": "LiquidityController",
  "sourceName": "contracts/LiquidityController.sol",
  "abi": [
    {
      "inputs": [
        {
          "internalType": "contract INonfungiblePositionManager",
          "name": "_nonfungiblePositionManager",
          "type": "address"
        },
        {
          "internalType": "contract ISwapRouter",
          "name": "_swapRouter",
          "type": "address"
        },
        {
          "internalType": "address",
          "name": "_admin",
          "type": "address"
        },
        {
          "internalType": "address",
          "name": "_exec",
          "type": "address"
        }
      ],
      "stateMutability": "nonpayable",
      "type": "constructor"
    },
    {
      "anonymous": false,
      "inputs": [
        {
          "indexed": false,
          "internalType": "uint256",
          "name": "tokenId",
          "type": "uint256"
        },
        {
          "indexed": false,
          "internalType": "uint256",
          "name": "amount0",
          "type": "uint256"
        },
        {
          "indexed": false,
          "internalType": "uint256",
          "name": "amount1",
          "type": "uint256"
        },
        {
          "indexed": false,
          "internalType": "bool",
          "name": "withdrawal",
          "type": "bool"
        }
      ],
      "name": "CollectedFees",
      "type": "event"
    },
    {
      "anonymous": false,
      "inputs": [
        {
          "indexed": false,
          "internalType": "uint256",
          "name": "tokenId",
          "type": "uint256"
        },
        {
          "indexed": false,
          "internalType": "uint256",
          "name": "amount0",
          "type": "uint256"
        },
        {
          "indexed": false,
          "internalType": "uint256",
          "name": "amount1",
          "type": "uint256"
        },
        {
          "indexed": false,
          "internalType": "uint256",
          "name": "liquidity",
          "type": "uint256"
        }
      ],
      "name": "LiquidityDecreased",
      "type": "event"
    },
    {
      "anonymous": false,
      "inputs": [
        {
          "indexed": false,
          "internalType": "uint256",
          "name": "tokenId",
          "type": "uint256"
        },
        {
          "indexed": false,
          "internalType": "uint256",
          "name": "amount0",
          "type": "uint256"
        },
        {
          "indexed": false,
          "internalType": "uint256",
          "name": "amount1",
          "type": "uint256"
        },
        {
          "indexed": false,
          "internalType": "uint256",
          "name": "liquidity",
          "type": "uint256"
        }
      ],
      "name": "LiquidityIncreased",
      "type": "event"
    },
    {
      "anonymous": false,
      "inputs": [
        {
          "indexed": false,
          "internalType": "uint256",
          "name": "tokenId",
          "type": "uint256"
        },
        {
          "indexed": false,
          "internalType": "address",
          "name": "token0",
          "type": "address"
        },
        {
          "indexed": false,
          "internalType": "address",
          "name": "token1",
          "type": "address"
        },
        {
          "indexed": false,
          "internalType": "uint24",
          "name": "fee",
          "type": "uint24"
        }
      ],
      "name": "NewDeposit",
      "type": "event"
    },
    {
      "anonymous": false,
      "inputs": [
        {
          "indexed": true,
          "internalType": "bytes32",
          "name": "role",
          "type": "bytes32"
        },
        {
          "indexed": true,
          "internalType": "bytes32",
          "name": "previousAdminRole",
          "type": "bytes32"
        },
        {
          "indexed": true,
          "internalType": "bytes32",
          "name": "newAdminRole",
          "type": "bytes32"
        }
      ],
      "name": "RoleAdminChanged",
      "type": "event"
    },
    {
      "anonymous": false,
      "inputs": [
        {
          "indexed": true,
          "internalType": "bytes32",
          "name": "role",
          "type": "bytes32"
        },
        {
          "indexed": true,
          "internalType": "address",
          "name": "account",
          "type": "address"
        },
        {
          "indexed": true,
          "internalType": "address",
          "name": "sender",
          "type": "address"
        }
      ],
      "name": "RoleGranted",
      "type": "event"
    },
    {
      "anonymous": false,
      "inputs": [
        {
          "indexed": true,
          "internalType": "bytes32",
          "name": "role",
          "type": "bytes32"
        },
        {
          "indexed": true,
          "internalType": "address",
          "name": "account",
          "type": "address"
        },
        {
          "indexed": true,
          "internalType": "address",
          "name": "sender",
          "type": "address"
        }
      ],
      "name": "RoleRevoked",
      "type": "event"
    },
    {
      "anonymous": false,
      "inputs": [
        {
          "indexed": false,
          "internalType": "address",
          "name": "tokenIn",
          "type": "address"
        },
        {
          "indexed": false,
          "internalType": "address",
          "name": "tokenOut",
          "type": "address"
        },
        {
          "indexed": false,
          "internalType": "uint256",
          "name": "amountIn",
          "type": "uint256"
        },
        {
          "indexed": false,
          "internalType": "uint256",
          "name": "amountOut",
          "type": "uint256"
        }
      ],
      "name": "TokenSwap",
      "type": "event"
    },
    {
      "inputs": [],
      "name": "ADMIN_ROLE",
      "outputs": [
        {
          "internalType": "bytes32",
          "name": "",
          "type": "bytes32"
        }
      ],
      "stateMutability": "view",
      "type": "function"
    },
    {
      "inputs": [],
      "name": "DEFAULT_ADMIN_ROLE",
      "outputs": [
        {
          "internalType": "bytes32",
          "name": "",
          "type": "bytes32"
        }
      ],
      "stateMutability": "view",
      "type": "function"
    },
    {
      "inputs": [],
      "name": "EXECUTOR_ROLE",
      "outputs": [
        {
          "internalType": "bytes32",
          "name": "",
          "type": "bytes32"
        }
      ],
      "stateMutability": "view",
      "type": "function"
    },
    {
      "inputs": [
        {
          "internalType": "address",
          "name": "token",
          "type": "address"
        },
        {
          "internalType": "address",
          "name": "to",
          "type": "address"
        },
        {
          "internalType": "uint256",
          "name": "amount",
          "type": "uint256"
        }
      ],
      "name": "approve",
      "outputs": [],
      "stateMutability": "nonpayable",
      "type": "function"
    },
    {
      "inputs": [
        {
          "internalType": "address",
          "name": "token0",
          "type": "address"
        },
        {
          "internalType": "address",
          "name": "token1",
          "type": "address"
        }
      ],
      "name": "approveInfinity",
      "outputs": [],
      "stateMutability": "nonpayable",
      "type": "function"
    },
    {
      "inputs": [
        {
          "internalType": "address",
          "name": "token0",
          "type": "address"
        },
        {
          "internalType": "address",
          "name": "token1",
          "type": "address"
        },
        {
          "internalType": "uint256",
          "name": "amount0",
          "type": "uint256"
        },
        {
          "internalType": "uint256",
          "name": "amount1",
          "type": "uint256"
        }
      ],
      "name": "approveManager",
      "outputs": [],
      "stateMutability": "nonpayable",
      "type": "function"
    },
    {
      "inputs": [
        {
          "internalType": "address",
          "name": "token0",
          "type": "address"
        },
        {
          "internalType": "address",
          "name": "token1",
          "type": "address"
        },
        {
          "internalType": "uint256",
          "name": "amount0",
          "type": "uint256"
        },
        {
          "internalType": "uint256",
          "name": "amount1",
          "type": "uint256"
        }
      ],
      "name": "approveRouter",
      "outputs": [],
      "stateMutability": "nonpayable",
      "type": "function"
    },
    {
      "inputs": [
        {
          "internalType": "uint256",
          "name": "tokenId",
          "type": "uint256"
        },
        {
          "internalType": "bool",
          "name": "withdraw",
          "type": "bool"
        }
      ],
      "name": "collectFees",
      "outputs": [
        {
          "internalType": "uint256",
          "name": "amount0",
          "type": "uint256"
        },
        {
          "internalType": "uint256",
          "name": "amount1",
          "type": "uint256"
        }
      ],
      "stateMutability": "nonpayable",
      "type": "function"
    },
    {
      "inputs": [
        {
          "internalType": "uint256",
          "name": "tokenId",
          "type": "uint256"
        },
        {
          "internalType": "uint128",
          "name": "liquidity",
          "type": "uint128"
        },
        {
          "internalType": "uint256",
          "name": "amount0Min",
          "type": "uint256"
        },
        {
          "internalType": "uint256",
          "name": "amount1Min",
          "type": "uint256"
        }
      ],
      "name": "decreaseLiquidity",
      "outputs": [
        {
          "internalType": "uint256",
          "name": "amount0",
          "type": "uint256"
        },
        {
          "internalType": "uint256",
          "name": "amount1",
          "type": "uint256"
        }
      ],
      "stateMutability": "nonpayable",
      "type": "function"
    },
    {
      "inputs": [
        {
          "internalType": "uint256",
          "name": "",
          "type": "uint256"
        }
      ],
      "name": "deposits",
      "outputs": [
        {
          "internalType": "address",
          "name": "token0",
          "type": "address"
        },
        {
          "internalType": "address",
          "name": "token1",
          "type": "address"
        },
        {
          "internalType": "uint24",
          "name": "fee",
          "type": "uint24"
        },
        {
          "internalType": "int24",
          "name": "tickLower",
          "type": "int24"
        },
        {
          "internalType": "int24",
          "name": "tickUpper",
          "type": "int24"
        }
      ],
      "stateMutability": "view",
      "type": "function"
    },
    {
      "inputs": [
        {
          "internalType": "bytes32",
          "name": "role",
          "type": "bytes32"
        }
      ],
      "name": "getRoleAdmin",
      "outputs": [
        {
          "internalType": "bytes32",
          "name": "",
          "type": "bytes32"
        }
      ],
      "stateMutability": "view",
      "type": "function"
    },
    {
      "inputs": [
        {
          "internalType": "bytes32",
          "name": "role",
          "type": "bytes32"
        },
        {
          "internalType": "uint256",
          "name": "index",
          "type": "uint256"
        }
      ],
      "name": "getRoleMember",
      "outputs": [
        {
          "internalType": "address",
          "name": "",
          "type": "address"
        }
      ],
      "stateMutability": "view",
      "type": "function"
    },
    {
      "inputs": [
        {
          "internalType": "bytes32",
          "name": "role",
          "type": "bytes32"
        }
      ],
      "name": "getRoleMemberCount",
      "outputs": [
        {
          "internalType": "uint256",
          "name": "",
          "type": "uint256"
        }
      ],
      "stateMutability": "view",
      "type": "function"
    },
    {
      "inputs": [
        {
          "internalType": "bytes32",
          "name": "role",
          "type": "bytes32"
        },
        {
          "internalType": "address",
          "name": "account",
          "type": "address"
        }
      ],
      "name": "grantRole",
      "outputs": [],
      "stateMutability": "nonpayable",
      "type": "function"
    },
    {
      "inputs": [
        {
          "internalType": "bytes32",
          "name": "role",
          "type": "bytes32"
        },
        {
          "internalType": "address",
          "name": "account",
          "type": "address"
        }
      ],
      "name": "hasRole",
      "outputs": [
        {
          "internalType": "bool",
          "name": "",
          "type": "bool"
        }
      ],
      "stateMutability": "view",
      "type": "function"
    },
    {
      "inputs": [
        {
          "internalType": "uint256",
          "name": "tokenId",
          "type": "uint256"
        },
        {
          "internalType": "uint256",
          "name": "amount0Desired",
          "type": "uint256"
        },
        {
          "internalType": "uint256",
          "name": "amount1Desired",
          "type": "uint256"
        },
        {
          "internalType": "uint256",
          "name": "amount0Min",
          "type": "uint256"
        },
        {
          "internalType": "uint256",
          "name": "amount1Min",
          "type": "uint256"
        }
      ],
      "name": "increaseLiquidity",
      "outputs": [
        {
          "internalType": "uint128",
          "name": "liquidity",
          "type": "uint128"
        },
        {
          "internalType": "uint256",
          "name": "amount0",
          "type": "uint256"
        },
        {
          "internalType": "uint256",
          "name": "amount1",
          "type": "uint256"
        }
      ],
      "stateMutability": "nonpayable",
      "type": "function"
    },
    {
      "inputs": [
        {
          "internalType": "address",
          "name": "token0",
          "type": "address"
        },
        {
          "internalType": "address",
          "name": "token1",
          "type": "address"
        },
        {
          "internalType": "uint24",
          "name": "fee",
          "type": "uint24"
        },
        {
          "internalType": "int24",
          "name": "tickLower",
          "type": "int24"
        },
        {
          "internalType": "int24",
          "name": "tickUpper",
          "type": "int24"
        },
        {
          "internalType": "uint256",
          "name": "amount0Desired",
          "type": "uint256"
        },
        {
          "internalType": "uint256",
          "name": "amount1Desired",
          "type": "uint256"
        },
        {
          "internalType": "uint256",
          "name": "amount0Min",
          "type": "uint256"
        },
        {
          "internalType": "uint256",
          "name": "amount1Min",
          "type": "uint256"
        }
      ],
      "name": "mintNewPosition",
      "outputs": [
        {
          "internalType": "uint256",
          "name": "tokenId",
          "type": "uint256"
        },
        {
          "internalType": "uint128",
          "name": "liquidity",
          "type": "uint128"
        },
        {
          "internalType": "uint256",
          "name": "amount0",
          "type": "uint256"
        },
        {
          "internalType": "uint256",
          "name": "amount1",
          "type": "uint256"
        }
      ],
      "stateMutability": "nonpayable",
      "type": "function"
    },
    {
      "inputs": [],
      "name": "nonfungiblePositionManager",
      "outputs": [
        {
          "internalType": "contract INonfungiblePositionManager",
          "name": "",
          "type": "address"
        }
      ],
      "stateMutability": "view",
      "type": "function"
    },
    {
      "inputs": [
        {
          "internalType": "address",
          "name": "",
          "type": "address"
        },
        {
          "internalType": "address",
          "name": "",
          "type": "address"
        },
        {
          "internalType": "uint256",
          "name": "tokenId",
          "type": "uint256"
        },
        {
          "internalType": "bytes",
          "name": "",
          "type": "bytes"
        }
      ],
      "name": "onERC721Received",
      "outputs": [
        {
          "internalType": "bytes4",
          "name": "",
          "type": "bytes4"
        }
      ],
      "stateMutability": "nonpayable",
      "type": "function"
    },
    {
      "inputs": [
        {
          "internalType": "uint256",
          "name": "tokenId",
          "type": "uint256"
        },
        {
          "internalType": "address",
          "name": "to",
          "type": "address"
        }
      ],
      "name": "redeemNFT",
      "outputs": [],
      "stateMutability": "nonpayable",
      "type": "function"
    },
    {
      "inputs": [
        {
          "internalType": "address",
          "name": "toTransfer",
          "type": "address"
        },
        {
          "internalType": "address",
          "name": "to",
          "type": "address"
        }
      ],
      "name": "redeemOwnership",
      "outputs": [],
      "stateMutability": "nonpayable",
      "type": "function"
    },
    {
      "inputs": [
        {
          "internalType": "address",
          "name": "token",
          "type": "address"
        },
        {
          "internalType": "address",
          "name": "to",
          "type": "address"
        },
        {
          "internalType": "uint256",
          "name": "value",
          "type": "uint256"
        }
      ],
      "name": "redeemToken",
      "outputs": [],
      "stateMutability": "nonpayable",
      "type": "function"
    },
    {
      "inputs": [
        {
          "internalType": "bytes32",
          "name": "role",
          "type": "bytes32"
        },
        {
          "internalType": "address",
          "name": "account",
          "type": "address"
        }
      ],
      "name": "renounceRole",
      "outputs": [],
      "stateMutability": "nonpayable",
      "type": "function"
    },
    {
      "inputs": [
        {
          "internalType": "bytes32",
          "name": "role",
          "type": "bytes32"
        },
        {
          "internalType": "address",
          "name": "account",
          "type": "address"
        }
      ],
      "name": "revokeRole",
      "outputs": [],
      "stateMutability": "nonpayable",
      "type": "function"
    },
    {
      "inputs": [
        {
          "internalType": "address",
          "name": "tkn0",
          "type": "address"
        },
        {
          "internalType": "address",
          "name": "tkn1",
          "type": "address"
        },
        {
          "internalType": "uint24",
          "name": "fee",
          "type": "uint24"
        },
        {
          "internalType": "uint256",
          "name": "amountIn",
          "type": "uint256"
        },
        {
          "internalType": "uint256",
          "name": "amountOutMinimum",
          "type": "uint256"
        },
        {
          "internalType": "uint160",
          "name": "sqrtPriceLimitX96",
          "type": "uint160"
        }
      ],
      "name": "swapExactInputSingle",
      "outputs": [
        {
          "internalType": "uint256",
          "name": "amountOut",
          "type": "uint256"
        }
      ],
      "stateMutability": "nonpayable",
      "type": "function"
    },
    {
      "inputs": [
        {
          "internalType": "address",
          "name": "tkn0",
          "type": "address"
        },
        {
          "internalType": "address",
          "name": "tkn1",
          "type": "address"
        },
        {
          "internalType": "uint24",
          "name": "fee",
          "type": "uint24"
        },
        {
          "internalType": "uint256",
          "name": "amountOut",
          "type": "uint256"
        },
        {
          "internalType": "uint256",
          "name": "amountInMaximum",
          "type": "uint256"
        },
        {
          "internalType": "uint160",
          "name": "sqrtPriceLimitX96",
          "type": "uint160"
        }
      ],
      "name": "swapExactOutputSingle",
      "outputs": [
        {
          "internalType": "uint256",
          "name": "amountIn",
          "type": "uint256"
        }
      ],
      "stateMutability": "nonpayable",
      "type": "function"
    },
    {
      "inputs": [],
      "name": "swapRouter",
      "outputs": [
        {
          "internalType": "contract ISwapRouter",
          "name": "",
          "type": "address"
        }
      ],
      "stateMutability": "view",
      "type": "function"
    },
    {
      "inputs": [
        {
          "internalType": "uint256",
          "name": "tokenId",
          "type": "uint256"
        },
        {
          "internalType": "uint256",
          "name": "amount0",
          "type": "uint256"
        },
        {
          "internalType": "uint256",
          "name": "amount1",
          "type": "uint256"
        }
      ],
      "name": "transferForDeposit",
      "outputs": [],
      "stateMutability": "nonpayable",
      "type": "function"
    },
    {
      "inputs": [
        {
          "internalType": "address",
          "name": "token0",
          "type": "address"
        },
        {
          "internalType": "address",
          "name": "token1",
          "type": "address"
        },
        {
          "internalType": "uint256",
          "name": "amount0",
          "type": "uint256"
        },
        {
          "internalType": "uint256",
          "name": "amount1",
          "type": "uint256"
        }
      ],
      "name": "transferForTokens",
      "outputs": [],
      "stateMutability": "nonpayable",
      "type": "function"
    }
  ],
  "bytecode": "0x60c06040523480156200001157600080fd5b5060405162002bf038038062002bf0833981016040819052620000349162000239565b6001600160601b0319606085811b821660805284901b1660a0526200006960008051602062002bd083398151915280620000d3565b6200009360008051602062002bb083398151915260008051602062002bd0833981519152620000d3565b620000ae60008051602062002bd08339815191528362000125565b620000c960008051602062002bb08339815191528262000125565b50505050620002b9565b600082815260208190526040808220600201549051839285917fbd79b86ffe0ab8e8776151514217cd7cacd52c909f66475c3af44e129f0b00ff9190a460009182526020829052604090912060020155565b62000131828262000135565b5050565b6000828152602081815260409091206200015a918390620014f3620001ae821b17901c565b1562000131576200016a620001ce565b6001600160a01b0316816001600160a01b0316837f2f8788117e7eff1d82e926ec794901d17c78024a50270940304540a733656f0d60405160405180910390a45050565b6000620001c5836001600160a01b038416620001d2565b90505b92915050565b3390565b6000620001e0838362000221565b6200021857508154600181810184556000848152602080822090930184905584548482528286019093526040902091909155620001c8565b506000620001c8565b60009081526001919091016020526040902054151590565b600080600080608085870312156200024f578384fd5b84516200025c81620002a0565b60208601519094506200026f81620002a0565b60408601519093506200028281620002a0565b60608601519092506200029581620002a0565b939692955090935050565b6001600160a01b0381168114620002b657600080fd5b50565b60805160601c60a05160601c61287d6200033360003980610a415280610b515280610b7c5280610e6d5280610e9c5280610fef52806110af5250806105b452806105df52806107c952806108ea5280610cbf5280610e0f5280610e3e5280610f12528061117752806113ef5280611661525061287d6000f3fe608060405234801561001057600080fd5b50600436106101cf5760003560e01c80638e5f597711610104578063b4580507116100a2578063d547741f11610071578063d547741f146103e5578063dce008af146103f8578063dd37019d1461040b578063e1f21c671461042e576101cf565b8063b458050714610395578063c31c9c07146103a8578063c691b0a1146103b0578063ca15c873146103d2576101cf565b8063a217fddf116100de578063a217fddf1461034e578063a824355814610356578063b02c43d014610369578063b44a27221461038d576101cf565b80638e5f5977146102fb5780639010d07c1461030e57806391d148541461032e576101cf565b806336568abe116101715780634c8c73141161014b5780634c8c7314146102ba57806357706e74146102cd57806375b238fc146102e05780637d42c461146102e8576101cf565b806336568abe146102735780633a483cb0146102865780633ef4c3d4146102a7576101cf565b80631c8c9980116101ad5780631c8c998014610227578063248a9ca31461023a57806325eb6e6f1461024d5780632f2ff15d14610260576101cf565b806307bd0265146101d45780630d71bdc3146101f2578063150b7a0214610207575b600080fd5b6101dc610441565b6040516101e99190612434565b60405180910390f35b610205610200366004611f52565b610453565b005b61021a610215366004611f92565b6104a5565b6040516101e9919061243d565b610205610235366004611e18565b6104c2565b6101dc610248366004612071565b61055d565b61020561025b36600461202c565b610575565b61020561026e366004612089565b61060a565b610205610281366004612089565b610671565b61029961029436600461211c565b6106d2565b6040516101e99291906126bb565b6102056102b5366004612089565b61089a565b6101dc6102c8366004611ee3565b610986565b6102056102db36600461202c565b610b12565b6101dc610ba1565b6102056102f63660046121cb565b610bb3565b610299610309366004612144565b610c1a565b61032161031c3660046120ad565b610d92565b6040516101e9919061238c565b61034161033c366004612089565b610db3565b6040516101e99190612429565b6101dc610dcb565b610205610364366004611e18565b610dd0565b61037c610377366004612071565b610ec5565b6040516101e99594939291906123a0565b610321610f10565b6101dc6103a3366004611ee3565b610f34565b6103216110ad565b6103c36103be3660046121f6565b6110d1565b6040516101e99392919061264c565b6101dc6103e0366004612071565b611250565b6102056103f3366004612089565b611267565b61020561040636600461202c565b6112c0565b61041e610419366004611e50565b611311565b6040516101e99493929190612697565b61020561043c366004611f52565b6114af565b6000805160206127d983398151915281565b61046b6000805160206127f983398151915233610db3565b15156001146104955760405162461bcd60e51b815260040161048c906124a2565b60405180910390fd5b6104a0838383611508565b505050565b60006104b084611656565b50630a85bd0160e11b95945050505050565b6104da6000805160206127f983398151915233610db3565b15156001146104fb5760405162461bcd60e51b815260040161048c906124a2565b60405163f2fde38b60e01b81526001600160a01b0383169063f2fde38b9061052790849060040161238c565b600060405180830381600087803b15801561054157600080fd5b505af1158015610555573d6000803e3d6000fd5b505050505050565b6000818152602081905260409020600201545b919050565b61058d6000805160206127f983398151915233610db3565b15156001146105ae5760405162461bcd60e51b815260040161048c906124a2565b6105d9847f0000000000000000000000000000000000000000000000000000000000000000846118ae565b610604837f0000000000000000000000000000000000000000000000000000000000000000836118ae565b50505050565b6000828152602081905260409020600201546106289061033c6119f5565b6106635760405162461bcd60e51b815260040180806020018281038252602f81526020018061277a602f913960400191505060405180910390fd5b61066d82826119f9565b5050565b6106796119f5565b6001600160a01b0316816001600160a01b0316146106c85760405162461bcd60e51b815260040180806020018281038252602f815260200180612819602f913960400191505060405180910390fd5b61066d8282611a62565b6000806106ed6000805160206127f983398151915233610db3565b15156001148061071657506107106000805160206127d983398151915233610db3565b15156001145b6107325760405162461bcd60e51b815260040161048c90612475565b60018315151415610776576107556000805160206127f983398151915233610db3565b15156001146107765760405162461bcd60e51b815260040161048c906124a2565b60006040518060800160405280868152602001856107945730610796565b335b6001600160a01b0390811682526001600160801b0360208301819052604092830152905163fc6f786560e01b81529192507f0000000000000000000000000000000000000000000000000000000000000000169063fc6f7865906107fe9084906004016124c5565b6040805180830381600087803b15801561081757600080fd5b505af115801561082b573d6000803e3d6000fd5b505050506040513d601f19601f8201168201806040525081019061084f91906121a8565b60405191945092507feaa34316c1ac0ac2b8445632fef75dad91f846cc69c40a558ccfd6e5700bb79a9061088a9087908690869089906126c9565b60405180910390a1509250929050565b6108b26000805160206127f983398151915233610db3565b15156001146108d35760405162461bcd60e51b815260040161048c906124a2565b604051632142170760e11b81526001600160a01b037f000000000000000000000000000000000000000000000000000000000000000016906342842e0e90610923903090859087906004016123dc565b600060405180830381600087803b15801561093d57600080fd5b505af1158015610951573d6000803e3d6000fd5b5050506000928352505060016020819052604090912080546001600160a01b03191681550180546001600160e81b0319169055565b60006109a06000805160206127f983398151915233610db3565b1515600114806109c957506109c36000805160206127d983398151915233610db3565b15156001145b6109e55760405162461bcd60e51b815260040161048c90612475565b60408051610100810182526001600160a01b03808a168252888116602083015262ffffff88168284015230606083015242608083015260a0820187905260c0820186905284811660e08301529151631b67c43360e31b815290917f0000000000000000000000000000000000000000000000000000000000000000169063db3e219890610a7690849060040161254b565b602060405180830381600087803b158015610a9057600080fd5b505af1158015610aa4573d6000803e3d6000fd5b505050506040513d601f19601f82011682018060405250810190610ac89190612104565b91507f1f2c1de040604eaf4a8c72b05bd7c16fae213f15cbde69ecf70dd3b97fef1f2f88888488604051610aff9493929190612400565b60405180910390a1509695505050505050565b610b2a6000805160206127f983398151915233610db3565b1515600114610b4b5760405162461bcd60e51b815260040161048c906124a2565b610b76847f0000000000000000000000000000000000000000000000000000000000000000846118ae565b610604837f0000000000000000000000000000000000000000000000000000000000000000836118ae565b6000805160206127f983398151915281565b610bcb6000805160206127f983398151915233610db3565b1515600114610bec5760405162461bcd60e51b815260040161048c906124a2565b600083815260016020819052604090912080549101546104a0916001600160a01b03908116911684846112c0565b600080610c356000805160206127f983398151915233610db3565b151560011480610c5e5750610c586000805160206127d983398151915233610db3565b15156001145b610c7a5760405162461bcd60e51b815260040161048c90612475565b6040805160a0810182528781526001600160801b0387166020820152808201869052606081018590524260808201529051630624e65f60e11b81526001600160a01b037f00000000000000000000000000000000000000000000000000000000000000001690630c49ccbe90610cf4908490600401612508565b6040805180830381600087803b158015610d0d57600080fd5b505af1158015610d21573d6000803e3d6000fd5b505050506040513d601f19601f82011682018060405250810190610d4591906121a8565b60405191945092507fc79cb6614f7bcc31f0121c4db623a782836f42b2d8e5290a19340bdbc25032f790610d80908990869086908b906126e6565b60405180910390a15094509492505050565b6000828152602081905260408120610daa9083611acb565b90505b92915050565b6000828152602081905260408120610daa9083611ad7565b600081565b610de86000805160206127f983398151915233610db3565b1515600114610e095760405162461bcd60e51b815260040161048c906124a2565b610e38827f0000000000000000000000000000000000000000000000000000000000000000600160ff1b6118ae565b610e67817f0000000000000000000000000000000000000000000000000000000000000000600160ff1b6118ae565b610e96827f0000000000000000000000000000000000000000000000000000000000000000600160ff1b6118ae565b61066d817f0000000000000000000000000000000000000000000000000000000000000000600160ff1b6118ae565b600160208190526000918252604090912080549101546001600160a01b039182169181169062ffffff600160a01b82041690600160b81b8104600290810b91600160d01b9004900b85565b7f000000000000000000000000000000000000000000000000000000000000000081565b6000610f4e6000805160206127f983398151915233610db3565b151560011480610f775750610f716000805160206127d983398151915233610db3565b15156001145b610f935760405162461bcd60e51b815260040161048c90612475565b60408051610100810182526001600160a01b03808a168252888116602083015262ffffff88168284015230606083015242608083015260a0820187905260c0820186905284811660e0830152915163414bf38960e01b815290917f0000000000000000000000000000000000000000000000000000000000000000169063414bf3899061102490849060040161254b565b602060405180830381600087803b15801561103e57600080fd5b505af1158015611052573d6000803e3d6000fd5b505050506040513d601f19601f820116820180604052508101906110769190612104565b91507f1f2c1de040604eaf4a8c72b05bd7c16fae213f15cbde69ecf70dd3b97fef1f2f88888785604051610aff9493929190612400565b7f000000000000000000000000000000000000000000000000000000000000000081565b60008060006110ee6000805160206127f983398151915233610db3565b15156001148061111757506111116000805160206127d983398151915233610db3565b15156001145b6111335760405162461bcd60e51b815260040161048c90612475565b6040805160c0810182528981526020810189905280820188905260608101879052608081018690524260a0820152905163219f5d1760e01b81526001600160a01b037f0000000000000000000000000000000000000000000000000000000000000000169063219f5d17906111ac90849060040161255a565b606060405180830381600087803b1580156111c657600080fd5b505af11580156111da573d6000803e3d6000fd5b505050506040513d601f19601f820116820180604052508101906111fe91906120ce565b60405192965090945092507f2d6edbed0a944a56e78d8ced0bc4794533b38938655f47c5a423559a1163b1049061123c908b908690869089906126e6565b60405180910390a150955095509592505050565b6000818152602081905260408120610dad90611aec565b6000828152602081905260409020600201546112859061033c6119f5565b6106c85760405162461bcd60e51b81526004018080602001828103825260308152602001806127a96030913960400191505060405180910390fd5b6112d86000805160206127f983398151915233610db3565b15156001146112f95760405162461bcd60e51b815260040161048c906124a2565b61130584333085611af7565b61060483333084611af7565b60008060008061132f6000805160206127f983398151915233610db3565b15156001148061135857506113526000805160206127d983398151915233610db3565b15156001145b6113745760405162461bcd60e51b815260040161048c90612475565b60006040518061016001604052808f6001600160a01b031681526020018e6001600160a01b031681526020018d62ffffff1681526020018c60020b81526020018b60020b81526020018a8152602001898152602001888152602001878152602001306001600160a01b031681526020014260640181525090507f00000000000000000000000000000000000000000000000000000000000000006001600160a01b03166388316456826040518263ffffffff1660e01b8152600401611439919061259e565b608060405180830381600087803b15801561145357600080fd5b505af1158015611467573d6000803e3d6000fd5b505050506040513d601f19601f8201168201806040525081019061148b919061216b565b9297509095509350915061149e85611656565b509950995099509995505050505050565b6114c76000805160206127f983398151915233610db3565b15156001146114e85760405162461bcd60e51b815260040161048c906124a2565b6104a08383836118ae565b6000610daa836001600160a01b038416611c47565b604080516001600160a01b038481166024830152604480830185905283518084039091018152606490920183526020820180516001600160e01b031663a9059cbb60e01b1781529251825160009485949389169392918291908083835b602083106115845780518252601f199092019160209182019101611565565b6001836020036101000a0380198251168184511680821785525050505050509050019150506000604051808303816000865af19150503d80600081146115e6576040519150601f19603f3d011682016040523d82523d6000602084013e6115eb565b606091505b5091509150818015611619575080511580611619575080806020019051602081101561161657600080fd5b50515b61164f576040805162461bcd60e51b815260206004820152600260248201526114d560f21b604482015290519081900360640190fd5b5050505050565b6000806000806000807f00000000000000000000000000000000000000000000000000000000000000006001600160a01b03166399fbab88886040518263ffffffff1660e01b81526004016116ab9190612434565b6101806040518083038186803b1580156116c457600080fd5b505afa1580156116d8573d6000803e3d6000fd5b505050506040513d601f19601f820116820180604052508101906116fc9190612230565b505050505096509650965096509650965050306001600160a01b0316866001600160a01b03161461173f5760405162461bcd60e51b815260040161048c90612452565b6040518060a00160405280866001600160a01b03168152602001856001600160a01b031681526020018462ffffff1681526020018360020b81526020018260020b8152506001600089815260200190815260200160002060008201518160000160006101000a8154816001600160a01b0302191690836001600160a01b0316021790555060208201518160010160006101000a8154816001600160a01b0302191690836001600160a01b0316021790555060408201518160010160146101000a81548162ffffff021916908362ffffff16021790555060608201518160010160176101000a81548162ffffff021916908360020b62ffffff160217905550608082015181600101601a6101000a81548162ffffff021916908360020b62ffffff1602179055509050507fc98b6cef6bcb7a4f274ab1045ead0065d8a07df11b545d8dc8bd25f58b39d0718786868660405161189d949392919061266d565b60405180910390a150505050505050565b604080516001600160a01b038481166024830152604480830185905283518084039091018152606490920183526020820180516001600160e01b031663095ea7b360e01b1781529251825160009485949389169392918291908083835b6020831061192a5780518252601f19909201916020918201910161190b565b6001836020036101000a0380198251168184511680821785525050505050509050019150506000604051808303816000865af19150503d806000811461198c576040519150601f19603f3d011682016040523d82523d6000602084013e611991565b606091505b50915091508180156119bf5750805115806119bf57508080602001905160208110156119bc57600080fd5b50515b61164f576040805162461bcd60e51b8152602060048201526002602482015261534160f01b604482015290519081900360640190fd5b3390565b6000828152602081905260409020611a1190826114f3565b1561066d57611a1e6119f5565b6001600160a01b0316816001600160a01b0316837f2f8788117e7eff1d82e926ec794901d17c78024a50270940304540a733656f0d60405160405180910390a45050565b6000828152602081905260409020611a7a9082611c91565b1561066d57611a876119f5565b6001600160a01b0316816001600160a01b0316837ff6391f5c32d9c69d2a47ea670b442974b53935d1edc7fd64eb21e047a839171b60405160405180910390a45050565b6000610daa8383611ca6565b6000610daa836001600160a01b038416611d0a565b6000610dad82611d22565b604080516001600160a01b0385811660248301528481166044830152606480830185905283518084039091018152608490920183526020820180516001600160e01b03166323b872dd60e01b178152925182516000948594938a169392918291908083835b60208310611b7b5780518252601f199092019160209182019101611b5c565b6001836020036101000a0380198251168184511680821785525050505050509050019150506000604051808303816000865af19150503d8060008114611bdd576040519150601f19603f3d011682016040523d82523d6000602084013e611be2565b606091505b5091509150818015611c10575080511580611c105750808060200190516020811015611c0d57600080fd5b50515b610555576040805162461bcd60e51b815260206004820152600360248201526229aa2360e91b604482015290519081900360640190fd5b6000611c538383611d0a565b611c8957508154600181810184556000848152602080822090930184905584548482528286019093526040902091909155610dad565b506000610dad565b6000610daa836001600160a01b038416611d26565b81546000908210611ce85760405162461bcd60e51b81526004018080602001828103825260228152602001806127586022913960400191505060405180910390fd5b826000018281548110611cf757fe5b9060005260206000200154905092915050565b60009081526001919091016020526040902054151590565b5490565b60008181526001830160205260408120548015611de25783546000198083019190810190600090879083908110611d5957fe5b9060005260206000200154905080876000018481548110611d7657fe5b600091825260208083209091019290925582815260018981019092526040902090840190558654879080611da657fe5b60019003818190600052602060002001600090559055866001016000878152602001908152602001600020600090556001945050505050610dad565b6000915050610dad565b80516105708161270a565b805161057081612722565b805161057081612731565b805161057081612746565b60008060408385031215611e2a578182fd5b8235611e358161270a565b91506020830135611e458161270a565b809150509250929050565b60008060008060008060008060006101208a8c031215611e6e578485fd5b8935611e798161270a565b985060208a0135611e898161270a565b975060408a0135611e9981612746565b965060608a0135611ea981612722565b955060808a0135611eb981612722565b989b979a50959894979660a0860135965060c08601359560e0810135955061010001359350915050565b60008060008060008060c08789031215611efb578182fd5b8635611f068161270a565b95506020870135611f168161270a565b94506040870135611f2681612746565b9350606087013592506080870135915060a0870135611f448161270a565b809150509295509295509295565b600080600060608486031215611f66578283fd5b8335611f718161270a565b92506020840135611f818161270a565b929592945050506040919091013590565b600080600080600060808688031215611fa9578081fd5b8535611fb48161270a565b94506020860135611fc48161270a565b935060408601359250606086013567ffffffffffffffff80821115611fe7578283fd5b818801915088601f830112611ffa578283fd5b813581811115612008578384fd5b896020828501011115612019578384fd5b9699959850939650602001949392505050565b60008060008060808587031215612041578384fd5b843561204c8161270a565b9350602085013561205c8161270a565b93969395505050506040820135916060013590565b600060208284031215612082578081fd5b5035919050565b6000806040838503121561209b578182fd5b823591506020830135611e458161270a565b600080604083850312156120bf578182fd5b50508035926020909101359150565b6000806000606084860312156120e2578081fd5b83516120ed81612731565b602085015160409095015190969495509392505050565b600060208284031215612115578081fd5b5051919050565b6000806040838503121561212e578182fd5b8235915060208301358015158114611e45578182fd5b60008060008060808587031215612159578182fd5b84359350602085013561205c81612731565b60008060008060808587031215612180578182fd5b84519350602085015161219281612731565b6040860151606090960151949790965092505050565b600080604083850312156121ba578182fd5b505080516020909101519092909150565b6000806000606084860312156121df578081fd5b505081359360208301359350604090920135919050565b600080600080600060a0868803121561220d578283fd5b505083359560208501359550604085013594606081013594506080013592509050565b6000806000806000806000806000806000806101808d8f031215612252578586fd5b8c516bffffffffffffffffffffffff8116811461226d578687fd5b9b5061227b60208e01611dec565b9a5061228960408e01611dec565b995061229760608e01611dec565b98506122a560808e01611e0d565b97506122b360a08e01611df7565b96506122c160c08e01611df7565b95506122cf60e08e01611e02565b94506101008d015193506101208d015192506122ee6101408e01611e02565b91506122fd6101608e01611e02565b90509295989b509295989b509295989b565b6001600160a01b03169052565b60020b9052565b80516001600160a01b03908116835260208083015182169084015260408083015162ffffff16908401526060808301518216908401526080808301519084015260a0828101519084015260c0808301519084015260e09182015116910152565b62ffffff169052565b6001600160a01b0391909116815260200190565b6001600160a01b03958616815293909416602084015262ffffff919091166040830152600290810b60608301529190910b608082015260a00190565b6001600160a01b039384168152919092166020820152604081019190915260600190565b6001600160a01b0394851681529290931660208301526040820152606081019190915260800190565b901515815260200190565b90815260200190565b6001600160e01b031991909116815260200190565b602080825260099082015268139bdd0813dddb995960ba1b604082015260600190565b6020808252601390820152722737ba1020b236b4b727b922bc32b1baba37b960691b604082015260600190565b6020808252600990820152682737ba1020b236b4b760b91b604082015260600190565b815181526020808301516001600160a01b0316908201526040808301516001600160801b0390811691830191909152606092830151169181019190915260800190565b600060a082019050825182526001600160801b03602084015116602083015260408301516040830152606083015160608301526080830151608083015292915050565b6101008101610dad8284612323565b600060c082019050825182526020830151602083015260408301516040830152606083015160608301526080830151608083015260a083015160a083015292915050565b6000610160820190506125b282845161230f565b60208301516125c4602084018261230f565b5060408301516125d76040840182612383565b5060608301516125ea606084018261231c565b5060808301516125fd608084018261231c565b5060a083015160a083015260c083015160c083015260e083015160e08301526101008084015181840152506101208084015161263b8285018261230f565b505061014092830151919092015290565b6001600160801b039390931683526020830191909152604082015260600190565b9384526001600160a01b0392831660208501529116604083015262ffffff16606082015260800190565b9384526001600160801b039290921660208401526040830152606082015260800190565b918252602082015260400190565b938452602084019290925260408301521515606082015260800190565b938452602084019290925260408301526001600160801b0316606082015260800190565b6001600160a01b038116811461271f57600080fd5b50565b8060020b811461271f57600080fd5b6001600160801b038116811461271f57600080fd5b62ffffff8116811461271f57600080fdfe456e756d657261626c655365743a20696e646578206f7574206f6620626f756e6473416363657373436f6e74726f6c3a2073656e646572206d75737420626520616e2061646d696e20746f206772616e74416363657373436f6e74726f6c3a2073656e646572206d75737420626520616e2061646d696e20746f207265766f6b65d8aa0f3194971a2a116679f7c2090f6939c8d4e01a2a8d7e41d55e5351469e63a49807205ce4d355092ef5a8a18f56e8913cf4a201fbe287825b095693c21775416363657373436f6e74726f6c3a2063616e206f6e6c792072656e6f756e636520726f6c657320666f722073656c66a2646970667358221220f373cab0e3645c13db140dbb957d97e9e2ed94029622bb2d313e7ed524711cbd64736f6c63430007060033d8aa0f3194971a2a116679f7c2090f6939c8d4e01a2a8d7e41d55e5351469e63a49807205ce4d355092ef5a8a18f56e8913cf4a201fbe287825b095693c21775",
  "linkReferences": {},
  "deployedLinkReferences": {}
}