{
	"contracts/LiquidityController.sol": {
		"LiquidityController": {
			"abi": [
				{
					"inputs": [
						{
							"internalType": "contract INonfungiblePositionManager",
							"name": "_nonfungiblePositionManager",
							"type": "address"
						},
						{
							"internalType": "contract ISwapRouter",
							"name": "_swapRouter",
							"type": "address"
						},
						{
							"internalType": "address",
							"name": "_admin",
							"type": "address"
						},
						{
							"internalType": "address",
							"name": "_exec",
							"type": "address"
						}
					],
					"stateMutability": "nonpayable",
					"type": "constructor"
				},
				{
					"anonymous": false,
					"inputs": [
						{
							"indexed": false,
							"internalType": "uint256",
							"name": "tokenId",
							"type": "uint256"
						},
						{
							"indexed": false,
							"internalType": "uint256",
							"name": "amount0",
							"type": "uint256"
						},
						{
							"indexed": false,
							"internalType": "uint256",
							"name": "amount1",
							"type": "uint256"
						},
						{
							"indexed": false,
							"internalType": "bool",
							"name": "withdrawal",
							"type": "bool"
						}
					],
					"name": "CollectedFees",
					"type": "event"
				},
				{
					"anonymous": false,
					"inputs": [
						{
							"indexed": false,
							"internalType": "uint256",
							"name": "tokenId",
							"type": "uint256"
						},
						{
							"indexed": false,
							"internalType": "uint256",
							"name": "amount0",
							"type": "uint256"
						},
						{
							"indexed": false,
							"internalType": "uint256",
							"name": "amount1",
							"type": "uint256"
						},
						{
							"indexed": false,
							"internalType": "uint256",
							"name": "liquidity",
							"type": "uint256"
						}
					],
					"name": "LiquidityDecreased",
					"type": "event"
				},
				{
					"anonymous": false,
					"inputs": [
						{
							"indexed": false,
							"internalType": "uint256",
							"name": "tokenId",
							"type": "uint256"
						},
						{
							"indexed": false,
							"internalType": "uint256",
							"name": "amount0",
							"type": "uint256"
						},
						{
							"indexed": false,
							"internalType": "uint256",
							"name": "amount1",
							"type": "uint256"
						},
						{
							"indexed": false,
							"internalType": "uint256",
							"name": "liquidity",
							"type": "uint256"
						}
					],
					"name": "LiquidityIncreased",
					"type": "event"
				},
				{
					"anonymous": false,
					"inputs": [
						{
							"indexed": false,
							"internalType": "uint256",
							"name": "tokenId",
							"type": "uint256"
						},
						{
							"indexed": false,
							"internalType": "address",
							"name": "token0",
							"type": "address"
						},
						{
							"indexed": false,
							"internalType": "address",
							"name": "token1",
							"type": "address"
						},
						{
							"indexed": false,
							"internalType": "uint24",
							"name": "fee",
							"type": "uint24"
						}
					],
					"name": "NewDeposit",
					"type": "event"
				},
				{
					"anonymous": false,
					"inputs": [
						{
							"indexed": true,
							"internalType": "bytes32",
							"name": "role",
							"type": "bytes32"
						},
						{
							"indexed": true,
							"internalType": "bytes32",
							"name": "previousAdminRole",
							"type": "bytes32"
						},
						{
							"indexed": true,
							"internalType": "bytes32",
							"name": "newAdminRole",
							"type": "bytes32"
						}
					],
					"name": "RoleAdminChanged",
					"type": "event"
				},
				{
					"anonymous": false,
					"inputs": [
						{
							"indexed": true,
							"internalType": "bytes32",
							"name": "role",
							"type": "bytes32"
						},
						{
							"indexed": true,
							"internalType": "address",
							"name": "account",
							"type": "address"
						},
						{
							"indexed": true,
							"internalType": "address",
							"name": "sender",
							"type": "address"
						}
					],
					"name": "RoleGranted",
					"type": "event"
				},
				{
					"anonymous": false,
					"inputs": [
						{
							"indexed": true,
							"internalType": "bytes32",
							"name": "role",
							"type": "bytes32"
						},
						{
							"indexed": true,
							"internalType": "address",
							"name": "account",
							"type": "address"
						},
						{
							"indexed": true,
							"internalType": "address",
							"name": "sender",
							"type": "address"
						}
					],
					"name": "RoleRevoked",
					"type": "event"
				},
				{
					"anonymous": false,
					"inputs": [
						{
							"indexed": false,
							"internalType": "address",
							"name": "tokenIn",
							"type": "address"
						},
						{
							"indexed": false,
							"internalType": "address",
							"name": "tokenOut",
							"type": "address"
						},
						{
							"indexed": false,
							"internalType": "uint256",
							"name": "amountIn",
							"type": "uint256"
						},
						{
							"indexed": false,
							"internalType": "uint256",
							"name": "amountOut",
							"type": "uint256"
						}
					],
					"name": "TokenSwap",
					"type": "event"
				},
				{
					"inputs": [],
					"name": "ADMIN_ROLE",
					"outputs": [
						{
							"internalType": "bytes32",
							"name": "",
							"type": "bytes32"
						}
					],
					"stateMutability": "view",
					"type": "function"
				},
				{
					"inputs": [],
					"name": "DEFAULT_ADMIN_ROLE",
					"outputs": [
						{
							"internalType": "bytes32",
							"name": "",
							"type": "bytes32"
						}
					],
					"stateMutability": "view",
					"type": "function"
				},
				{
					"inputs": [],
					"name": "EXECUTOR_ROLE",
					"outputs": [
						{
							"internalType": "bytes32",
							"name": "",
							"type": "bytes32"
						}
					],
					"stateMutability": "view",
					"type": "function"
				},
				{
					"inputs": [
						{
							"internalType": "address",
							"name": "token",
							"type": "address"
						},
						{
							"internalType": "address",
							"name": "to",
							"type": "address"
						},
						{
							"internalType": "uint256",
							"name": "amount",
							"type": "uint256"
						}
					],
					"name": "approve",
					"outputs": [],
					"stateMutability": "nonpayable",
					"type": "function"
				},
				{
					"inputs": [
						{
							"internalType": "address",
							"name": "token0",
							"type": "address"
						},
						{
							"internalType": "address",
							"name": "token1",
							"type": "address"
						}
					],
					"name": "approveInfinity",
					"outputs": [],
					"stateMutability": "nonpayable",
					"type": "function"
				},
				{
					"inputs": [
						{
							"internalType": "address",
							"name": "token0",
							"type": "address"
						},
						{
							"internalType": "address",
							"name": "token1",
							"type": "address"
						},
						{
							"internalType": "uint256",
							"name": "amount0",
							"type": "uint256"
						},
						{
							"internalType": "uint256",
							"name": "amount1",
							"type": "uint256"
						}
					],
					"name": "approveManager",
					"outputs": [],
					"stateMutability": "nonpayable",
					"type": "function"
				},
				{
					"inputs": [
						{
							"internalType": "address",
							"name": "token0",
							"type": "address"
						},
						{
							"internalType": "address",
							"name": "token1",
							"type": "address"
						},
						{
							"internalType": "uint256",
							"name": "amount0",
							"type": "uint256"
						},
						{
							"internalType": "uint256",
							"name": "amount1",
							"type": "uint256"
						}
					],
					"name": "approveRouter",
					"outputs": [],
					"stateMutability": "nonpayable",
					"type": "function"
				},
				{
					"inputs": [
						{
							"internalType": "uint256",
							"name": "tokenId",
							"type": "uint256"
						},
						{
							"internalType": "bool",
							"name": "withdraw",
							"type": "bool"
						}
					],
					"name": "collectFees",
					"outputs": [
						{
							"internalType": "uint256",
							"name": "amount0",
							"type": "uint256"
						},
						{
							"internalType": "uint256",
							"name": "amount1",
							"type": "uint256"
						}
					],
					"stateMutability": "nonpayable",
					"type": "function"
				},
				{
					"inputs": [
						{
							"internalType": "uint256",
							"name": "tokenId",
							"type": "uint256"
						},
						{
							"internalType": "uint128",
							"name": "liquidity",
							"type": "uint128"
						},
						{
							"internalType": "uint256",
							"name": "amount0Min",
							"type": "uint256"
						},
						{
							"internalType": "uint256",
							"name": "amount1Min",
							"type": "uint256"
						}
					],
					"name": "decreaseLiquidity",
					"outputs": [
						{
							"internalType": "uint256",
							"name": "amount0",
							"type": "uint256"
						},
						{
							"internalType": "uint256",
							"name": "amount1",
							"type": "uint256"
						}
					],
					"stateMutability": "nonpayable",
					"type": "function"
				},
				{
					"inputs": [
						{
							"internalType": "uint256",
							"name": "",
							"type": "uint256"
						}
					],
					"name": "deposits",
					"outputs": [
						{
							"internalType": "address",
							"name": "token0",
							"type": "address"
						},
						{
							"internalType": "address",
							"name": "token1",
							"type": "address"
						},
						{
							"internalType": "uint24",
							"name": "fee",
							"type": "uint24"
						},
						{
							"internalType": "int24",
							"name": "tickLower",
							"type": "int24"
						},
						{
							"internalType": "int24",
							"name": "tickUpper",
							"type": "int24"
						}
					],
					"stateMutability": "view",
					"type": "function"
				},
				{
					"inputs": [
						{
							"internalType": "bytes32",
							"name": "role",
							"type": "bytes32"
						}
					],
					"name": "getRoleAdmin",
					"outputs": [
						{
							"internalType": "bytes32",
							"name": "",
							"type": "bytes32"
						}
					],
					"stateMutability": "view",
					"type": "function"
				},
				{
					"inputs": [
						{
							"internalType": "bytes32",
							"name": "role",
							"type": "bytes32"
						},
						{
							"internalType": "uint256",
							"name": "index",
							"type": "uint256"
						}
					],
					"name": "getRoleMember",
					"outputs": [
						{
							"internalType": "address",
							"name": "",
							"type": "address"
						}
					],
					"stateMutability": "view",
					"type": "function"
				},
				{
					"inputs": [
						{
							"internalType": "bytes32",
							"name": "role",
							"type": "bytes32"
						}
					],
					"name": "getRoleMemberCount",
					"outputs": [
						{
							"internalType": "uint256",
							"name": "",
							"type": "uint256"
						}
					],
					"stateMutability": "view",
					"type": "function"
				},
				{
					"inputs": [
						{
							"internalType": "bytes32",
							"name": "role",
							"type": "bytes32"
						},
						{
							"internalType": "address",
							"name": "account",
							"type": "address"
						}
					],
					"name": "grantRole",
					"outputs": [],
					"stateMutability": "nonpayable",
					"type": "function"
				},
				{
					"inputs": [
						{
							"internalType": "bytes32",
							"name": "role",
							"type": "bytes32"
						},
						{
							"internalType": "address",
							"name": "account",
							"type": "address"
						}
					],
					"name": "hasRole",
					"outputs": [
						{
							"internalType": "bool",
							"name": "",
							"type": "bool"
						}
					],
					"stateMutability": "view",
					"type": "function"
				},
				{
					"inputs": [
						{
							"internalType": "uint256",
							"name": "tokenId",
							"type": "uint256"
						},
						{
							"internalType": "uint256",
							"name": "amount0Desired",
							"type": "uint256"
						},
						{
							"internalType": "uint256",
							"name": "amount1Desired",
							"type": "uint256"
						},
						{
							"internalType": "uint256",
							"name": "amount0Min",
							"type": "uint256"
						},
						{
							"internalType": "uint256",
							"name": "amount1Min",
							"type": "uint256"
						}
					],
					"name": "increaseLiquidity",
					"outputs": [
						{
							"internalType": "uint128",
							"name": "liquidity",
							"type": "uint128"
						},
						{
							"internalType": "uint256",
							"name": "amount0",
							"type": "uint256"
						},
						{
							"internalType": "uint256",
							"name": "amount1",
							"type": "uint256"
						}
					],
					"stateMutability": "nonpayable",
					"type": "function"
				},
				{
					"inputs": [
						{
							"internalType": "address",
							"name": "token0",
							"type": "address"
						},
						{
							"internalType": "address",
							"name": "token1",
							"type": "address"
						},
						{
							"internalType": "uint24",
							"name": "fee",
							"type": "uint24"
						},
						{
							"internalType": "int24",
							"name": "tickLower",
							"type": "int24"
						},
						{
							"internalType": "int24",
							"name": "tickUpper",
							"type": "int24"
						},
						{
							"internalType": "uint256",
							"name": "amount0Desired",
							"type": "uint256"
						},
						{
							"internalType": "uint256",
							"name": "amount1Desired",
							"type": "uint256"
						},
						{
							"internalType": "uint256",
							"name": "amount0Min",
							"type": "uint256"
						},
						{
							"internalType": "uint256",
							"name": "amount1Min",
							"type": "uint256"
						}
					],
					"name": "mintNewPosition",
					"outputs": [
						{
							"internalType": "uint256",
							"name": "tokenId",
							"type": "uint256"
						},
						{
							"internalType": "uint128",
							"name": "liquidity",
							"type": "uint128"
						},
						{
							"internalType": "uint256",
							"name": "amount0",
							"type": "uint256"
						},
						{
							"internalType": "uint256",
							"name": "amount1",
							"type": "uint256"
						}
					],
					"stateMutability": "nonpayable",
					"type": "function"
				},
				{
					"inputs": [],
					"name": "nonfungiblePositionManager",
					"outputs": [
						{
							"internalType": "contract INonfungiblePositionManager",
							"name": "",
							"type": "address"
						}
					],
					"stateMutability": "view",
					"type": "function"
				},
				{
					"inputs": [
						{
							"internalType": "address",
							"name": "",
							"type": "address"
						},
						{
							"internalType": "address",
							"name": "",
							"type": "address"
						},
						{
							"internalType": "uint256",
							"name": "tokenId",
							"type": "uint256"
						},
						{
							"internalType": "bytes",
							"name": "",
							"type": "bytes"
						}
					],
					"name": "onERC721Received",
					"outputs": [
						{
							"internalType": "bytes4",
							"name": "",
							"type": "bytes4"
						}
					],
					"stateMutability": "nonpayable",
					"type": "function"
				},
				{
					"inputs": [
						{
							"internalType": "uint256",
							"name": "tokenId",
							"type": "uint256"
						},
						{
							"internalType": "address",
							"name": "to",
							"type": "address"
						}
					],
					"name": "redeemNFT",
					"outputs": [],
					"stateMutability": "nonpayable",
					"type": "function"
				},
				{
					"inputs": [
						{
							"internalType": "address",
							"name": "toTransfer",
							"type": "address"
						},
						{
							"internalType": "address",
							"name": "to",
							"type": "address"
						}
					],
					"name": "redeemOwnership",
					"outputs": [],
					"stateMutability": "nonpayable",
					"type": "function"
				},
				{
					"inputs": [
						{
							"internalType": "address",
							"name": "token",
							"type": "address"
						},
						{
							"internalType": "address",
							"name": "to",
							"type": "address"
						},
						{
							"internalType": "uint256",
							"name": "value",
							"type": "uint256"
						}
					],
					"name": "redeemToken",
					"outputs": [],
					"stateMutability": "nonpayable",
					"type": "function"
				},
				{
					"inputs": [
						{
							"internalType": "bytes32",
							"name": "role",
							"type": "bytes32"
						},
						{
							"internalType": "address",
							"name": "account",
							"type": "address"
						}
					],
					"name": "renounceRole",
					"outputs": [],
					"stateMutability": "nonpayable",
					"type": "function"
				},
				{
					"inputs": [
						{
							"internalType": "bytes32",
							"name": "role",
							"type": "bytes32"
						},
						{
							"internalType": "address",
							"name": "account",
							"type": "address"
						}
					],
					"name": "revokeRole",
					"outputs": [],
					"stateMutability": "nonpayable",
					"type": "function"
				},
				{
					"inputs": [
						{
							"internalType": "address",
							"name": "tkn0",
							"type": "address"
						},
						{
							"internalType": "address",
							"name": "tkn1",
							"type": "address"
						},
						{
							"internalType": "uint24",
							"name": "fee",
							"type": "uint24"
						},
						{
							"internalType": "uint256",
							"name": "amountIn",
							"type": "uint256"
						},
						{
							"internalType": "uint256",
							"name": "amountOutMinimum",
							"type": "uint256"
						},
						{
							"internalType": "uint160",
							"name": "sqrtPriceLimitX96",
							"type": "uint160"
						}
					],
					"name": "swapExactInputSingle",
					"outputs": [
						{
							"internalType": "uint256",
							"name": "amountOut",
							"type": "uint256"
						}
					],
					"stateMutability": "nonpayable",
					"type": "function"
				},
				{
					"inputs": [
						{
							"internalType": "address",
							"name": "tkn0",
							"type": "address"
						},
						{
							"internalType": "address",
							"name": "tkn1",
							"type": "address"
						},
						{
							"internalType": "uint24",
							"name": "fee",
							"type": "uint24"
						},
						{
							"internalType": "uint256",
							"name": "amountOut",
							"type": "uint256"
						},
						{
							"internalType": "uint256",
							"name": "amountInMaximum",
							"type": "uint256"
						},
						{
							"internalType": "uint160",
							"name": "sqrtPriceLimitX96",
							"type": "uint160"
						}
					],
					"name": "swapExactOutputSingle",
					"outputs": [
						{
							"internalType": "uint256",
							"name": "amountIn",
							"type": "uint256"
						}
					],
					"stateMutability": "nonpayable",
					"type": "function"
				},
				{
					"inputs": [],
					"name": "swapRouter",
					"outputs": [
						{
							"internalType": "contract ISwapRouter",
							"name": "",
							"type": "address"
						}
					],
					"stateMutability": "view",
					"type": "function"
				},
				{
					"inputs": [
						{
							"internalType": "uint256",
							"name": "tokenId",
							"type": "uint256"
						},
						{
							"internalType": "uint256",
							"name": "amount0",
							"type": "uint256"
						},
						{
							"internalType": "uint256",
							"name": "amount1",
							"type": "uint256"
						}
					],
					"name": "transferForDeposit",
					"outputs": [],
					"stateMutability": "nonpayable",
					"type": "function"
				},
				{
					"inputs": [
						{
							"internalType": "address",
							"name": "token0",
							"type": "address"
						},
						{
							"internalType": "address",
							"name": "token1",
							"type": "address"
						},
						{
							"internalType": "uint256",
							"name": "amount0",
							"type": "uint256"
						},
						{
							"internalType": "uint256",
							"name": "amount1",
							"type": "uint256"
						}
					],
					"name": "transferForTokens",
					"outputs": [],
					"stateMutability": "nonpayable",
					"type": "function"
				}
			],
			"devdoc": {
				"kind": "dev",
				"methods": {
					"getRoleAdmin(bytes32)": {
						"details": "Returns the admin role that controls `role`. See {grantRole} and {revokeRole}. To change a role's admin, use {_setRoleAdmin}."
					},
					"getRoleMember(bytes32,uint256)": {
						"details": "Returns one of the accounts that have `role`. `index` must be a value between 0 and {getRoleMemberCount}, non-inclusive. Role bearers are not sorted in any particular way, and their ordering may change at any point. WARNING: When using {getRoleMember} and {getRoleMemberCount}, make sure you perform all queries on the same block. See the following https://forum.openzeppelin.com/t/iterating-over-elements-on-enumerableset-in-openzeppelin-contracts/2296[forum post] for more information."
					},
					"getRoleMemberCount(bytes32)": {
						"details": "Returns the number of accounts that have `role`. Can be used together with {getRoleMember} to enumerate all bearers of a role."
					},
					"grantRole(bytes32,address)": {
						"details": "Grants `role` to `account`. If `account` had not been already granted `role`, emits a {RoleGranted} event. Requirements: - the caller must have ``role``'s admin role."
					},
					"hasRole(bytes32,address)": {
						"details": "Returns `true` if `account` has been granted `role`."
					},
					"renounceRole(bytes32,address)": {
						"details": "Revokes `role` from the calling account. Roles are often managed via {grantRole} and {revokeRole}: this function's purpose is to provide a mechanism for accounts to lose their privileges if they are compromised (such as when a trusted device is misplaced). If the calling account had been granted `role`, emits a {RoleRevoked} event. Requirements: - the caller must be `account`."
					},
					"revokeRole(bytes32,address)": {
						"details": "Revokes `role` from `account`. If `account` had been granted `role`, emits a {RoleRevoked} event. Requirements: - the caller must have ``role``'s admin role."
					}
				},
				"version": 1
			},
			"evm": {
				"assembly": "    /* \"contracts/LiquidityController.sol\":482:11034  contract LiquidityController is IERC721Receiver, AccessControl {... */\n  mstore(0x40, 0xc0)\n    /* \"contracts/LiquidityController.sol\":2100:2485  constructor(... */\n  callvalue\n  dup1\n  iszero\n  tag_1\n  jumpi\n  0x00\n  dup1\n  revert\ntag_1:\n  pop\n  mload(0x40)\n  sub(codesize, bytecodeSize)\n  dup1\n  bytecodeSize\n  dup4\n  codecopy\n  dup2\n  add\n  0x40\n  dup2\n  swap1\n  mstore\n  tag_2\n  swap2\n  tag_3\n  jump\t// in\ntag_2:\n  not(sub(shl(0x60, 0x01), 0x01))\n    /* \"contracts/LiquidityController.sol\":2240:2296  nonfungiblePositionManager = _nonfungiblePositionManager */\n  0x60\n  dup6\n  dup2\n  shl\n  dup3\n  and\n  0x80\n  mstore\n    /* \"contracts/LiquidityController.sol\":2300:2324  swapRouter = _swapRouter */\n  dup5\n  swap1\n  shl\n  and\n  0xa0\n  mstore\n    /* \"contracts/LiquidityController.sol\":2329:2366  _setRoleAdmin(ADMIN_ROLE, ADMIN_ROLE) */\n  tag_6\n  0x00\n  dup1\n  mload\n  0x20\n  data_cb864c43dd5d441bb6271f424f11befa622c032dfd374d226e26fbbdb782b8f8\n  dup4\n  codecopy\n  dup2\n  mload\n  swap2\n  mstore\n    /* \"contracts/LiquidityController.sol\":585:608  keccak256('ADMIN_ROLE') */\n  dup1\n    /* \"contracts/LiquidityController.sol\":2329:2342  _setRoleAdmin */\n  tag_7\n    /* \"contracts/LiquidityController.sol\":2329:2366  _setRoleAdmin(ADMIN_ROLE, ADMIN_ROLE) */\n  jump\t// in\ntag_6:\n    /* \"contracts/LiquidityController.sol\":2370:2410  _setRoleAdmin(EXECUTOR_ROLE, ADMIN_ROLE) */\n  tag_8\n  0x00\n  dup1\n  mload\n  0x20\n  data_c690ee39c61cd2467ca78047546d7d01e837eb538ab70dac257590f3599b654a\n  dup4\n  codecopy\n  dup2\n  mload\n  swap2\n  mstore\n  0x00\n  dup1\n  mload\n  0x20\n  data_cb864c43dd5d441bb6271f424f11befa622c032dfd374d226e26fbbdb782b8f8\n  dup4\n  codecopy\n  dup2\n  mload\n  swap2\n  mstore\n    /* \"contracts/LiquidityController.sol\":2370:2383  _setRoleAdmin */\n  tag_7\n    /* \"contracts/LiquidityController.sol\":2370:2410  _setRoleAdmin(EXECUTOR_ROLE, ADMIN_ROLE) */\n  jump\t// in\ntag_8:\n    /* \"contracts/LiquidityController.sol\":2415:2445  _setupRole(ADMIN_ROLE, _admin) */\n  tag_9\n  0x00\n  dup1\n  mload\n  0x20\n  data_cb864c43dd5d441bb6271f424f11befa622c032dfd374d226e26fbbdb782b8f8\n  dup4\n  codecopy\n  dup2\n  mload\n  swap2\n  mstore\n    /* \"contracts/LiquidityController.sol\":2438:2444  _admin */\n  dup4\n    /* \"contracts/LiquidityController.sol\":2415:2425  _setupRole */\n  tag_10\n    /* \"contracts/LiquidityController.sol\":2415:2445  _setupRole(ADMIN_ROLE, _admin) */\n  jump\t// in\ntag_9:\n    /* \"contracts/LiquidityController.sol\":2449:2481  _setupRole(EXECUTOR_ROLE, _exec) */\n  tag_11\n  0x00\n  dup1\n  mload\n  0x20\n  data_c690ee39c61cd2467ca78047546d7d01e837eb538ab70dac257590f3599b654a\n  dup4\n  codecopy\n  dup2\n  mload\n  swap2\n  mstore\n    /* \"contracts/LiquidityController.sol\":2475:2480  _exec */\n  dup3\n    /* \"contracts/LiquidityController.sol\":2449:2459  _setupRole */\n  tag_10\n    /* \"contracts/LiquidityController.sol\":2449:2481  _setupRole(EXECUTOR_ROLE, _exec) */\n  jump\t// in\ntag_11:\n    /* \"contracts/LiquidityController.sol\":2100:2485  constructor(... */\n  pop\n  pop\n  pop\n  pop\n    /* \"contracts/LiquidityController.sol\":482:11034  contract LiquidityController is IERC721Receiver, AccessControl {... */\n  jump(tag_34)\n    /* \"@openzeppelin/contracts/access/AccessControl.sol\":6823:7019  function _setRoleAdmin(bytes32 role, bytes32 adminRole) internal virtual {... */\ntag_7:\n    /* \"@openzeppelin/contracts/access/AccessControl.sol\":6934:6940  _roles */\n  0x00\n    /* \"@openzeppelin/contracts/access/AccessControl.sol\":6934:6946  _roles[role] */\n  dup3\n  dup2\n  mstore\n  0x20\n  dup2\n  swap1\n  mstore\n  0x40\n  dup1\n  dup3\n  keccak256\n    /* \"@openzeppelin/contracts/access/AccessControl.sol\":6934:6956  _roles[role].adminRole */\n  0x02\n  add\n  sload\n    /* \"@openzeppelin/contracts/access/AccessControl.sol\":6911:6968  RoleAdminChanged(role, _roles[role].adminRole, adminRole) */\n  swap1\n  mload\n    /* \"@openzeppelin/contracts/access/AccessControl.sol\":6958:6967  adminRole */\n  dup4\n  swap3\n    /* \"@openzeppelin/contracts/access/AccessControl.sol\":6941:6945  role */\n  dup6\n  swap2\n    /* \"@openzeppelin/contracts/access/AccessControl.sol\":6911:6968  RoleAdminChanged(role, _roles[role].adminRole, adminRole) */\n  0xbd79b86ffe0ab8e8776151514217cd7cacd52c909f66475c3af44e129f0b00ff\n  swap2\n    /* \"@openzeppelin/contracts/access/AccessControl.sol\":6934:6940  _roles */\n  swap1\n    /* \"@openzeppelin/contracts/access/AccessControl.sol\":6911:6968  RoleAdminChanged(role, _roles[role].adminRole, adminRole) */\n  log4\n    /* \"@openzeppelin/contracts/access/AccessControl.sol\":6978:6984  _roles */\n  0x00\n    /* \"@openzeppelin/contracts/access/AccessControl.sol\":6978:6990  _roles[role] */\n  swap2\n  dup3\n  mstore\n  0x20\n  dup3\n  swap1\n  mstore\n  0x40\n  swap1\n  swap2\n  keccak256\n    /* \"@openzeppelin/contracts/access/AccessControl.sol\":6978:7000  _roles[role].adminRole */\n  0x02\n  add\n    /* \"@openzeppelin/contracts/access/AccessControl.sol\":6978:7012  _roles[role].adminRole = adminRole */\n  sstore\n    /* \"@openzeppelin/contracts/access/AccessControl.sol\":6823:7019  function _setRoleAdmin(bytes32 role, bytes32 adminRole) internal virtual {... */\n  jump\t// out\n    /* \"@openzeppelin/contracts/access/AccessControl.sol\":6588:6698  function _setupRole(bytes32 role, address account) internal virtual {... */\ntag_10:\n    /* \"@openzeppelin/contracts/access/AccessControl.sol\":6666:6691  _grantRole(role, account) */\n  tag_15\n    /* \"@openzeppelin/contracts/access/AccessControl.sol\":6677:6681  role */\n  dup3\n    /* \"@openzeppelin/contracts/access/AccessControl.sol\":6683:6690  account */\n  dup3\n    /* \"@openzeppelin/contracts/access/AccessControl.sol\":6666:6676  _grantRole */\n  tag_16\n    /* \"@openzeppelin/contracts/access/AccessControl.sol\":6666:6691  _grantRole(role, account) */\n  jump\t// in\ntag_15:\n    /* \"@openzeppelin/contracts/access/AccessControl.sol\":6588:6698  function _setupRole(bytes32 role, address account) internal virtual {... */\n  pop\n  pop\n  jump\t// out\n    /* \"@openzeppelin/contracts/access/AccessControl.sol\":7025:7209  function _grantRole(bytes32 role, address account) private {... */\ntag_16:\n    /* \"@openzeppelin/contracts/access/AccessControl.sol\":7098:7104  _roles */\n  0x00\n    /* \"@openzeppelin/contracts/access/AccessControl.sol\":7098:7110  _roles[role] */\n  dup3\n  dup2\n  mstore\n  0x20\n  dup2\n  dup2\n  mstore\n  0x40\n  swap1\n  swap2\n  keccak256\n    /* \"@openzeppelin/contracts/access/AccessControl.sol\":7098:7131  _roles[role].members.add(account) */\n  tag_18\n  swap2\n    /* \"@openzeppelin/contracts/access/AccessControl.sol\":7123:7130  account */\n  dup4\n  swap1\n    /* \"@openzeppelin/contracts/access/AccessControl.sol\":7098:7122  _roles[role].members.add */\n  tag_0_164\n  tag_19\n  dup3\n  shl\n  or\n    /* \"@openzeppelin/contracts/access/AccessControl.sol\":7098:7131  _roles[role].members.add(account) */\n  swap1\n  shr\n  jump\t// in\ntag_18:\n    /* \"@openzeppelin/contracts/access/AccessControl.sol\":7094:7203  if (_roles[role].members.add(account)) {... */\n  iszero\n  tag_15\n  jumpi\n    /* \"@openzeppelin/contracts/access/AccessControl.sol\":7179:7191  _msgSender() */\n  tag_21\n    /* \"@openzeppelin/contracts/access/AccessControl.sol\":7179:7189  _msgSender */\n  tag_22\n    /* \"@openzeppelin/contracts/access/AccessControl.sol\":7179:7191  _msgSender() */\n  jump\t// in\ntag_21:\n  sub(shl(0xa0, 0x01), 0x01)\n    /* \"@openzeppelin/contracts/access/AccessControl.sol\":7152:7192  RoleGranted(role, account, _msgSender()) */\n  and\n    /* \"@openzeppelin/contracts/access/AccessControl.sol\":7170:7177  account */\n  dup2\n  sub(shl(0xa0, 0x01), 0x01)\n    /* \"@openzeppelin/contracts/access/AccessControl.sol\":7152:7192  RoleGranted(role, account, _msgSender()) */\n  and\n    /* \"@openzeppelin/contracts/access/AccessControl.sol\":7164:7168  role */\n  dup4\n    /* \"@openzeppelin/contracts/access/AccessControl.sol\":7152:7192  RoleGranted(role, account, _msgSender()) */\n  0x2f8788117e7eff1d82e926ec794901d17c78024a50270940304540a733656f0d\n  mload(0x40)\n  mload(0x40)\n  dup1\n  swap2\n  sub\n  swap1\n  log4\n    /* \"@openzeppelin/contracts/access/AccessControl.sol\":7025:7209  function _grantRole(bytes32 role, address account) private {... */\n  pop\n  pop\n  jump\t// out\n    /* \"@openzeppelin/contracts/utils/EnumerableSet.sol\":6429:6579  function add(AddressSet storage set, address value) internal returns (bool) {... */\ntag_19:\n    /* \"@openzeppelin/contracts/utils/EnumerableSet.sol\":6499:6503  bool */\n  0x00\n    /* \"@openzeppelin/contracts/utils/EnumerableSet.sol\":6522:6572  _add(set._inner, bytes32(uint256(uint160(value)))) */\n  tag_24\n    /* \"@openzeppelin/contracts/utils/EnumerableSet.sol\":6527:6530  set */\n  dup4\n  sub(shl(0xa0, 0x01), 0x01)\n    /* \"@openzeppelin/contracts/utils/EnumerableSet.sol\":6547:6570  uint256(uint160(value)) */\n  dup5\n  and\n    /* \"@openzeppelin/contracts/utils/EnumerableSet.sol\":6522:6526  _add */\n  tag_25\n    /* \"@openzeppelin/contracts/utils/EnumerableSet.sol\":6522:6572  _add(set._inner, bytes32(uint256(uint160(value)))) */\n  jump\t// in\ntag_24:\n    /* \"@openzeppelin/contracts/utils/EnumerableSet.sol\":6515:6572  return _add(set._inner, bytes32(uint256(uint160(value)))) */\n  swap1\n  pop\n    /* \"@openzeppelin/contracts/utils/EnumerableSet.sol\":6429:6579  function add(AddressSet storage set, address value) internal returns (bool) {... */\ntag_23:\n  swap3\n  swap2\n  pop\n  pop\n  jump\t// out\n    /* \"@openzeppelin/contracts/utils/Context.sol\":598:702  function _msgSender() internal view virtual returns (address payable) {... */\ntag_22:\n    /* \"@openzeppelin/contracts/utils/Context.sol\":685:695  msg.sender */\n  caller\n    /* \"@openzeppelin/contracts/utils/Context.sol\":598:702  function _msgSender() internal view virtual returns (address payable) {... */\n  swap1\n  jump\t// out\n    /* \"@openzeppelin/contracts/utils/EnumerableSet.sol\":1640:2044  function _add(Set storage set, bytes32 value) private returns (bool) {... */\ntag_25:\n    /* \"@openzeppelin/contracts/utils/EnumerableSet.sol\":1703:1707  bool */\n  0x00\n    /* \"@openzeppelin/contracts/utils/EnumerableSet.sol\":1724:1745  _contains(set, value) */\n  tag_28\n    /* \"@openzeppelin/contracts/utils/EnumerableSet.sol\":1734:1737  set */\n  dup4\n    /* \"@openzeppelin/contracts/utils/EnumerableSet.sol\":1739:1744  value */\n  dup4\n    /* \"@openzeppelin/contracts/utils/EnumerableSet.sol\":1724:1733  _contains */\n  tag_29\n    /* \"@openzeppelin/contracts/utils/EnumerableSet.sol\":1724:1745  _contains(set, value) */\n  jump\t// in\ntag_28:\n    /* \"@openzeppelin/contracts/utils/EnumerableSet.sol\":1719:2038  if (!_contains(set, value)) {... */\n  tag_30\n  jumpi\n  pop\n    /* \"@openzeppelin/contracts/utils/EnumerableSet.sol\":1761:1784  set._values.push(value) */\n  dup2\n  sload\n  0x01\n  dup2\n  dup2\n  add\n  dup5\n  sstore\n    /* \"@openzeppelin/contracts/utils/EnumerableSet.sol\":1761:1772  set._values */\n  0x00\n    /* \"@openzeppelin/contracts/utils/EnumerableSet.sol\":1761:1784  set._values.push(value) */\n  dup5\n  dup2\n  mstore\n  0x20\n  dup1\n  dup3\n  keccak256\n  swap1\n  swap4\n  add\n  dup5\n  swap1\n  sstore\n    /* \"@openzeppelin/contracts/utils/EnumerableSet.sol\":1941:1959  set._values.length */\n  dup5\n  sload\n    /* \"@openzeppelin/contracts/utils/EnumerableSet.sol\":1919:1938  set._indexes[value] */\n  dup5\n  dup3\n  mstore\n    /* \"@openzeppelin/contracts/utils/EnumerableSet.sol\":1919:1931  set._indexes */\n  dup3\n  dup7\n  add\n    /* \"@openzeppelin/contracts/utils/EnumerableSet.sol\":1919:1938  set._indexes[value] */\n  swap1\n  swap4\n  mstore\n  0x40\n  swap1\n  keccak256\n    /* \"@openzeppelin/contracts/utils/EnumerableSet.sol\":1919:1959  set._indexes[value] = set._values.length */\n  swap2\n  swap1\n  swap2\n  sstore\n    /* \"@openzeppelin/contracts/utils/EnumerableSet.sol\":1973:1984  return true */\n  jump(tag_23)\n    /* \"@openzeppelin/contracts/utils/EnumerableSet.sol\":1719:2038  if (!_contains(set, value)) {... */\ntag_30:\n  pop\n    /* \"@openzeppelin/contracts/utils/EnumerableSet.sol\":2022:2027  false */\n  0x00\n    /* \"@openzeppelin/contracts/utils/EnumerableSet.sol\":2015:2027  return false */\n  jump(tag_23)\n    /* \"@openzeppelin/contracts/utils/EnumerableSet.sol\":3805:3932  function _contains(Set storage set, bytes32 value) private view returns (bool) {... */\ntag_29:\n    /* \"@openzeppelin/contracts/utils/EnumerableSet.sol\":3878:3882  bool */\n  0x00\n    /* \"@openzeppelin/contracts/utils/EnumerableSet.sol\":3901:3920  set._indexes[value] */\n  swap1\n  dup2\n  mstore\n    /* \"@openzeppelin/contracts/utils/EnumerableSet.sol\":3901:3913  set._indexes */\n  0x01\n  swap2\n  swap1\n  swap2\n  add\n    /* \"@openzeppelin/contracts/utils/EnumerableSet.sol\":3901:3920  set._indexes[value] */\n  0x20\n  mstore\n  0x40\n  swap1\n  keccak256\n  sload\n    /* \"@openzeppelin/contracts/utils/EnumerableSet.sol\":3901:3925  set._indexes[value] != 0 */\n  iszero\n  iszero\n  swap1\n    /* \"@openzeppelin/contracts/utils/EnumerableSet.sol\":3805:3932  function _contains(Set storage set, bytes32 value) private view returns (bool) {... */\n  jump\t// out\n    /* \"#utility.yul\":14:742   */\ntag_3:\n  0x00\n  dup1\n  0x00\n  dup1\n    /* \"#utility.yul\":244:247   */\n  0x80\n    /* \"#utility.yul\":232:241   */\n  dup6\n    /* \"#utility.yul\":223:230   */\n  dup8\n    /* \"#utility.yul\":219:242   */\n  sub\n    /* \"#utility.yul\":215:248   */\n  slt\n    /* \"#utility.yul\":212:214   */\n  iszero\n  tag_36\n  jumpi\n    /* \"#utility.yul\":266:272   */\n  dup4\n    /* \"#utility.yul\":258:264   */\n  dup5\n    /* \"#utility.yul\":251:273   */\n  revert\n    /* \"#utility.yul\":212:214   */\ntag_36:\n    /* \"#utility.yul\":303:312   */\n  dup5\n    /* \"#utility.yul\":297:313   */\n  mload\n    /* \"#utility.yul\":322:355   */\n  tag_37\n    /* \"#utility.yul\":349:354   */\n  dup2\n    /* \"#utility.yul\":322:355   */\n  tag_38\n  jump\t// in\ntag_37:\n    /* \"#utility.yul\":424:426   */\n  0x20\n    /* \"#utility.yul\":409:427   */\n  dup7\n  add\n    /* \"#utility.yul\":403:428   */\n  mload\n    /* \"#utility.yul\":374:379   */\n  swap1\n  swap5\n  pop\n    /* \"#utility.yul\":437:472   */\n  tag_39\n    /* \"#utility.yul\":403:428   */\n  dup2\n    /* \"#utility.yul\":437:472   */\n  tag_38\n  jump\t// in\ntag_39:\n    /* \"#utility.yul\":543:545   */\n  0x40\n    /* \"#utility.yul\":528:546   */\n  dup7\n  add\n    /* \"#utility.yul\":522:547   */\n  mload\n    /* \"#utility.yul\":491:498   */\n  swap1\n  swap4\n  pop\n    /* \"#utility.yul\":556:591   */\n  tag_40\n    /* \"#utility.yul\":522:547   */\n  dup2\n    /* \"#utility.yul\":556:591   */\n  tag_38\n  jump\t// in\ntag_40:\n    /* \"#utility.yul\":662:664   */\n  0x60\n    /* \"#utility.yul\":647:665   */\n  dup7\n  add\n    /* \"#utility.yul\":641:666   */\n  mload\n    /* \"#utility.yul\":610:617   */\n  swap1\n  swap3\n  pop\n    /* \"#utility.yul\":675:710   */\n  tag_41\n    /* \"#utility.yul\":641:666   */\n  dup2\n    /* \"#utility.yul\":675:710   */\n  tag_38\n  jump\t// in\ntag_41:\n    /* \"#utility.yul\":202:742   */\n  swap4\n  swap7\n  swap3\n  swap6\n  pop\n  swap1\n  swap4\n  pop\n  pop\n  jump\t// out\n    /* \"#utility.yul\":747:880   */\ntag_38:\n  sub(shl(0xa0, 0x01), 0x01)\n    /* \"#utility.yul\":824:855   */\n  dup2\n  and\n    /* \"#utility.yul\":814:856   */\n  dup2\n  eq\n    /* \"#utility.yul\":804:806   */\n  tag_43\n  jumpi\n    /* \"#utility.yul\":870:871   */\n  0x00\n    /* \"#utility.yul\":867:868   */\n  dup1\n    /* \"#utility.yul\":860:872   */\n  revert\n    /* \"#utility.yul\":804:806   */\ntag_43:\n    /* \"#utility.yul\":794:880   */\n  pop\n  jump\t// out\ntag_34:\n    /* \"contracts/LiquidityController.sol\":482:11034  contract LiquidityController is IERC721Receiver, AccessControl {... */\n  shr(0x60, mload(0x80))\n  shr(0x60, mload(0xa0))\n  codecopy(0x00, dataOffset(sub_0), dataSize(sub_0))\n  assignImmutable(\"0xec9dc0e935b90a8223848d74f2e39812c3ca143ad37a4076c4c95f9814669036\")\n  assignImmutable(\"0x3ddd8062d7de47998a8389f96b9f0c4a8108649857e6f7c8fae13cec90a10e14\")\n  return(0x00, dataSize(sub_0))\nstop\ndata_c690ee39c61cd2467ca78047546d7d01e837eb538ab70dac257590f3599b654a d8aa0f3194971a2a116679f7c2090f6939c8d4e01a2a8d7e41d55e5351469e63\ndata_cb864c43dd5d441bb6271f424f11befa622c032dfd374d226e26fbbdb782b8f8 a49807205ce4d355092ef5a8a18f56e8913cf4a201fbe287825b095693c21775\n\nsub_0: assembly {\n        /* \"contracts/LiquidityController.sol\":482:11034  contract LiquidityController is IERC721Receiver, AccessControl {... */\n      mstore(0x40, 0x80)\n      callvalue\n      dup1\n      iszero\n      tag_1\n      jumpi\n      0x00\n      dup1\n      revert\n    tag_1:\n      pop\n      jumpi(tag_2, lt(calldatasize, 0x04))\n      shr(0xe0, calldataload(0x00))\n      dup1\n      0x8e5f5977\n      gt\n      tag_32\n      jumpi\n      dup1\n      0xb4580507\n      gt\n      tag_33\n      jumpi\n      dup1\n      0xd547741f\n      gt\n      tag_34\n      jumpi\n      dup1\n      0xd547741f\n      eq\n      tag_28\n      jumpi\n      dup1\n      0xdce008af\n      eq\n      tag_29\n      jumpi\n      dup1\n      0xdd37019d\n      eq\n      tag_30\n      jumpi\n      dup1\n      0xe1f21c67\n      eq\n      tag_31\n      jumpi\n      jump(tag_2)\n    tag_34:\n      dup1\n      0xb4580507\n      eq\n      tag_24\n      jumpi\n      dup1\n      0xc31c9c07\n      eq\n      tag_25\n      jumpi\n      dup1\n      0xc691b0a1\n      eq\n      tag_26\n      jumpi\n      dup1\n      0xca15c873\n      eq\n      tag_27\n      jumpi\n      jump(tag_2)\n    tag_33:\n      dup1\n      0xa217fddf\n      gt\n      tag_35\n      jumpi\n      dup1\n      0xa217fddf\n      eq\n      tag_20\n      jumpi\n      dup1\n      0xa8243558\n      eq\n      tag_21\n      jumpi\n      dup1\n      0xb02c43d0\n      eq\n      tag_22\n      jumpi\n      dup1\n      0xb44a2722\n      eq\n      tag_23\n      jumpi\n      jump(tag_2)\n    tag_35:\n      dup1\n      0x8e5f5977\n      eq\n      tag_17\n      jumpi\n      dup1\n      0x9010d07c\n      eq\n      tag_18\n      jumpi\n      dup1\n      0x91d14854\n      eq\n      tag_19\n      jumpi\n      jump(tag_2)\n    tag_32:\n      dup1\n      0x36568abe\n      gt\n      tag_36\n      jumpi\n      dup1\n      0x4c8c7314\n      gt\n      tag_37\n      jumpi\n      dup1\n      0x4c8c7314\n      eq\n      tag_13\n      jumpi\n      dup1\n      0x57706e74\n      eq\n      tag_14\n      jumpi\n      dup1\n      0x75b238fc\n      eq\n      tag_15\n      jumpi\n      dup1\n      0x7d42c461\n      eq\n      tag_16\n      jumpi\n      jump(tag_2)\n    tag_37:\n      dup1\n      0x36568abe\n      eq\n      tag_10\n      jumpi\n      dup1\n      0x3a483cb0\n      eq\n      tag_11\n      jumpi\n      dup1\n      0x3ef4c3d4\n      eq\n      tag_12\n      jumpi\n      jump(tag_2)\n    tag_36:\n      dup1\n      0x1c8c9980\n      gt\n      tag_38\n      jumpi\n      dup1\n      0x1c8c9980\n      eq\n      tag_6\n      jumpi\n      dup1\n      0x248a9ca3\n      eq\n      tag_7\n      jumpi\n      dup1\n      0x25eb6e6f\n      eq\n      tag_8\n      jumpi\n      dup1\n      0x2f2ff15d\n      eq\n      tag_9\n      jumpi\n      jump(tag_2)\n    tag_38:\n      dup1\n      0x07bd0265\n      eq\n      tag_3\n      jumpi\n      dup1\n      0x0d71bdc3\n      eq\n      tag_4\n      jumpi\n      dup1\n      0x150b7a02\n      eq\n      tag_5\n      jumpi\n    tag_2:\n      0x00\n      dup1\n      revert\n        /* \"contracts/LiquidityController.sol\":611:677  bytes32 public constant EXECUTOR_ROLE = keccak256('EXECUTOR_ROLE') */\n    tag_3:\n      tag_39\n      tag_40\n      jump\t// in\n    tag_39:\n      mload(0x40)\n      tag_41\n      swap2\n      swap1\n      tag_42\n      jump\t// in\n    tag_41:\n      mload(0x40)\n      dup1\n      swap2\n      sub\n      swap1\n      return\n        /* \"contracts/LiquidityController.sol\":3640:3776  function redeemToken(address token, address to, uint256 value) external onlyAdmins {... */\n    tag_4:\n      tag_43\n      tag_44\n      calldatasize\n      0x04\n      tag_45\n      jump\t// in\n    tag_44:\n      tag_46\n      jump\t// in\n    tag_43:\n      stop\n        /* \"contracts/LiquidityController.sol\":2670:2854  function onERC721Received(address, address, uint256 tokenId, bytes calldata) external override returns (bytes4) {... */\n    tag_5:\n      tag_47\n      tag_48\n      calldatasize\n      0x04\n      tag_49\n      jump\t// in\n    tag_48:\n      tag_50\n      jump\t// in\n    tag_47:\n      mload(0x40)\n      tag_41\n      swap2\n      swap1\n      tag_52\n      jump\t// in\n        /* \"contracts/LiquidityController.sol\":3511:3637  function redeemOwnership(address toTransfer, address to) external onlyAdmins {... */\n    tag_6:\n      tag_43\n      tag_54\n      calldatasize\n      0x04\n      tag_55\n      jump\t// in\n    tag_54:\n      tag_56\n      jump\t// in\n        /* \"@openzeppelin/contracts/access/AccessControl.sol\":4282:4394  function getRoleAdmin(bytes32 role) public view returns (bytes32) {... */\n    tag_7:\n      tag_39\n      tag_58\n      calldatasize\n      0x04\n      tag_59\n      jump\t// in\n    tag_58:\n      tag_60\n      jump\t// in\n        /* \"contracts/LiquidityController.sol\":5136:5418  function approveManager(address token0, address token1, uint256 amount0, uint256 amount1) external onlyAdmins {... */\n    tag_8:\n      tag_43\n      tag_63\n      calldatasize\n      0x04\n      tag_64\n      jump\t// in\n    tag_63:\n      tag_65\n      jump\t// in\n        /* \"@openzeppelin/contracts/access/AccessControl.sol\":4644:4867  function grantRole(bytes32 role, address account) public virtual {... */\n    tag_9:\n      tag_43\n      tag_67\n      calldatasize\n      0x04\n      tag_68\n      jump\t// in\n    tag_67:\n      tag_69\n      jump\t// in\n        /* \"@openzeppelin/contracts/access/AccessControl.sol\":5818:6023  function renounceRole(bytes32 role, address account) public virtual {... */\n    tag_10:\n      tag_43\n      tag_71\n      calldatasize\n      0x04\n      tag_68\n      jump\t// in\n    tag_71:\n      tag_72\n      jump\t// in\n        /* \"contracts/LiquidityController.sol\":6980:7763  function collectFees(... */\n    tag_11:\n      tag_73\n      tag_74\n      calldatasize\n      0x04\n      tag_75\n      jump\t// in\n    tag_74:\n      tag_76\n      jump\t// in\n    tag_73:\n      mload(0x40)\n      tag_41\n      swap3\n      swap2\n      swap1\n      tag_78\n      jump\t// in\n        /* \"contracts/LiquidityController.sol\":3779:3954  function redeemNFT(uint256 tokenId, address to) external onlyAdmins {... */\n    tag_12:\n      tag_43\n      tag_80\n      calldatasize\n      0x04\n      tag_68\n      jump\t// in\n    tag_80:\n      tag_82\n      jump\t// in\n        /* \"contracts/LiquidityController.sol\":10353:11032  function swapExactOutputSingle(... */\n    tag_13:\n      tag_39\n      tag_84\n      calldatasize\n      0x04\n      tag_85\n      jump\t// in\n    tag_84:\n      tag_86\n      jump\t// in\n        /* \"contracts/LiquidityController.sol\":5421:5670  function approveRouter(address token0, address token1, uint256 amount0, uint256 amount1) external onlyAdmins {... */\n    tag_14:\n      tag_43\n      tag_90\n      calldatasize\n      0x04\n      tag_64\n      jump\t// in\n    tag_90:\n      tag_91\n      jump\t// in\n        /* \"contracts/LiquidityController.sol\":548:608  bytes32 public constant ADMIN_ROLE = keccak256('ADMIN_ROLE') */\n    tag_15:\n      tag_39\n      tag_93\n      jump\t// in\n        /* \"contracts/LiquidityController.sol\":4133:4327  function transferForDeposit(uint256 tokenId, uint256 amount0, uint256 amount1) external onlyAdmins {... */\n    tag_16:\n      tag_43\n      tag_96\n      calldatasize\n      0x04\n      tag_97\n      jump\t// in\n    tag_96:\n      tag_98\n      jump\t// in\n        /* \"contracts/LiquidityController.sol\":8713:9486  function decreaseLiquidity(... */\n    tag_17:\n      tag_73\n      tag_100\n      calldatasize\n      0x04\n      tag_101\n      jump\t// in\n    tag_100:\n      tag_102\n      jump\t// in\n        /* \"@openzeppelin/contracts/access/AccessControl.sol\":3965:4101  function getRoleMember(bytes32 role, uint256 index) public view returns (address) {... */\n    tag_18:\n      tag_104\n      tag_105\n      calldatasize\n      0x04\n      tag_106\n      jump\t// in\n    tag_105:\n      tag_107\n      jump\t// in\n    tag_104:\n      mload(0x40)\n      tag_41\n      swap2\n      swap1\n      tag_109\n      jump\t// in\n        /* \"@openzeppelin/contracts/access/AccessControl.sol\":2950:3087  function hasRole(bytes32 role, address account) public view returns (bool) {... */\n    tag_19:\n      tag_110\n      tag_111\n      calldatasize\n      0x04\n      tag_68\n      jump\t// in\n    tag_111:\n      tag_112\n      jump\t// in\n    tag_110:\n      mload(0x40)\n      tag_41\n      swap2\n      swap1\n      tag_114\n      jump\t// in\n        /* \"@openzeppelin/contracts/access/AccessControl.sol\":1727:1776  bytes32 public constant DEFAULT_ADMIN_ROLE = 0x00 */\n    tag_20:\n      tag_39\n      tag_116\n      jump\t// in\n        /* \"contracts/LiquidityController.sol\":4744:5133  function approveInfinity(address token0, address token1) external onlyAdmins {... */\n    tag_21:\n      tag_43\n      tag_119\n      calldatasize\n      0x04\n      tag_55\n      jump\t// in\n    tag_119:\n      tag_120\n      jump\t// in\n        /* \"contracts/LiquidityController.sol\":1048:1091  mapping(uint256 => Deposit) public deposits */\n    tag_22:\n      tag_121\n      tag_122\n      calldatasize\n      0x04\n      tag_59\n      jump\t// in\n    tag_122:\n      tag_124\n      jump\t// in\n    tag_121:\n      mload(0x40)\n      tag_41\n      swap6\n      swap5\n      swap4\n      swap3\n      swap2\n      swap1\n      tag_126\n      jump\t// in\n        /* \"contracts/LiquidityController.sol\":681:752  INonfungiblePositionManager public immutable nonfungiblePositionManager */\n    tag_23:\n      tag_104\n      tag_128\n      jump\t// in\n        /* \"contracts/LiquidityController.sol\":9581:10258  function swapExactInputSingle(... */\n    tag_24:\n      tag_39\n      tag_132\n      calldatasize\n      0x04\n      tag_85\n      jump\t// in\n    tag_132:\n      tag_133\n      jump\t// in\n        /* \"contracts/LiquidityController.sol\":755:794  ISwapRouter public immutable swapRouter */\n    tag_25:\n      tag_104\n      tag_136\n      jump\t// in\n        /* \"contracts/LiquidityController.sol\":7858:8618  function increaseLiquidity(... */\n    tag_26:\n      tag_139\n      tag_140\n      calldatasize\n      0x04\n      tag_141\n      jump\t// in\n    tag_140:\n      tag_142\n      jump\t// in\n    tag_139:\n      mload(0x40)\n      tag_41\n      swap4\n      swap3\n      swap2\n      swap1\n      tag_144\n      jump\t// in\n        /* \"@openzeppelin/contracts/access/AccessControl.sol\":3255:3380  function getRoleMemberCount(bytes32 role) public view returns (uint256) {... */\n    tag_27:\n      tag_39\n      tag_146\n      calldatasize\n      0x04\n      tag_59\n      jump\t// in\n    tag_146:\n      tag_147\n      jump\t// in\n        /* \"@openzeppelin/contracts/access/AccessControl.sol\":5101:5327  function revokeRole(bytes32 role, address account) public virtual {... */\n    tag_28:\n      tag_43\n      tag_150\n      calldatasize\n      0x04\n      tag_68\n      jump\t// in\n    tag_150:\n      tag_151\n      jump\t// in\n        /* \"contracts/LiquidityController.sol\":4330:4603  function transferForTokens(address token0, address token1, uint256 amount0, uint256 amount1) public onlyAdmins {... */\n    tag_29:\n      tag_43\n      tag_153\n      calldatasize\n      0x04\n      tag_64\n      jump\t// in\n    tag_153:\n      tag_154\n      jump\t// in\n        /* \"contracts/LiquidityController.sol\":5927:6885  function mintNewPosition(... */\n    tag_30:\n      tag_155\n      tag_156\n      calldatasize\n      0x04\n      tag_157\n      jump\t// in\n    tag_156:\n      tag_158\n      jump\t// in\n    tag_155:\n      mload(0x40)\n      tag_41\n      swap5\n      swap4\n      swap3\n      swap2\n      swap1\n      tag_160\n      jump\t// in\n        /* \"contracts/LiquidityController.sol\":5699:5832  function approve(address token, address to, uint256 amount) external onlyAdmins {... */\n    tag_31:\n      tag_43\n      tag_162\n      calldatasize\n      0x04\n      tag_45\n      jump\t// in\n    tag_162:\n      tag_163\n      jump\t// in\n        /* \"contracts/LiquidityController.sol\":611:677  bytes32 public constant EXECUTOR_ROLE = keccak256('EXECUTOR_ROLE') */\n    tag_40:\n      0x00\n      dup1\n      mload\n      0x20\n      data_c690ee39c61cd2467ca78047546d7d01e837eb538ab70dac257590f3599b654a\n      dup4\n      codecopy\n      dup2\n      mload\n      swap2\n      mstore\n      dup2\n      jump\t// out\n        /* \"contracts/LiquidityController.sol\":3640:3776  function redeemToken(address token, address to, uint256 value) external onlyAdmins {... */\n    tag_46:\n        /* \"contracts/LiquidityController.sol\":1768:1799  hasRole(ADMIN_ROLE, msg.sender) */\n      tag_166\n      0x00\n      dup1\n      mload\n      0x20\n      data_cb864c43dd5d441bb6271f424f11befa622c032dfd374d226e26fbbdb782b8f8\n      dup4\n      codecopy\n      dup2\n      mload\n      swap2\n      mstore\n        /* \"contracts/LiquidityController.sol\":1788:1798  msg.sender */\n      caller\n        /* \"contracts/LiquidityController.sol\":1768:1775  hasRole */\n      tag_112\n        /* \"contracts/LiquidityController.sol\":1768:1799  hasRole(ADMIN_ROLE, msg.sender) */\n      jump\t// in\n    tag_166:\n        /* \"contracts/LiquidityController.sol\":1768:1807  hasRole(ADMIN_ROLE, msg.sender) == true */\n      iszero\n      iszero\n        /* \"contracts/LiquidityController.sol\":1803:1807  true */\n      0x01\n        /* \"contracts/LiquidityController.sol\":1768:1807  hasRole(ADMIN_ROLE, msg.sender) == true */\n      eq\n        /* \"contracts/LiquidityController.sol\":1760:1821  require(hasRole(ADMIN_ROLE, msg.sender) == true, 'Not Admin') */\n      tag_167\n      jumpi\n      mload(0x40)\n      shl(0xe5, 0x461bcd)\n      dup2\n      mstore\n      0x04\n      add\n      tag_168\n      swap1\n      tag_169\n      jump\t// in\n    tag_168:\n      mload(0x40)\n      dup1\n      swap2\n      sub\n      swap1\n      revert\n    tag_167:\n        /* \"contracts/LiquidityController.sol\":3727:3772  TransferHelper.safeTransfer(token, to, value) */\n      tag_171\n        /* \"contracts/LiquidityController.sol\":3755:3760  token */\n      dup4\n        /* \"contracts/LiquidityController.sol\":3762:3764  to */\n      dup4\n        /* \"contracts/LiquidityController.sol\":3766:3771  value */\n      dup4\n        /* \"contracts/LiquidityController.sol\":3727:3754  TransferHelper.safeTransfer */\n      tag_172\n        /* \"contracts/LiquidityController.sol\":3727:3772  TransferHelper.safeTransfer(token, to, value) */\n      jump\t// in\n    tag_171:\n        /* \"contracts/LiquidityController.sol\":3640:3776  function redeemToken(address token, address to, uint256 value) external onlyAdmins {... */\n      pop\n      pop\n      pop\n      jump\t// out\n        /* \"contracts/LiquidityController.sol\":2670:2854  function onERC721Received(address, address, uint256 tokenId, bytes calldata) external override returns (bytes4) {... */\n    tag_50:\n        /* \"contracts/LiquidityController.sol\":2774:2780  bytes4 */\n      0x00\n        /* \"contracts/LiquidityController.sol\":2786:2809  _createDeposit(tokenId) */\n      tag_174\n        /* \"contracts/LiquidityController.sol\":2801:2808  tokenId */\n      dup5\n        /* \"contracts/LiquidityController.sol\":2786:2800  _createDeposit */\n      tag_175\n        /* \"contracts/LiquidityController.sol\":2786:2809  _createDeposit(tokenId) */\n      jump\t// in\n    tag_174:\n      pop\n      shl(0xe1, 0x0a85bd01)\n        /* \"contracts/LiquidityController.sol\":2670:2854  function onERC721Received(address, address, uint256 tokenId, bytes calldata) external override returns (bytes4) {... */\n      swap6\n      swap5\n      pop\n      pop\n      pop\n      pop\n      pop\n      jump\t// out\n        /* \"contracts/LiquidityController.sol\":3511:3637  function redeemOwnership(address toTransfer, address to) external onlyAdmins {... */\n    tag_56:\n        /* \"contracts/LiquidityController.sol\":1768:1799  hasRole(ADMIN_ROLE, msg.sender) */\n      tag_177\n      0x00\n      dup1\n      mload\n      0x20\n      data_cb864c43dd5d441bb6271f424f11befa622c032dfd374d226e26fbbdb782b8f8\n      dup4\n      codecopy\n      dup2\n      mload\n      swap2\n      mstore\n        /* \"contracts/LiquidityController.sol\":1788:1798  msg.sender */\n      caller\n        /* \"contracts/LiquidityController.sol\":1768:1775  hasRole */\n      tag_112\n        /* \"contracts/LiquidityController.sol\":1768:1799  hasRole(ADMIN_ROLE, msg.sender) */\n      jump\t// in\n    tag_177:\n        /* \"contracts/LiquidityController.sol\":1768:1807  hasRole(ADMIN_ROLE, msg.sender) == true */\n      iszero\n      iszero\n        /* \"contracts/LiquidityController.sol\":1803:1807  true */\n      0x01\n        /* \"contracts/LiquidityController.sol\":1768:1807  hasRole(ADMIN_ROLE, msg.sender) == true */\n      eq\n        /* \"contracts/LiquidityController.sol\":1760:1821  require(hasRole(ADMIN_ROLE, msg.sender) == true, 'Not Admin') */\n      tag_178\n      jumpi\n      mload(0x40)\n      shl(0xe5, 0x461bcd)\n      dup2\n      mstore\n      0x04\n      add\n      tag_168\n      swap1\n      tag_169\n      jump\t// in\n    tag_178:\n        /* \"contracts/LiquidityController.sol\":3592:3633  Ownable(toTransfer).transferOwnership(to) */\n      mload(0x40)\n      shl(0xe0, 0xf2fde38b)\n      dup2\n      mstore\n      sub(shl(0xa0, 0x01), 0x01)\n        /* \"contracts/LiquidityController.sol\":3592:3629  Ownable(toTransfer).transferOwnership */\n      dup4\n      and\n      swap1\n      0xf2fde38b\n      swap1\n        /* \"contracts/LiquidityController.sol\":3592:3633  Ownable(toTransfer).transferOwnership(to) */\n      tag_181\n      swap1\n        /* \"contracts/LiquidityController.sol\":3630:3632  to */\n      dup5\n      swap1\n        /* \"contracts/LiquidityController.sol\":3592:3633  Ownable(toTransfer).transferOwnership(to) */\n      0x04\n      add\n      tag_109\n      jump\t// in\n    tag_181:\n      0x00\n      mload(0x40)\n      dup1\n      dup4\n      sub\n      dup2\n      0x00\n      dup8\n      dup1\n      extcodesize\n      iszero\n      dup1\n      iszero\n      tag_182\n      jumpi\n      0x00\n      dup1\n      revert\n    tag_182:\n      pop\n      gas\n      call\n      iszero\n      dup1\n      iszero\n      tag_184\n      jumpi\n      returndatasize\n      0x00\n      dup1\n      returndatacopy\n      revert(0x00, returndatasize)\n    tag_184:\n      pop\n      pop\n      pop\n      pop\n        /* \"contracts/LiquidityController.sol\":3511:3637  function redeemOwnership(address toTransfer, address to) external onlyAdmins {... */\n      pop\n      pop\n      jump\t// out\n        /* \"@openzeppelin/contracts/access/AccessControl.sol\":4282:4394  function getRoleAdmin(bytes32 role) public view returns (bytes32) {... */\n    tag_60:\n        /* \"@openzeppelin/contracts/access/AccessControl.sol\":4339:4346  bytes32 */\n      0x00\n        /* \"@openzeppelin/contracts/access/AccessControl.sol\":4365:4377  _roles[role] */\n      dup2\n      dup2\n      mstore\n      0x20\n      dup2\n      swap1\n      mstore\n      0x40\n      swap1\n      keccak256\n        /* \"@openzeppelin/contracts/access/AccessControl.sol\":4365:4387  _roles[role].adminRole */\n      0x02\n      add\n      sload\n        /* \"@openzeppelin/contracts/access/AccessControl.sol\":4282:4394  function getRoleAdmin(bytes32 role) public view returns (bytes32) {... */\n    tag_185:\n      swap2\n      swap1\n      pop\n      jump\t// out\n        /* \"contracts/LiquidityController.sol\":5136:5418  function approveManager(address token0, address token1, uint256 amount0, uint256 amount1) external onlyAdmins {... */\n    tag_65:\n        /* \"contracts/LiquidityController.sol\":1768:1799  hasRole(ADMIN_ROLE, msg.sender) */\n      tag_187\n      0x00\n      dup1\n      mload\n      0x20\n      data_cb864c43dd5d441bb6271f424f11befa622c032dfd374d226e26fbbdb782b8f8\n      dup4\n      codecopy\n      dup2\n      mload\n      swap2\n      mstore\n        /* \"contracts/LiquidityController.sol\":1788:1798  msg.sender */\n      caller\n        /* \"contracts/LiquidityController.sol\":1768:1775  hasRole */\n      tag_112\n        /* \"contracts/LiquidityController.sol\":1768:1799  hasRole(ADMIN_ROLE, msg.sender) */\n      jump\t// in\n    tag_187:\n        /* \"contracts/LiquidityController.sol\":1768:1807  hasRole(ADMIN_ROLE, msg.sender) == true */\n      iszero\n      iszero\n        /* \"contracts/LiquidityController.sol\":1803:1807  true */\n      0x01\n        /* \"contracts/LiquidityController.sol\":1768:1807  hasRole(ADMIN_ROLE, msg.sender) == true */\n      eq\n        /* \"contracts/LiquidityController.sol\":1760:1821  require(hasRole(ADMIN_ROLE, msg.sender) == true, 'Not Admin') */\n      tag_188\n      jumpi\n      mload(0x40)\n      shl(0xe5, 0x461bcd)\n      dup2\n      mstore\n      0x04\n      add\n      tag_168\n      swap1\n      tag_169\n      jump\t// in\n    tag_188:\n        /* \"contracts/LiquidityController.sol\":5250:5330  TransferHelper.safeApprove(token0, address(nonfungiblePositionManager), amount0) */\n      tag_191\n        /* \"contracts/LiquidityController.sol\":5277:5283  token0 */\n      dup5\n        /* \"contracts/LiquidityController.sol\":5293:5319  nonfungiblePositionManager */\n      immutable(\"0x3ddd8062d7de47998a8389f96b9f0c4a8108649857e6f7c8fae13cec90a10e14\")\n        /* \"contracts/LiquidityController.sol\":5322:5329  amount0 */\n      dup5\n        /* \"contracts/LiquidityController.sol\":5250:5276  TransferHelper.safeApprove */\n      tag_192\n        /* \"contracts/LiquidityController.sol\":5250:5330  TransferHelper.safeApprove(token0, address(nonfungiblePositionManager), amount0) */\n      jump\t// in\n    tag_191:\n        /* \"contracts/LiquidityController.sol\":5334:5414  TransferHelper.safeApprove(token1, address(nonfungiblePositionManager), amount1) */\n      tag_193\n        /* \"contracts/LiquidityController.sol\":5361:5367  token1 */\n      dup4\n        /* \"contracts/LiquidityController.sol\":5377:5403  nonfungiblePositionManager */\n      immutable(\"0x3ddd8062d7de47998a8389f96b9f0c4a8108649857e6f7c8fae13cec90a10e14\")\n        /* \"contracts/LiquidityController.sol\":5406:5413  amount1 */\n      dup4\n        /* \"contracts/LiquidityController.sol\":5334:5360  TransferHelper.safeApprove */\n      tag_192\n        /* \"contracts/LiquidityController.sol\":5334:5414  TransferHelper.safeApprove(token1, address(nonfungiblePositionManager), amount1) */\n      jump\t// in\n    tag_193:\n        /* \"contracts/LiquidityController.sol\":5136:5418  function approveManager(address token0, address token1, uint256 amount0, uint256 amount1) external onlyAdmins {... */\n      pop\n      pop\n      pop\n      pop\n      jump\t// out\n        /* \"@openzeppelin/contracts/access/AccessControl.sol\":4644:4867  function grantRole(bytes32 role, address account) public virtual {... */\n    tag_69:\n        /* \"@openzeppelin/contracts/access/AccessControl.sol\":4735:4741  _roles */\n      0x00\n        /* \"@openzeppelin/contracts/access/AccessControl.sol\":4735:4747  _roles[role] */\n      dup3\n      dup2\n      mstore\n      0x20\n      dup2\n      swap1\n      mstore\n      0x40\n      swap1\n      keccak256\n        /* \"@openzeppelin/contracts/access/AccessControl.sol\":4735:4757  _roles[role].adminRole */\n      0x02\n      add\n      sload\n        /* \"@openzeppelin/contracts/access/AccessControl.sol\":4727:4772  hasRole(_roles[role].adminRole, _msgSender()) */\n      tag_195\n      swap1\n        /* \"@openzeppelin/contracts/access/AccessControl.sol\":4759:4771  _msgSender() */\n      tag_111\n        /* \"@openzeppelin/contracts/access/AccessControl.sol\":4759:4769  _msgSender */\n      tag_197\n        /* \"@openzeppelin/contracts/access/AccessControl.sol\":4759:4771  _msgSender() */\n      jump\t// in\n        /* \"@openzeppelin/contracts/access/AccessControl.sol\":4727:4772  hasRole(_roles[role].adminRole, _msgSender()) */\n    tag_195:\n        /* \"@openzeppelin/contracts/access/AccessControl.sol\":4719:4824  require(hasRole(_roles[role].adminRole, _msgSender()), \"AccessControl: sender must be an admin to grant\") */\n      tag_198\n      jumpi\n      mload(0x40)\n      shl(0xe5, 0x461bcd)\n      dup2\n      mstore\n      0x04\n      add\n      dup1\n      dup1\n      0x20\n      add\n      dup3\n      dup2\n      sub\n      dup3\n      mstore\n      0x2f\n      dup2\n      mstore\n      0x20\n      add\n      dup1\n      data_0ba7116025f1ef6b158a2bd2238e617f30e17c9e456917d901086ca4f8ad2811\n      0x2f\n      swap2\n      codecopy\n      0x40\n      add\n      swap2\n      pop\n      pop\n      mload(0x40)\n      dup1\n      swap2\n      sub\n      swap1\n      revert\n    tag_198:\n        /* \"@openzeppelin/contracts/access/AccessControl.sol\":4835:4860  _grantRole(role, account) */\n      tag_199\n        /* \"@openzeppelin/contracts/access/AccessControl.sol\":4846:4850  role */\n      dup3\n        /* \"@openzeppelin/contracts/access/AccessControl.sol\":4852:4859  account */\n      dup3\n        /* \"@openzeppelin/contracts/access/AccessControl.sol\":4835:4845  _grantRole */\n      tag_200\n        /* \"@openzeppelin/contracts/access/AccessControl.sol\":4835:4860  _grantRole(role, account) */\n      jump\t// in\n    tag_199:\n        /* \"@openzeppelin/contracts/access/AccessControl.sol\":4644:4867  function grantRole(bytes32 role, address account) public virtual {... */\n      pop\n      pop\n      jump\t// out\n        /* \"@openzeppelin/contracts/access/AccessControl.sol\":5818:6023  function renounceRole(bytes32 role, address account) public virtual {... */\n    tag_72:\n        /* \"@openzeppelin/contracts/access/AccessControl.sol\":5915:5927  _msgSender() */\n      tag_202\n        /* \"@openzeppelin/contracts/access/AccessControl.sol\":5915:5925  _msgSender */\n      tag_197\n        /* \"@openzeppelin/contracts/access/AccessControl.sol\":5915:5927  _msgSender() */\n      jump\t// in\n    tag_202:\n      sub(shl(0xa0, 0x01), 0x01)\n        /* \"@openzeppelin/contracts/access/AccessControl.sol\":5904:5927  account == _msgSender() */\n      and\n        /* \"@openzeppelin/contracts/access/AccessControl.sol\":5904:5911  account */\n      dup2\n      sub(shl(0xa0, 0x01), 0x01)\n        /* \"@openzeppelin/contracts/access/AccessControl.sol\":5904:5927  account == _msgSender() */\n      and\n      eq\n        /* \"@openzeppelin/contracts/access/AccessControl.sol\":5896:5979  require(account == _msgSender(), \"AccessControl: can only renounce roles for self\") */\n      tag_203\n      jumpi\n      mload(0x40)\n      shl(0xe5, 0x461bcd)\n      dup2\n      mstore\n      0x04\n      add\n      dup1\n      dup1\n      0x20\n      add\n      dup3\n      dup2\n      sub\n      dup3\n      mstore\n      0x2f\n      dup2\n      mstore\n      0x20\n      add\n      dup1\n      data_fb06fa8ff2141e8ed74502f6792273793f25f0e9d3cf15344f3f5a0d4948fd4b\n      0x2f\n      swap2\n      codecopy\n      0x40\n      add\n      swap2\n      pop\n      pop\n      mload(0x40)\n      dup1\n      swap2\n      sub\n      swap1\n      revert\n    tag_203:\n        /* \"@openzeppelin/contracts/access/AccessControl.sol\":5990:6016  _revokeRole(role, account) */\n      tag_199\n        /* \"@openzeppelin/contracts/access/AccessControl.sol\":6002:6006  role */\n      dup3\n        /* \"@openzeppelin/contracts/access/AccessControl.sol\":6008:6015  account */\n      dup3\n        /* \"@openzeppelin/contracts/access/AccessControl.sol\":5990:6001  _revokeRole */\n      tag_205\n        /* \"@openzeppelin/contracts/access/AccessControl.sol\":5990:6016  _revokeRole(role, account) */\n      jump\t// in\n        /* \"contracts/LiquidityController.sol\":6980:7763  function collectFees(... */\n    tag_76:\n        /* \"contracts/LiquidityController.sol\":7080:7095  uint256 amount0 */\n      0x00\n        /* \"contracts/LiquidityController.sol\":7097:7112  uint256 amount1 */\n      dup1\n        /* \"contracts/LiquidityController.sol\":1881:1912  hasRole(ADMIN_ROLE, msg.sender) */\n      tag_207\n      0x00\n      dup1\n      mload\n      0x20\n      data_cb864c43dd5d441bb6271f424f11befa622c032dfd374d226e26fbbdb782b8f8\n      dup4\n      codecopy\n      dup2\n      mload\n      swap2\n      mstore\n        /* \"contracts/LiquidityController.sol\":1901:1911  msg.sender */\n      caller\n        /* \"contracts/LiquidityController.sol\":1881:1888  hasRole */\n      tag_112\n        /* \"contracts/LiquidityController.sol\":1881:1912  hasRole(ADMIN_ROLE, msg.sender) */\n      jump\t// in\n    tag_207:\n        /* \"contracts/LiquidityController.sol\":1881:1920  hasRole(ADMIN_ROLE, msg.sender) == true */\n      iszero\n      iszero\n        /* \"contracts/LiquidityController.sol\":1916:1920  true */\n      0x01\n        /* \"contracts/LiquidityController.sol\":1881:1920  hasRole(ADMIN_ROLE, msg.sender) == true */\n      eq\n      dup1\n        /* \"contracts/LiquidityController.sol\":1881:1966  hasRole(ADMIN_ROLE, msg.sender) == true || hasRole(EXECUTOR_ROLE, msg.sender) == true */\n      tag_208\n      jumpi\n      pop\n        /* \"contracts/LiquidityController.sol\":1924:1958  hasRole(EXECUTOR_ROLE, msg.sender) */\n      tag_209\n      0x00\n      dup1\n      mload\n      0x20\n      data_c690ee39c61cd2467ca78047546d7d01e837eb538ab70dac257590f3599b654a\n      dup4\n      codecopy\n      dup2\n      mload\n      swap2\n      mstore\n        /* \"contracts/LiquidityController.sol\":1947:1957  msg.sender */\n      caller\n        /* \"contracts/LiquidityController.sol\":1924:1931  hasRole */\n      tag_112\n        /* \"contracts/LiquidityController.sol\":1924:1958  hasRole(EXECUTOR_ROLE, msg.sender) */\n      jump\t// in\n    tag_209:\n        /* \"contracts/LiquidityController.sol\":1924:1966  hasRole(EXECUTOR_ROLE, msg.sender) == true */\n      iszero\n      iszero\n        /* \"contracts/LiquidityController.sol\":1962:1966  true */\n      0x01\n        /* \"contracts/LiquidityController.sol\":1924:1966  hasRole(EXECUTOR_ROLE, msg.sender) == true */\n      eq\n        /* \"contracts/LiquidityController.sol\":1881:1966  hasRole(ADMIN_ROLE, msg.sender) == true || hasRole(EXECUTOR_ROLE, msg.sender) == true */\n    tag_208:\n        /* \"contracts/LiquidityController.sol\":1869:1996  require(... */\n      tag_210\n      jumpi\n      mload(0x40)\n      shl(0xe5, 0x461bcd)\n      dup2\n      mstore\n      0x04\n      add\n      tag_168\n      swap1\n      tag_212\n      jump\t// in\n    tag_210:\n        /* \"contracts/LiquidityController.sol\":7134:7138  true */\n      0x01\n        /* \"contracts/LiquidityController.sol\":7122:7138  withdraw == true */\n      dup4\n      iszero\n      iszero\n      eq\n        /* \"contracts/LiquidityController.sol\":7118:7258  if (withdraw == true) {... */\n      iszero\n      tag_216\n      jumpi\n        /* \"contracts/LiquidityController.sol\":7200:7231  hasRole(ADMIN_ROLE, msg.sender) */\n      tag_215\n      0x00\n      dup1\n      mload\n      0x20\n      data_cb864c43dd5d441bb6271f424f11befa622c032dfd374d226e26fbbdb782b8f8\n      dup4\n      codecopy\n      dup2\n      mload\n      swap2\n      mstore\n        /* \"contracts/LiquidityController.sol\":7220:7230  msg.sender */\n      caller\n        /* \"contracts/LiquidityController.sol\":7200:7207  hasRole */\n      tag_112\n        /* \"contracts/LiquidityController.sol\":7200:7231  hasRole(ADMIN_ROLE, msg.sender) */\n      jump\t// in\n    tag_215:\n        /* \"contracts/LiquidityController.sol\":7200:7239  hasRole(ADMIN_ROLE, msg.sender) == true */\n      iszero\n      iszero\n        /* \"contracts/LiquidityController.sol\":7235:7239  true */\n      0x01\n        /* \"contracts/LiquidityController.sol\":7200:7239  hasRole(ADMIN_ROLE, msg.sender) == true */\n      eq\n        /* \"contracts/LiquidityController.sol\":7192:7253  require(hasRole(ADMIN_ROLE, msg.sender) == true, 'Not Admin') */\n      tag_216\n      jumpi\n      mload(0x40)\n      shl(0xe5, 0x461bcd)\n      dup2\n      mstore\n      0x04\n      add\n      tag_168\n      swap1\n      tag_169\n      jump\t// in\n    tag_216:\n        /* \"contracts/LiquidityController.sol\":7332:7387  INonfungiblePositionManager.CollectParams memory params */\n      0x00\n        /* \"contracts/LiquidityController.sol\":7390:7632  INonfungiblePositionManager.CollectParams({... */\n      mload(0x40)\n      dup1\n      0x80\n      add\n      0x40\n      mstore\n      dup1\n        /* \"contracts/LiquidityController.sol\":7446:7453  tokenId */\n      dup7\n        /* \"contracts/LiquidityController.sol\":7390:7632  INonfungiblePositionManager.CollectParams({... */\n      dup2\n      mstore\n      0x20\n      add\n        /* \"contracts/LiquidityController.sol\":7469:7477  withdraw */\n      dup6\n        /* \"contracts/LiquidityController.sol\":7469:7506  withdraw ? msg.sender : address(this) */\n      tag_218\n      jumpi\n        /* \"contracts/LiquidityController.sol\":7501:7505  this */\n      address\n        /* \"contracts/LiquidityController.sol\":7469:7506  withdraw ? msg.sender : address(this) */\n      jump(tag_219)\n    tag_218:\n        /* \"contracts/LiquidityController.sol\":7480:7490  msg.sender */\n      caller\n        /* \"contracts/LiquidityController.sol\":7469:7506  withdraw ? msg.sender : address(this) */\n    tag_219:\n      sub(shl(0xa0, 0x01), 0x01)\n        /* \"contracts/LiquidityController.sol\":7390:7632  INonfungiblePositionManager.CollectParams({... */\n      swap1\n      dup2\n      and\n      dup3\n      mstore\n      sub(shl(0x80, 0x01), 0x01)\n      0x20\n      dup4\n      add\n      dup2\n      swap1\n      mstore\n      0x40\n      swap3\n      dup4\n      add\n      mstore\n        /* \"contracts/LiquidityController.sol\":7658:7700  nonfungiblePositionManager.collect(params) */\n      swap1\n      mload\n      shl(0xe0, 0xfc6f7865)\n      dup2\n      mstore\n        /* \"contracts/LiquidityController.sol\":7332:7632  INonfungiblePositionManager.CollectParams memory params = INonfungiblePositionManager.CollectParams({... */\n      swap2\n      swap3\n      pop\n        /* \"contracts/LiquidityController.sol\":7658:7684  nonfungiblePositionManager */\n      immutable(\"0x3ddd8062d7de47998a8389f96b9f0c4a8108649857e6f7c8fae13cec90a10e14\")\n        /* \"contracts/LiquidityController.sol\":7658:7692  nonfungiblePositionManager.collect */\n      and\n      swap1\n      0xfc6f7865\n      swap1\n        /* \"contracts/LiquidityController.sol\":7658:7700  nonfungiblePositionManager.collect(params) */\n      tag_220\n      swap1\n        /* \"contracts/LiquidityController.sol\":7332:7632  INonfungiblePositionManager.CollectParams memory params = INonfungiblePositionManager.CollectParams({... */\n      dup5\n      swap1\n        /* \"contracts/LiquidityController.sol\":7658:7700  nonfungiblePositionManager.collect(params) */\n      0x04\n      add\n      tag_221\n      jump\t// in\n    tag_220:\n      0x40\n      dup1\n      mload\n      dup1\n      dup4\n      sub\n      dup2\n      0x00\n      dup8\n      dup1\n      extcodesize\n      iszero\n      dup1\n      iszero\n      tag_222\n      jumpi\n      0x00\n      dup1\n      revert\n    tag_222:\n      pop\n      gas\n      call\n      iszero\n      dup1\n      iszero\n      tag_224\n      jumpi\n      returndatasize\n      0x00\n      dup1\n      returndatacopy\n      revert(0x00, returndatasize)\n    tag_224:\n      pop\n      pop\n      pop\n      pop\n      mload(0x40)\n      returndatasize\n      not(0x1f)\n      0x1f\n      dup3\n      add\n      and\n      dup3\n      add\n      dup1\n      0x40\n      mstore\n      pop\n      dup2\n      add\n      swap1\n      tag_225\n      swap2\n      swap1\n      tag_226\n      jump\t// in\n    tag_225:\n        /* \"contracts/LiquidityController.sol\":7709:7759  CollectedFees(tokenId, amount0, amount1, withdraw) */\n      mload(0x40)\n        /* \"contracts/LiquidityController.sol\":7637:7700  (amount0, amount1) = nonfungiblePositionManager.collect(params) */\n      swap2\n      swap5\n      pop\n      swap3\n      pop\n        /* \"contracts/LiquidityController.sol\":7709:7759  CollectedFees(tokenId, amount0, amount1, withdraw) */\n      0xeaa34316c1ac0ac2b8445632fef75dad91f846cc69c40a558ccfd6e5700bb79a\n      swap1\n      tag_227\n      swap1\n        /* \"contracts/LiquidityController.sol\":7723:7730  tokenId */\n      dup8\n      swap1\n        /* \"contracts/LiquidityController.sol\":7637:7700  (amount0, amount1) = nonfungiblePositionManager.collect(params) */\n      dup7\n      swap1\n      dup7\n      swap1\n        /* \"contracts/LiquidityController.sol\":7750:7758  withdraw */\n      dup10\n      swap1\n        /* \"contracts/LiquidityController.sol\":7709:7759  CollectedFees(tokenId, amount0, amount1, withdraw) */\n      tag_228\n      jump\t// in\n    tag_227:\n      mload(0x40)\n      dup1\n      swap2\n      sub\n      swap1\n      log1\n        /* \"contracts/LiquidityController.sol\":2000:2001  _ */\n      pop\n        /* \"contracts/LiquidityController.sol\":6980:7763  function collectFees(... */\n      swap3\n      pop\n      swap3\n      swap1\n      pop\n      jump\t// out\n        /* \"contracts/LiquidityController.sol\":3779:3954  function redeemNFT(uint256 tokenId, address to) external onlyAdmins {... */\n    tag_82:\n        /* \"contracts/LiquidityController.sol\":1768:1799  hasRole(ADMIN_ROLE, msg.sender) */\n      tag_230\n      0x00\n      dup1\n      mload\n      0x20\n      data_cb864c43dd5d441bb6271f424f11befa622c032dfd374d226e26fbbdb782b8f8\n      dup4\n      codecopy\n      dup2\n      mload\n      swap2\n      mstore\n        /* \"contracts/LiquidityController.sol\":1788:1798  msg.sender */\n      caller\n        /* \"contracts/LiquidityController.sol\":1768:1775  hasRole */\n      tag_112\n        /* \"contracts/LiquidityController.sol\":1768:1799  hasRole(ADMIN_ROLE, msg.sender) */\n      jump\t// in\n    tag_230:\n        /* \"contracts/LiquidityController.sol\":1768:1807  hasRole(ADMIN_ROLE, msg.sender) == true */\n      iszero\n      iszero\n        /* \"contracts/LiquidityController.sol\":1803:1807  true */\n      0x01\n        /* \"contracts/LiquidityController.sol\":1768:1807  hasRole(ADMIN_ROLE, msg.sender) == true */\n      eq\n        /* \"contracts/LiquidityController.sol\":1760:1821  require(hasRole(ADMIN_ROLE, msg.sender) == true, 'Not Admin') */\n      tag_231\n      jumpi\n      mload(0x40)\n      shl(0xe5, 0x461bcd)\n      dup2\n      mstore\n      0x04\n      add\n      tag_168\n      swap1\n      tag_169\n      jump\t// in\n    tag_231:\n        /* \"contracts/LiquidityController.sol\":3851:3922  nonfungiblePositionManager.safeTransferFrom(address(this), to, tokenId) */\n      mload(0x40)\n      shl(0xe1, 0x21421707)\n      dup2\n      mstore\n      sub(shl(0xa0, 0x01), 0x01)\n        /* \"contracts/LiquidityController.sol\":3851:3877  nonfungiblePositionManager */\n      immutable(\"0x3ddd8062d7de47998a8389f96b9f0c4a8108649857e6f7c8fae13cec90a10e14\")\n        /* \"contracts/LiquidityController.sol\":3851:3894  nonfungiblePositionManager.safeTransferFrom */\n      and\n      swap1\n      0x42842e0e\n      swap1\n        /* \"contracts/LiquidityController.sol\":3851:3922  nonfungiblePositionManager.safeTransferFrom(address(this), to, tokenId) */\n      tag_234\n      swap1\n        /* \"contracts/LiquidityController.sol\":3903:3907  this */\n      address\n      swap1\n        /* \"contracts/LiquidityController.sol\":3910:3912  to */\n      dup6\n      swap1\n        /* \"contracts/LiquidityController.sol\":3914:3921  tokenId */\n      dup8\n      swap1\n        /* \"contracts/LiquidityController.sol\":3851:3922  nonfungiblePositionManager.safeTransferFrom(address(this), to, tokenId) */\n      0x04\n      add\n      tag_235\n      jump\t// in\n    tag_234:\n      0x00\n      mload(0x40)\n      dup1\n      dup4\n      sub\n      dup2\n      0x00\n      dup8\n      dup1\n      extcodesize\n      iszero\n      dup1\n      iszero\n      tag_236\n      jumpi\n      0x00\n      dup1\n      revert\n    tag_236:\n      pop\n      gas\n      call\n      iszero\n      dup1\n      iszero\n      tag_238\n      jumpi\n      returndatasize\n      0x00\n      dup1\n      returndatacopy\n      revert(0x00, returndatasize)\n    tag_238:\n      pop\n      pop\n      pop\n        /* \"contracts/LiquidityController.sol\":3933:3950  deposits[tokenId] */\n      0x00\n      swap3\n      dup4\n      mstore\n      pop\n      pop\n        /* \"contracts/LiquidityController.sol\":3933:3941  deposits */\n      0x01\n        /* \"contracts/LiquidityController.sol\":3933:3950  deposits[tokenId] */\n      0x20\n      dup2\n      swap1\n      mstore\n      0x40\n      swap1\n      swap2\n      keccak256\n        /* \"contracts/LiquidityController.sol\":3926:3950  delete deposits[tokenId] */\n      dup1\n      sload\n      not(sub(shl(0xa0, 0x01), 0x01))\n      and\n      dup2\n      sstore\n      add\n      dup1\n      sload\n      not(sub(shl(0xe8, 0x01), 0x01))\n      and\n      swap1\n      sstore\n        /* \"contracts/LiquidityController.sol\":3779:3954  function redeemNFT(uint256 tokenId, address to) external onlyAdmins {... */\n      jump\t// out\n        /* \"contracts/LiquidityController.sol\":10353:11032  function swapExactOutputSingle(... */\n    tag_86:\n        /* \"contracts/LiquidityController.sol\":10550:10566  uint256 amountIn */\n      0x00\n        /* \"contracts/LiquidityController.sol\":1881:1912  hasRole(ADMIN_ROLE, msg.sender) */\n      tag_240\n      0x00\n      dup1\n      mload\n      0x20\n      data_cb864c43dd5d441bb6271f424f11befa622c032dfd374d226e26fbbdb782b8f8\n      dup4\n      codecopy\n      dup2\n      mload\n      swap2\n      mstore\n        /* \"contracts/LiquidityController.sol\":1901:1911  msg.sender */\n      caller\n        /* \"contracts/LiquidityController.sol\":1881:1888  hasRole */\n      tag_112\n        /* \"contracts/LiquidityController.sol\":1881:1912  hasRole(ADMIN_ROLE, msg.sender) */\n      jump\t// in\n    tag_240:\n        /* \"contracts/LiquidityController.sol\":1881:1920  hasRole(ADMIN_ROLE, msg.sender) == true */\n      iszero\n      iszero\n        /* \"contracts/LiquidityController.sol\":1916:1920  true */\n      0x01\n        /* \"contracts/LiquidityController.sol\":1881:1920  hasRole(ADMIN_ROLE, msg.sender) == true */\n      eq\n      dup1\n        /* \"contracts/LiquidityController.sol\":1881:1966  hasRole(ADMIN_ROLE, msg.sender) == true || hasRole(EXECUTOR_ROLE, msg.sender) == true */\n      tag_241\n      jumpi\n      pop\n        /* \"contracts/LiquidityController.sol\":1924:1958  hasRole(EXECUTOR_ROLE, msg.sender) */\n      tag_242\n      0x00\n      dup1\n      mload\n      0x20\n      data_c690ee39c61cd2467ca78047546d7d01e837eb538ab70dac257590f3599b654a\n      dup4\n      codecopy\n      dup2\n      mload\n      swap2\n      mstore\n        /* \"contracts/LiquidityController.sol\":1947:1957  msg.sender */\n      caller\n        /* \"contracts/LiquidityController.sol\":1924:1931  hasRole */\n      tag_112\n        /* \"contracts/LiquidityController.sol\":1924:1958  hasRole(EXECUTOR_ROLE, msg.sender) */\n      jump\t// in\n    tag_242:\n        /* \"contracts/LiquidityController.sol\":1924:1966  hasRole(EXECUTOR_ROLE, msg.sender) == true */\n      iszero\n      iszero\n        /* \"contracts/LiquidityController.sol\":1962:1966  true */\n      0x01\n        /* \"contracts/LiquidityController.sol\":1924:1966  hasRole(EXECUTOR_ROLE, msg.sender) == true */\n      eq\n        /* \"contracts/LiquidityController.sol\":1881:1966  hasRole(ADMIN_ROLE, msg.sender) == true || hasRole(EXECUTOR_ROLE, msg.sender) == true */\n    tag_241:\n        /* \"contracts/LiquidityController.sol\":1869:1996  require(... */\n      tag_243\n      jumpi\n      mload(0x40)\n      shl(0xe5, 0x461bcd)\n      dup2\n      mstore\n      0x04\n      add\n      tag_168\n      swap1\n      tag_212\n      jump\t// in\n    tag_243:\n        /* \"contracts/LiquidityController.sol\":10624:10877  ISwapRouter.ExactOutputSingleParams({... */\n      0x40\n      dup1\n      mload\n      0x0100\n      dup2\n      add\n      dup3\n      mstore\n      sub(shl(0xa0, 0x01), 0x01)\n      dup1\n      dup11\n      and\n      dup3\n      mstore\n      dup9\n      dup2\n      and\n      0x20\n      dup4\n      add\n      mstore\n      0xffffff\n      dup9\n      and\n      dup3\n      dup5\n      add\n      mstore\n        /* \"contracts/LiquidityController.sol\":10734:10738  this */\n      address\n        /* \"contracts/LiquidityController.sol\":10624:10877  ISwapRouter.ExactOutputSingleParams({... */\n      0x60\n      dup4\n      add\n      mstore\n        /* \"contracts/LiquidityController.sol\":10754:10769  block.timestamp */\n      timestamp\n        /* \"contracts/LiquidityController.sol\":10624:10877  ISwapRouter.ExactOutputSingleParams({... */\n      0x80\n      dup4\n      add\n      mstore\n      0xa0\n      dup3\n      add\n      dup8\n      swap1\n      mstore\n      0xc0\n      dup3\n      add\n      dup7\n      swap1\n      mstore\n      dup5\n      dup2\n      and\n      0xe0\n      dup4\n      add\n      mstore\n        /* \"contracts/LiquidityController.sol\":10941:10977  swapRouter.exactOutputSingle(params) */\n      swap2\n      mload\n      shl(0xe3, 0x1b67c433)\n      dup2\n      mstore\n        /* \"contracts/LiquidityController.sol\":10624:10877  ISwapRouter.ExactOutputSingleParams({... */\n      swap1\n      swap2\n        /* \"contracts/LiquidityController.sol\":10941:10951  swapRouter */\n      immutable(\"0xec9dc0e935b90a8223848d74f2e39812c3ca143ad37a4076c4c95f9814669036\")\n        /* \"contracts/LiquidityController.sol\":10941:10969  swapRouter.exactOutputSingle */\n      and\n      swap1\n      0xdb3e2198\n      swap1\n        /* \"contracts/LiquidityController.sol\":10941:10977  swapRouter.exactOutputSingle(params) */\n      tag_246\n      swap1\n        /* \"contracts/LiquidityController.sol\":10624:10877  ISwapRouter.ExactOutputSingleParams({... */\n      dup5\n      swap1\n        /* \"contracts/LiquidityController.sol\":10941:10977  swapRouter.exactOutputSingle(params) */\n      0x04\n      add\n      tag_306\n      jump\t// in\n    tag_246:\n      0x20\n      mload(0x40)\n      dup1\n      dup4\n      sub\n      dup2\n      0x00\n      dup8\n      dup1\n      extcodesize\n      iszero\n      dup1\n      iszero\n      tag_248\n      jumpi\n      0x00\n      dup1\n      revert\n    tag_248:\n      pop\n      gas\n      call\n      iszero\n      dup1\n      iszero\n      tag_250\n      jumpi\n      returndatasize\n      0x00\n      dup1\n      returndatacopy\n      revert(0x00, returndatasize)\n    tag_250:\n      pop\n      pop\n      pop\n      pop\n      mload(0x40)\n      returndatasize\n      not(0x1f)\n      0x1f\n      dup3\n      add\n      and\n      dup3\n      add\n      dup1\n      0x40\n      mstore\n      pop\n      dup2\n      add\n      swap1\n      tag_251\n      swap2\n      swap1\n      tag_252\n      jump\t// in\n    tag_251:\n        /* \"contracts/LiquidityController.sol\":10930:10977  amountIn = swapRouter.exactOutputSingle(params) */\n      swap2\n      pop\n        /* \"contracts/LiquidityController.sol\":10986:11028  TokenSwap(tkn0, tkn1, amountIn, amountOut) */\n      0x1f2c1de040604eaf4a8c72b05bd7c16fae213f15cbde69ecf70dd3b97fef1f2f\n        /* \"contracts/LiquidityController.sol\":10996:11000  tkn0 */\n      dup9\n        /* \"contracts/LiquidityController.sol\":11002:11006  tkn1 */\n      dup9\n        /* \"contracts/LiquidityController.sol\":11008:11016  amountIn */\n      dup5\n        /* \"contracts/LiquidityController.sol\":11018:11027  amountOut */\n      dup9\n        /* \"contracts/LiquidityController.sol\":10986:11028  TokenSwap(tkn0, tkn1, amountIn, amountOut) */\n      mload(0x40)\n      tag_253\n      swap5\n      swap4\n      swap3\n      swap2\n      swap1\n      tag_254\n      jump\t// in\n    tag_253:\n      mload(0x40)\n      dup1\n      swap2\n      sub\n      swap1\n      log1\n        /* \"contracts/LiquidityController.sol\":2000:2001  _ */\n      pop\n        /* \"contracts/LiquidityController.sol\":10353:11032  function swapExactOutputSingle(... */\n      swap7\n      swap6\n      pop\n      pop\n      pop\n      pop\n      pop\n      pop\n      jump\t// out\n        /* \"contracts/LiquidityController.sol\":5421:5670  function approveRouter(address token0, address token1, uint256 amount0, uint256 amount1) external onlyAdmins {... */\n    tag_91:\n        /* \"contracts/LiquidityController.sol\":1768:1799  hasRole(ADMIN_ROLE, msg.sender) */\n      tag_256\n      0x00\n      dup1\n      mload\n      0x20\n      data_cb864c43dd5d441bb6271f424f11befa622c032dfd374d226e26fbbdb782b8f8\n      dup4\n      codecopy\n      dup2\n      mload\n      swap2\n      mstore\n        /* \"contracts/LiquidityController.sol\":1788:1798  msg.sender */\n      caller\n        /* \"contracts/LiquidityController.sol\":1768:1775  hasRole */\n      tag_112\n        /* \"contracts/LiquidityController.sol\":1768:1799  hasRole(ADMIN_ROLE, msg.sender) */\n      jump\t// in\n    tag_256:\n        /* \"contracts/LiquidityController.sol\":1768:1807  hasRole(ADMIN_ROLE, msg.sender) == true */\n      iszero\n      iszero\n        /* \"contracts/LiquidityController.sol\":1803:1807  true */\n      0x01\n        /* \"contracts/LiquidityController.sol\":1768:1807  hasRole(ADMIN_ROLE, msg.sender) == true */\n      eq\n        /* \"contracts/LiquidityController.sol\":1760:1821  require(hasRole(ADMIN_ROLE, msg.sender) == true, 'Not Admin') */\n      tag_257\n      jumpi\n      mload(0x40)\n      shl(0xe5, 0x461bcd)\n      dup2\n      mstore\n      0x04\n      add\n      tag_168\n      swap1\n      tag_169\n      jump\t// in\n    tag_257:\n        /* \"contracts/LiquidityController.sol\":5534:5598  TransferHelper.safeApprove(token0, address(swapRouter), amount0) */\n      tag_260\n        /* \"contracts/LiquidityController.sol\":5561:5567  token0 */\n      dup5\n        /* \"contracts/LiquidityController.sol\":5577:5587  swapRouter */\n      immutable(\"0xec9dc0e935b90a8223848d74f2e39812c3ca143ad37a4076c4c95f9814669036\")\n        /* \"contracts/LiquidityController.sol\":5590:5597  amount0 */\n      dup5\n        /* \"contracts/LiquidityController.sol\":5534:5560  TransferHelper.safeApprove */\n      tag_192\n        /* \"contracts/LiquidityController.sol\":5534:5598  TransferHelper.safeApprove(token0, address(swapRouter), amount0) */\n      jump\t// in\n    tag_260:\n        /* \"contracts/LiquidityController.sol\":5602:5666  TransferHelper.safeApprove(token1, address(swapRouter), amount1) */\n      tag_193\n        /* \"contracts/LiquidityController.sol\":5629:5635  token1 */\n      dup4\n        /* \"contracts/LiquidityController.sol\":5645:5655  swapRouter */\n      immutable(\"0xec9dc0e935b90a8223848d74f2e39812c3ca143ad37a4076c4c95f9814669036\")\n        /* \"contracts/LiquidityController.sol\":5658:5665  amount1 */\n      dup4\n        /* \"contracts/LiquidityController.sol\":5602:5628  TransferHelper.safeApprove */\n      tag_192\n        /* \"contracts/LiquidityController.sol\":5602:5666  TransferHelper.safeApprove(token1, address(swapRouter), amount1) */\n      jump\t// in\n        /* \"contracts/LiquidityController.sol\":548:608  bytes32 public constant ADMIN_ROLE = keccak256('ADMIN_ROLE') */\n    tag_93:\n      0x00\n      dup1\n      mload\n      0x20\n      data_cb864c43dd5d441bb6271f424f11befa622c032dfd374d226e26fbbdb782b8f8\n      dup4\n      codecopy\n      dup2\n      mload\n      swap2\n      mstore\n      dup2\n      jump\t// out\n        /* \"contracts/LiquidityController.sol\":4133:4327  function transferForDeposit(uint256 tokenId, uint256 amount0, uint256 amount1) external onlyAdmins {... */\n    tag_98:\n        /* \"contracts/LiquidityController.sol\":1768:1799  hasRole(ADMIN_ROLE, msg.sender) */\n      tag_263\n      0x00\n      dup1\n      mload\n      0x20\n      data_cb864c43dd5d441bb6271f424f11befa622c032dfd374d226e26fbbdb782b8f8\n      dup4\n      codecopy\n      dup2\n      mload\n      swap2\n      mstore\n        /* \"contracts/LiquidityController.sol\":1788:1798  msg.sender */\n      caller\n        /* \"contracts/LiquidityController.sol\":1768:1775  hasRole */\n      tag_112\n        /* \"contracts/LiquidityController.sol\":1768:1799  hasRole(ADMIN_ROLE, msg.sender) */\n      jump\t// in\n    tag_263:\n        /* \"contracts/LiquidityController.sol\":1768:1807  hasRole(ADMIN_ROLE, msg.sender) == true */\n      iszero\n      iszero\n        /* \"contracts/LiquidityController.sol\":1803:1807  true */\n      0x01\n        /* \"contracts/LiquidityController.sol\":1768:1807  hasRole(ADMIN_ROLE, msg.sender) == true */\n      eq\n        /* \"contracts/LiquidityController.sol\":1760:1821  require(hasRole(ADMIN_ROLE, msg.sender) == true, 'Not Admin') */\n      tag_264\n      jumpi\n      mload(0x40)\n      shl(0xe5, 0x461bcd)\n      dup2\n      mstore\n      0x04\n      add\n      tag_168\n      swap1\n      tag_169\n      jump\t// in\n    tag_264:\n        /* \"contracts/LiquidityController.sol\":4254:4271  deposits[tokenId] */\n      0x00\n      dup4\n      dup2\n      mstore\n        /* \"contracts/LiquidityController.sol\":4254:4262  deposits */\n      0x01\n        /* \"contracts/LiquidityController.sol\":4254:4271  deposits[tokenId] */\n      0x20\n      dup2\n      swap1\n      mstore\n      0x40\n      swap1\n      swap2\n      keccak256\n        /* \"contracts/LiquidityController.sol\":4254:4278  deposits[tokenId].token0 */\n      dup1\n      sload\n        /* \"contracts/LiquidityController.sol\":4280:4304  deposits[tokenId].token1 */\n      swap2\n      add\n      sload\n        /* \"contracts/LiquidityController.sol\":4236:4323  transferForTokens(deposits[tokenId].token0, deposits[tokenId].token1, amount0, amount1) */\n      tag_171\n      swap2\n      sub(shl(0xa0, 0x01), 0x01)\n        /* \"contracts/LiquidityController.sol\":4254:4278  deposits[tokenId].token0 */\n      swap1\n      dup2\n      and\n      swap2\n        /* \"contracts/LiquidityController.sol\":4280:4304  deposits[tokenId].token1 */\n      and\n        /* \"contracts/LiquidityController.sol\":4306:4313  amount0 */\n      dup5\n        /* \"contracts/LiquidityController.sol\":4315:4322  amount1 */\n      dup5\n        /* \"contracts/LiquidityController.sol\":4236:4253  transferForTokens */\n      tag_154\n        /* \"contracts/LiquidityController.sol\":4236:4323  transferForTokens(deposits[tokenId].token0, deposits[tokenId].token1, amount0, amount1) */\n      jump\t// in\n        /* \"contracts/LiquidityController.sol\":8713:9486  function decreaseLiquidity(... */\n    tag_102:\n        /* \"contracts/LiquidityController.sol\":8867:8882  uint256 amount0 */\n      0x00\n        /* \"contracts/LiquidityController.sol\":8884:8899  uint256 amount1 */\n      dup1\n        /* \"contracts/LiquidityController.sol\":1881:1912  hasRole(ADMIN_ROLE, msg.sender) */\n      tag_269\n      0x00\n      dup1\n      mload\n      0x20\n      data_cb864c43dd5d441bb6271f424f11befa622c032dfd374d226e26fbbdb782b8f8\n      dup4\n      codecopy\n      dup2\n      mload\n      swap2\n      mstore\n        /* \"contracts/LiquidityController.sol\":1901:1911  msg.sender */\n      caller\n        /* \"contracts/LiquidityController.sol\":1881:1888  hasRole */\n      tag_112\n        /* \"contracts/LiquidityController.sol\":1881:1912  hasRole(ADMIN_ROLE, msg.sender) */\n      jump\t// in\n    tag_269:\n        /* \"contracts/LiquidityController.sol\":1881:1920  hasRole(ADMIN_ROLE, msg.sender) == true */\n      iszero\n      iszero\n        /* \"contracts/LiquidityController.sol\":1916:1920  true */\n      0x01\n        /* \"contracts/LiquidityController.sol\":1881:1920  hasRole(ADMIN_ROLE, msg.sender) == true */\n      eq\n      dup1\n        /* \"contracts/LiquidityController.sol\":1881:1966  hasRole(ADMIN_ROLE, msg.sender) == true || hasRole(EXECUTOR_ROLE, msg.sender) == true */\n      tag_270\n      jumpi\n      pop\n        /* \"contracts/LiquidityController.sol\":1924:1958  hasRole(EXECUTOR_ROLE, msg.sender) */\n      tag_271\n      0x00\n      dup1\n      mload\n      0x20\n      data_c690ee39c61cd2467ca78047546d7d01e837eb538ab70dac257590f3599b654a\n      dup4\n      codecopy\n      dup2\n      mload\n      swap2\n      mstore\n        /* \"contracts/LiquidityController.sol\":1947:1957  msg.sender */\n      caller\n        /* \"contracts/LiquidityController.sol\":1924:1931  hasRole */\n      tag_112\n        /* \"contracts/LiquidityController.sol\":1924:1958  hasRole(EXECUTOR_ROLE, msg.sender) */\n      jump\t// in\n    tag_271:\n        /* \"contracts/LiquidityController.sol\":1924:1966  hasRole(EXECUTOR_ROLE, msg.sender) == true */\n      iszero\n      iszero\n        /* \"contracts/LiquidityController.sol\":1962:1966  true */\n      0x01\n        /* \"contracts/LiquidityController.sol\":1924:1966  hasRole(EXECUTOR_ROLE, msg.sender) == true */\n      eq\n        /* \"contracts/LiquidityController.sol\":1881:1966  hasRole(ADMIN_ROLE, msg.sender) == true || hasRole(EXECUTOR_ROLE, msg.sender) == true */\n    tag_270:\n        /* \"contracts/LiquidityController.sol\":1869:1996  require(... */\n      tag_272\n      jumpi\n      mload(0x40)\n      shl(0xe5, 0x461bcd)\n      dup2\n      mstore\n      0x04\n      add\n      tag_168\n      swap1\n      tag_212\n      jump\t// in\n    tag_272:\n        /* \"contracts/LiquidityController.sol\":9142:9339  INonfungiblePositionManager... */\n      0x40\n      dup1\n      mload\n      0xa0\n      dup2\n      add\n      dup3\n      mstore\n      dup8\n      dup2\n      mstore\n      sub(shl(0x80, 0x01), 0x01)\n      dup8\n      and\n      0x20\n      dup3\n      add\n      mstore\n      dup1\n      dup3\n      add\n      dup7\n      swap1\n      mstore\n      0x60\n      dup2\n      add\n      dup6\n      swap1\n      mstore\n        /* \"contracts/LiquidityController.sol\":9318:9333  block.timestamp */\n      timestamp\n        /* \"contracts/LiquidityController.sol\":9142:9339  INonfungiblePositionManager... */\n      0x80\n      dup3\n      add\n      mstore\n        /* \"contracts/LiquidityController.sol\":9365:9417  nonfungiblePositionManager.decreaseLiquidity(params) */\n      swap1\n      mload\n      shl(0xe1, 0x0624e65f)\n      dup2\n      mstore\n      sub(shl(0xa0, 0x01), 0x01)\n        /* \"contracts/LiquidityController.sol\":9365:9391  nonfungiblePositionManager */\n      immutable(\"0x3ddd8062d7de47998a8389f96b9f0c4a8108649857e6f7c8fae13cec90a10e14\")\n        /* \"contracts/LiquidityController.sol\":9365:9409  nonfungiblePositionManager.decreaseLiquidity */\n      and\n      swap1\n      0x0c49ccbe\n      swap1\n        /* \"contracts/LiquidityController.sol\":9365:9417  nonfungiblePositionManager.decreaseLiquidity(params) */\n      tag_275\n      swap1\n        /* \"contracts/LiquidityController.sol\":9142:9339  INonfungiblePositionManager... */\n      dup5\n      swap1\n        /* \"contracts/LiquidityController.sol\":9365:9417  nonfungiblePositionManager.decreaseLiquidity(params) */\n      0x04\n      add\n      tag_276\n      jump\t// in\n    tag_275:\n      0x40\n      dup1\n      mload\n      dup1\n      dup4\n      sub\n      dup2\n      0x00\n      dup8\n      dup1\n      extcodesize\n      iszero\n      dup1\n      iszero\n      tag_277\n      jumpi\n      0x00\n      dup1\n      revert\n    tag_277:\n      pop\n      gas\n      call\n      iszero\n      dup1\n      iszero\n      tag_279\n      jumpi\n      returndatasize\n      0x00\n      dup1\n      returndatacopy\n      revert(0x00, returndatasize)\n    tag_279:\n      pop\n      pop\n      pop\n      pop\n      mload(0x40)\n      returndatasize\n      not(0x1f)\n      0x1f\n      dup3\n      add\n      and\n      dup3\n      add\n      dup1\n      0x40\n      mstore\n      pop\n      dup2\n      add\n      swap1\n      tag_280\n      swap2\n      swap1\n      tag_226\n      jump\t// in\n    tag_280:\n        /* \"contracts/LiquidityController.sol\":9426:9482  LiquidityDecreased(tokenId, amount0, amount1, liquidity) */\n      mload(0x40)\n        /* \"contracts/LiquidityController.sol\":9344:9417  (amount0, amount1) = nonfungiblePositionManager.decreaseLiquidity(params) */\n      swap2\n      swap5\n      pop\n      swap3\n      pop\n        /* \"contracts/LiquidityController.sol\":9426:9482  LiquidityDecreased(tokenId, amount0, amount1, liquidity) */\n      0xc79cb6614f7bcc31f0121c4db623a782836f42b2d8e5290a19340bdbc25032f7\n      swap1\n      tag_281\n      swap1\n        /* \"contracts/LiquidityController.sol\":9445:9452  tokenId */\n      dup10\n      swap1\n        /* \"contracts/LiquidityController.sol\":9344:9417  (amount0, amount1) = nonfungiblePositionManager.decreaseLiquidity(params) */\n      dup7\n      swap1\n      dup7\n      swap1\n        /* \"contracts/LiquidityController.sol\":9472:9481  liquidity */\n      dup12\n      swap1\n        /* \"contracts/LiquidityController.sol\":9426:9482  LiquidityDecreased(tokenId, amount0, amount1, liquidity) */\n      tag_282\n      jump\t// in\n    tag_281:\n      mload(0x40)\n      dup1\n      swap2\n      sub\n      swap1\n      log1\n        /* \"contracts/LiquidityController.sol\":2000:2001  _ */\n      pop\n        /* \"contracts/LiquidityController.sol\":8713:9486  function decreaseLiquidity(... */\n      swap5\n      pop\n      swap5\n      swap3\n      pop\n      pop\n      pop\n      jump\t// out\n        /* \"@openzeppelin/contracts/access/AccessControl.sol\":3965:4101  function getRoleMember(bytes32 role, uint256 index) public view returns (address) {... */\n    tag_107:\n        /* \"@openzeppelin/contracts/access/AccessControl.sol\":4038:4045  address */\n      0x00\n        /* \"@openzeppelin/contracts/access/AccessControl.sol\":4064:4076  _roles[role] */\n      dup3\n      dup2\n      mstore\n      0x20\n      dup2\n      swap1\n      mstore\n      0x40\n      dup2\n      keccak256\n        /* \"@openzeppelin/contracts/access/AccessControl.sol\":4064:4094  _roles[role].members.at(index) */\n      tag_284\n      swap1\n        /* \"@openzeppelin/contracts/access/AccessControl.sol\":4088:4093  index */\n      dup4\n        /* \"@openzeppelin/contracts/access/AccessControl.sol\":4064:4087  _roles[role].members.at */\n      tag_285\n        /* \"@openzeppelin/contracts/access/AccessControl.sol\":4064:4094  _roles[role].members.at(index) */\n      jump\t// in\n    tag_284:\n        /* \"@openzeppelin/contracts/access/AccessControl.sol\":4057:4094  return _roles[role].members.at(index) */\n      swap1\n      pop\n        /* \"@openzeppelin/contracts/access/AccessControl.sol\":3965:4101  function getRoleMember(bytes32 role, uint256 index) public view returns (address) {... */\n    tag_283:\n      swap3\n      swap2\n      pop\n      pop\n      jump\t// out\n        /* \"@openzeppelin/contracts/access/AccessControl.sol\":2950:3087  function hasRole(bytes32 role, address account) public view returns (bool) {... */\n    tag_112:\n        /* \"@openzeppelin/contracts/access/AccessControl.sol\":3019:3023  bool */\n      0x00\n        /* \"@openzeppelin/contracts/access/AccessControl.sol\":3042:3054  _roles[role] */\n      dup3\n      dup2\n      mstore\n      0x20\n      dup2\n      swap1\n      mstore\n      0x40\n      dup2\n      keccak256\n        /* \"@openzeppelin/contracts/access/AccessControl.sol\":3042:3080  _roles[role].members.contains(account) */\n      tag_284\n      swap1\n        /* \"@openzeppelin/contracts/access/AccessControl.sol\":3072:3079  account */\n      dup4\n        /* \"@openzeppelin/contracts/access/AccessControl.sol\":3042:3071  _roles[role].members.contains */\n      tag_288\n        /* \"@openzeppelin/contracts/access/AccessControl.sol\":3042:3080  _roles[role].members.contains(account) */\n      jump\t// in\n        /* \"@openzeppelin/contracts/access/AccessControl.sol\":1727:1776  bytes32 public constant DEFAULT_ADMIN_ROLE = 0x00 */\n    tag_116:\n        /* \"@openzeppelin/contracts/access/AccessControl.sol\":1772:1776  0x00 */\n      0x00\n        /* \"@openzeppelin/contracts/access/AccessControl.sol\":1727:1776  bytes32 public constant DEFAULT_ADMIN_ROLE = 0x00 */\n      dup2\n      jump\t// out\n        /* \"contracts/LiquidityController.sol\":4744:5133  function approveInfinity(address token0, address token1) external onlyAdmins {... */\n    tag_120:\n        /* \"contracts/LiquidityController.sol\":1768:1799  hasRole(ADMIN_ROLE, msg.sender) */\n      tag_290\n      0x00\n      dup1\n      mload\n      0x20\n      data_cb864c43dd5d441bb6271f424f11befa622c032dfd374d226e26fbbdb782b8f8\n      dup4\n      codecopy\n      dup2\n      mload\n      swap2\n      mstore\n        /* \"contracts/LiquidityController.sol\":1788:1798  msg.sender */\n      caller\n        /* \"contracts/LiquidityController.sol\":1768:1775  hasRole */\n      tag_112\n        /* \"contracts/LiquidityController.sol\":1768:1799  hasRole(ADMIN_ROLE, msg.sender) */\n      jump\t// in\n    tag_290:\n        /* \"contracts/LiquidityController.sol\":1768:1807  hasRole(ADMIN_ROLE, msg.sender) == true */\n      iszero\n      iszero\n        /* \"contracts/LiquidityController.sol\":1803:1807  true */\n      0x01\n        /* \"contracts/LiquidityController.sol\":1768:1807  hasRole(ADMIN_ROLE, msg.sender) == true */\n      eq\n        /* \"contracts/LiquidityController.sol\":1760:1821  require(hasRole(ADMIN_ROLE, msg.sender) == true, 'Not Admin') */\n      tag_291\n      jumpi\n      mload(0x40)\n      shl(0xe5, 0x461bcd)\n      dup2\n      mstore\n      0x04\n      add\n      tag_168\n      swap1\n      tag_169\n      jump\t// in\n    tag_291:\n        /* \"contracts/LiquidityController.sol\":4825:4906  TransferHelper.safeApprove(token0, address(nonfungiblePositionManager), 1 << 255) */\n      tag_294\n        /* \"contracts/LiquidityController.sol\":4852:4858  token0 */\n      dup3\n        /* \"contracts/LiquidityController.sol\":4868:4894  nonfungiblePositionManager */\n      immutable(\"0x3ddd8062d7de47998a8389f96b9f0c4a8108649857e6f7c8fae13cec90a10e14\")\n      shl(0xff, 0x01)\n        /* \"contracts/LiquidityController.sol\":4825:4851  TransferHelper.safeApprove */\n      tag_192\n        /* \"contracts/LiquidityController.sol\":4825:4906  TransferHelper.safeApprove(token0, address(nonfungiblePositionManager), 1 << 255) */\n      jump\t// in\n    tag_294:\n        /* \"contracts/LiquidityController.sol\":4910:4991  TransferHelper.safeApprove(token1, address(nonfungiblePositionManager), 1 << 255) */\n      tag_295\n        /* \"contracts/LiquidityController.sol\":4937:4943  token1 */\n      dup2\n        /* \"contracts/LiquidityController.sol\":4953:4979  nonfungiblePositionManager */\n      immutable(\"0x3ddd8062d7de47998a8389f96b9f0c4a8108649857e6f7c8fae13cec90a10e14\")\n      shl(0xff, 0x01)\n        /* \"contracts/LiquidityController.sol\":4910:4936  TransferHelper.safeApprove */\n      tag_192\n        /* \"contracts/LiquidityController.sol\":4910:4991  TransferHelper.safeApprove(token1, address(nonfungiblePositionManager), 1 << 255) */\n      jump\t// in\n    tag_295:\n        /* \"contracts/LiquidityController.sol\":4995:5060  TransferHelper.safeApprove(token0, address(swapRouter), 1 << 255) */\n      tag_296\n        /* \"contracts/LiquidityController.sol\":5022:5028  token0 */\n      dup3\n        /* \"contracts/LiquidityController.sol\":5038:5048  swapRouter */\n      immutable(\"0xec9dc0e935b90a8223848d74f2e39812c3ca143ad37a4076c4c95f9814669036\")\n      shl(0xff, 0x01)\n        /* \"contracts/LiquidityController.sol\":4995:5021  TransferHelper.safeApprove */\n      tag_192\n        /* \"contracts/LiquidityController.sol\":4995:5060  TransferHelper.safeApprove(token0, address(swapRouter), 1 << 255) */\n      jump\t// in\n    tag_296:\n        /* \"contracts/LiquidityController.sol\":5064:5129  TransferHelper.safeApprove(token1, address(swapRouter), 1 << 255) */\n      tag_199\n        /* \"contracts/LiquidityController.sol\":5091:5097  token1 */\n      dup2\n        /* \"contracts/LiquidityController.sol\":5107:5117  swapRouter */\n      immutable(\"0xec9dc0e935b90a8223848d74f2e39812c3ca143ad37a4076c4c95f9814669036\")\n      shl(0xff, 0x01)\n        /* \"contracts/LiquidityController.sol\":5064:5090  TransferHelper.safeApprove */\n      tag_192\n        /* \"contracts/LiquidityController.sol\":5064:5129  TransferHelper.safeApprove(token1, address(swapRouter), 1 << 255) */\n      jump\t// in\n        /* \"contracts/LiquidityController.sol\":1048:1091  mapping(uint256 => Deposit) public deposits */\n    tag_124:\n      0x01\n      0x20\n      dup2\n      swap1\n      mstore\n      0x00\n      swap2\n      dup3\n      mstore\n      0x40\n      swap1\n      swap2\n      keccak256\n      dup1\n      sload\n      swap2\n      add\n      sload\n      sub(shl(0xa0, 0x01), 0x01)\n      swap2\n      dup3\n      and\n      swap2\n      dup2\n      and\n      swap1\n      0xffffff\n      shl(0xa0, 0x01)\n      dup3\n      div\n      and\n      swap1\n      shl(0xb8, 0x01)\n      dup2\n      div\n      0x02\n      swap1\n      dup2\n      signextend\n      swap2\n      shl(0xd0, 0x01)\n      swap1\n      div\n      swap1\n      signextend\n      dup6\n      jump\t// out\n        /* \"contracts/LiquidityController.sol\":681:752  INonfungiblePositionManager public immutable nonfungiblePositionManager */\n    tag_128:\n      immutable(\"0x3ddd8062d7de47998a8389f96b9f0c4a8108649857e6f7c8fae13cec90a10e14\")\n      dup2\n      jump\t// out\n        /* \"contracts/LiquidityController.sol\":9581:10258  function swapExactInputSingle(... */\n    tag_133:\n        /* \"contracts/LiquidityController.sol\":9777:9794  uint256 amountOut */\n      0x00\n        /* \"contracts/LiquidityController.sol\":1881:1912  hasRole(ADMIN_ROLE, msg.sender) */\n      tag_299\n      0x00\n      dup1\n      mload\n      0x20\n      data_cb864c43dd5d441bb6271f424f11befa622c032dfd374d226e26fbbdb782b8f8\n      dup4\n      codecopy\n      dup2\n      mload\n      swap2\n      mstore\n        /* \"contracts/LiquidityController.sol\":1901:1911  msg.sender */\n      caller\n        /* \"contracts/LiquidityController.sol\":1881:1888  hasRole */\n      tag_112\n        /* \"contracts/LiquidityController.sol\":1881:1912  hasRole(ADMIN_ROLE, msg.sender) */\n      jump\t// in\n    tag_299:\n        /* \"contracts/LiquidityController.sol\":1881:1920  hasRole(ADMIN_ROLE, msg.sender) == true */\n      iszero\n      iszero\n        /* \"contracts/LiquidityController.sol\":1916:1920  true */\n      0x01\n        /* \"contracts/LiquidityController.sol\":1881:1920  hasRole(ADMIN_ROLE, msg.sender) == true */\n      eq\n      dup1\n        /* \"contracts/LiquidityController.sol\":1881:1966  hasRole(ADMIN_ROLE, msg.sender) == true || hasRole(EXECUTOR_ROLE, msg.sender) == true */\n      tag_300\n      jumpi\n      pop\n        /* \"contracts/LiquidityController.sol\":1924:1958  hasRole(EXECUTOR_ROLE, msg.sender) */\n      tag_301\n      0x00\n      dup1\n      mload\n      0x20\n      data_c690ee39c61cd2467ca78047546d7d01e837eb538ab70dac257590f3599b654a\n      dup4\n      codecopy\n      dup2\n      mload\n      swap2\n      mstore\n        /* \"contracts/LiquidityController.sol\":1947:1957  msg.sender */\n      caller\n        /* \"contracts/LiquidityController.sol\":1924:1931  hasRole */\n      tag_112\n        /* \"contracts/LiquidityController.sol\":1924:1958  hasRole(EXECUTOR_ROLE, msg.sender) */\n      jump\t// in\n    tag_301:\n        /* \"contracts/LiquidityController.sol\":1924:1966  hasRole(EXECUTOR_ROLE, msg.sender) == true */\n      iszero\n      iszero\n        /* \"contracts/LiquidityController.sol\":1962:1966  true */\n      0x01\n        /* \"contracts/LiquidityController.sol\":1924:1966  hasRole(EXECUTOR_ROLE, msg.sender) == true */\n      eq\n        /* \"contracts/LiquidityController.sol\":1881:1966  hasRole(ADMIN_ROLE, msg.sender) == true || hasRole(EXECUTOR_ROLE, msg.sender) == true */\n    tag_300:\n        /* \"contracts/LiquidityController.sol\":1869:1996  require(... */\n      tag_302\n      jumpi\n      mload(0x40)\n      shl(0xe5, 0x461bcd)\n      dup2\n      mstore\n      0x04\n      add\n      tag_168\n      swap1\n      tag_212\n      jump\t// in\n    tag_302:\n        /* \"contracts/LiquidityController.sol\":9851:10103  ISwapRouter.ExactInputSingleParams({... */\n      0x40\n      dup1\n      mload\n      0x0100\n      dup2\n      add\n      dup3\n      mstore\n      sub(shl(0xa0, 0x01), 0x01)\n      dup1\n      dup11\n      and\n      dup3\n      mstore\n      dup9\n      dup2\n      and\n      0x20\n      dup4\n      add\n      mstore\n      0xffffff\n      dup9\n      and\n      dup3\n      dup5\n      add\n      mstore\n        /* \"contracts/LiquidityController.sol\":9960:9964  this */\n      address\n        /* \"contracts/LiquidityController.sol\":9851:10103  ISwapRouter.ExactInputSingleParams({... */\n      0x60\n      dup4\n      add\n      mstore\n        /* \"contracts/LiquidityController.sol\":9980:9995  block.timestamp */\n      timestamp\n        /* \"contracts/LiquidityController.sol\":9851:10103  ISwapRouter.ExactInputSingleParams({... */\n      0x80\n      dup4\n      add\n      mstore\n      0xa0\n      dup3\n      add\n      dup8\n      swap1\n      mstore\n      0xc0\n      dup3\n      add\n      dup7\n      swap1\n      mstore\n      dup5\n      dup2\n      and\n      0xe0\n      dup4\n      add\n      mstore\n        /* \"contracts/LiquidityController.sol\":10168:10203  swapRouter.exactInputSingle(params) */\n      swap2\n      mload\n      shl(0xe0, 0x414bf389)\n      dup2\n      mstore\n        /* \"contracts/LiquidityController.sol\":9851:10103  ISwapRouter.ExactInputSingleParams({... */\n      swap1\n      swap2\n        /* \"contracts/LiquidityController.sol\":10168:10178  swapRouter */\n      immutable(\"0xec9dc0e935b90a8223848d74f2e39812c3ca143ad37a4076c4c95f9814669036\")\n        /* \"contracts/LiquidityController.sol\":10168:10195  swapRouter.exactInputSingle */\n      and\n      swap1\n      0x414bf389\n      swap1\n        /* \"contracts/LiquidityController.sol\":10168:10203  swapRouter.exactInputSingle(params) */\n      tag_305\n      swap1\n        /* \"contracts/LiquidityController.sol\":9851:10103  ISwapRouter.ExactInputSingleParams({... */\n      dup5\n      swap1\n        /* \"contracts/LiquidityController.sol\":10168:10203  swapRouter.exactInputSingle(params) */\n      0x04\n      add\n      tag_306\n      jump\t// in\n    tag_305:\n      0x20\n      mload(0x40)\n      dup1\n      dup4\n      sub\n      dup2\n      0x00\n      dup8\n      dup1\n      extcodesize\n      iszero\n      dup1\n      iszero\n      tag_307\n      jumpi\n      0x00\n      dup1\n      revert\n    tag_307:\n      pop\n      gas\n      call\n      iszero\n      dup1\n      iszero\n      tag_309\n      jumpi\n      returndatasize\n      0x00\n      dup1\n      returndatacopy\n      revert(0x00, returndatasize)\n    tag_309:\n      pop\n      pop\n      pop\n      pop\n      mload(0x40)\n      returndatasize\n      not(0x1f)\n      0x1f\n      dup3\n      add\n      and\n      dup3\n      add\n      dup1\n      0x40\n      mstore\n      pop\n      dup2\n      add\n      swap1\n      tag_310\n      swap2\n      swap1\n      tag_252\n      jump\t// in\n    tag_310:\n        /* \"contracts/LiquidityController.sol\":10156:10203  amountOut = swapRouter.exactInputSingle(params) */\n      swap2\n      pop\n        /* \"contracts/LiquidityController.sol\":10212:10254  TokenSwap(tkn0, tkn1, amountIn, amountOut) */\n      0x1f2c1de040604eaf4a8c72b05bd7c16fae213f15cbde69ecf70dd3b97fef1f2f\n        /* \"contracts/LiquidityController.sol\":10222:10226  tkn0 */\n      dup9\n        /* \"contracts/LiquidityController.sol\":10228:10232  tkn1 */\n      dup9\n        /* \"contracts/LiquidityController.sol\":10234:10242  amountIn */\n      dup8\n        /* \"contracts/LiquidityController.sol\":10244:10253  amountOut */\n      dup6\n        /* \"contracts/LiquidityController.sol\":10212:10254  TokenSwap(tkn0, tkn1, amountIn, amountOut) */\n      mload(0x40)\n      tag_253\n      swap5\n      swap4\n      swap3\n      swap2\n      swap1\n      tag_254\n      jump\t// in\n        /* \"contracts/LiquidityController.sol\":755:794  ISwapRouter public immutable swapRouter */\n    tag_136:\n      immutable(\"0xec9dc0e935b90a8223848d74f2e39812c3ca143ad37a4076c4c95f9814669036\")\n      dup2\n      jump\t// out\n        /* \"contracts/LiquidityController.sol\":7858:8618  function increaseLiquidity(... */\n    tag_142:\n        /* \"contracts/LiquidityController.sol\":8043:8060  uint128 liquidity */\n      0x00\n        /* \"contracts/LiquidityController.sol\":8062:8077  uint256 amount0 */\n      dup1\n        /* \"contracts/LiquidityController.sol\":8079:8094  uint256 amount1 */\n      0x00\n        /* \"contracts/LiquidityController.sol\":1881:1912  hasRole(ADMIN_ROLE, msg.sender) */\n      tag_313\n      0x00\n      dup1\n      mload\n      0x20\n      data_cb864c43dd5d441bb6271f424f11befa622c032dfd374d226e26fbbdb782b8f8\n      dup4\n      codecopy\n      dup2\n      mload\n      swap2\n      mstore\n        /* \"contracts/LiquidityController.sol\":1901:1911  msg.sender */\n      caller\n        /* \"contracts/LiquidityController.sol\":1881:1888  hasRole */\n      tag_112\n        /* \"contracts/LiquidityController.sol\":1881:1912  hasRole(ADMIN_ROLE, msg.sender) */\n      jump\t// in\n    tag_313:\n        /* \"contracts/LiquidityController.sol\":1881:1920  hasRole(ADMIN_ROLE, msg.sender) == true */\n      iszero\n      iszero\n        /* \"contracts/LiquidityController.sol\":1916:1920  true */\n      0x01\n        /* \"contracts/LiquidityController.sol\":1881:1920  hasRole(ADMIN_ROLE, msg.sender) == true */\n      eq\n      dup1\n        /* \"contracts/LiquidityController.sol\":1881:1966  hasRole(ADMIN_ROLE, msg.sender) == true || hasRole(EXECUTOR_ROLE, msg.sender) == true */\n      tag_314\n      jumpi\n      pop\n        /* \"contracts/LiquidityController.sol\":1924:1958  hasRole(EXECUTOR_ROLE, msg.sender) */\n      tag_315\n      0x00\n      dup1\n      mload\n      0x20\n      data_c690ee39c61cd2467ca78047546d7d01e837eb538ab70dac257590f3599b654a\n      dup4\n      codecopy\n      dup2\n      mload\n      swap2\n      mstore\n        /* \"contracts/LiquidityController.sol\":1947:1957  msg.sender */\n      caller\n        /* \"contracts/LiquidityController.sol\":1924:1931  hasRole */\n      tag_112\n        /* \"contracts/LiquidityController.sol\":1924:1958  hasRole(EXECUTOR_ROLE, msg.sender) */\n      jump\t// in\n    tag_315:\n        /* \"contracts/LiquidityController.sol\":1924:1966  hasRole(EXECUTOR_ROLE, msg.sender) == true */\n      iszero\n      iszero\n        /* \"contracts/LiquidityController.sol\":1962:1966  true */\n      0x01\n        /* \"contracts/LiquidityController.sol\":1924:1966  hasRole(EXECUTOR_ROLE, msg.sender) == true */\n      eq\n        /* \"contracts/LiquidityController.sol\":1881:1966  hasRole(ADMIN_ROLE, msg.sender) == true || hasRole(EXECUTOR_ROLE, msg.sender) == true */\n    tag_314:\n        /* \"contracts/LiquidityController.sol\":1869:1996  require(... */\n      tag_316\n      jumpi\n      mload(0x40)\n      shl(0xe5, 0x461bcd)\n      dup2\n      mstore\n      0x04\n      add\n      tag_168\n      swap1\n      tag_212\n      jump\t// in\n    tag_316:\n        /* \"contracts/LiquidityController.sol\":8168:8411  INonfungiblePositionManager... */\n      0x40\n      dup1\n      mload\n      0xc0\n      dup2\n      add\n      dup3\n      mstore\n      dup10\n      dup2\n      mstore\n      0x20\n      dup2\n      add\n      dup10\n      swap1\n      mstore\n      dup1\n      dup3\n      add\n      dup9\n      swap1\n      mstore\n      0x60\n      dup2\n      add\n      dup8\n      swap1\n      mstore\n      0x80\n      dup2\n      add\n      dup7\n      swap1\n      mstore\n        /* \"contracts/LiquidityController.sol\":8390:8405  block.timestamp */\n      timestamp\n        /* \"contracts/LiquidityController.sol\":8168:8411  INonfungiblePositionManager... */\n      0xa0\n      dup3\n      add\n      mstore\n        /* \"contracts/LiquidityController.sol\":8497:8549  nonfungiblePositionManager.increaseLiquidity(params) */\n      swap1\n      mload\n      shl(0xe0, 0x219f5d17)\n      dup2\n      mstore\n      sub(shl(0xa0, 0x01), 0x01)\n        /* \"contracts/LiquidityController.sol\":8497:8523  nonfungiblePositionManager */\n      immutable(\"0x3ddd8062d7de47998a8389f96b9f0c4a8108649857e6f7c8fae13cec90a10e14\")\n        /* \"contracts/LiquidityController.sol\":8497:8541  nonfungiblePositionManager.increaseLiquidity */\n      and\n      swap1\n      0x219f5d17\n      swap1\n        /* \"contracts/LiquidityController.sol\":8497:8549  nonfungiblePositionManager.increaseLiquidity(params) */\n      tag_319\n      swap1\n        /* \"contracts/LiquidityController.sol\":8168:8411  INonfungiblePositionManager... */\n      dup5\n      swap1\n        /* \"contracts/LiquidityController.sol\":8497:8549  nonfungiblePositionManager.increaseLiquidity(params) */\n      0x04\n      add\n      tag_320\n      jump\t// in\n    tag_319:\n      0x60\n      mload(0x40)\n      dup1\n      dup4\n      sub\n      dup2\n      0x00\n      dup8\n      dup1\n      extcodesize\n      iszero\n      dup1\n      iszero\n      tag_321\n      jumpi\n      0x00\n      dup1\n      revert\n    tag_321:\n      pop\n      gas\n      call\n      iszero\n      dup1\n      iszero\n      tag_323\n      jumpi\n      returndatasize\n      0x00\n      dup1\n      returndatacopy\n      revert(0x00, returndatasize)\n    tag_323:\n      pop\n      pop\n      pop\n      pop\n      mload(0x40)\n      returndatasize\n      not(0x1f)\n      0x1f\n      dup3\n      add\n      and\n      dup3\n      add\n      dup1\n      0x40\n      mstore\n      pop\n      dup2\n      add\n      swap1\n      tag_324\n      swap2\n      swap1\n      tag_325\n      jump\t// in\n    tag_324:\n        /* \"contracts/LiquidityController.sol\":8558:8614  LiquidityIncreased(tokenId, amount0, amount1, liquidity) */\n      mload(0x40)\n        /* \"contracts/LiquidityController.sol\":8465:8549  (liquidity, amount0, amount1) = nonfungiblePositionManager.increaseLiquidity(params) */\n      swap3\n      swap7\n      pop\n      swap1\n      swap5\n      pop\n      swap3\n      pop\n        /* \"contracts/LiquidityController.sol\":8558:8614  LiquidityIncreased(tokenId, amount0, amount1, liquidity) */\n      0x2d6edbed0a944a56e78d8ced0bc4794533b38938655f47c5a423559a1163b104\n      swap1\n      tag_326\n      swap1\n        /* \"contracts/LiquidityController.sol\":8577:8584  tokenId */\n      dup12\n      swap1\n        /* \"contracts/LiquidityController.sol\":8465:8549  (liquidity, amount0, amount1) = nonfungiblePositionManager.increaseLiquidity(params) */\n      dup7\n      swap1\n      dup7\n      swap1\n      dup10\n      swap1\n        /* \"contracts/LiquidityController.sol\":8558:8614  LiquidityIncreased(tokenId, amount0, amount1, liquidity) */\n      tag_282\n      jump\t// in\n    tag_326:\n      mload(0x40)\n      dup1\n      swap2\n      sub\n      swap1\n      log1\n        /* \"contracts/LiquidityController.sol\":2000:2001  _ */\n      pop\n        /* \"contracts/LiquidityController.sol\":7858:8618  function increaseLiquidity(... */\n      swap6\n      pop\n      swap6\n      pop\n      swap6\n      swap3\n      pop\n      pop\n      pop\n      jump\t// out\n        /* \"@openzeppelin/contracts/access/AccessControl.sol\":3255:3380  function getRoleMemberCount(bytes32 role) public view returns (uint256) {... */\n    tag_147:\n        /* \"@openzeppelin/contracts/access/AccessControl.sol\":3318:3325  uint256 */\n      0x00\n        /* \"@openzeppelin/contracts/access/AccessControl.sol\":3344:3356  _roles[role] */\n      dup2\n      dup2\n      mstore\n      0x20\n      dup2\n      swap1\n      mstore\n      0x40\n      dup2\n      keccak256\n        /* \"@openzeppelin/contracts/access/AccessControl.sol\":3344:3373  _roles[role].members.length() */\n      tag_283\n      swap1\n        /* \"@openzeppelin/contracts/access/AccessControl.sol\":3344:3371  _roles[role].members.length */\n      tag_329\n        /* \"@openzeppelin/contracts/access/AccessControl.sol\":3344:3373  _roles[role].members.length() */\n      jump\t// in\n        /* \"@openzeppelin/contracts/access/AccessControl.sol\":5101:5327  function revokeRole(bytes32 role, address account) public virtual {... */\n    tag_151:\n        /* \"@openzeppelin/contracts/access/AccessControl.sol\":5193:5199  _roles */\n      0x00\n        /* \"@openzeppelin/contracts/access/AccessControl.sol\":5193:5205  _roles[role] */\n      dup3\n      dup2\n      mstore\n      0x20\n      dup2\n      swap1\n      mstore\n      0x40\n      swap1\n      keccak256\n        /* \"@openzeppelin/contracts/access/AccessControl.sol\":5193:5215  _roles[role].adminRole */\n      0x02\n      add\n      sload\n        /* \"@openzeppelin/contracts/access/AccessControl.sol\":5185:5230  hasRole(_roles[role].adminRole, _msgSender()) */\n      tag_331\n      swap1\n        /* \"@openzeppelin/contracts/access/AccessControl.sol\":5217:5229  _msgSender() */\n      tag_111\n        /* \"@openzeppelin/contracts/access/AccessControl.sol\":5217:5227  _msgSender */\n      tag_197\n        /* \"@openzeppelin/contracts/access/AccessControl.sol\":5217:5229  _msgSender() */\n      jump\t// in\n        /* \"@openzeppelin/contracts/access/AccessControl.sol\":5185:5230  hasRole(_roles[role].adminRole, _msgSender()) */\n    tag_331:\n        /* \"@openzeppelin/contracts/access/AccessControl.sol\":5177:5283  require(hasRole(_roles[role].adminRole, _msgSender()), \"AccessControl: sender must be an admin to revoke\") */\n      tag_203\n      jumpi\n      mload(0x40)\n      shl(0xe5, 0x461bcd)\n      dup2\n      mstore\n      0x04\n      add\n      dup1\n      dup1\n      0x20\n      add\n      dup3\n      dup2\n      sub\n      dup3\n      mstore\n      0x30\n      dup2\n      mstore\n      0x20\n      add\n      dup1\n      data_64344570eab7406ca49d34d38bf2b2496dfda914405390c5057c8b0aabf798a3\n      0x30\n      swap2\n      codecopy\n      0x40\n      add\n      swap2\n      pop\n      pop\n      mload(0x40)\n      dup1\n      swap2\n      sub\n      swap1\n      revert\n        /* \"contracts/LiquidityController.sol\":4330:4603  function transferForTokens(address token0, address token1, uint256 amount0, uint256 amount1) public onlyAdmins {... */\n    tag_154:\n        /* \"contracts/LiquidityController.sol\":1768:1799  hasRole(ADMIN_ROLE, msg.sender) */\n      tag_336\n      0x00\n      dup1\n      mload\n      0x20\n      data_cb864c43dd5d441bb6271f424f11befa622c032dfd374d226e26fbbdb782b8f8\n      dup4\n      codecopy\n      dup2\n      mload\n      swap2\n      mstore\n        /* \"contracts/LiquidityController.sol\":1788:1798  msg.sender */\n      caller\n        /* \"contracts/LiquidityController.sol\":1768:1775  hasRole */\n      tag_112\n        /* \"contracts/LiquidityController.sol\":1768:1799  hasRole(ADMIN_ROLE, msg.sender) */\n      jump\t// in\n    tag_336:\n        /* \"contracts/LiquidityController.sol\":1768:1807  hasRole(ADMIN_ROLE, msg.sender) == true */\n      iszero\n      iszero\n        /* \"contracts/LiquidityController.sol\":1803:1807  true */\n      0x01\n        /* \"contracts/LiquidityController.sol\":1768:1807  hasRole(ADMIN_ROLE, msg.sender) == true */\n      eq\n        /* \"contracts/LiquidityController.sol\":1760:1821  require(hasRole(ADMIN_ROLE, msg.sender) == true, 'Not Admin') */\n      tag_337\n      jumpi\n      mload(0x40)\n      shl(0xe5, 0x461bcd)\n      dup2\n      mstore\n      0x04\n      add\n      tag_168\n      swap1\n      tag_169\n      jump\t// in\n    tag_337:\n        /* \"contracts/LiquidityController.sol\":4445:4520  TransferHelper.safeTransferFrom(token0, msg.sender, address(this), amount0) */\n      tag_340\n        /* \"contracts/LiquidityController.sol\":4477:4483  token0 */\n      dup5\n        /* \"contracts/LiquidityController.sol\":4485:4495  msg.sender */\n      caller\n        /* \"contracts/LiquidityController.sol\":4505:4509  this */\n      address\n        /* \"contracts/LiquidityController.sol\":4512:4519  amount0 */\n      dup6\n        /* \"contracts/LiquidityController.sol\":4445:4476  TransferHelper.safeTransferFrom */\n      tag_341\n        /* \"contracts/LiquidityController.sol\":4445:4520  TransferHelper.safeTransferFrom(token0, msg.sender, address(this), amount0) */\n      jump\t// in\n    tag_340:\n        /* \"contracts/LiquidityController.sol\":4524:4599  TransferHelper.safeTransferFrom(token1, msg.sender, address(this), amount1) */\n      tag_193\n        /* \"contracts/LiquidityController.sol\":4556:4562  token1 */\n      dup4\n        /* \"contracts/LiquidityController.sol\":4564:4574  msg.sender */\n      caller\n        /* \"contracts/LiquidityController.sol\":4584:4588  this */\n      address\n        /* \"contracts/LiquidityController.sol\":4591:4598  amount1 */\n      dup5\n        /* \"contracts/LiquidityController.sol\":4524:4555  TransferHelper.safeTransferFrom */\n      tag_341\n        /* \"contracts/LiquidityController.sol\":4524:4599  TransferHelper.safeTransferFrom(token1, msg.sender, address(this), amount1) */\n      jump\t// in\n        /* \"contracts/LiquidityController.sol\":5927:6885  function mintNewPosition(... */\n    tag_158:\n        /* \"contracts/LiquidityController.sol\":6179:6194  uint256 tokenId */\n      0x00\n        /* \"contracts/LiquidityController.sol\":6196:6213  uint128 liquidity */\n      dup1\n        /* \"contracts/LiquidityController.sol\":6215:6230  uint256 amount0 */\n      0x00\n        /* \"contracts/LiquidityController.sol\":6232:6247  uint256 amount1 */\n      dup1\n        /* \"contracts/LiquidityController.sol\":1881:1912  hasRole(ADMIN_ROLE, msg.sender) */\n      tag_344\n      0x00\n      dup1\n      mload\n      0x20\n      data_cb864c43dd5d441bb6271f424f11befa622c032dfd374d226e26fbbdb782b8f8\n      dup4\n      codecopy\n      dup2\n      mload\n      swap2\n      mstore\n        /* \"contracts/LiquidityController.sol\":1901:1911  msg.sender */\n      caller\n        /* \"contracts/LiquidityController.sol\":1881:1888  hasRole */\n      tag_112\n        /* \"contracts/LiquidityController.sol\":1881:1912  hasRole(ADMIN_ROLE, msg.sender) */\n      jump\t// in\n    tag_344:\n        /* \"contracts/LiquidityController.sol\":1881:1920  hasRole(ADMIN_ROLE, msg.sender) == true */\n      iszero\n      iszero\n        /* \"contracts/LiquidityController.sol\":1916:1920  true */\n      0x01\n        /* \"contracts/LiquidityController.sol\":1881:1920  hasRole(ADMIN_ROLE, msg.sender) == true */\n      eq\n      dup1\n        /* \"contracts/LiquidityController.sol\":1881:1966  hasRole(ADMIN_ROLE, msg.sender) == true || hasRole(EXECUTOR_ROLE, msg.sender) == true */\n      tag_345\n      jumpi\n      pop\n        /* \"contracts/LiquidityController.sol\":1924:1958  hasRole(EXECUTOR_ROLE, msg.sender) */\n      tag_346\n      0x00\n      dup1\n      mload\n      0x20\n      data_c690ee39c61cd2467ca78047546d7d01e837eb538ab70dac257590f3599b654a\n      dup4\n      codecopy\n      dup2\n      mload\n      swap2\n      mstore\n        /* \"contracts/LiquidityController.sol\":1947:1957  msg.sender */\n      caller\n        /* \"contracts/LiquidityController.sol\":1924:1931  hasRole */\n      tag_112\n        /* \"contracts/LiquidityController.sol\":1924:1958  hasRole(EXECUTOR_ROLE, msg.sender) */\n      jump\t// in\n    tag_346:\n        /* \"contracts/LiquidityController.sol\":1924:1966  hasRole(EXECUTOR_ROLE, msg.sender) == true */\n      iszero\n      iszero\n        /* \"contracts/LiquidityController.sol\":1962:1966  true */\n      0x01\n        /* \"contracts/LiquidityController.sol\":1924:1966  hasRole(EXECUTOR_ROLE, msg.sender) == true */\n      eq\n        /* \"contracts/LiquidityController.sol\":1881:1966  hasRole(ADMIN_ROLE, msg.sender) == true || hasRole(EXECUTOR_ROLE, msg.sender) == true */\n    tag_345:\n        /* \"contracts/LiquidityController.sol\":1869:1996  require(... */\n      tag_347\n      jumpi\n      mload(0x40)\n      shl(0xe5, 0x461bcd)\n      dup2\n      mstore\n      0x04\n      add\n      tag_168\n      swap1\n      tag_212\n      jump\t// in\n    tag_347:\n        /* \"contracts/LiquidityController.sol\":6253:6305  INonfungiblePositionManager.MintParams memory params */\n      0x00\n        /* \"contracts/LiquidityController.sol\":6308:6642  INonfungiblePositionManager.MintParams({... */\n      mload(0x40)\n      dup1\n      0x0160\n      add\n      0x40\n      mstore\n      dup1\n        /* \"contracts/LiquidityController.sol\":6360:6366  token0 */\n      dup16\n      sub(shl(0xa0, 0x01), 0x01)\n        /* \"contracts/LiquidityController.sol\":6308:6642  INonfungiblePositionManager.MintParams({... */\n      and\n      dup2\n      mstore\n      0x20\n      add\n        /* \"contracts/LiquidityController.sol\":6379:6385  token1 */\n      dup15\n      sub(shl(0xa0, 0x01), 0x01)\n        /* \"contracts/LiquidityController.sol\":6308:6642  INonfungiblePositionManager.MintParams({... */\n      and\n      dup2\n      mstore\n      0x20\n      add\n        /* \"contracts/LiquidityController.sol\":6395:6398  fee */\n      dup14\n        /* \"contracts/LiquidityController.sol\":6308:6642  INonfungiblePositionManager.MintParams({... */\n      0xffffff\n      and\n      dup2\n      mstore\n      0x20\n      add\n        /* \"contracts/LiquidityController.sol\":6414:6423  tickLower */\n      dup13\n        /* \"contracts/LiquidityController.sol\":6308:6642  INonfungiblePositionManager.MintParams({... */\n      0x02\n      signextend\n      dup2\n      mstore\n      0x20\n      add\n        /* \"contracts/LiquidityController.sol\":6439:6448  tickUpper */\n      dup12\n        /* \"contracts/LiquidityController.sol\":6308:6642  INonfungiblePositionManager.MintParams({... */\n      0x02\n      signextend\n      dup2\n      mstore\n      0x20\n      add\n        /* \"contracts/LiquidityController.sol\":6469:6483  amount0Desired */\n      dup11\n        /* \"contracts/LiquidityController.sol\":6308:6642  INonfungiblePositionManager.MintParams({... */\n      dup2\n      mstore\n      0x20\n      add\n        /* \"contracts/LiquidityController.sol\":6504:6518  amount1Desired */\n      dup10\n        /* \"contracts/LiquidityController.sol\":6308:6642  INonfungiblePositionManager.MintParams({... */\n      dup2\n      mstore\n      0x20\n      add\n        /* \"contracts/LiquidityController.sol\":6535:6545  amount0Min */\n      dup9\n        /* \"contracts/LiquidityController.sol\":6308:6642  INonfungiblePositionManager.MintParams({... */\n      dup2\n      mstore\n      0x20\n      add\n        /* \"contracts/LiquidityController.sol\":6562:6572  amount1Min */\n      dup8\n        /* \"contracts/LiquidityController.sol\":6308:6642  INonfungiblePositionManager.MintParams({... */\n      dup2\n      mstore\n      0x20\n      add\n        /* \"contracts/LiquidityController.sol\":6596:6600  this */\n      address\n      sub(shl(0xa0, 0x01), 0x01)\n        /* \"contracts/LiquidityController.sol\":6308:6642  INonfungiblePositionManager.MintParams({... */\n      and\n      dup2\n      mstore\n      0x20\n      add\n        /* \"contracts/LiquidityController.sol\":6616:6631  block.timestamp */\n      timestamp\n        /* \"contracts/LiquidityController.sol\":6634:6637  100 */\n      0x64\n        /* \"contracts/LiquidityController.sol\":6616:6637  block.timestamp + 100 */\n      add\n        /* \"contracts/LiquidityController.sol\":6308:6642  INonfungiblePositionManager.MintParams({... */\n      dup2\n      mstore\n      pop\n        /* \"contracts/LiquidityController.sol\":6253:6642  INonfungiblePositionManager.MintParams memory params = INonfungiblePositionManager.MintParams({... */\n      swap1\n      pop\n        /* \"contracts/LiquidityController.sol\":6792:6818  nonfungiblePositionManager */\n      immutable(\"0x3ddd8062d7de47998a8389f96b9f0c4a8108649857e6f7c8fae13cec90a10e14\")\n      sub(shl(0xa0, 0x01), 0x01)\n        /* \"contracts/LiquidityController.sol\":6792:6823  nonfungiblePositionManager.mint */\n      and\n      0x88316456\n        /* \"contracts/LiquidityController.sol\":6824:6830  params */\n      dup3\n        /* \"contracts/LiquidityController.sol\":6792:6831  nonfungiblePositionManager.mint(params) */\n      mload(0x40)\n      dup3\n      0xffffffff\n      and\n      0xe0\n      shl\n      dup2\n      mstore\n      0x04\n      add\n      tag_350\n      swap2\n      swap1\n      tag_351\n      jump\t// in\n    tag_350:\n      0x80\n      mload(0x40)\n      dup1\n      dup4\n      sub\n      dup2\n      0x00\n      dup8\n      dup1\n      extcodesize\n      iszero\n      dup1\n      iszero\n      tag_352\n      jumpi\n      0x00\n      dup1\n      revert\n    tag_352:\n      pop\n      gas\n      call\n      iszero\n      dup1\n      iszero\n      tag_354\n      jumpi\n      returndatasize\n      0x00\n      dup1\n      returndatacopy\n      revert(0x00, returndatasize)\n    tag_354:\n      pop\n      pop\n      pop\n      pop\n      mload(0x40)\n      returndatasize\n      not(0x1f)\n      0x1f\n      dup3\n      add\n      and\n      dup3\n      add\n      dup1\n      0x40\n      mstore\n      pop\n      dup2\n      add\n      swap1\n      tag_355\n      swap2\n      swap1\n      tag_356\n      jump\t// in\n    tag_355:\n        /* \"contracts/LiquidityController.sol\":6751:6831  (tokenId, liquidity, amount0, amount1) = nonfungiblePositionManager.mint(params) */\n      swap3\n      swap8\n      pop\n      swap1\n      swap6\n      pop\n      swap4\n      pop\n      swap2\n      pop\n        /* \"contracts/LiquidityController.sol\":6858:6881  _createDeposit(tokenId) */\n      tag_357\n        /* \"contracts/LiquidityController.sol\":6751:6831  (tokenId, liquidity, amount0, amount1) = nonfungiblePositionManager.mint(params) */\n      dup6\n        /* \"contracts/LiquidityController.sol\":6858:6872  _createDeposit */\n      tag_175\n        /* \"contracts/LiquidityController.sol\":6858:6881  _createDeposit(tokenId) */\n      jump\t// in\n    tag_357:\n        /* \"contracts/LiquidityController.sol\":2000:2001  _ */\n      pop\n        /* \"contracts/LiquidityController.sol\":5927:6885  function mintNewPosition(... */\n      swap10\n      pop\n      swap10\n      pop\n      swap10\n      pop\n      swap10\n      swap6\n      pop\n      pop\n      pop\n      pop\n      pop\n      pop\n      jump\t// out\n        /* \"contracts/LiquidityController.sol\":5699:5832  function approve(address token, address to, uint256 amount) external onlyAdmins {... */\n    tag_163:\n        /* \"contracts/LiquidityController.sol\":1768:1799  hasRole(ADMIN_ROLE, msg.sender) */\n      tag_359\n      0x00\n      dup1\n      mload\n      0x20\n      data_cb864c43dd5d441bb6271f424f11befa622c032dfd374d226e26fbbdb782b8f8\n      dup4\n      codecopy\n      dup2\n      mload\n      swap2\n      mstore\n        /* \"contracts/LiquidityController.sol\":1788:1798  msg.sender */\n      caller\n        /* \"contracts/LiquidityController.sol\":1768:1775  hasRole */\n      tag_112\n        /* \"contracts/LiquidityController.sol\":1768:1799  hasRole(ADMIN_ROLE, msg.sender) */\n      jump\t// in\n    tag_359:\n        /* \"contracts/LiquidityController.sol\":1768:1807  hasRole(ADMIN_ROLE, msg.sender) == true */\n      iszero\n      iszero\n        /* \"contracts/LiquidityController.sol\":1803:1807  true */\n      0x01\n        /* \"contracts/LiquidityController.sol\":1768:1807  hasRole(ADMIN_ROLE, msg.sender) == true */\n      eq\n        /* \"contracts/LiquidityController.sol\":1760:1821  require(hasRole(ADMIN_ROLE, msg.sender) == true, 'Not Admin') */\n      tag_360\n      jumpi\n      mload(0x40)\n      shl(0xe5, 0x461bcd)\n      dup2\n      mstore\n      0x04\n      add\n      tag_168\n      swap1\n      tag_169\n      jump\t// in\n    tag_360:\n        /* \"contracts/LiquidityController.sol\":5783:5828  TransferHelper.safeApprove(token, to, amount) */\n      tag_171\n        /* \"contracts/LiquidityController.sol\":5810:5815  token */\n      dup4\n        /* \"contracts/LiquidityController.sol\":5817:5819  to */\n      dup4\n        /* \"contracts/LiquidityController.sol\":5821:5827  amount */\n      dup4\n        /* \"contracts/LiquidityController.sol\":5783:5809  TransferHelper.safeApprove */\n      tag_192\n        /* \"contracts/LiquidityController.sol\":5783:5828  TransferHelper.safeApprove(token, to, amount) */\n      jump\t// in\n        /* \"@openzeppelin/contracts/utils/EnumerableSet.sol\":6429:6579  function add(AddressSet storage set, address value) internal returns (bool) {... */\n    tag_164:\n        /* \"@openzeppelin/contracts/utils/EnumerableSet.sol\":6499:6503  bool */\n      0x00\n        /* \"@openzeppelin/contracts/utils/EnumerableSet.sol\":6522:6572  _add(set._inner, bytes32(uint256(uint160(value)))) */\n      tag_284\n        /* \"@openzeppelin/contracts/utils/EnumerableSet.sol\":6527:6530  set */\n      dup4\n      sub(shl(0xa0, 0x01), 0x01)\n        /* \"@openzeppelin/contracts/utils/EnumerableSet.sol\":6547:6570  uint256(uint160(value)) */\n      dup5\n      and\n        /* \"@openzeppelin/contracts/utils/EnumerableSet.sol\":6522:6526  _add */\n      tag_366\n        /* \"@openzeppelin/contracts/utils/EnumerableSet.sol\":6522:6572  _add(set._inner, bytes32(uint256(uint160(value)))) */\n      jump\t// in\n        /* \"@uniswap/v3-periphery/contracts/libraries/TransferHelper.sol\":1211:1520  function safeTransfer(... */\n    tag_172:\n        /* \"@uniswap/v3-periphery/contracts/libraries/TransferHelper.sol\":1371:1430  abi.encodeWithSelector(IERC20.transfer.selector, to, value) */\n      0x40\n      dup1\n      mload\n      sub(shl(0xa0, 0x01), 0x01)\n      dup5\n      dup2\n      and\n      0x24\n      dup4\n      add\n      mstore\n      0x44\n      dup1\n      dup4\n      add\n      dup6\n      swap1\n      mstore\n      dup4\n      mload\n      dup1\n      dup5\n      sub\n      swap1\n      swap2\n      add\n      dup2\n      mstore\n      0x64\n      swap1\n      swap3\n      add\n      dup4\n      mstore\n      0x20\n      dup3\n      add\n      dup1\n      mload\n      sub(shl(0xe0, 0x01), 0x01)\n      and\n      shl(0xe0, 0xa9059cbb)\n      or\n      dup2\n      mstore\n        /* \"@uniswap/v3-periphery/contracts/libraries/TransferHelper.sol\":1360:1431  token.call(abi.encodeWithSelector(IERC20.transfer.selector, to, value)) */\n      swap3\n      mload\n      dup3\n      mload\n        /* \"@uniswap/v3-periphery/contracts/libraries/TransferHelper.sol\":1325:1337  bool success */\n      0x00\n      swap5\n      dup6\n      swap5\n        /* \"@uniswap/v3-periphery/contracts/libraries/TransferHelper.sol\":1360:1370  token.call */\n      swap4\n      dup10\n      and\n      swap4\n        /* \"@uniswap/v3-periphery/contracts/libraries/TransferHelper.sol\":1371:1430  abi.encodeWithSelector(IERC20.transfer.selector, to, value) */\n      swap3\n        /* \"@uniswap/v3-periphery/contracts/libraries/TransferHelper.sol\":1360:1431  token.call(abi.encodeWithSelector(IERC20.transfer.selector, to, value)) */\n      swap2\n      dup3\n      swap2\n        /* \"@uniswap/v3-periphery/contracts/libraries/TransferHelper.sol\":1371:1430  abi.encodeWithSelector(IERC20.transfer.selector, to, value) */\n      swap1\n        /* \"@uniswap/v3-periphery/contracts/libraries/TransferHelper.sol\":1360:1431  token.call(abi.encodeWithSelector(IERC20.transfer.selector, to, value)) */\n      dup1\n      dup4\n        /* \"@uniswap/v3-periphery/contracts/libraries/TransferHelper.sol\":1371:1430  abi.encodeWithSelector(IERC20.transfer.selector, to, value) */\n      dup4\n        /* \"@uniswap/v3-periphery/contracts/libraries/TransferHelper.sol\":1360:1431  token.call(abi.encodeWithSelector(IERC20.transfer.selector, to, value)) */\n    tag_368:\n      0x20\n      dup4\n      lt\n      tag_370\n      jumpi\n      dup1\n      mload\n      dup3\n      mstore\n      not(0x1f)\n      swap1\n      swap3\n      add\n      swap2\n      0x20\n      swap2\n      dup3\n      add\n      swap2\n      add\n      jump(tag_368)\n    tag_370:\n      0x01\n      dup4\n      0x20\n      sub\n      0x0100\n      exp\n      sub\n      dup1\n      not\n      dup3\n      mload\n      and\n      dup2\n      dup5\n      mload\n      and\n      dup1\n      dup3\n      or\n      dup6\n      mstore\n      pop\n      pop\n      pop\n      pop\n      pop\n      pop\n      swap1\n      pop\n      add\n      swap2\n      pop\n      pop\n      0x00\n      mload(0x40)\n      dup1\n      dup4\n      sub\n      dup2\n      0x00\n      dup7\n      gas\n      call\n      swap2\n      pop\n      pop\n      returndatasize\n      dup1\n      0x00\n      dup2\n      eq\n      tag_373\n      jumpi\n      mload(0x40)\n      swap2\n      pop\n      and(add(returndatasize, 0x3f), not(0x1f))\n      dup3\n      add\n      0x40\n      mstore\n      returndatasize\n      dup3\n      mstore\n      returndatasize\n      0x00\n      0x20\n      dup5\n      add\n      returndatacopy\n      jump(tag_372)\n    tag_373:\n      0x60\n      swap2\n      pop\n    tag_372:\n      pop\n        /* \"@uniswap/v3-periphery/contracts/libraries/TransferHelper.sol\":1324:1431  (bool success, bytes memory data) = token.call(abi.encodeWithSelector(IERC20.transfer.selector, to, value)) */\n      swap2\n      pop\n      swap2\n      pop\n        /* \"@uniswap/v3-periphery/contracts/libraries/TransferHelper.sol\":1449:1456  success */\n      dup2\n        /* \"@uniswap/v3-periphery/contracts/libraries/TransferHelper.sol\":1449:1506  success && (data.length == 0 || abi.decode(data, (bool))) */\n      dup1\n      iszero\n      tag_375\n      jumpi\n      pop\n        /* \"@uniswap/v3-periphery/contracts/libraries/TransferHelper.sol\":1461:1472  data.length */\n      dup1\n      mload\n        /* \"@uniswap/v3-periphery/contracts/libraries/TransferHelper.sol\":1461:1477  data.length == 0 */\n      iszero\n      dup1\n        /* \"@uniswap/v3-periphery/contracts/libraries/TransferHelper.sol\":1461:1505  data.length == 0 || abi.decode(data, (bool)) */\n      tag_375\n      jumpi\n      pop\n        /* \"@uniswap/v3-periphery/contracts/libraries/TransferHelper.sol\":1492:1496  data */\n      dup1\n        /* \"@uniswap/v3-periphery/contracts/libraries/TransferHelper.sol\":1481:1505  abi.decode(data, (bool)) */\n      dup1\n      0x20\n      add\n      swap1\n      mload\n      0x20\n      dup2\n      lt\n      iszero\n      tag_376\n      jumpi\n      0x00\n      dup1\n      revert\n    tag_376:\n      pop\n      mload\n        /* \"@uniswap/v3-periphery/contracts/libraries/TransferHelper.sol\":1461:1505  data.length == 0 || abi.decode(data, (bool)) */\n    tag_375:\n        /* \"@uniswap/v3-periphery/contracts/libraries/TransferHelper.sol\":1441:1513  require(success && (data.length == 0 || abi.decode(data, (bool))), 'ST') */\n      tag_377\n      jumpi\n      0x40\n      dup1\n      mload\n      shl(0xe5, 0x461bcd)\n      dup2\n      mstore\n      0x20\n      0x04\n      dup3\n      add\n      mstore\n      0x02\n      0x24\n      dup3\n      add\n      mstore\n      shl(0xf2, 0x14d5)\n      0x44\n      dup3\n      add\n      mstore\n      swap1\n      mload\n      swap1\n      dup2\n      swap1\n      sub\n      0x64\n      add\n      swap1\n      revert\n    tag_377:\n        /* \"@uniswap/v3-periphery/contracts/libraries/TransferHelper.sol\":1211:1520  function safeTransfer(... */\n      pop\n      pop\n      pop\n      pop\n      pop\n      jump\t// out\n        /* \"contracts/LiquidityController.sol\":2857:3346  function _createDeposit(uint256 tokenId) internal {... */\n    tag_175:\n        /* \"contracts/LiquidityController.sol\":2921:2937  address operator */\n      0x00\n        /* \"contracts/LiquidityController.sol\":2942:2956  address token0 */\n      dup1\n        /* \"contracts/LiquidityController.sol\":2961:2975  address token1 */\n      0x00\n        /* \"contracts/LiquidityController.sol\":2980:2990  uint24 fee */\n      dup1\n        /* \"contracts/LiquidityController.sol\":2995:3010  int24 tickLower */\n      0x00\n        /* \"contracts/LiquidityController.sol\":3015:3030  int24 tickUpper */\n      dup1\n        /* \"contracts/LiquidityController.sol\":3059:3085  nonfungiblePositionManager */\n      immutable(\"0x3ddd8062d7de47998a8389f96b9f0c4a8108649857e6f7c8fae13cec90a10e14\")\n      sub(shl(0xa0, 0x01), 0x01)\n        /* \"contracts/LiquidityController.sol\":3059:3095  nonfungiblePositionManager.positions */\n      and\n      0x99fbab88\n        /* \"contracts/LiquidityController.sol\":3096:3103  tokenId */\n      dup9\n        /* \"contracts/LiquidityController.sol\":3059:3104  nonfungiblePositionManager.positions(tokenId) */\n      mload(0x40)\n      dup3\n      0xffffffff\n      and\n      0xe0\n      shl\n      dup2\n      mstore\n      0x04\n      add\n      tag_379\n      swap2\n      swap1\n      tag_42\n      jump\t// in\n    tag_379:\n      0x0180\n      mload(0x40)\n      dup1\n      dup4\n      sub\n      dup2\n      dup7\n      dup1\n      extcodesize\n      iszero\n      dup1\n      iszero\n      tag_380\n      jumpi\n      0x00\n      dup1\n      revert\n    tag_380:\n      pop\n      gas\n      staticcall\n      iszero\n      dup1\n      iszero\n      tag_382\n      jumpi\n      returndatasize\n      0x00\n      dup1\n      returndatacopy\n      revert(0x00, returndatasize)\n    tag_382:\n      pop\n      pop\n      pop\n      pop\n      mload(0x40)\n      returndatasize\n      not(0x1f)\n      0x1f\n      dup3\n      add\n      and\n      dup3\n      add\n      dup1\n      0x40\n      mstore\n      pop\n      dup2\n      add\n      swap1\n      tag_383\n      swap2\n      swap1\n      tag_384\n      jump\t// in\n    tag_383:\n        /* \"contracts/LiquidityController.sol\":2911:3104  (... */\n      pop\n      pop\n      pop\n      pop\n      pop\n      swap7\n      pop\n      swap7\n      pop\n      swap7\n      pop\n      swap7\n      pop\n      swap7\n      pop\n      swap7\n      pop\n      pop\n        /* \"contracts/LiquidityController.sol\":3136:3140  this */\n      address\n      sub(shl(0xa0, 0x01), 0x01)\n        /* \"contracts/LiquidityController.sol\":3116:3141  operator == address(this) */\n      and\n        /* \"contracts/LiquidityController.sol\":3116:3124  operator */\n      dup7\n      sub(shl(0xa0, 0x01), 0x01)\n        /* \"contracts/LiquidityController.sol\":3116:3141  operator == address(this) */\n      and\n      eq\n        /* \"contracts/LiquidityController.sol\":3108:3155  require(operator == address(this), 'Not Owned') */\n      tag_385\n      jumpi\n      mload(0x40)\n      shl(0xe5, 0x461bcd)\n      dup2\n      mstore\n      0x04\n      add\n      tag_168\n      swap1\n      tag_387\n      jump\t// in\n    tag_385:\n        /* \"contracts/LiquidityController.sol\":3179:3293  Deposit({... */\n      mload(0x40)\n      dup1\n      0xa0\n      add\n      0x40\n      mstore\n      dup1\n        /* \"contracts/LiquidityController.sol\":3200:3206  token0 */\n      dup7\n      sub(shl(0xa0, 0x01), 0x01)\n        /* \"contracts/LiquidityController.sol\":3179:3293  Deposit({... */\n      and\n      dup2\n      mstore\n      0x20\n      add\n        /* \"contracts/LiquidityController.sol\":3219:3225  token1 */\n      dup6\n      sub(shl(0xa0, 0x01), 0x01)\n        /* \"contracts/LiquidityController.sol\":3179:3293  Deposit({... */\n      and\n      dup2\n      mstore\n      0x20\n      add\n        /* \"contracts/LiquidityController.sol\":3235:3238  fee */\n      dup5\n        /* \"contracts/LiquidityController.sol\":3179:3293  Deposit({... */\n      0xffffff\n      and\n      dup2\n      mstore\n      0x20\n      add\n        /* \"contracts/LiquidityController.sol\":3254:3263  tickLower */\n      dup4\n        /* \"contracts/LiquidityController.sol\":3179:3293  Deposit({... */\n      0x02\n      signextend\n      dup2\n      mstore\n      0x20\n      add\n        /* \"contracts/LiquidityController.sol\":3279:3288  tickUpper */\n      dup3\n        /* \"contracts/LiquidityController.sol\":3179:3293  Deposit({... */\n      0x02\n      signextend\n      dup2\n      mstore\n      pop\n        /* \"contracts/LiquidityController.sol\":3159:3167  deposits */\n      0x01\n        /* \"contracts/LiquidityController.sol\":3159:3176  deposits[tokenId] */\n      0x00\n        /* \"contracts/LiquidityController.sol\":3168:3175  tokenId */\n      dup10\n        /* \"contracts/LiquidityController.sol\":3159:3176  deposits[tokenId] */\n      dup2\n      mstore\n      0x20\n      add\n      swap1\n      dup2\n      mstore\n      0x20\n      add\n      0x00\n      keccak256\n        /* \"contracts/LiquidityController.sol\":3159:3293  deposits[tokenId] = Deposit({... */\n      0x00\n      dup3\n      add\n      mload\n      dup2\n      0x00\n      add\n      exp(0x0100, 0x00)\n      dup2\n      sload\n      dup2\n      sub(shl(0xa0, 0x01), 0x01)\n      mul\n      not\n      and\n      swap1\n      dup4\n      sub(shl(0xa0, 0x01), 0x01)\n      and\n      mul\n      or\n      swap1\n      sstore\n      pop\n      0x20\n      dup3\n      add\n      mload\n      dup2\n      0x01\n      add\n      exp(0x0100, 0x00)\n      dup2\n      sload\n      dup2\n      sub(shl(0xa0, 0x01), 0x01)\n      mul\n      not\n      and\n      swap1\n      dup4\n      sub(shl(0xa0, 0x01), 0x01)\n      and\n      mul\n      or\n      swap1\n      sstore\n      pop\n      0x40\n      dup3\n      add\n      mload\n      dup2\n      0x01\n      add\n      exp(0x0100, 0x14)\n      dup2\n      sload\n      dup2\n      0xffffff\n      mul\n      not\n      and\n      swap1\n      dup4\n      0xffffff\n      and\n      mul\n      or\n      swap1\n      sstore\n      pop\n      0x60\n      dup3\n      add\n      mload\n      dup2\n      0x01\n      add\n      exp(0x0100, 0x17)\n      dup2\n      sload\n      dup2\n      0xffffff\n      mul\n      not\n      and\n      swap1\n      dup4\n      0x02\n      signextend\n      0xffffff\n      and\n      mul\n      or\n      swap1\n      sstore\n      pop\n      0x80\n      dup3\n      add\n      mload\n      dup2\n      0x01\n      add\n      exp(0x0100, 0x1a)\n      dup2\n      sload\n      dup2\n      0xffffff\n      mul\n      not\n      and\n      swap1\n      dup4\n      0x02\n      signextend\n      0xffffff\n      and\n      mul\n      or\n      swap1\n      sstore\n      pop\n      swap1\n      pop\n      pop\n        /* \"contracts/LiquidityController.sol\":3302:3342  NewDeposit(tokenId, token0, token1, fee) */\n      0xc98b6cef6bcb7a4f274ab1045ead0065d8a07df11b545d8dc8bd25f58b39d071\n        /* \"contracts/LiquidityController.sol\":3313:3320  tokenId */\n      dup8\n        /* \"contracts/LiquidityController.sol\":3322:3328  token0 */\n      dup7\n        /* \"contracts/LiquidityController.sol\":3330:3336  token1 */\n      dup7\n        /* \"contracts/LiquidityController.sol\":3338:3341  fee */\n      dup7\n        /* \"contracts/LiquidityController.sol\":3302:3342  NewDeposit(tokenId, token0, token1, fee) */\n      mload(0x40)\n      tag_388\n      swap5\n      swap4\n      swap3\n      swap2\n      swap1\n      tag_389\n      jump\t// in\n    tag_388:\n      mload(0x40)\n      dup1\n      swap2\n      sub\n      swap1\n      log1\n        /* \"contracts/LiquidityController.sol\":2857:3346  function _createDeposit(uint256 tokenId) internal {... */\n      pop\n      pop\n      pop\n      pop\n      pop\n      pop\n      pop\n      jump\t// out\n        /* \"@uniswap/v3-periphery/contracts/libraries/TransferHelper.sol\":1873:2180  function safeApprove(... */\n    tag_192:\n        /* \"@uniswap/v3-periphery/contracts/libraries/TransferHelper.sol\":2032:2090  abi.encodeWithSelector(IERC20.approve.selector, to, value) */\n      0x40\n      dup1\n      mload\n      sub(shl(0xa0, 0x01), 0x01)\n      dup5\n      dup2\n      and\n      0x24\n      dup4\n      add\n      mstore\n      0x44\n      dup1\n      dup4\n      add\n      dup6\n      swap1\n      mstore\n      dup4\n      mload\n      dup1\n      dup5\n      sub\n      swap1\n      swap2\n      add\n      dup2\n      mstore\n      0x64\n      swap1\n      swap3\n      add\n      dup4\n      mstore\n      0x20\n      dup3\n      add\n      dup1\n      mload\n      sub(shl(0xe0, 0x01), 0x01)\n      and\n      shl(0xe0, 0x095ea7b3)\n      or\n      dup2\n      mstore\n        /* \"@uniswap/v3-periphery/contracts/libraries/TransferHelper.sol\":2021:2091  token.call(abi.encodeWithSelector(IERC20.approve.selector, to, value)) */\n      swap3\n      mload\n      dup3\n      mload\n        /* \"@uniswap/v3-periphery/contracts/libraries/TransferHelper.sol\":1986:1998  bool success */\n      0x00\n      swap5\n      dup6\n      swap5\n        /* \"@uniswap/v3-periphery/contracts/libraries/TransferHelper.sol\":2021:2031  token.call */\n      swap4\n      dup10\n      and\n      swap4\n        /* \"@uniswap/v3-periphery/contracts/libraries/TransferHelper.sol\":2032:2090  abi.encodeWithSelector(IERC20.approve.selector, to, value) */\n      swap3\n        /* \"@uniswap/v3-periphery/contracts/libraries/TransferHelper.sol\":2021:2091  token.call(abi.encodeWithSelector(IERC20.approve.selector, to, value)) */\n      swap2\n      dup3\n      swap2\n        /* \"@uniswap/v3-periphery/contracts/libraries/TransferHelper.sol\":2032:2090  abi.encodeWithSelector(IERC20.approve.selector, to, value) */\n      swap1\n        /* \"@uniswap/v3-periphery/contracts/libraries/TransferHelper.sol\":2021:2091  token.call(abi.encodeWithSelector(IERC20.approve.selector, to, value)) */\n      dup1\n      dup4\n        /* \"@uniswap/v3-periphery/contracts/libraries/TransferHelper.sol\":2032:2090  abi.encodeWithSelector(IERC20.approve.selector, to, value) */\n      dup4\n        /* \"@uniswap/v3-periphery/contracts/libraries/TransferHelper.sol\":2021:2091  token.call(abi.encodeWithSelector(IERC20.approve.selector, to, value)) */\n    tag_391:\n      0x20\n      dup4\n      lt\n      tag_393\n      jumpi\n      dup1\n      mload\n      dup3\n      mstore\n      not(0x1f)\n      swap1\n      swap3\n      add\n      swap2\n      0x20\n      swap2\n      dup3\n      add\n      swap2\n      add\n      jump(tag_391)\n    tag_393:\n      0x01\n      dup4\n      0x20\n      sub\n      0x0100\n      exp\n      sub\n      dup1\n      not\n      dup3\n      mload\n      and\n      dup2\n      dup5\n      mload\n      and\n      dup1\n      dup3\n      or\n      dup6\n      mstore\n      pop\n      pop\n      pop\n      pop\n      pop\n      pop\n      swap1\n      pop\n      add\n      swap2\n      pop\n      pop\n      0x00\n      mload(0x40)\n      dup1\n      dup4\n      sub\n      dup2\n      0x00\n      dup7\n      gas\n      call\n      swap2\n      pop\n      pop\n      returndatasize\n      dup1\n      0x00\n      dup2\n      eq\n      tag_396\n      jumpi\n      mload(0x40)\n      swap2\n      pop\n      and(add(returndatasize, 0x3f), not(0x1f))\n      dup3\n      add\n      0x40\n      mstore\n      returndatasize\n      dup3\n      mstore\n      returndatasize\n      0x00\n      0x20\n      dup5\n      add\n      returndatacopy\n      jump(tag_395)\n    tag_396:\n      0x60\n      swap2\n      pop\n    tag_395:\n      pop\n        /* \"@uniswap/v3-periphery/contracts/libraries/TransferHelper.sol\":1985:2091  (bool success, bytes memory data) = token.call(abi.encodeWithSelector(IERC20.approve.selector, to, value)) */\n      swap2\n      pop\n      swap2\n      pop\n        /* \"@uniswap/v3-periphery/contracts/libraries/TransferHelper.sol\":2109:2116  success */\n      dup2\n        /* \"@uniswap/v3-periphery/contracts/libraries/TransferHelper.sol\":2109:2166  success && (data.length == 0 || abi.decode(data, (bool))) */\n      dup1\n      iszero\n      tag_398\n      jumpi\n      pop\n        /* \"@uniswap/v3-periphery/contracts/libraries/TransferHelper.sol\":2121:2132  data.length */\n      dup1\n      mload\n        /* \"@uniswap/v3-periphery/contracts/libraries/TransferHelper.sol\":2121:2137  data.length == 0 */\n      iszero\n      dup1\n        /* \"@uniswap/v3-periphery/contracts/libraries/TransferHelper.sol\":2121:2165  data.length == 0 || abi.decode(data, (bool)) */\n      tag_398\n      jumpi\n      pop\n        /* \"@uniswap/v3-periphery/contracts/libraries/TransferHelper.sol\":2152:2156  data */\n      dup1\n        /* \"@uniswap/v3-periphery/contracts/libraries/TransferHelper.sol\":2141:2165  abi.decode(data, (bool)) */\n      dup1\n      0x20\n      add\n      swap1\n      mload\n      0x20\n      dup2\n      lt\n      iszero\n      tag_399\n      jumpi\n      0x00\n      dup1\n      revert\n    tag_399:\n      pop\n      mload\n        /* \"@uniswap/v3-periphery/contracts/libraries/TransferHelper.sol\":2121:2165  data.length == 0 || abi.decode(data, (bool)) */\n    tag_398:\n        /* \"@uniswap/v3-periphery/contracts/libraries/TransferHelper.sol\":2101:2173  require(success && (data.length == 0 || abi.decode(data, (bool))), 'SA') */\n      tag_377\n      jumpi\n      0x40\n      dup1\n      mload\n      shl(0xe5, 0x461bcd)\n      dup2\n      mstore\n      0x20\n      0x04\n      dup3\n      add\n      mstore\n      0x02\n      0x24\n      dup3\n      add\n      mstore\n      shl(0xf0, 0x5341)\n      0x44\n      dup3\n      add\n      mstore\n      swap1\n      mload\n      swap1\n      dup2\n      swap1\n      sub\n      0x64\n      add\n      swap1\n      revert\n        /* \"@openzeppelin/contracts/utils/Context.sol\":598:702  function _msgSender() internal view virtual returns (address payable) {... */\n    tag_197:\n        /* \"@openzeppelin/contracts/utils/Context.sol\":685:695  msg.sender */\n      caller\n        /* \"@openzeppelin/contracts/utils/Context.sol\":598:702  function _msgSender() internal view virtual returns (address payable) {... */\n      swap1\n      jump\t// out\n        /* \"@openzeppelin/contracts/access/AccessControl.sol\":7025:7209  function _grantRole(bytes32 role, address account) private {... */\n    tag_200:\n        /* \"@openzeppelin/contracts/access/AccessControl.sol\":7098:7104  _roles */\n      0x00\n        /* \"@openzeppelin/contracts/access/AccessControl.sol\":7098:7110  _roles[role] */\n      dup3\n      dup2\n      mstore\n      0x20\n      dup2\n      swap1\n      mstore\n      0x40\n      swap1\n      keccak256\n        /* \"@openzeppelin/contracts/access/AccessControl.sol\":7098:7131  _roles[role].members.add(account) */\n      tag_403\n      swap1\n        /* \"@openzeppelin/contracts/access/AccessControl.sol\":7123:7130  account */\n      dup3\n        /* \"@openzeppelin/contracts/access/AccessControl.sol\":7098:7122  _roles[role].members.add */\n      tag_164\n        /* \"@openzeppelin/contracts/access/AccessControl.sol\":7098:7131  _roles[role].members.add(account) */\n      jump\t// in\n    tag_403:\n        /* \"@openzeppelin/contracts/access/AccessControl.sol\":7094:7203  if (_roles[role].members.add(account)) {... */\n      iszero\n      tag_199\n      jumpi\n        /* \"@openzeppelin/contracts/access/AccessControl.sol\":7179:7191  _msgSender() */\n      tag_405\n        /* \"@openzeppelin/contracts/access/AccessControl.sol\":7179:7189  _msgSender */\n      tag_197\n        /* \"@openzeppelin/contracts/access/AccessControl.sol\":7179:7191  _msgSender() */\n      jump\t// in\n    tag_405:\n      sub(shl(0xa0, 0x01), 0x01)\n        /* \"@openzeppelin/contracts/access/AccessControl.sol\":7152:7192  RoleGranted(role, account, _msgSender()) */\n      and\n        /* \"@openzeppelin/contracts/access/AccessControl.sol\":7170:7177  account */\n      dup2\n      sub(shl(0xa0, 0x01), 0x01)\n        /* \"@openzeppelin/contracts/access/AccessControl.sol\":7152:7192  RoleGranted(role, account, _msgSender()) */\n      and\n        /* \"@openzeppelin/contracts/access/AccessControl.sol\":7164:7168  role */\n      dup4\n        /* \"@openzeppelin/contracts/access/AccessControl.sol\":7152:7192  RoleGranted(role, account, _msgSender()) */\n      0x2f8788117e7eff1d82e926ec794901d17c78024a50270940304540a733656f0d\n      mload(0x40)\n      mload(0x40)\n      dup1\n      swap2\n      sub\n      swap1\n      log4\n        /* \"@openzeppelin/contracts/access/AccessControl.sol\":7025:7209  function _grantRole(bytes32 role, address account) private {... */\n      pop\n      pop\n      jump\t// out\n        /* \"@openzeppelin/contracts/access/AccessControl.sol\":7215:7403  function _revokeRole(bytes32 role, address account) private {... */\n    tag_205:\n        /* \"@openzeppelin/contracts/access/AccessControl.sol\":7289:7295  _roles */\n      0x00\n        /* \"@openzeppelin/contracts/access/AccessControl.sol\":7289:7301  _roles[role] */\n      dup3\n      dup2\n      mstore\n      0x20\n      dup2\n      swap1\n      mstore\n      0x40\n      swap1\n      keccak256\n        /* \"@openzeppelin/contracts/access/AccessControl.sol\":7289:7325  _roles[role].members.remove(account) */\n      tag_407\n      swap1\n        /* \"@openzeppelin/contracts/access/AccessControl.sol\":7317:7324  account */\n      dup3\n        /* \"@openzeppelin/contracts/access/AccessControl.sol\":7289:7316  _roles[role].members.remove */\n      tag_408\n        /* \"@openzeppelin/contracts/access/AccessControl.sol\":7289:7325  _roles[role].members.remove(account) */\n      jump\t// in\n    tag_407:\n        /* \"@openzeppelin/contracts/access/AccessControl.sol\":7285:7397  if (_roles[role].members.remove(account)) {... */\n      iszero\n      tag_199\n      jumpi\n        /* \"@openzeppelin/contracts/access/AccessControl.sol\":7373:7385  _msgSender() */\n      tag_410\n        /* \"@openzeppelin/contracts/access/AccessControl.sol\":7373:7383  _msgSender */\n      tag_197\n        /* \"@openzeppelin/contracts/access/AccessControl.sol\":7373:7385  _msgSender() */\n      jump\t// in\n    tag_410:\n      sub(shl(0xa0, 0x01), 0x01)\n        /* \"@openzeppelin/contracts/access/AccessControl.sol\":7346:7386  RoleRevoked(role, account, _msgSender()) */\n      and\n        /* \"@openzeppelin/contracts/access/AccessControl.sol\":7364:7371  account */\n      dup2\n      sub(shl(0xa0, 0x01), 0x01)\n        /* \"@openzeppelin/contracts/access/AccessControl.sol\":7346:7386  RoleRevoked(role, account, _msgSender()) */\n      and\n        /* \"@openzeppelin/contracts/access/AccessControl.sol\":7358:7362  role */\n      dup4\n        /* \"@openzeppelin/contracts/access/AccessControl.sol\":7346:7386  RoleRevoked(role, account, _msgSender()) */\n      0xf6391f5c32d9c69d2a47ea670b442974b53935d1edc7fd64eb21e047a839171b\n      mload(0x40)\n      mload(0x40)\n      dup1\n      swap2\n      sub\n      swap1\n      log4\n        /* \"@openzeppelin/contracts/access/AccessControl.sol\":7215:7403  function _revokeRole(bytes32 role, address account) private {... */\n      pop\n      pop\n      jump\t// out\n        /* \"@openzeppelin/contracts/utils/EnumerableSet.sol\":7677:7833  function at(AddressSet storage set, uint256 index) internal view returns (address) {... */\n    tag_285:\n        /* \"@openzeppelin/contracts/utils/EnumerableSet.sol\":7751:7758  address */\n      0x00\n        /* \"@openzeppelin/contracts/utils/EnumerableSet.sol\":7801:7823  _at(set._inner, index) */\n      tag_284\n        /* \"@openzeppelin/contracts/utils/EnumerableSet.sol\":7805:7808  set */\n      dup4\n        /* \"@openzeppelin/contracts/utils/EnumerableSet.sol\":7817:7822  index */\n      dup4\n        /* \"@openzeppelin/contracts/utils/EnumerableSet.sol\":7801:7804  _at */\n      tag_413\n        /* \"@openzeppelin/contracts/utils/EnumerableSet.sol\":7801:7823  _at(set._inner, index) */\n      jump\t// in\n        /* \"@openzeppelin/contracts/utils/EnumerableSet.sol\":6984:7149  function contains(AddressSet storage set, address value) internal view returns (bool) {... */\n    tag_288:\n        /* \"@openzeppelin/contracts/utils/EnumerableSet.sol\":7064:7068  bool */\n      0x00\n        /* \"@openzeppelin/contracts/utils/EnumerableSet.sol\":7087:7142  _contains(set._inner, bytes32(uint256(uint160(value)))) */\n      tag_284\n        /* \"@openzeppelin/contracts/utils/EnumerableSet.sol\":7097:7100  set */\n      dup4\n      sub(shl(0xa0, 0x01), 0x01)\n        /* \"@openzeppelin/contracts/utils/EnumerableSet.sol\":7117:7140  uint256(uint160(value)) */\n      dup5\n      and\n        /* \"@openzeppelin/contracts/utils/EnumerableSet.sol\":7087:7096  _contains */\n      tag_416\n        /* \"@openzeppelin/contracts/utils/EnumerableSet.sol\":7087:7142  _contains(set._inner, bytes32(uint256(uint160(value)))) */\n      jump\t// in\n        /* \"@openzeppelin/contracts/utils/EnumerableSet.sol\":7230:7345  function length(AddressSet storage set) internal view returns (uint256) {... */\n    tag_329:\n        /* \"@openzeppelin/contracts/utils/EnumerableSet.sol\":7293:7300  uint256 */\n      0x00\n        /* \"@openzeppelin/contracts/utils/EnumerableSet.sol\":7319:7338  _length(set._inner) */\n      tag_283\n        /* \"@openzeppelin/contracts/utils/EnumerableSet.sol\":7327:7330  set */\n      dup3\n        /* \"@openzeppelin/contracts/utils/EnumerableSet.sol\":7319:7326  _length */\n      tag_419\n        /* \"@openzeppelin/contracts/utils/EnumerableSet.sol\":7319:7338  _length(set._inner) */\n      jump\t// in\n        /* \"@uniswap/v3-periphery/contracts/libraries/TransferHelper.sol\":561:919  function safeTransferFrom(... */\n    tag_341:\n        /* \"@uniswap/v3-periphery/contracts/libraries/TransferHelper.sol\":759:828  abi.encodeWithSelector(IERC20.transferFrom.selector, from, to, value) */\n      0x40\n      dup1\n      mload\n      sub(shl(0xa0, 0x01), 0x01)\n      dup6\n      dup2\n      and\n      0x24\n      dup4\n      add\n      mstore\n      dup5\n      dup2\n      and\n      0x44\n      dup4\n      add\n      mstore\n      0x64\n      dup1\n      dup4\n      add\n      dup6\n      swap1\n      mstore\n      dup4\n      mload\n      dup1\n      dup5\n      sub\n      swap1\n      swap2\n      add\n      dup2\n      mstore\n      0x84\n      swap1\n      swap3\n      add\n      dup4\n      mstore\n      0x20\n      dup3\n      add\n      dup1\n      mload\n      sub(shl(0xe0, 0x01), 0x01)\n      and\n      shl(0xe0, 0x23b872dd)\n      or\n      dup2\n      mstore\n        /* \"@uniswap/v3-periphery/contracts/libraries/TransferHelper.sol\":748:829  token.call(abi.encodeWithSelector(IERC20.transferFrom.selector, from, to, value)) */\n      swap3\n      mload\n      dup3\n      mload\n        /* \"@uniswap/v3-periphery/contracts/libraries/TransferHelper.sol\":701:713  bool success */\n      0x00\n      swap5\n      dup6\n      swap5\n        /* \"@uniswap/v3-periphery/contracts/libraries/TransferHelper.sol\":748:758  token.call */\n      swap4\n      dup11\n      and\n      swap4\n        /* \"@uniswap/v3-periphery/contracts/libraries/TransferHelper.sol\":759:828  abi.encodeWithSelector(IERC20.transferFrom.selector, from, to, value) */\n      swap3\n        /* \"@uniswap/v3-periphery/contracts/libraries/TransferHelper.sol\":748:829  token.call(abi.encodeWithSelector(IERC20.transferFrom.selector, from, to, value)) */\n      swap2\n      dup3\n      swap2\n        /* \"@uniswap/v3-periphery/contracts/libraries/TransferHelper.sol\":759:828  abi.encodeWithSelector(IERC20.transferFrom.selector, from, to, value) */\n      swap1\n        /* \"@uniswap/v3-periphery/contracts/libraries/TransferHelper.sol\":748:829  token.call(abi.encodeWithSelector(IERC20.transferFrom.selector, from, to, value)) */\n      dup1\n      dup4\n        /* \"@uniswap/v3-periphery/contracts/libraries/TransferHelper.sol\":759:828  abi.encodeWithSelector(IERC20.transferFrom.selector, from, to, value) */\n      dup4\n        /* \"@uniswap/v3-periphery/contracts/libraries/TransferHelper.sol\":748:829  token.call(abi.encodeWithSelector(IERC20.transferFrom.selector, from, to, value)) */\n    tag_421:\n      0x20\n      dup4\n      lt\n      tag_423\n      jumpi\n      dup1\n      mload\n      dup3\n      mstore\n      not(0x1f)\n      swap1\n      swap3\n      add\n      swap2\n      0x20\n      swap2\n      dup3\n      add\n      swap2\n      add\n      jump(tag_421)\n    tag_423:\n      0x01\n      dup4\n      0x20\n      sub\n      0x0100\n      exp\n      sub\n      dup1\n      not\n      dup3\n      mload\n      and\n      dup2\n      dup5\n      mload\n      and\n      dup1\n      dup3\n      or\n      dup6\n      mstore\n      pop\n      pop\n      pop\n      pop\n      pop\n      pop\n      swap1\n      pop\n      add\n      swap2\n      pop\n      pop\n      0x00\n      mload(0x40)\n      dup1\n      dup4\n      sub\n      dup2\n      0x00\n      dup7\n      gas\n      call\n      swap2\n      pop\n      pop\n      returndatasize\n      dup1\n      0x00\n      dup2\n      eq\n      tag_426\n      jumpi\n      mload(0x40)\n      swap2\n      pop\n      and(add(returndatasize, 0x3f), not(0x1f))\n      dup3\n      add\n      0x40\n      mstore\n      returndatasize\n      dup3\n      mstore\n      returndatasize\n      0x00\n      0x20\n      dup5\n      add\n      returndatacopy\n      jump(tag_425)\n    tag_426:\n      0x60\n      swap2\n      pop\n    tag_425:\n      pop\n        /* \"@uniswap/v3-periphery/contracts/libraries/TransferHelper.sol\":700:829  (bool success, bytes memory data) =... */\n      swap2\n      pop\n      swap2\n      pop\n        /* \"@uniswap/v3-periphery/contracts/libraries/TransferHelper.sol\":847:854  success */\n      dup2\n        /* \"@uniswap/v3-periphery/contracts/libraries/TransferHelper.sol\":847:904  success && (data.length == 0 || abi.decode(data, (bool))) */\n      dup1\n      iszero\n      tag_428\n      jumpi\n      pop\n        /* \"@uniswap/v3-periphery/contracts/libraries/TransferHelper.sol\":859:870  data.length */\n      dup1\n      mload\n        /* \"@uniswap/v3-periphery/contracts/libraries/TransferHelper.sol\":859:875  data.length == 0 */\n      iszero\n      dup1\n        /* \"@uniswap/v3-periphery/contracts/libraries/TransferHelper.sol\":859:903  data.length == 0 || abi.decode(data, (bool)) */\n      tag_428\n      jumpi\n      pop\n        /* \"@uniswap/v3-periphery/contracts/libraries/TransferHelper.sol\":890:894  data */\n      dup1\n        /* \"@uniswap/v3-periphery/contracts/libraries/TransferHelper.sol\":879:903  abi.decode(data, (bool)) */\n      dup1\n      0x20\n      add\n      swap1\n      mload\n      0x20\n      dup2\n      lt\n      iszero\n      tag_429\n      jumpi\n      0x00\n      dup1\n      revert\n    tag_429:\n      pop\n      mload\n        /* \"@uniswap/v3-periphery/contracts/libraries/TransferHelper.sol\":859:903  data.length == 0 || abi.decode(data, (bool)) */\n    tag_428:\n        /* \"@uniswap/v3-periphery/contracts/libraries/TransferHelper.sol\":839:912  require(success && (data.length == 0 || abi.decode(data, (bool))), 'STF') */\n      tag_184\n      jumpi\n      0x40\n      dup1\n      mload\n      shl(0xe5, 0x461bcd)\n      dup2\n      mstore\n      0x20\n      0x04\n      dup3\n      add\n      mstore\n      0x03\n      0x24\n      dup3\n      add\n      mstore\n      shl(0xe9, 0x29aa23)\n      0x44\n      dup3\n      add\n      mstore\n      swap1\n      mload\n      swap1\n      dup2\n      swap1\n      sub\n      0x64\n      add\n      swap1\n      revert\n        /* \"@openzeppelin/contracts/utils/EnumerableSet.sol\":1640:2044  function _add(Set storage set, bytes32 value) private returns (bool) {... */\n    tag_366:\n        /* \"@openzeppelin/contracts/utils/EnumerableSet.sol\":1703:1707  bool */\n      0x00\n        /* \"@openzeppelin/contracts/utils/EnumerableSet.sol\":1724:1745  _contains(set, value) */\n      tag_432\n        /* \"@openzeppelin/contracts/utils/EnumerableSet.sol\":1734:1737  set */\n      dup4\n        /* \"@openzeppelin/contracts/utils/EnumerableSet.sol\":1739:1744  value */\n      dup4\n        /* \"@openzeppelin/contracts/utils/EnumerableSet.sol\":1724:1733  _contains */\n      tag_416\n        /* \"@openzeppelin/contracts/utils/EnumerableSet.sol\":1724:1745  _contains(set, value) */\n      jump\t// in\n    tag_432:\n        /* \"@openzeppelin/contracts/utils/EnumerableSet.sol\":1719:2038  if (!_contains(set, value)) {... */\n      tag_433\n      jumpi\n      pop\n        /* \"@openzeppelin/contracts/utils/EnumerableSet.sol\":1761:1784  set._values.push(value) */\n      dup2\n      sload\n      0x01\n      dup2\n      dup2\n      add\n      dup5\n      sstore\n        /* \"@openzeppelin/contracts/utils/EnumerableSet.sol\":1761:1772  set._values */\n      0x00\n        /* \"@openzeppelin/contracts/utils/EnumerableSet.sol\":1761:1784  set._values.push(value) */\n      dup5\n      dup2\n      mstore\n      0x20\n      dup1\n      dup3\n      keccak256\n      swap1\n      swap4\n      add\n      dup5\n      swap1\n      sstore\n        /* \"@openzeppelin/contracts/utils/EnumerableSet.sol\":1941:1959  set._values.length */\n      dup5\n      sload\n        /* \"@openzeppelin/contracts/utils/EnumerableSet.sol\":1919:1938  set._indexes[value] */\n      dup5\n      dup3\n      mstore\n        /* \"@openzeppelin/contracts/utils/EnumerableSet.sol\":1919:1931  set._indexes */\n      dup3\n      dup7\n      add\n        /* \"@openzeppelin/contracts/utils/EnumerableSet.sol\":1919:1938  set._indexes[value] */\n      swap1\n      swap4\n      mstore\n      0x40\n      swap1\n      keccak256\n        /* \"@openzeppelin/contracts/utils/EnumerableSet.sol\":1919:1959  set._indexes[value] = set._values.length */\n      swap2\n      swap1\n      swap2\n      sstore\n        /* \"@openzeppelin/contracts/utils/EnumerableSet.sol\":1973:1984  return true */\n      jump(tag_283)\n        /* \"@openzeppelin/contracts/utils/EnumerableSet.sol\":1719:2038  if (!_contains(set, value)) {... */\n    tag_433:\n      pop\n        /* \"@openzeppelin/contracts/utils/EnumerableSet.sol\":2022:2027  false */\n      0x00\n        /* \"@openzeppelin/contracts/utils/EnumerableSet.sol\":2015:2027  return false */\n      jump(tag_283)\n        /* \"@openzeppelin/contracts/utils/EnumerableSet.sol\":6747:6903  function remove(AddressSet storage set, address value) internal returns (bool) {... */\n    tag_408:\n        /* \"@openzeppelin/contracts/utils/EnumerableSet.sol\":6820:6824  bool */\n      0x00\n        /* \"@openzeppelin/contracts/utils/EnumerableSet.sol\":6843:6896  _remove(set._inner, bytes32(uint256(uint160(value)))) */\n      tag_284\n        /* \"@openzeppelin/contracts/utils/EnumerableSet.sol\":6851:6854  set */\n      dup4\n      sub(shl(0xa0, 0x01), 0x01)\n        /* \"@openzeppelin/contracts/utils/EnumerableSet.sol\":6871:6894  uint256(uint160(value)) */\n      dup5\n      and\n        /* \"@openzeppelin/contracts/utils/EnumerableSet.sol\":6843:6850  _remove */\n      tag_438\n        /* \"@openzeppelin/contracts/utils/EnumerableSet.sol\":6843:6896  _remove(set._inner, bytes32(uint256(uint160(value)))) */\n      jump\t// in\n        /* \"@openzeppelin/contracts/utils/EnumerableSet.sol\":4452:4653  function _at(Set storage set, uint256 index) private view returns (bytes32) {... */\n    tag_413:\n        /* \"@openzeppelin/contracts/utils/EnumerableSet.sol\":4546:4564  set._values.length */\n      dup2\n      sload\n        /* \"@openzeppelin/contracts/utils/EnumerableSet.sol\":4519:4526  bytes32 */\n      0x00\n      swap1\n        /* \"@openzeppelin/contracts/utils/EnumerableSet.sol\":4546:4572  set._values.length > index */\n      dup3\n      lt\n        /* \"@openzeppelin/contracts/utils/EnumerableSet.sol\":4538:4611  require(set._values.length > index, \"EnumerableSet: index out of bounds\") */\n      tag_440\n      jumpi\n      mload(0x40)\n      shl(0xe5, 0x461bcd)\n      dup2\n      mstore\n      0x04\n      add\n      dup1\n      dup1\n      0x20\n      add\n      dup3\n      dup2\n      sub\n      dup3\n      mstore\n      0x22\n      dup2\n      mstore\n      0x20\n      add\n      dup1\n      data_045d6834e6193a687012a3ad777f612279e549b6945364d9d2324f48610d3cbb\n      0x22\n      swap2\n      codecopy\n      0x40\n      add\n      swap2\n      pop\n      pop\n      mload(0x40)\n      dup1\n      swap2\n      sub\n      swap1\n      revert\n    tag_440:\n        /* \"@openzeppelin/contracts/utils/EnumerableSet.sol\":4628:4631  set */\n      dup3\n        /* \"@openzeppelin/contracts/utils/EnumerableSet.sol\":4628:4639  set._values */\n      0x00\n      add\n        /* \"@openzeppelin/contracts/utils/EnumerableSet.sol\":4640:4645  index */\n      dup3\n        /* \"@openzeppelin/contracts/utils/EnumerableSet.sol\":4628:4646  set._values[index] */\n      dup2\n      sload\n      dup2\n      lt\n      tag_441\n      jumpi\n      invalid\n    tag_441:\n      swap1\n      0x00\n      mstore\n      keccak256(0x00, 0x20)\n      add\n      sload\n        /* \"@openzeppelin/contracts/utils/EnumerableSet.sol\":4621:4646  return set._values[index] */\n      swap1\n      pop\n        /* \"@openzeppelin/contracts/utils/EnumerableSet.sol\":4452:4653  function _at(Set storage set, uint256 index) private view returns (bytes32) {... */\n      swap3\n      swap2\n      pop\n      pop\n      jump\t// out\n        /* \"@openzeppelin/contracts/utils/EnumerableSet.sol\":3805:3932  function _contains(Set storage set, bytes32 value) private view returns (bool) {... */\n    tag_416:\n        /* \"@openzeppelin/contracts/utils/EnumerableSet.sol\":3878:3882  bool */\n      0x00\n        /* \"@openzeppelin/contracts/utils/EnumerableSet.sol\":3901:3920  set._indexes[value] */\n      swap1\n      dup2\n      mstore\n        /* \"@openzeppelin/contracts/utils/EnumerableSet.sol\":3901:3913  set._indexes */\n      0x01\n      swap2\n      swap1\n      swap2\n      add\n        /* \"@openzeppelin/contracts/utils/EnumerableSet.sol\":3901:3920  set._indexes[value] */\n      0x20\n      mstore\n      0x40\n      swap1\n      keccak256\n      sload\n        /* \"@openzeppelin/contracts/utils/EnumerableSet.sol\":3901:3925  set._indexes[value] != 0 */\n      iszero\n      iszero\n      swap1\n        /* \"@openzeppelin/contracts/utils/EnumerableSet.sol\":3805:3932  function _contains(Set storage set, bytes32 value) private view returns (bool) {... */\n      jump\t// out\n        /* \"@openzeppelin/contracts/utils/EnumerableSet.sol\":4013:4120  function _length(Set storage set) private view returns (uint256) {... */\n    tag_419:\n        /* \"@openzeppelin/contracts/utils/EnumerableSet.sol\":4095:4113  set._values.length */\n      sload\n      swap1\n        /* \"@openzeppelin/contracts/utils/EnumerableSet.sol\":4013:4120  function _length(Set storage set) private view returns (uint256) {... */\n      jump\t// out\n        /* \"@openzeppelin/contracts/utils/EnumerableSet.sol\":2212:3724  function _remove(Set storage set, bytes32 value) private returns (bool) {... */\n    tag_438:\n        /* \"@openzeppelin/contracts/utils/EnumerableSet.sol\":2278:2282  bool */\n      0x00\n        /* \"@openzeppelin/contracts/utils/EnumerableSet.sol\":2415:2434  set._indexes[value] */\n      dup2\n      dup2\n      mstore\n        /* \"@openzeppelin/contracts/utils/EnumerableSet.sol\":2415:2427  set._indexes */\n      0x01\n      dup4\n      add\n        /* \"@openzeppelin/contracts/utils/EnumerableSet.sol\":2415:2434  set._indexes[value] */\n      0x20\n      mstore\n      0x40\n      dup2\n      keccak256\n      sload\n        /* \"@openzeppelin/contracts/utils/EnumerableSet.sol\":2449:2464  valueIndex != 0 */\n      dup1\n      iszero\n        /* \"@openzeppelin/contracts/utils/EnumerableSet.sol\":2445:3718  if (valueIndex != 0) { // Equivalent to contains(set, value)... */\n      tag_446\n      jumpi\n        /* \"@openzeppelin/contracts/utils/EnumerableSet.sol\":2878:2896  set._values.length */\n      dup4\n      sload\n      not(0x00)\n        /* \"@openzeppelin/contracts/utils/EnumerableSet.sol\":2830:2844  valueIndex - 1 */\n      dup1\n      dup4\n      add\n      swap2\n        /* \"@openzeppelin/contracts/utils/EnumerableSet.sol\":2878:2900  set._values.length - 1 */\n      swap1\n      dup2\n      add\n      swap1\n        /* \"@openzeppelin/contracts/utils/EnumerableSet.sol\":2806:2827  uint256 toDeleteIndex */\n      0x00\n      swap1\n        /* \"@openzeppelin/contracts/utils/EnumerableSet.sol\":2878:2881  set */\n      dup8\n      swap1\n        /* \"@openzeppelin/contracts/utils/EnumerableSet.sol\":2878:2900  set._values.length - 1 */\n      dup4\n      swap1\n        /* \"@openzeppelin/contracts/utils/EnumerableSet.sol\":3160:3182  set._values[lastIndex] */\n      dup2\n      lt\n      tag_447\n      jumpi\n      invalid\n    tag_447:\n      swap1\n      0x00\n      mstore\n      keccak256(0x00, 0x20)\n      add\n      sload\n        /* \"@openzeppelin/contracts/utils/EnumerableSet.sol\":3140:3182  bytes32 lastvalue = set._values[lastIndex] */\n      swap1\n      pop\n        /* \"@openzeppelin/contracts/utils/EnumerableSet.sol\":3303:3312  lastvalue */\n      dup1\n        /* \"@openzeppelin/contracts/utils/EnumerableSet.sol\":3274:3277  set */\n      dup8\n        /* \"@openzeppelin/contracts/utils/EnumerableSet.sol\":3274:3285  set._values */\n      0x00\n      add\n        /* \"@openzeppelin/contracts/utils/EnumerableSet.sol\":3286:3299  toDeleteIndex */\n      dup5\n        /* \"@openzeppelin/contracts/utils/EnumerableSet.sol\":3274:3300  set._values[toDeleteIndex] */\n      dup2\n      sload\n      dup2\n      lt\n      tag_449\n      jumpi\n      invalid\n    tag_449:\n      0x00\n      swap2\n      dup3\n      mstore\n      0x20\n      dup1\n      dup4\n      keccak256\n      swap1\n      swap2\n      add\n        /* \"@openzeppelin/contracts/utils/EnumerableSet.sol\":3274:3312  set._values[toDeleteIndex] = lastvalue */\n      swap3\n      swap1\n      swap3\n      sstore\n        /* \"@openzeppelin/contracts/utils/EnumerableSet.sol\":3378:3401  set._indexes[lastvalue] */\n      dup3\n      dup2\n      mstore\n        /* \"@openzeppelin/contracts/utils/EnumerableSet.sol\":3420:3421  1 */\n      0x01\n        /* \"@openzeppelin/contracts/utils/EnumerableSet.sol\":3378:3390  set._indexes */\n      dup10\n      dup2\n      add\n        /* \"@openzeppelin/contracts/utils/EnumerableSet.sol\":3378:3401  set._indexes[lastvalue] */\n      swap1\n      swap3\n      mstore\n      0x40\n      swap1\n      keccak256\n        /* \"@openzeppelin/contracts/utils/EnumerableSet.sol\":3404:3421  toDeleteIndex + 1 */\n      swap1\n      dup5\n      add\n        /* \"@openzeppelin/contracts/utils/EnumerableSet.sol\":3378:3421  set._indexes[lastvalue] = toDeleteIndex + 1 */\n      swap1\n      sstore\n        /* \"@openzeppelin/contracts/utils/EnumerableSet.sol\":3527:3544  set._values.pop() */\n      dup7\n      sload\n        /* \"@openzeppelin/contracts/utils/EnumerableSet.sol\":3378:3381  set */\n      dup8\n      swap1\n        /* \"@openzeppelin/contracts/utils/EnumerableSet.sol\":3527:3544  set._values.pop() */\n      dup1\n      tag_451\n      jumpi\n      invalid\n    tag_451:\n      0x01\n      swap1\n      sub\n      dup2\n      dup2\n      swap1\n      0x00\n      mstore\n      keccak256(0x00, 0x20)\n      add\n      0x00\n      swap1\n      sstore\n      swap1\n      sstore\n        /* \"@openzeppelin/contracts/utils/EnumerableSet.sol\":3619:3622  set */\n      dup7\n        /* \"@openzeppelin/contracts/utils/EnumerableSet.sol\":3619:3631  set._indexes */\n      0x01\n      add\n        /* \"@openzeppelin/contracts/utils/EnumerableSet.sol\":3619:3638  set._indexes[value] */\n      0x00\n        /* \"@openzeppelin/contracts/utils/EnumerableSet.sol\":3632:3637  value */\n      dup8\n        /* \"@openzeppelin/contracts/utils/EnumerableSet.sol\":3619:3638  set._indexes[value] */\n      dup2\n      mstore\n      0x20\n      add\n      swap1\n      dup2\n      mstore\n      0x20\n      add\n      0x00\n      keccak256\n        /* \"@openzeppelin/contracts/utils/EnumerableSet.sol\":3612:3638  delete set._indexes[value] */\n      0x00\n      swap1\n      sstore\n        /* \"@openzeppelin/contracts/utils/EnumerableSet.sol\":3660:3664  true */\n      0x01\n        /* \"@openzeppelin/contracts/utils/EnumerableSet.sol\":3653:3664  return true */\n      swap5\n      pop\n      pop\n      pop\n      pop\n      pop\n      jump(tag_283)\n        /* \"@openzeppelin/contracts/utils/EnumerableSet.sol\":2445:3718  if (valueIndex != 0) { // Equivalent to contains(set, value)... */\n    tag_446:\n        /* \"@openzeppelin/contracts/utils/EnumerableSet.sol\":3702:3707  false */\n      0x00\n        /* \"@openzeppelin/contracts/utils/EnumerableSet.sol\":3695:3707  return false */\n      swap2\n      pop\n      pop\n      jump(tag_283)\n        /* \"#utility.yul\":14:156   */\n    tag_455:\n        /* \"#utility.yul\":95:108   */\n      dup1\n      mload\n        /* \"#utility.yul\":117:150   */\n      tag_185\n        /* \"#utility.yul\":95:108   */\n      dup2\n        /* \"#utility.yul\":117:150   */\n      tag_458\n      jump\t// in\n        /* \"#utility.yul\":161:299   */\n    tag_459:\n        /* \"#utility.yul\":240:253   */\n      dup1\n      mload\n        /* \"#utility.yul\":262:293   */\n      tag_185\n        /* \"#utility.yul\":240:253   */\n      dup2\n        /* \"#utility.yul\":262:293   */\n      tag_462\n      jump\t// in\n        /* \"#utility.yul\":304:446   */\n    tag_463:\n        /* \"#utility.yul\":385:398   */\n      dup1\n      mload\n        /* \"#utility.yul\":407:440   */\n      tag_185\n        /* \"#utility.yul\":385:398   */\n      dup2\n        /* \"#utility.yul\":407:440   */\n      tag_466\n      jump\t// in\n        /* \"#utility.yul\":451:591   */\n    tag_467:\n        /* \"#utility.yul\":531:544   */\n      dup1\n      mload\n        /* \"#utility.yul\":553:585   */\n      tag_185\n        /* \"#utility.yul\":531:544   */\n      dup2\n        /* \"#utility.yul\":553:585   */\n      tag_470\n      jump\t// in\n        /* \"#utility.yul\":596:998   */\n    tag_55:\n      0x00\n      dup1\n        /* \"#utility.yul\":725:727   */\n      0x40\n        /* \"#utility.yul\":713:722   */\n      dup4\n        /* \"#utility.yul\":704:711   */\n      dup6\n        /* \"#utility.yul\":700:723   */\n      sub\n        /* \"#utility.yul\":696:728   */\n      slt\n        /* \"#utility.yul\":693:695   */\n      iszero\n      tag_472\n      jumpi\n        /* \"#utility.yul\":746:752   */\n      dup2\n        /* \"#utility.yul\":738:744   */\n      dup3\n        /* \"#utility.yul\":731:753   */\n      revert\n        /* \"#utility.yul\":693:695   */\n    tag_472:\n        /* \"#utility.yul\":790:799   */\n      dup3\n        /* \"#utility.yul\":777:800   */\n      calldataload\n        /* \"#utility.yul\":809:842   */\n      tag_473\n        /* \"#utility.yul\":836:841   */\n      dup2\n        /* \"#utility.yul\":809:842   */\n      tag_458\n      jump\t// in\n    tag_473:\n        /* \"#utility.yul\":861:866   */\n      swap2\n      pop\n        /* \"#utility.yul\":918:920   */\n      0x20\n        /* \"#utility.yul\":903:921   */\n      dup4\n      add\n        /* \"#utility.yul\":890:922   */\n      calldataload\n        /* \"#utility.yul\":931:966   */\n      tag_474\n        /* \"#utility.yul\":890:922   */\n      dup2\n        /* \"#utility.yul\":931:966   */\n      tag_458\n      jump\t// in\n    tag_474:\n        /* \"#utility.yul\":985:992   */\n      dup1\n        /* \"#utility.yul\":975:992   */\n      swap2\n      pop\n      pop\n        /* \"#utility.yul\":683:998   */\n      swap3\n      pop\n      swap3\n      swap1\n      pop\n      jump\t// out\n        /* \"#utility.yul\":1003:2102   */\n    tag_157:\n      0x00\n      dup1\n      0x00\n      dup1\n      0x00\n      dup1\n      0x00\n      dup1\n      0x00\n        /* \"#utility.yul\":1246:1249   */\n      0x0120\n        /* \"#utility.yul\":1234:1243   */\n      dup11\n        /* \"#utility.yul\":1225:1232   */\n      dup13\n        /* \"#utility.yul\":1221:1244   */\n      sub\n        /* \"#utility.yul\":1217:1250   */\n      slt\n        /* \"#utility.yul\":1214:1216   */\n      iszero\n      tag_476\n      jumpi\n        /* \"#utility.yul\":1268:1274   */\n      dup5\n        /* \"#utility.yul\":1260:1266   */\n      dup6\n        /* \"#utility.yul\":1253:1275   */\n      revert\n        /* \"#utility.yul\":1214:1216   */\n    tag_476:\n        /* \"#utility.yul\":1312:1321   */\n      dup10\n        /* \"#utility.yul\":1299:1322   */\n      calldataload\n        /* \"#utility.yul\":1331:1364   */\n      tag_477\n        /* \"#utility.yul\":1358:1363   */\n      dup2\n        /* \"#utility.yul\":1331:1364   */\n      tag_458\n      jump\t// in\n    tag_477:\n        /* \"#utility.yul\":1383:1388   */\n      swap9\n      pop\n        /* \"#utility.yul\":1440:1442   */\n      0x20\n        /* \"#utility.yul\":1425:1443   */\n      dup11\n      add\n        /* \"#utility.yul\":1412:1444   */\n      calldataload\n        /* \"#utility.yul\":1453:1488   */\n      tag_478\n        /* \"#utility.yul\":1412:1444   */\n      dup2\n        /* \"#utility.yul\":1453:1488   */\n      tag_458\n      jump\t// in\n    tag_478:\n        /* \"#utility.yul\":1507:1514   */\n      swap8\n      pop\n        /* \"#utility.yul\":1566:1568   */\n      0x40\n        /* \"#utility.yul\":1551:1569   */\n      dup11\n      add\n        /* \"#utility.yul\":1538:1570   */\n      calldataload\n        /* \"#utility.yul\":1579:1613   */\n      tag_479\n        /* \"#utility.yul\":1538:1570   */\n      dup2\n        /* \"#utility.yul\":1579:1613   */\n      tag_470\n      jump\t// in\n    tag_479:\n        /* \"#utility.yul\":1632:1639   */\n      swap7\n      pop\n        /* \"#utility.yul\":1691:1693   */\n      0x60\n        /* \"#utility.yul\":1676:1694   */\n      dup11\n      add\n        /* \"#utility.yul\":1663:1695   */\n      calldataload\n        /* \"#utility.yul\":1704:1737   */\n      tag_480\n        /* \"#utility.yul\":1663:1695   */\n      dup2\n        /* \"#utility.yul\":1704:1737   */\n      tag_462\n      jump\t// in\n    tag_480:\n        /* \"#utility.yul\":1756:1763   */\n      swap6\n      pop\n        /* \"#utility.yul\":1815:1818   */\n      0x80\n        /* \"#utility.yul\":1800:1819   */\n      dup11\n      add\n        /* \"#utility.yul\":1787:1820   */\n      calldataload\n        /* \"#utility.yul\":1829:1862   */\n      tag_481\n        /* \"#utility.yul\":1787:1820   */\n      dup2\n        /* \"#utility.yul\":1829:1862   */\n      tag_462\n      jump\t// in\n    tag_481:\n        /* \"#utility.yul\":1204:2102   */\n      swap9\n      swap12\n      swap8\n      swap11\n      pop\n      swap6\n      swap9\n      swap5\n      swap8\n        /* \"#utility.yul\":1881:1888   */\n      swap7\n        /* \"#utility.yul\":1935:1938   */\n      0xa0\n        /* \"#utility.yul\":1920:1939   */\n      dup7\n      add\n        /* \"#utility.yul\":1907:1940   */\n      calldataload\n      swap7\n      pop\n        /* \"#utility.yul\":1987:1990   */\n      0xc0\n        /* \"#utility.yul\":1972:1991   */\n      dup7\n      add\n        /* \"#utility.yul\":1959:1992   */\n      calldataload\n      swap6\n        /* \"#utility.yul\":2039:2042   */\n      0xe0\n        /* \"#utility.yul\":2024:2043   */\n      dup2\n      add\n        /* \"#utility.yul\":2011:2044   */\n      calldataload\n      swap6\n      pop\n        /* \"#utility.yul\":2091:2094   */\n      0x0100\n        /* \"#utility.yul\":2076:2095   */\n      add\n        /* \"#utility.yul\":2063:2096   */\n      calldataload\n      swap4\n      pop\n        /* \"#utility.yul\":1204:2102   */\n      swap2\n      pop\n      pop\n      jump\t// out\n        /* \"#utility.yul\":2107:2932   */\n    tag_85:\n      0x00\n      dup1\n      0x00\n      dup1\n      0x00\n      dup1\n        /* \"#utility.yul\":2303:2306   */\n      0xc0\n        /* \"#utility.yul\":2291:2300   */\n      dup8\n        /* \"#utility.yul\":2282:2289   */\n      dup10\n        /* \"#utility.yul\":2278:2301   */\n      sub\n        /* \"#utility.yul\":2274:2307   */\n      slt\n        /* \"#utility.yul\":2271:2273   */\n      iszero\n      tag_483\n      jumpi\n        /* \"#utility.yul\":2325:2331   */\n      dup2\n        /* \"#utility.yul\":2317:2323   */\n      dup3\n        /* \"#utility.yul\":2310:2332   */\n      revert\n        /* \"#utility.yul\":2271:2273   */\n    tag_483:\n        /* \"#utility.yul\":2369:2378   */\n      dup7\n        /* \"#utility.yul\":2356:2379   */\n      calldataload\n        /* \"#utility.yul\":2388:2421   */\n      tag_484\n        /* \"#utility.yul\":2415:2420   */\n      dup2\n        /* \"#utility.yul\":2388:2421   */\n      tag_458\n      jump\t// in\n    tag_484:\n        /* \"#utility.yul\":2440:2445   */\n      swap6\n      pop\n        /* \"#utility.yul\":2497:2499   */\n      0x20\n        /* \"#utility.yul\":2482:2500   */\n      dup8\n      add\n        /* \"#utility.yul\":2469:2501   */\n      calldataload\n        /* \"#utility.yul\":2510:2545   */\n      tag_485\n        /* \"#utility.yul\":2469:2501   */\n      dup2\n        /* \"#utility.yul\":2510:2545   */\n      tag_458\n      jump\t// in\n    tag_485:\n        /* \"#utility.yul\":2564:2571   */\n      swap5\n      pop\n        /* \"#utility.yul\":2623:2625   */\n      0x40\n        /* \"#utility.yul\":2608:2626   */\n      dup8\n      add\n        /* \"#utility.yul\":2595:2627   */\n      calldataload\n        /* \"#utility.yul\":2636:2670   */\n      tag_486\n        /* \"#utility.yul\":2595:2627   */\n      dup2\n        /* \"#utility.yul\":2636:2670   */\n      tag_470\n      jump\t// in\n    tag_486:\n        /* \"#utility.yul\":2689:2696   */\n      swap4\n      pop\n        /* \"#utility.yul\":2743:2745   */\n      0x60\n        /* \"#utility.yul\":2728:2746   */\n      dup8\n      add\n        /* \"#utility.yul\":2715:2747   */\n      calldataload\n      swap3\n      pop\n        /* \"#utility.yul\":2794:2797   */\n      0x80\n        /* \"#utility.yul\":2779:2798   */\n      dup8\n      add\n        /* \"#utility.yul\":2766:2799   */\n      calldataload\n      swap2\n      pop\n        /* \"#utility.yul\":2851:2854   */\n      0xa0\n        /* \"#utility.yul\":2836:2855   */\n      dup8\n      add\n        /* \"#utility.yul\":2823:2856   */\n      calldataload\n        /* \"#utility.yul\":2865:2900   */\n      tag_487\n        /* \"#utility.yul\":2823:2856   */\n      dup2\n        /* \"#utility.yul\":2865:2900   */\n      tag_458\n      jump\t// in\n    tag_487:\n        /* \"#utility.yul\":2919:2926   */\n      dup1\n        /* \"#utility.yul\":2909:2926   */\n      swap2\n      pop\n      pop\n        /* \"#utility.yul\":2261:2932   */\n      swap3\n      swap6\n      pop\n      swap3\n      swap6\n      pop\n      swap3\n      swap6\n      jump\t// out\n        /* \"#utility.yul\":2937:3407   */\n    tag_45:\n      0x00\n      dup1\n      0x00\n        /* \"#utility.yul\":3083:3085   */\n      0x60\n        /* \"#utility.yul\":3071:3080   */\n      dup5\n        /* \"#utility.yul\":3062:3069   */\n      dup7\n        /* \"#utility.yul\":3058:3081   */\n      sub\n        /* \"#utility.yul\":3054:3086   */\n      slt\n        /* \"#utility.yul\":3051:3053   */\n      iszero\n      tag_489\n      jumpi\n        /* \"#utility.yul\":3104:3110   */\n      dup3\n        /* \"#utility.yul\":3096:3102   */\n      dup4\n        /* \"#utility.yul\":3089:3111   */\n      revert\n        /* \"#utility.yul\":3051:3053   */\n    tag_489:\n        /* \"#utility.yul\":3148:3157   */\n      dup4\n        /* \"#utility.yul\":3135:3158   */\n      calldataload\n        /* \"#utility.yul\":3167:3200   */\n      tag_490\n        /* \"#utility.yul\":3194:3199   */\n      dup2\n        /* \"#utility.yul\":3167:3200   */\n      tag_458\n      jump\t// in\n    tag_490:\n        /* \"#utility.yul\":3219:3224   */\n      swap3\n      pop\n        /* \"#utility.yul\":3276:3278   */\n      0x20\n        /* \"#utility.yul\":3261:3279   */\n      dup5\n      add\n        /* \"#utility.yul\":3248:3280   */\n      calldataload\n        /* \"#utility.yul\":3289:3324   */\n      tag_491\n        /* \"#utility.yul\":3248:3280   */\n      dup2\n        /* \"#utility.yul\":3289:3324   */\n      tag_458\n      jump\t// in\n    tag_491:\n        /* \"#utility.yul\":3041:3407   */\n      swap3\n      swap6\n        /* \"#utility.yul\":3343:3350   */\n      swap3\n      swap5\n      pop\n      pop\n      pop\n        /* \"#utility.yul\":3397:3399   */\n      0x40\n        /* \"#utility.yul\":3382:3400   */\n      swap2\n      swap1\n      swap2\n      add\n        /* \"#utility.yul\":3369:3401   */\n      calldataload\n      swap1\n        /* \"#utility.yul\":3041:3407   */\n      jump\t// out\n        /* \"#utility.yul\":3412:4402   */\n    tag_49:\n      0x00\n      dup1\n      0x00\n      dup1\n      0x00\n        /* \"#utility.yul\":3594:3597   */\n      0x80\n        /* \"#utility.yul\":3582:3591   */\n      dup7\n        /* \"#utility.yul\":3573:3580   */\n      dup9\n        /* \"#utility.yul\":3569:3592   */\n      sub\n        /* \"#utility.yul\":3565:3598   */\n      slt\n        /* \"#utility.yul\":3562:3564   */\n      iszero\n      tag_493\n      jumpi\n        /* \"#utility.yul\":3616:3622   */\n      dup1\n        /* \"#utility.yul\":3608:3614   */\n      dup2\n        /* \"#utility.yul\":3601:3623   */\n      revert\n        /* \"#utility.yul\":3562:3564   */\n    tag_493:\n        /* \"#utility.yul\":3660:3669   */\n      dup6\n        /* \"#utility.yul\":3647:3670   */\n      calldataload\n        /* \"#utility.yul\":3679:3712   */\n      tag_494\n        /* \"#utility.yul\":3706:3711   */\n      dup2\n        /* \"#utility.yul\":3679:3712   */\n      tag_458\n      jump\t// in\n    tag_494:\n        /* \"#utility.yul\":3731:3736   */\n      swap5\n      pop\n        /* \"#utility.yul\":3788:3790   */\n      0x20\n        /* \"#utility.yul\":3773:3791   */\n      dup7\n      add\n        /* \"#utility.yul\":3760:3792   */\n      calldataload\n        /* \"#utility.yul\":3801:3836   */\n      tag_495\n        /* \"#utility.yul\":3760:3792   */\n      dup2\n        /* \"#utility.yul\":3801:3836   */\n      tag_458\n      jump\t// in\n    tag_495:\n        /* \"#utility.yul\":3855:3862   */\n      swap4\n      pop\n        /* \"#utility.yul\":3909:3911   */\n      0x40\n        /* \"#utility.yul\":3894:3912   */\n      dup7\n      add\n        /* \"#utility.yul\":3881:3913   */\n      calldataload\n      swap3\n      pop\n        /* \"#utility.yul\":3964:3966   */\n      0x60\n        /* \"#utility.yul\":3949:3967   */\n      dup7\n      add\n        /* \"#utility.yul\":3936:3968   */\n      calldataload\n        /* \"#utility.yul\":3987:4005   */\n      0xffffffffffffffff\n        /* \"#utility.yul\":4017:4031   */\n      dup1\n      dup3\n      gt\n        /* \"#utility.yul\":4014:4016   */\n      iszero\n      tag_496\n      jumpi\n        /* \"#utility.yul\":4049:4055   */\n      dup3\n        /* \"#utility.yul\":4041:4047   */\n      dup4\n        /* \"#utility.yul\":4034:4056   */\n      revert\n        /* \"#utility.yul\":4014:4016   */\n    tag_496:\n        /* \"#utility.yul\":4092:4098   */\n      dup2\n        /* \"#utility.yul\":4081:4090   */\n      dup9\n        /* \"#utility.yul\":4077:4099   */\n      add\n        /* \"#utility.yul\":4067:4099   */\n      swap2\n      pop\n        /* \"#utility.yul\":4137:4144   */\n      dup9\n        /* \"#utility.yul\":4130:4134   */\n      0x1f\n        /* \"#utility.yul\":4126:4128   */\n      dup4\n        /* \"#utility.yul\":4122:4135   */\n      add\n        /* \"#utility.yul\":4118:4145   */\n      slt\n        /* \"#utility.yul\":4108:4110   */\n      tag_497\n      jumpi\n        /* \"#utility.yul\":4164:4170   */\n      dup3\n        /* \"#utility.yul\":4156:4162   */\n      dup4\n        /* \"#utility.yul\":4149:4171   */\n      revert\n        /* \"#utility.yul\":4108:4110   */\n    tag_497:\n        /* \"#utility.yul\":4209:4211   */\n      dup2\n        /* \"#utility.yul\":4196:4212   */\n      calldataload\n        /* \"#utility.yul\":4235:4237   */\n      dup2\n        /* \"#utility.yul\":4227:4233   */\n      dup2\n        /* \"#utility.yul\":4224:4238   */\n      gt\n        /* \"#utility.yul\":4221:4223   */\n      iszero\n      tag_498\n      jumpi\n        /* \"#utility.yul\":4256:4262   */\n      dup4\n        /* \"#utility.yul\":4248:4254   */\n      dup5\n        /* \"#utility.yul\":4241:4263   */\n      revert\n        /* \"#utility.yul\":4221:4223   */\n    tag_498:\n        /* \"#utility.yul\":4306:4313   */\n      dup10\n        /* \"#utility.yul\":4301:4303   */\n      0x20\n        /* \"#utility.yul\":4292:4298   */\n      dup3\n        /* \"#utility.yul\":4288:4290   */\n      dup6\n        /* \"#utility.yul\":4284:4299   */\n      add\n        /* \"#utility.yul\":4280:4304   */\n      add\n        /* \"#utility.yul\":4277:4314   */\n      gt\n        /* \"#utility.yul\":4274:4276   */\n      iszero\n      tag_499\n      jumpi\n        /* \"#utility.yul\":4332:4338   */\n      dup4\n        /* \"#utility.yul\":4324:4330   */\n      dup5\n        /* \"#utility.yul\":4317:4339   */\n      revert\n        /* \"#utility.yul\":4274:4276   */\n    tag_499:\n        /* \"#utility.yul\":3552:4402   */\n      swap7\n      swap10\n      swap6\n      swap9\n      pop\n      swap4\n      swap7\n      pop\n        /* \"#utility.yul\":4368:4370   */\n      0x20\n        /* \"#utility.yul\":4360:4371   */\n      add\n      swap5\n        /* \"#utility.yul\":4390:4396   */\n      swap4\n        /* \"#utility.yul\":3552:4402   */\n      swap3\n      pop\n      pop\n      pop\n      jump\t// out\n        /* \"#utility.yul\":4407:4946   */\n    tag_64:\n      0x00\n      dup1\n      0x00\n      dup1\n        /* \"#utility.yul\":4570:4573   */\n      0x80\n        /* \"#utility.yul\":4558:4567   */\n      dup6\n        /* \"#utility.yul\":4549:4556   */\n      dup8\n        /* \"#utility.yul\":4545:4568   */\n      sub\n        /* \"#utility.yul\":4541:4574   */\n      slt\n        /* \"#utility.yul\":4538:4540   */\n      iszero\n      tag_501\n      jumpi\n        /* \"#utility.yul\":4592:4598   */\n      dup4\n        /* \"#utility.yul\":4584:4590   */\n      dup5\n        /* \"#utility.yul\":4577:4599   */\n      revert\n        /* \"#utility.yul\":4538:4540   */\n    tag_501:\n        /* \"#utility.yul\":4636:4645   */\n      dup5\n        /* \"#utility.yul\":4623:4646   */\n      calldataload\n        /* \"#utility.yul\":4655:4688   */\n      tag_502\n        /* \"#utility.yul\":4682:4687   */\n      dup2\n        /* \"#utility.yul\":4655:4688   */\n      tag_458\n      jump\t// in\n    tag_502:\n        /* \"#utility.yul\":4707:4712   */\n      swap4\n      pop\n        /* \"#utility.yul\":4764:4766   */\n      0x20\n        /* \"#utility.yul\":4749:4767   */\n      dup6\n      add\n        /* \"#utility.yul\":4736:4768   */\n      calldataload\n        /* \"#utility.yul\":4777:4812   */\n      tag_503\n        /* \"#utility.yul\":4736:4768   */\n      dup2\n        /* \"#utility.yul\":4777:4812   */\n      tag_458\n      jump\t// in\n    tag_503:\n        /* \"#utility.yul\":4528:4946   */\n      swap4\n      swap7\n        /* \"#utility.yul\":4831:4838   */\n      swap4\n      swap6\n      pop\n      pop\n      pop\n      pop\n        /* \"#utility.yul\":4885:4887   */\n      0x40\n        /* \"#utility.yul\":4870:4888   */\n      dup3\n      add\n        /* \"#utility.yul\":4857:4889   */\n      calldataload\n      swap2\n        /* \"#utility.yul\":4936:4938   */\n      0x60\n        /* \"#utility.yul\":4921:4939   */\n      add\n        /* \"#utility.yul\":4908:4940   */\n      calldataload\n      swap1\n        /* \"#utility.yul\":4528:4946   */\n      jump\t// out\n        /* \"#utility.yul\":4951:5141   */\n    tag_59:\n      0x00\n        /* \"#utility.yul\":5063:5065   */\n      0x20\n        /* \"#utility.yul\":5051:5060   */\n      dup3\n        /* \"#utility.yul\":5042:5049   */\n      dup5\n        /* \"#utility.yul\":5038:5061   */\n      sub\n        /* \"#utility.yul\":5034:5066   */\n      slt\n        /* \"#utility.yul\":5031:5033   */\n      iszero\n      tag_505\n      jumpi\n        /* \"#utility.yul\":5084:5090   */\n      dup1\n        /* \"#utility.yul\":5076:5082   */\n      dup2\n        /* \"#utility.yul\":5069:5091   */\n      revert\n        /* \"#utility.yul\":5031:5033   */\n    tag_505:\n      pop\n        /* \"#utility.yul\":5112:5135   */\n      calldataload\n      swap2\n        /* \"#utility.yul\":5021:5141   */\n      swap1\n      pop\n      jump\t// out\n        /* \"#utility.yul\":5146:5473   */\n    tag_68:\n      0x00\n      dup1\n        /* \"#utility.yul\":5275:5277   */\n      0x40\n        /* \"#utility.yul\":5263:5272   */\n      dup4\n        /* \"#utility.yul\":5254:5261   */\n      dup6\n        /* \"#utility.yul\":5250:5273   */\n      sub\n        /* \"#utility.yul\":5246:5278   */\n      slt\n        /* \"#utility.yul\":5243:5245   */\n      iszero\n      tag_507\n      jumpi\n        /* \"#utility.yul\":5296:5302   */\n      dup2\n        /* \"#utility.yul\":5288:5294   */\n      dup3\n        /* \"#utility.yul\":5281:5303   */\n      revert\n        /* \"#utility.yul\":5243:5245   */\n    tag_507:\n        /* \"#utility.yul\":5337:5346   */\n      dup3\n        /* \"#utility.yul\":5324:5347   */\n      calldataload\n        /* \"#utility.yul\":5314:5347   */\n      swap2\n      pop\n        /* \"#utility.yul\":5397:5399   */\n      0x20\n        /* \"#utility.yul\":5386:5395   */\n      dup4\n        /* \"#utility.yul\":5382:5400   */\n      add\n        /* \"#utility.yul\":5369:5401   */\n      calldataload\n        /* \"#utility.yul\":5410:5443   */\n      tag_474\n        /* \"#utility.yul\":5437:5442   */\n      dup2\n        /* \"#utility.yul\":5410:5443   */\n      tag_458\n      jump\t// in\n        /* \"#utility.yul\":5478:5736   */\n    tag_106:\n      0x00\n      dup1\n        /* \"#utility.yul\":5607:5609   */\n      0x40\n        /* \"#utility.yul\":5595:5604   */\n      dup4\n        /* \"#utility.yul\":5586:5593   */\n      dup6\n        /* \"#utility.yul\":5582:5605   */\n      sub\n        /* \"#utility.yul\":5578:5610   */\n      slt\n        /* \"#utility.yul\":5575:5577   */\n      iszero\n      tag_510\n      jumpi\n        /* \"#utility.yul\":5628:5634   */\n      dup2\n        /* \"#utility.yul\":5620:5626   */\n      dup3\n        /* \"#utility.yul\":5613:5635   */\n      revert\n        /* \"#utility.yul\":5575:5577   */\n    tag_510:\n      pop\n      pop\n        /* \"#utility.yul\":5656:5679   */\n      dup1\n      calldataload\n      swap3\n        /* \"#utility.yul\":5726:5728   */\n      0x20\n        /* \"#utility.yul\":5711:5729   */\n      swap1\n      swap2\n      add\n        /* \"#utility.yul\":5698:5730   */\n      calldataload\n      swap2\n      pop\n        /* \"#utility.yul\":5565:5736   */\n      jump\t// out\n        /* \"#utility.yul\":5741:6126   */\n    tag_325:\n      0x00\n      dup1\n      0x00\n        /* \"#utility.yul\":5898:5900   */\n      0x60\n        /* \"#utility.yul\":5886:5895   */\n      dup5\n        /* \"#utility.yul\":5877:5884   */\n      dup7\n        /* \"#utility.yul\":5873:5896   */\n      sub\n        /* \"#utility.yul\":5869:5901   */\n      slt\n        /* \"#utility.yul\":5866:5868   */\n      iszero\n      tag_512\n      jumpi\n        /* \"#utility.yul\":5919:5925   */\n      dup1\n        /* \"#utility.yul\":5911:5917   */\n      dup2\n        /* \"#utility.yul\":5904:5926   */\n      revert\n        /* \"#utility.yul\":5866:5868   */\n    tag_512:\n        /* \"#utility.yul\":5956:5965   */\n      dup4\n        /* \"#utility.yul\":5950:5966   */\n      mload\n        /* \"#utility.yul\":5975:6008   */\n      tag_513\n        /* \"#utility.yul\":6002:6007   */\n      dup2\n        /* \"#utility.yul\":5975:6008   */\n      tag_466\n      jump\t// in\n    tag_513:\n        /* \"#utility.yul\":6072:6074   */\n      0x20\n        /* \"#utility.yul\":6057:6075   */\n      dup6\n      add\n        /* \"#utility.yul\":6051:6076   */\n      mload\n        /* \"#utility.yul\":6116:6118   */\n      0x40\n        /* \"#utility.yul\":6101:6119   */\n      swap1\n      swap6\n      add\n        /* \"#utility.yul\":6095:6120   */\n      mload\n        /* \"#utility.yul\":6027:6032   */\n      swap1\n      swap7\n        /* \"#utility.yul\":6051:6076   */\n      swap5\n      swap6\n      pop\n        /* \"#utility.yul\":6095:6120   */\n      swap4\n        /* \"#utility.yul\":5856:6126   */\n      swap3\n      pop\n      pop\n      pop\n      jump\t// out\n        /* \"#utility.yul\":6326:6520   */\n    tag_252:\n      0x00\n        /* \"#utility.yul\":6449:6451   */\n      0x20\n        /* \"#utility.yul\":6437:6446   */\n      dup3\n        /* \"#utility.yul\":6428:6435   */\n      dup5\n        /* \"#utility.yul\":6424:6447   */\n      sub\n        /* \"#utility.yul\":6420:6452   */\n      slt\n        /* \"#utility.yul\":6417:6419   */\n      iszero\n      tag_517\n      jumpi\n        /* \"#utility.yul\":6470:6476   */\n      dup1\n        /* \"#utility.yul\":6462:6468   */\n      dup2\n        /* \"#utility.yul\":6455:6477   */\n      revert\n        /* \"#utility.yul\":6417:6419   */\n    tag_517:\n      pop\n        /* \"#utility.yul\":6498:6514   */\n      mload\n      swap2\n        /* \"#utility.yul\":6407:6520   */\n      swap1\n      pop\n      jump\t// out\n        /* \"#utility.yul\":6857:7218   */\n    tag_75:\n      0x00\n      dup1\n        /* \"#utility.yul\":6983:6985   */\n      0x40\n        /* \"#utility.yul\":6971:6980   */\n      dup4\n        /* \"#utility.yul\":6962:6969   */\n      dup6\n        /* \"#utility.yul\":6958:6981   */\n      sub\n        /* \"#utility.yul\":6954:6986   */\n      slt\n        /* \"#utility.yul\":6951:6953   */\n      iszero\n      tag_522\n      jumpi\n        /* \"#utility.yul\":7004:7010   */\n      dup2\n        /* \"#utility.yul\":6996:7002   */\n      dup3\n        /* \"#utility.yul\":6989:7011   */\n      revert\n        /* \"#utility.yul\":6951:6953   */\n    tag_522:\n        /* \"#utility.yul\":7045:7054   */\n      dup3\n        /* \"#utility.yul\":7032:7055   */\n      calldataload\n        /* \"#utility.yul\":7022:7055   */\n      swap2\n      pop\n        /* \"#utility.yul\":7105:7107   */\n      0x20\n        /* \"#utility.yul\":7094:7103   */\n      dup4\n        /* \"#utility.yul\":7090:7108   */\n      add\n        /* \"#utility.yul\":7077:7109   */\n      calldataload\n        /* \"#utility.yul\":7152:7157   */\n      dup1\n        /* \"#utility.yul\":7145:7158   */\n      iszero\n        /* \"#utility.yul\":7138:7159   */\n      iszero\n        /* \"#utility.yul\":7131:7136   */\n      dup2\n        /* \"#utility.yul\":7128:7160   */\n      eq\n        /* \"#utility.yul\":7118:7120   */\n      tag_474\n      jumpi\n        /* \"#utility.yul\":7179:7185   */\n      dup2\n        /* \"#utility.yul\":7171:7177   */\n      dup3\n        /* \"#utility.yul\":7164:7186   */\n      revert\n        /* \"#utility.yul\":7223:7687   */\n    tag_101:\n      0x00\n      dup1\n      0x00\n      dup1\n        /* \"#utility.yul\":7386:7389   */\n      0x80\n        /* \"#utility.yul\":7374:7383   */\n      dup6\n        /* \"#utility.yul\":7365:7372   */\n      dup8\n        /* \"#utility.yul\":7361:7384   */\n      sub\n        /* \"#utility.yul\":7357:7390   */\n      slt\n        /* \"#utility.yul\":7354:7356   */\n      iszero\n      tag_525\n      jumpi\n        /* \"#utility.yul\":7408:7414   */\n      dup2\n        /* \"#utility.yul\":7400:7406   */\n      dup3\n        /* \"#utility.yul\":7393:7415   */\n      revert\n        /* \"#utility.yul\":7354:7356   */\n    tag_525:\n        /* \"#utility.yul\":7449:7458   */\n      dup5\n        /* \"#utility.yul\":7436:7459   */\n      calldataload\n        /* \"#utility.yul\":7426:7459   */\n      swap4\n      pop\n        /* \"#utility.yul\":7509:7511   */\n      0x20\n        /* \"#utility.yul\":7498:7507   */\n      dup6\n        /* \"#utility.yul\":7494:7512   */\n      add\n        /* \"#utility.yul\":7481:7513   */\n      calldataload\n        /* \"#utility.yul\":7522:7555   */\n      tag_503\n        /* \"#utility.yul\":7549:7554   */\n      dup2\n        /* \"#utility.yul\":7522:7555   */\n      tag_466\n      jump\t// in\n        /* \"#utility.yul\":7692:8139   */\n    tag_356:\n      0x00\n      dup1\n      0x00\n      dup1\n        /* \"#utility.yul\":7866:7869   */\n      0x80\n        /* \"#utility.yul\":7854:7863   */\n      dup6\n        /* \"#utility.yul\":7845:7852   */\n      dup8\n        /* \"#utility.yul\":7841:7864   */\n      sub\n        /* \"#utility.yul\":7837:7870   */\n      slt\n        /* \"#utility.yul\":7834:7836   */\n      iszero\n      tag_528\n      jumpi\n        /* \"#utility.yul\":7888:7894   */\n      dup2\n        /* \"#utility.yul\":7880:7886   */\n      dup3\n        /* \"#utility.yul\":7873:7895   */\n      revert\n        /* \"#utility.yul\":7834:7836   */\n    tag_528:\n        /* \"#utility.yul\":7922:7931   */\n      dup5\n        /* \"#utility.yul\":7916:7932   */\n      mload\n        /* \"#utility.yul\":7906:7932   */\n      swap4\n      pop\n        /* \"#utility.yul\":7975:7977   */\n      0x20\n        /* \"#utility.yul\":7964:7973   */\n      dup6\n        /* \"#utility.yul\":7960:7978   */\n      add\n        /* \"#utility.yul\":7954:7979   */\n      mload\n        /* \"#utility.yul\":7988:8021   */\n      tag_529\n        /* \"#utility.yul\":8015:8020   */\n      dup2\n        /* \"#utility.yul\":7988:8021   */\n      tag_466\n      jump\t// in\n    tag_529:\n        /* \"#utility.yul\":8085:8087   */\n      0x40\n        /* \"#utility.yul\":8070:8088   */\n      dup7\n      add\n        /* \"#utility.yul\":8064:8089   */\n      mload\n        /* \"#utility.yul\":8129:8131   */\n      0x60\n        /* \"#utility.yul\":8114:8132   */\n      swap1\n      swap7\n      add\n        /* \"#utility.yul\":8108:8133   */\n      mload\n        /* \"#utility.yul\":7824:8139   */\n      swap5\n      swap8\n        /* \"#utility.yul\":8040:8045   */\n      swap1\n      swap7\n      pop\n        /* \"#utility.yul\":7824:8139   */\n      swap3\n      pop\n      pop\n      pop\n      jump\t// out\n        /* \"#utility.yul\":8144:8399   */\n    tag_226:\n      0x00\n      dup1\n        /* \"#utility.yul\":8284:8286   */\n      0x40\n        /* \"#utility.yul\":8272:8281   */\n      dup4\n        /* \"#utility.yul\":8263:8270   */\n      dup6\n        /* \"#utility.yul\":8259:8282   */\n      sub\n        /* \"#utility.yul\":8255:8287   */\n      slt\n        /* \"#utility.yul\":8252:8254   */\n      iszero\n      tag_531\n      jumpi\n        /* \"#utility.yul\":8305:8311   */\n      dup2\n        /* \"#utility.yul\":8297:8303   */\n      dup3\n        /* \"#utility.yul\":8290:8312   */\n      revert\n        /* \"#utility.yul\":8252:8254   */\n    tag_531:\n      pop\n      pop\n        /* \"#utility.yul\":8333:8349   */\n      dup1\n      mload\n        /* \"#utility.yul\":8389:8391   */\n      0x20\n        /* \"#utility.yul\":8374:8392   */\n      swap1\n      swap2\n      add\n        /* \"#utility.yul\":8368:8393   */\n      mload\n        /* \"#utility.yul\":8333:8349   */\n      swap1\n      swap3\n        /* \"#utility.yul\":8368:8393   */\n      swap1\n      swap2\n      pop\n        /* \"#utility.yul\":8242:8399   */\n      jump\t// out\n        /* \"#utility.yul\":8404:8730   */\n    tag_97:\n      0x00\n      dup1\n      0x00\n        /* \"#utility.yul\":8550:8552   */\n      0x60\n        /* \"#utility.yul\":8538:8547   */\n      dup5\n        /* \"#utility.yul\":8529:8536   */\n      dup7\n        /* \"#utility.yul\":8525:8548   */\n      sub\n        /* \"#utility.yul\":8521:8553   */\n      slt\n        /* \"#utility.yul\":8518:8520   */\n      iszero\n      tag_533\n      jumpi\n        /* \"#utility.yul\":8571:8577   */\n      dup1\n        /* \"#utility.yul\":8563:8569   */\n      dup2\n        /* \"#utility.yul\":8556:8578   */\n      revert\n        /* \"#utility.yul\":8518:8520   */\n    tag_533:\n      pop\n      pop\n        /* \"#utility.yul\":8599:8622   */\n      dup2\n      calldataload\n      swap4\n        /* \"#utility.yul\":8669:8671   */\n      0x20\n        /* \"#utility.yul\":8654:8672   */\n      dup4\n      add\n        /* \"#utility.yul\":8641:8673   */\n      calldataload\n      swap4\n      pop\n        /* \"#utility.yul\":8720:8722   */\n      0x40\n        /* \"#utility.yul\":8705:8723   */\n      swap1\n      swap3\n      add\n        /* \"#utility.yul\":8692:8724   */\n      calldataload\n      swap2\n        /* \"#utility.yul\":8508:8730   */\n      swap1\n      pop\n      jump\t// out\n        /* \"#utility.yul\":8735:9199   */\n    tag_141:\n      0x00\n      dup1\n      0x00\n      dup1\n      0x00\n        /* \"#utility.yul\":8915:8918   */\n      0xa0\n        /* \"#utility.yul\":8903:8912   */\n      dup7\n        /* \"#utility.yul\":8894:8901   */\n      dup9\n        /* \"#utility.yul\":8890:8913   */\n      sub\n        /* \"#utility.yul\":8886:8919   */\n      slt\n        /* \"#utility.yul\":8883:8885   */\n      iszero\n      tag_535\n      jumpi\n        /* \"#utility.yul\":8937:8943   */\n      dup3\n        /* \"#utility.yul\":8929:8935   */\n      dup4\n        /* \"#utility.yul\":8922:8944   */\n      revert\n        /* \"#utility.yul\":8883:8885   */\n    tag_535:\n      pop\n      pop\n        /* \"#utility.yul\":8965:8988   */\n      dup4\n      calldataload\n      swap6\n        /* \"#utility.yul\":9035:9037   */\n      0x20\n        /* \"#utility.yul\":9020:9038   */\n      dup6\n      add\n        /* \"#utility.yul\":9007:9039   */\n      calldataload\n      swap6\n      pop\n        /* \"#utility.yul\":9086:9088   */\n      0x40\n        /* \"#utility.yul\":9071:9089   */\n      dup6\n      add\n        /* \"#utility.yul\":9058:9090   */\n      calldataload\n      swap5\n        /* \"#utility.yul\":9137:9139   */\n      0x60\n        /* \"#utility.yul\":9122:9140   */\n      dup2\n      add\n        /* \"#utility.yul\":9109:9141   */\n      calldataload\n      swap5\n      pop\n        /* \"#utility.yul\":9188:9191   */\n      0x80\n        /* \"#utility.yul\":9173:9192   */\n      add\n        /* \"#utility.yul\":9160:9193   */\n      calldataload\n      swap3\n      pop\n        /* \"#utility.yul\":8873:9199   */\n      swap1\n      pop\n      jump\t// out\n        /* \"#utility.yul\":9204:10428   */\n    tag_384:\n      0x00\n      dup1\n      0x00\n      dup1\n      0x00\n      dup1\n      0x00\n      dup1\n      0x00\n      dup1\n      0x00\n      dup1\n        /* \"#utility.yul\":9510:9513   */\n      0x0180\n        /* \"#utility.yul\":9498:9507   */\n      dup14\n        /* \"#utility.yul\":9489:9496   */\n      dup16\n        /* \"#utility.yul\":9485:9508   */\n      sub\n        /* \"#utility.yul\":9481:9514   */\n      slt\n        /* \"#utility.yul\":9478:9480   */\n      iszero\n      tag_537\n      jumpi\n        /* \"#utility.yul\":9532:9538   */\n      dup6\n        /* \"#utility.yul\":9524:9530   */\n      dup7\n        /* \"#utility.yul\":9517:9539   */\n      revert\n        /* \"#utility.yul\":9478:9480   */\n    tag_537:\n        /* \"#utility.yul\":9569:9578   */\n      dup13\n        /* \"#utility.yul\":9563:9579   */\n      mload\n        /* \"#utility.yul\":9619:9645   */\n      0xffffffffffffffffffffffff\n        /* \"#utility.yul\":9612:9617   */\n      dup2\n        /* \"#utility.yul\":9608:9646   */\n      and\n        /* \"#utility.yul\":9601:9606   */\n      dup2\n        /* \"#utility.yul\":9598:9647   */\n      eq\n        /* \"#utility.yul\":9588:9590   */\n      tag_538\n      jumpi\n        /* \"#utility.yul\":9666:9672   */\n      dup7\n        /* \"#utility.yul\":9658:9664   */\n      dup8\n        /* \"#utility.yul\":9651:9673   */\n      revert\n        /* \"#utility.yul\":9588:9590   */\n    tag_538:\n        /* \"#utility.yul\":9694:9699   */\n      swap12\n      pop\n        /* \"#utility.yul\":9718:9769   */\n      tag_539\n        /* \"#utility.yul\":9765:9767   */\n      0x20\n        /* \"#utility.yul\":9750:9768   */\n      dup15\n      add\n        /* \"#utility.yul\":9718:9769   */\n      tag_455\n      jump\t// in\n    tag_539:\n        /* \"#utility.yul\":9708:9769   */\n      swap11\n      pop\n        /* \"#utility.yul\":9788:9839   */\n      tag_540\n        /* \"#utility.yul\":9835:9837   */\n      0x40\n        /* \"#utility.yul\":9824:9833   */\n      dup15\n        /* \"#utility.yul\":9820:9838   */\n      add\n        /* \"#utility.yul\":9788:9839   */\n      tag_455\n      jump\t// in\n    tag_540:\n        /* \"#utility.yul\":9778:9839   */\n      swap10\n      pop\n        /* \"#utility.yul\":9858:9909   */\n      tag_541\n        /* \"#utility.yul\":9905:9907   */\n      0x60\n        /* \"#utility.yul\":9894:9903   */\n      dup15\n        /* \"#utility.yul\":9890:9908   */\n      add\n        /* \"#utility.yul\":9858:9909   */\n      tag_455\n      jump\t// in\n    tag_541:\n        /* \"#utility.yul\":9848:9909   */\n      swap9\n      pop\n        /* \"#utility.yul\":9928:9979   */\n      tag_542\n        /* \"#utility.yul\":9974:9977   */\n      0x80\n        /* \"#utility.yul\":9963:9972   */\n      dup15\n        /* \"#utility.yul\":9959:9978   */\n      add\n        /* \"#utility.yul\":9928:9979   */\n      tag_467\n      jump\t// in\n    tag_542:\n        /* \"#utility.yul\":9918:9979   */\n      swap8\n      pop\n        /* \"#utility.yul\":9998:10048   */\n      tag_543\n        /* \"#utility.yul\":10043:10046   */\n      0xa0\n        /* \"#utility.yul\":10032:10041   */\n      dup15\n        /* \"#utility.yul\":10028:10047   */\n      add\n        /* \"#utility.yul\":9998:10048   */\n      tag_459\n      jump\t// in\n    tag_543:\n        /* \"#utility.yul\":9988:10048   */\n      swap7\n      pop\n        /* \"#utility.yul\":10067:10117   */\n      tag_544\n        /* \"#utility.yul\":10112:10115   */\n      0xc0\n        /* \"#utility.yul\":10101:10110   */\n      dup15\n        /* \"#utility.yul\":10097:10116   */\n      add\n        /* \"#utility.yul\":10067:10117   */\n      tag_459\n      jump\t// in\n    tag_544:\n        /* \"#utility.yul\":10057:10117   */\n      swap6\n      pop\n        /* \"#utility.yul\":10136:10188   */\n      tag_545\n        /* \"#utility.yul\":10183:10186   */\n      0xe0\n        /* \"#utility.yul\":10172:10181   */\n      dup15\n        /* \"#utility.yul\":10168:10187   */\n      add\n        /* \"#utility.yul\":10136:10188   */\n      tag_463\n      jump\t// in\n    tag_545:\n        /* \"#utility.yul\":10126:10188   */\n      swap5\n      pop\n        /* \"#utility.yul\":10228:10231   */\n      0x0100\n        /* \"#utility.yul\":10217:10226   */\n      dup14\n        /* \"#utility.yul\":10213:10232   */\n      add\n        /* \"#utility.yul\":10207:10233   */\n      mload\n        /* \"#utility.yul\":10197:10233   */\n      swap4\n      pop\n        /* \"#utility.yul\":10273:10276   */\n      0x0120\n        /* \"#utility.yul\":10262:10271   */\n      dup14\n        /* \"#utility.yul\":10258:10277   */\n      add\n        /* \"#utility.yul\":10252:10278   */\n      mload\n        /* \"#utility.yul\":10242:10278   */\n      swap3\n      pop\n        /* \"#utility.yul\":10298:10350   */\n      tag_546\n        /* \"#utility.yul\":10345:10348   */\n      0x0140\n        /* \"#utility.yul\":10334:10343   */\n      dup15\n        /* \"#utility.yul\":10330:10349   */\n      add\n        /* \"#utility.yul\":10298:10350   */\n      tag_463\n      jump\t// in\n    tag_546:\n        /* \"#utility.yul\":10287:10350   */\n      swap2\n      pop\n        /* \"#utility.yul\":10370:10422   */\n      tag_547\n        /* \"#utility.yul\":10417:10420   */\n      0x0160\n        /* \"#utility.yul\":10406:10415   */\n      dup15\n        /* \"#utility.yul\":10402:10421   */\n      add\n        /* \"#utility.yul\":10370:10422   */\n      tag_463\n      jump\t// in\n    tag_547:\n        /* \"#utility.yul\":10359:10422   */\n      swap1\n      pop\n        /* \"#utility.yul\":9468:10428   */\n      swap3\n      swap6\n      swap9\n      swap12\n      pop\n      swap3\n      swap6\n      swap9\n      swap12\n      pop\n      swap3\n      swap6\n      swap9\n      swap12\n      jump\t// out\n        /* \"#utility.yul\":10433:10539   */\n    tag_548:\n      sub(shl(0xa0, 0x01), 0x01)\n        /* \"#utility.yul\":10501:10532   */\n      and\n        /* \"#utility.yul\":10489:10533   */\n      swap1\n      mstore\n        /* \"#utility.yul\":10479:10539   */\n      jump\t// out\n        /* \"#utility.yul\":10544:10637   */\n    tag_550:\n        /* \"#utility.yul\":10621:10622   */\n      0x02\n        /* \"#utility.yul\":10610:10630   */\n      signextend\n        /* \"#utility.yul\":10598:10631   */\n      swap1\n      mstore\n        /* \"#utility.yul\":10588:10637   */\n      jump\t// out\n        /* \"#utility.yul\":10642:11233   */\n    tag_552:\n        /* \"#utility.yul\":10775:10787   */\n      dup1\n      mload\n      sub(shl(0xa0, 0x01), 0x01)\n        /* \"#utility.yul\":10771:10792   */\n      swap1\n      dup2\n      and\n        /* \"#utility.yul\":10759:10793   */\n      dup4\n      mstore\n        /* \"#utility.yul\":10846:10850   */\n      0x20\n        /* \"#utility.yul\":10835:10851   */\n      dup1\n      dup4\n      add\n        /* \"#utility.yul\":10829:10852   */\n      mload\n        /* \"#utility.yul\":10825:10857   */\n      dup3\n      and\n        /* \"#utility.yul\":10809:10823   */\n      swap1\n      dup5\n      add\n        /* \"#utility.yul\":10802:10858   */\n      mstore\n        /* \"#utility.yul\":10911:10915   */\n      0x40\n        /* \"#utility.yul\":10900:10916   */\n      dup1\n      dup4\n      add\n        /* \"#utility.yul\":10894:10917   */\n      mload\n        /* \"#utility.yul\":10919:10927   */\n      0xffffff\n        /* \"#utility.yul\":10890:10928   */\n      and\n        /* \"#utility.yul\":10874:10888   */\n      swap1\n      dup5\n      add\n        /* \"#utility.yul\":10867:10929   */\n      mstore\n        /* \"#utility.yul\":10982:10986   */\n      0x60\n        /* \"#utility.yul\":10971:10987   */\n      dup1\n      dup4\n      add\n        /* \"#utility.yul\":10965:10988   */\n      mload\n        /* \"#utility.yul\":10961:10993   */\n      dup3\n      and\n        /* \"#utility.yul\":10945:10959   */\n      swap1\n      dup5\n      add\n        /* \"#utility.yul\":10938:10994   */\n      mstore\n        /* \"#utility.yul\":11043:11047   */\n      0x80\n        /* \"#utility.yul\":11032:11048   */\n      dup1\n      dup4\n      add\n        /* \"#utility.yul\":11026:11049   */\n      mload\n        /* \"#utility.yul\":11010:11024   */\n      swap1\n      dup5\n      add\n        /* \"#utility.yul\":11003:11050   */\n      mstore\n        /* \"#utility.yul\":10739:10742   */\n      0xa0\n        /* \"#utility.yul\":11088:11104   */\n      dup3\n      dup2\n      add\n        /* \"#utility.yul\":11082:11105   */\n      mload\n        /* \"#utility.yul\":11066:11080   */\n      swap1\n      dup5\n      add\n        /* \"#utility.yul\":11059:11106   */\n      mstore\n        /* \"#utility.yul\":11155:11159   */\n      0xc0\n        /* \"#utility.yul\":11144:11160   */\n      dup1\n      dup4\n      add\n        /* \"#utility.yul\":11138:11161   */\n      mload\n        /* \"#utility.yul\":11122:11136   */\n      swap1\n      dup5\n      add\n        /* \"#utility.yul\":11115:11162   */\n      mstore\n        /* \"#utility.yul\":11215:11219   */\n      0xe0\n        /* \"#utility.yul\":11204:11220   */\n      swap2\n      dup3\n      add\n        /* \"#utility.yul\":11198:11221   */\n      mload\n        /* \"#utility.yul\":11194:11226   */\n      and\n        /* \"#utility.yul\":11178:11192   */\n      swap2\n      add\n        /* \"#utility.yul\":11171:11227   */\n      mstore\n        /* \"#utility.yul\":10711:11233   */\n      jump\t// out\n        /* \"#utility.yul\":11238:11332   */\n    tag_554:\n        /* \"#utility.yul\":11316:11324   */\n      0xffffff\n        /* \"#utility.yul\":11305:11325   */\n      and\n        /* \"#utility.yul\":11293:11326   */\n      swap1\n      mstore\n        /* \"#utility.yul\":11283:11332   */\n      jump\t// out\n        /* \"#utility.yul\":11337:11540   */\n    tag_109:\n      sub(shl(0xa0, 0x01), 0x01)\n        /* \"#utility.yul\":11501:11533   */\n      swap2\n      swap1\n      swap2\n      and\n        /* \"#utility.yul\":11483:11534   */\n      dup2\n      mstore\n        /* \"#utility.yul\":11471:11473   */\n      0x20\n        /* \"#utility.yul\":11456:11474   */\n      add\n      swap1\n        /* \"#utility.yul\":11438:11540   */\n      jump\t// out\n        /* \"#utility.yul\":11545:12099   */\n    tag_126:\n      sub(shl(0xa0, 0x01), 0x01)\n        /* \"#utility.yul\":11850:11865   */\n      swap6\n      dup7\n      and\n        /* \"#utility.yul\":11832:11866   */\n      dup2\n      mstore\n        /* \"#utility.yul\":11902:11917   */\n      swap4\n      swap1\n      swap5\n      and\n        /* \"#utility.yul\":11897:11899   */\n      0x20\n        /* \"#utility.yul\":11882:11900   */\n      dup5\n      add\n        /* \"#utility.yul\":11875:11918   */\n      mstore\n        /* \"#utility.yul\":11966:11974   */\n      0xffffff\n        /* \"#utility.yul\":11954:11975   */\n      swap2\n      swap1\n      swap2\n      and\n        /* \"#utility.yul\":11949:11951   */\n      0x40\n        /* \"#utility.yul\":11934:11952   */\n      dup4\n      add\n        /* \"#utility.yul\":11927:11976   */\n      mstore\n        /* \"#utility.yul\":12023:12024   */\n      0x02\n        /* \"#utility.yul\":12012:12033   */\n      swap1\n      dup2\n      signextend\n        /* \"#utility.yul\":12007:12009   */\n      0x60\n        /* \"#utility.yul\":11992:12010   */\n      dup4\n      add\n        /* \"#utility.yul\":11985:12034   */\n      mstore\n        /* \"#utility.yul\":12071:12092   */\n      swap2\n      swap1\n      swap2\n      signextend\n        /* \"#utility.yul\":12065:12068   */\n      0x80\n        /* \"#utility.yul\":12050:12069   */\n      dup3\n      add\n        /* \"#utility.yul\":12043:12093   */\n      mstore\n        /* \"#utility.yul\":11781:11784   */\n      0xa0\n        /* \"#utility.yul\":11766:11785   */\n      add\n      swap1\n        /* \"#utility.yul\":11748:12099   */\n      jump\t// out\n        /* \"#utility.yul\":12104:12479   */\n    tag_235:\n      sub(shl(0xa0, 0x01), 0x01)\n        /* \"#utility.yul\":12362:12377   */\n      swap4\n      dup5\n      and\n        /* \"#utility.yul\":12344:12378   */\n      dup2\n      mstore\n        /* \"#utility.yul\":12414:12429   */\n      swap2\n      swap1\n      swap3\n      and\n        /* \"#utility.yul\":12409:12411   */\n      0x20\n        /* \"#utility.yul\":12394:12412   */\n      dup3\n      add\n        /* \"#utility.yul\":12387:12430   */\n      mstore\n        /* \"#utility.yul\":12461:12463   */\n      0x40\n        /* \"#utility.yul\":12446:12464   */\n      dup2\n      add\n        /* \"#utility.yul\":12439:12473   */\n      swap2\n      swap1\n      swap2\n      mstore\n        /* \"#utility.yul\":12294:12296   */\n      0x60\n        /* \"#utility.yul\":12279:12297   */\n      add\n      swap1\n        /* \"#utility.yul\":12261:12479   */\n      jump\t// out\n        /* \"#utility.yul\":12484:12931   */\n    tag_254:\n      sub(shl(0xa0, 0x01), 0x01)\n        /* \"#utility.yul\":12771:12786   */\n      swap5\n      dup6\n      and\n        /* \"#utility.yul\":12753:12787   */\n      dup2\n      mstore\n        /* \"#utility.yul\":12823:12838   */\n      swap3\n      swap1\n      swap4\n      and\n        /* \"#utility.yul\":12818:12820   */\n      0x20\n        /* \"#utility.yul\":12803:12821   */\n      dup4\n      add\n        /* \"#utility.yul\":12796:12839   */\n      mstore\n        /* \"#utility.yul\":12870:12872   */\n      0x40\n        /* \"#utility.yul\":12855:12873   */\n      dup3\n      add\n        /* \"#utility.yul\":12848:12882   */\n      mstore\n        /* \"#utility.yul\":12913:12915   */\n      0x60\n        /* \"#utility.yul\":12898:12916   */\n      dup2\n      add\n        /* \"#utility.yul\":12891:12925   */\n      swap2\n      swap1\n      swap2\n      mstore\n        /* \"#utility.yul\":12702:12705   */\n      0x80\n        /* \"#utility.yul\":12687:12706   */\n      add\n      swap1\n        /* \"#utility.yul\":12669:12931   */\n      jump\t// out\n        /* \"#utility.yul\":12936:13123   */\n    tag_114:\n        /* \"#utility.yul\":13101:13115   */\n      swap1\n      iszero\n        /* \"#utility.yul\":13094:13116   */\n      iszero\n        /* \"#utility.yul\":13076:13117   */\n      dup2\n      mstore\n        /* \"#utility.yul\":13064:13066   */\n      0x20\n        /* \"#utility.yul\":13049:13067   */\n      add\n      swap1\n        /* \"#utility.yul\":13031:13123   */\n      jump\t// out\n        /* \"#utility.yul\":13128:13305   */\n    tag_42:\n        /* \"#utility.yul\":13274:13299   */\n      swap1\n      dup2\n      mstore\n        /* \"#utility.yul\":13262:13264   */\n      0x20\n        /* \"#utility.yul\":13247:13265   */\n      add\n      swap1\n        /* \"#utility.yul\":13229:13305   */\n      jump\t// out\n        /* \"#utility.yul\":13310:13512   */\n    tag_52:\n      not(sub(shl(0xe0, 0x01), 0x01))\n        /* \"#utility.yul\":13472:13505   */\n      swap2\n      swap1\n      swap2\n      and\n        /* \"#utility.yul\":13454:13506   */\n      dup2\n      mstore\n        /* \"#utility.yul\":13442:13444   */\n      0x20\n        /* \"#utility.yul\":13427:13445   */\n      add\n      swap1\n        /* \"#utility.yul\":13409:13512   */\n      jump\t// out\n        /* \"#utility.yul\":13989:14321   */\n    tag_387:\n        /* \"#utility.yul\":14191:14193   */\n      0x20\n        /* \"#utility.yul\":14173:14194   */\n      dup1\n      dup3\n      mstore\n        /* \"#utility.yul\":14230:14231   */\n      0x09\n        /* \"#utility.yul\":14210:14228   */\n      swap1\n      dup3\n      add\n        /* \"#utility.yul\":14203:14232   */\n      mstore\n      shl(0xba, 0x139bdd0813dddb9959)\n        /* \"#utility.yul\":14263:14265   */\n      0x40\n        /* \"#utility.yul\":14248:14266   */\n      dup3\n      add\n        /* \"#utility.yul\":14241:14280   */\n      mstore\n        /* \"#utility.yul\":14312:14314   */\n      0x60\n        /* \"#utility.yul\":14297:14315   */\n      add\n      swap1\n        /* \"#utility.yul\":14163:14321   */\n      jump\t// out\n        /* \"#utility.yul\":14326:14669   */\n    tag_212:\n        /* \"#utility.yul\":14528:14530   */\n      0x20\n        /* \"#utility.yul\":14510:14531   */\n      dup1\n      dup3\n      mstore\n        /* \"#utility.yul\":14567:14569   */\n      0x13\n        /* \"#utility.yul\":14547:14565   */\n      swap1\n      dup3\n      add\n        /* \"#utility.yul\":14540:14570   */\n      mstore\n      shl(0x69, 0x2737ba1020b236b4b727b922bc32b1baba37b9)\n        /* \"#utility.yul\":14601:14603   */\n      0x40\n        /* \"#utility.yul\":14586:14604   */\n      dup3\n      add\n        /* \"#utility.yul\":14579:14628   */\n      mstore\n        /* \"#utility.yul\":14660:14662   */\n      0x60\n        /* \"#utility.yul\":14645:14663   */\n      add\n      swap1\n        /* \"#utility.yul\":14500:14669   */\n      jump\t// out\n        /* \"#utility.yul\":14674:15006   */\n    tag_169:\n        /* \"#utility.yul\":14876:14878   */\n      0x20\n        /* \"#utility.yul\":14858:14879   */\n      dup1\n      dup3\n      mstore\n        /* \"#utility.yul\":14915:14916   */\n      0x09\n        /* \"#utility.yul\":14895:14913   */\n      swap1\n      dup3\n      add\n        /* \"#utility.yul\":14888:14917   */\n      mstore\n      shl(0xb9, 0x2737ba1020b236b4b7)\n        /* \"#utility.yul\":14948:14950   */\n      0x40\n        /* \"#utility.yul\":14933:14951   */\n      dup3\n      add\n        /* \"#utility.yul\":14926:14965   */\n      mstore\n        /* \"#utility.yul\":14997:14999   */\n      0x60\n        /* \"#utility.yul\":14982:15000   */\n      add\n      swap1\n        /* \"#utility.yul\":14848:15006   */\n      jump\t// out\n        /* \"#utility.yul\":15011:15585   */\n    tag_221:\n        /* \"#utility.yul\":15238:15251   */\n      dup2\n      mload\n        /* \"#utility.yul\":15220:15252   */\n      dup2\n      mstore\n        /* \"#utility.yul\":15312:15316   */\n      0x20\n        /* \"#utility.yul\":15300:15317   */\n      dup1\n      dup4\n      add\n        /* \"#utility.yul\":15294:15318   */\n      mload\n      sub(shl(0xa0, 0x01), 0x01)\n        /* \"#utility.yul\":15290:15340   */\n      and\n        /* \"#utility.yul\":15268:15288   */\n      swap1\n      dup3\n      add\n        /* \"#utility.yul\":15261:15341   */\n      mstore\n        /* \"#utility.yul\":15388:15392   */\n      0x40\n        /* \"#utility.yul\":15376:15393   */\n      dup1\n      dup4\n      add\n        /* \"#utility.yul\":15370:15394   */\n      mload\n      sub(shl(0x80, 0x01), 0x01)\n        /* \"#utility.yul\":15485:15506   */\n      swap1\n      dup2\n      and\n        /* \"#utility.yul\":15463:15483   */\n      swap2\n      dup4\n      add\n        /* \"#utility.yul\":15456:15507   */\n      swap2\n      swap1\n      swap2\n      mstore\n        /* \"#utility.yul\":15567:15571   */\n      0x60\n        /* \"#utility.yul\":15555:15572   */\n      swap3\n      dup4\n      add\n        /* \"#utility.yul\":15549:15573   */\n      mload\n        /* \"#utility.yul\":15545:15578   */\n      and\n        /* \"#utility.yul\":15523:15543   */\n      swap2\n      dup2\n      add\n        /* \"#utility.yul\":15516:15579   */\n      swap2\n      swap1\n      swap2\n      mstore\n        /* \"#utility.yul\":15207:15210   */\n      0x80\n        /* \"#utility.yul\":15192:15211   */\n      add\n      swap1\n        /* \"#utility.yul\":15174:15585   */\n      jump\t// out\n        /* \"#utility.yul\":15590:16150   */\n    tag_276:\n      0x00\n        /* \"#utility.yul\":15806:15809   */\n      0xa0\n        /* \"#utility.yul\":15795:15804   */\n      dup3\n        /* \"#utility.yul\":15791:15810   */\n      add\n        /* \"#utility.yul\":15783:15810   */\n      swap1\n      pop\n        /* \"#utility.yul\":15843:15849   */\n      dup3\n        /* \"#utility.yul\":15837:15850   */\n      mload\n        /* \"#utility.yul\":15826:15835   */\n      dup3\n        /* \"#utility.yul\":15819:15851   */\n      mstore\n      sub(shl(0x80, 0x01), 0x01)\n        /* \"#utility.yul\":15911:15915   */\n      0x20\n        /* \"#utility.yul\":15903:15909   */\n      dup5\n        /* \"#utility.yul\":15899:15916   */\n      add\n        /* \"#utility.yul\":15893:15917   */\n      mload\n        /* \"#utility.yul\":15889:15954   */\n      and\n        /* \"#utility.yul\":15882:15886   */\n      0x20\n        /* \"#utility.yul\":15871:15880   */\n      dup4\n        /* \"#utility.yul\":15867:15887   */\n      add\n        /* \"#utility.yul\":15860:15955   */\n      mstore\n        /* \"#utility.yul\":16011:16015   */\n      0x40\n        /* \"#utility.yul\":16003:16009   */\n      dup4\n        /* \"#utility.yul\":15999:16016   */\n      add\n        /* \"#utility.yul\":15993:16017   */\n      mload\n        /* \"#utility.yul\":15986:15990   */\n      0x40\n        /* \"#utility.yul\":15975:15984   */\n      dup4\n        /* \"#utility.yul\":15971:15991   */\n      add\n        /* \"#utility.yul\":15964:16018   */\n      mstore\n        /* \"#utility.yul\":16074:16078   */\n      0x60\n        /* \"#utility.yul\":16066:16072   */\n      dup4\n        /* \"#utility.yul\":16062:16079   */\n      add\n        /* \"#utility.yul\":16056:16080   */\n      mload\n        /* \"#utility.yul\":16049:16053   */\n      0x60\n        /* \"#utility.yul\":16038:16047   */\n      dup4\n        /* \"#utility.yul\":16034:16054   */\n      add\n        /* \"#utility.yul\":16027:16081   */\n      mstore\n        /* \"#utility.yul\":16137:16141   */\n      0x80\n        /* \"#utility.yul\":16129:16135   */\n      dup4\n        /* \"#utility.yul\":16125:16142   */\n      add\n        /* \"#utility.yul\":16119:16143   */\n      mload\n        /* \"#utility.yul\":16112:16116   */\n      0x80\n        /* \"#utility.yul\":16101:16110   */\n      dup4\n        /* \"#utility.yul\":16097:16117   */\n      add\n        /* \"#utility.yul\":16090:16144   */\n      mstore\n        /* \"#utility.yul\":15773:16150   */\n      swap3\n      swap2\n      pop\n      pop\n      jump\t// out\n        /* \"#utility.yul\":16155:16450   */\n    tag_306:\n        /* \"#utility.yul\":16369:16372   */\n      0x0100\n        /* \"#utility.yul\":16354:16373   */\n      dup2\n      add\n        /* \"#utility.yul\":16382:16444   */\n      tag_283\n        /* \"#utility.yul\":16358:16367   */\n      dup3\n        /* \"#utility.yul\":16426:16432   */\n      dup5\n        /* \"#utility.yul\":16382:16444   */\n      tag_552\n      jump\t// in\n        /* \"#utility.yul\":16757:17339   */\n    tag_320:\n      0x00\n        /* \"#utility.yul\":16973:16976   */\n      0xc0\n        /* \"#utility.yul\":16962:16971   */\n      dup3\n        /* \"#utility.yul\":16958:16977   */\n      add\n        /* \"#utility.yul\":16950:16977   */\n      swap1\n      pop\n        /* \"#utility.yul\":17010:17016   */\n      dup3\n        /* \"#utility.yul\":17004:17017   */\n      mload\n        /* \"#utility.yul\":16993:17002   */\n      dup3\n        /* \"#utility.yul\":16986:17018   */\n      mstore\n        /* \"#utility.yul\":17074:17078   */\n      0x20\n        /* \"#utility.yul\":17066:17072   */\n      dup4\n        /* \"#utility.yul\":17062:17079   */\n      add\n        /* \"#utility.yul\":17056:17080   */\n      mload\n        /* \"#utility.yul\":17049:17053   */\n      0x20\n        /* \"#utility.yul\":17038:17047   */\n      dup4\n        /* \"#utility.yul\":17034:17054   */\n      add\n        /* \"#utility.yul\":17027:17081   */\n      mstore\n        /* \"#utility.yul\":17137:17141   */\n      0x40\n        /* \"#utility.yul\":17129:17135   */\n      dup4\n        /* \"#utility.yul\":17125:17142   */\n      add\n        /* \"#utility.yul\":17119:17143   */\n      mload\n        /* \"#utility.yul\":17112:17116   */\n      0x40\n        /* \"#utility.yul\":17101:17110   */\n      dup4\n        /* \"#utility.yul\":17097:17117   */\n      add\n        /* \"#utility.yul\":17090:17144   */\n      mstore\n        /* \"#utility.yul\":17200:17204   */\n      0x60\n        /* \"#utility.yul\":17192:17198   */\n      dup4\n        /* \"#utility.yul\":17188:17205   */\n      add\n        /* \"#utility.yul\":17182:17206   */\n      mload\n        /* \"#utility.yul\":17175:17179   */\n      0x60\n        /* \"#utility.yul\":17164:17173   */\n      dup4\n        /* \"#utility.yul\":17160:17180   */\n      add\n        /* \"#utility.yul\":17153:17207   */\n      mstore\n        /* \"#utility.yul\":17263:17267   */\n      0x80\n        /* \"#utility.yul\":17255:17261   */\n      dup4\n        /* \"#utility.yul\":17251:17268   */\n      add\n        /* \"#utility.yul\":17245:17269   */\n      mload\n        /* \"#utility.yul\":17238:17242   */\n      0x80\n        /* \"#utility.yul\":17227:17236   */\n      dup4\n        /* \"#utility.yul\":17223:17243   */\n      add\n        /* \"#utility.yul\":17216:17270   */\n      mstore\n        /* \"#utility.yul\":17326:17330   */\n      0xa0\n        /* \"#utility.yul\":17318:17324   */\n      dup4\n        /* \"#utility.yul\":17314:17331   */\n      add\n        /* \"#utility.yul\":17308:17332   */\n      mload\n        /* \"#utility.yul\":17301:17305   */\n      0xa0\n        /* \"#utility.yul\":17290:17299   */\n      dup4\n        /* \"#utility.yul\":17286:17306   */\n      add\n        /* \"#utility.yul\":17279:17333   */\n      mstore\n        /* \"#utility.yul\":16940:17339   */\n      swap3\n      swap2\n      pop\n      pop\n      jump\t// out\n        /* \"#utility.yul\":17344:18578   */\n    tag_351:\n      0x00\n        /* \"#utility.yul\":17534:17537   */\n      0x0160\n        /* \"#utility.yul\":17523:17532   */\n      dup3\n        /* \"#utility.yul\":17519:17538   */\n      add\n        /* \"#utility.yul\":17511:17538   */\n      swap1\n      pop\n        /* \"#utility.yul\":17547:17593   */\n      tag_576\n        /* \"#utility.yul\":17583:17592   */\n      dup3\n        /* \"#utility.yul\":17574:17580   */\n      dup5\n        /* \"#utility.yul\":17568:17581   */\n      mload\n        /* \"#utility.yul\":17547:17593   */\n      tag_548\n      jump\t// in\n    tag_576:\n        /* \"#utility.yul\":17640:17644   */\n      0x20\n        /* \"#utility.yul\":17632:17638   */\n      dup4\n        /* \"#utility.yul\":17628:17645   */\n      add\n        /* \"#utility.yul\":17622:17646   */\n      mload\n        /* \"#utility.yul\":17655:17711   */\n      tag_577\n        /* \"#utility.yul\":17705:17709   */\n      0x20\n        /* \"#utility.yul\":17694:17703   */\n      dup5\n        /* \"#utility.yul\":17690:17710   */\n      add\n        /* \"#utility.yul\":17676:17688   */\n      dup3\n        /* \"#utility.yul\":17655:17711   */\n      tag_548\n      jump\t// in\n    tag_577:\n      pop\n        /* \"#utility.yul\":17760:17764   */\n      0x40\n        /* \"#utility.yul\":17752:17758   */\n      dup4\n        /* \"#utility.yul\":17748:17765   */\n      add\n        /* \"#utility.yul\":17742:17766   */\n      mload\n        /* \"#utility.yul\":17775:17832   */\n      tag_578\n        /* \"#utility.yul\":17826:17830   */\n      0x40\n        /* \"#utility.yul\":17815:17824   */\n      dup5\n        /* \"#utility.yul\":17811:17831   */\n      add\n        /* \"#utility.yul\":17795:17809   */\n      dup3\n        /* \"#utility.yul\":17775:17832   */\n      tag_554\n      jump\t// in\n    tag_578:\n      pop\n        /* \"#utility.yul\":17881:17885   */\n      0x60\n        /* \"#utility.yul\":17873:17879   */\n      dup4\n        /* \"#utility.yul\":17869:17886   */\n      add\n        /* \"#utility.yul\":17863:17887   */\n      mload\n        /* \"#utility.yul\":17896:17952   */\n      tag_579\n        /* \"#utility.yul\":17946:17950   */\n      0x60\n        /* \"#utility.yul\":17935:17944   */\n      dup5\n        /* \"#utility.yul\":17931:17951   */\n      add\n        /* \"#utility.yul\":17915:17929   */\n      dup3\n        /* \"#utility.yul\":17896:17952   */\n      tag_550\n      jump\t// in\n    tag_579:\n      pop\n        /* \"#utility.yul\":18001:18005   */\n      0x80\n        /* \"#utility.yul\":17993:17999   */\n      dup4\n        /* \"#utility.yul\":17989:18006   */\n      add\n        /* \"#utility.yul\":17983:18007   */\n      mload\n        /* \"#utility.yul\":18016:18072   */\n      tag_580\n        /* \"#utility.yul\":18066:18070   */\n      0x80\n        /* \"#utility.yul\":18055:18064   */\n      dup5\n        /* \"#utility.yul\":18051:18071   */\n      add\n        /* \"#utility.yul\":18035:18049   */\n      dup3\n        /* \"#utility.yul\":18016:18072   */\n      tag_550\n      jump\t// in\n    tag_580:\n      pop\n        /* \"#utility.yul\":18128:18132   */\n      0xa0\n        /* \"#utility.yul\":18120:18126   */\n      dup4\n        /* \"#utility.yul\":18116:18133   */\n      add\n        /* \"#utility.yul\":18110:18134   */\n      mload\n        /* \"#utility.yul\":18103:18107   */\n      0xa0\n        /* \"#utility.yul\":18092:18101   */\n      dup4\n        /* \"#utility.yul\":18088:18108   */\n      add\n        /* \"#utility.yul\":18081:18135   */\n      mstore\n        /* \"#utility.yul\":18191:18195   */\n      0xc0\n        /* \"#utility.yul\":18183:18189   */\n      dup4\n        /* \"#utility.yul\":18179:18196   */\n      add\n        /* \"#utility.yul\":18173:18197   */\n      mload\n        /* \"#utility.yul\":18166:18170   */\n      0xc0\n        /* \"#utility.yul\":18155:18164   */\n      dup4\n        /* \"#utility.yul\":18151:18171   */\n      add\n        /* \"#utility.yul\":18144:18198   */\n      mstore\n        /* \"#utility.yul\":18254:18258   */\n      0xe0\n        /* \"#utility.yul\":18246:18252   */\n      dup4\n        /* \"#utility.yul\":18242:18259   */\n      add\n        /* \"#utility.yul\":18236:18260   */\n      mload\n        /* \"#utility.yul\":18229:18233   */\n      0xe0\n        /* \"#utility.yul\":18218:18227   */\n      dup4\n        /* \"#utility.yul\":18214:18234   */\n      add\n        /* \"#utility.yul\":18207:18261   */\n      mstore\n        /* \"#utility.yul\":18280:18286   */\n      0x0100\n        /* \"#utility.yul\":18340:18342   */\n      dup1\n        /* \"#utility.yul\":18332:18338   */\n      dup5\n        /* \"#utility.yul\":18328:18343   */\n      add\n        /* \"#utility.yul\":18322:18344   */\n      mload\n        /* \"#utility.yul\":18317:18319   */\n      dup2\n        /* \"#utility.yul\":18306:18315   */\n      dup5\n        /* \"#utility.yul\":18302:18320   */\n      add\n        /* \"#utility.yul\":18295:18345   */\n      mstore\n      pop\n        /* \"#utility.yul\":18364:18370   */\n      0x0120\n        /* \"#utility.yul\":18419:18421   */\n      dup1\n        /* \"#utility.yul\":18411:18417   */\n      dup5\n        /* \"#utility.yul\":18407:18422   */\n      add\n        /* \"#utility.yul\":18401:18423   */\n      mload\n        /* \"#utility.yul\":18432:18488   */\n      tag_581\n        /* \"#utility.yul\":18484:18486   */\n      dup3\n        /* \"#utility.yul\":18473:18482   */\n      dup6\n        /* \"#utility.yul\":18469:18487   */\n      add\n        /* \"#utility.yul\":18453:18467   */\n      dup3\n        /* \"#utility.yul\":18432:18488   */\n      tag_548\n      jump\t// in\n    tag_581:\n      pop\n      pop\n        /* \"#utility.yul\":18507:18513   */\n      0x0140\n        /* \"#utility.yul\":18555:18570   */\n      swap3\n      dup4\n      add\n        /* \"#utility.yul\":18549:18571   */\n      mload\n        /* \"#utility.yul\":18529:18547   */\n      swap2\n      swap1\n      swap3\n      add\n        /* \"#utility.yul\":18522:18572   */\n      mstore\n        /* \"#utility.yul\":17501:18578   */\n      swap1\n      jump\t// out\n        /* \"#utility.yul\":18583:18943   */\n    tag_144:\n      sub(shl(0x80, 0x01), 0x01)\n        /* \"#utility.yul\":18803:18850   */\n      swap4\n      swap1\n      swap4\n      and\n        /* \"#utility.yul\":18785:18851   */\n      dup4\n      mstore\n        /* \"#utility.yul\":18882:18884   */\n      0x20\n        /* \"#utility.yul\":18867:18885   */\n      dup4\n      add\n        /* \"#utility.yul\":18860:18894   */\n      swap2\n      swap1\n      swap2\n      mstore\n        /* \"#utility.yul\":18925:18927   */\n      0x40\n        /* \"#utility.yul\":18910:18928   */\n      dup3\n      add\n        /* \"#utility.yul\":18903:18937   */\n      mstore\n        /* \"#utility.yul\":18773:18775   */\n      0x60\n        /* \"#utility.yul\":18758:18776   */\n      add\n      swap1\n        /* \"#utility.yul\":18740:18943   */\n      jump\t// out\n        /* \"#utility.yul\":19130:19590   */\n    tag_389:\n        /* \"#utility.yul\":19359:19384   */\n      swap4\n      dup5\n      mstore\n      sub(shl(0xa0, 0x01), 0x01)\n        /* \"#utility.yul\":19458:19473   */\n      swap3\n      dup4\n      and\n        /* \"#utility.yul\":19453:19455   */\n      0x20\n        /* \"#utility.yul\":19438:19456   */\n      dup6\n      add\n        /* \"#utility.yul\":19431:19474   */\n      mstore\n        /* \"#utility.yul\":19510:19525   */\n      swap2\n      and\n        /* \"#utility.yul\":19505:19507   */\n      0x40\n        /* \"#utility.yul\":19490:19508   */\n      dup4\n      add\n        /* \"#utility.yul\":19483:19526   */\n      mstore\n        /* \"#utility.yul\":19574:19582   */\n      0xffffff\n        /* \"#utility.yul\":19562:19583   */\n      and\n        /* \"#utility.yul\":19557:19559   */\n      0x60\n        /* \"#utility.yul\":19542:19560   */\n      dup3\n      add\n        /* \"#utility.yul\":19535:19584   */\n      mstore\n        /* \"#utility.yul\":19346:19349   */\n      0x80\n        /* \"#utility.yul\":19331:19350   */\n      add\n      swap1\n        /* \"#utility.yul\":19313:19590   */\n      jump\t// out\n        /* \"#utility.yul\":19595:20027   */\n    tag_160:\n        /* \"#utility.yul\":19826:19851   */\n      swap4\n      dup5\n      mstore\n      sub(shl(0x80, 0x01), 0x01)\n        /* \"#utility.yul\":19887:19934   */\n      swap3\n      swap1\n      swap3\n      and\n        /* \"#utility.yul\":19882:19884   */\n      0x20\n        /* \"#utility.yul\":19867:19885   */\n      dup5\n      add\n        /* \"#utility.yul\":19860:19935   */\n      mstore\n        /* \"#utility.yul\":19966:19968   */\n      0x40\n        /* \"#utility.yul\":19951:19969   */\n      dup4\n      add\n        /* \"#utility.yul\":19944:19978   */\n      mstore\n        /* \"#utility.yul\":20009:20011   */\n      0x60\n        /* \"#utility.yul\":19994:20012   */\n      dup3\n      add\n        /* \"#utility.yul\":19987:20021   */\n      mstore\n        /* \"#utility.yul\":19813:19816   */\n      0x80\n        /* \"#utility.yul\":19798:19817   */\n      add\n      swap1\n        /* \"#utility.yul\":19780:20027   */\n      jump\t// out\n        /* \"#utility.yul\":20032:20280   */\n    tag_78:\n        /* \"#utility.yul\":20206:20231   */\n      swap2\n      dup3\n      mstore\n        /* \"#utility.yul\":20262:20264   */\n      0x20\n        /* \"#utility.yul\":20247:20265   */\n      dup3\n      add\n        /* \"#utility.yul\":20240:20274   */\n      mstore\n        /* \"#utility.yul\":20194:20196   */\n      0x40\n        /* \"#utility.yul\":20179:20197   */\n      add\n      swap1\n        /* \"#utility.yul\":20161:20280   */\n      jump\t// out\n        /* \"#utility.yul\":20285:20686   */\n    tag_228:\n        /* \"#utility.yul\":20510:20535   */\n      swap4\n      dup5\n      mstore\n        /* \"#utility.yul\":20566:20568   */\n      0x20\n        /* \"#utility.yul\":20551:20569   */\n      dup5\n      add\n        /* \"#utility.yul\":20544:20578   */\n      swap3\n      swap1\n      swap3\n      mstore\n        /* \"#utility.yul\":20609:20611   */\n      0x40\n        /* \"#utility.yul\":20594:20612   */\n      dup4\n      add\n        /* \"#utility.yul\":20587:20621   */\n      mstore\n        /* \"#utility.yul\":20664:20678   */\n      iszero\n        /* \"#utility.yul\":20657:20679   */\n      iszero\n        /* \"#utility.yul\":20652:20654   */\n      0x60\n        /* \"#utility.yul\":20637:20655   */\n      dup3\n      add\n        /* \"#utility.yul\":20630:20680   */\n      mstore\n        /* \"#utility.yul\":20497:20500   */\n      0x80\n        /* \"#utility.yul\":20482:20501   */\n      add\n      swap1\n        /* \"#utility.yul\":20464:20686   */\n      jump\t// out\n        /* \"#utility.yul\":20691:21123   */\n    tag_282:\n        /* \"#utility.yul\":20922:20947   */\n      swap4\n      dup5\n      mstore\n        /* \"#utility.yul\":20978:20980   */\n      0x20\n        /* \"#utility.yul\":20963:20981   */\n      dup5\n      add\n        /* \"#utility.yul\":20956:20990   */\n      swap3\n      swap1\n      swap3\n      mstore\n        /* \"#utility.yul\":21021:21023   */\n      0x40\n        /* \"#utility.yul\":21006:21024   */\n      dup4\n      add\n        /* \"#utility.yul\":20999:21033   */\n      mstore\n      sub(shl(0x80, 0x01), 0x01)\n        /* \"#utility.yul\":21069:21116   */\n      and\n        /* \"#utility.yul\":21064:21066   */\n      0x60\n        /* \"#utility.yul\":21049:21067   */\n      dup3\n      add\n        /* \"#utility.yul\":21042:21117   */\n      mstore\n        /* \"#utility.yul\":20909:20912   */\n      0x80\n        /* \"#utility.yul\":20894:20913   */\n      add\n      swap1\n        /* \"#utility.yul\":20876:21123   */\n      jump\t// out\n        /* \"#utility.yul\":21128:21261   */\n    tag_458:\n      sub(shl(0xa0, 0x01), 0x01)\n        /* \"#utility.yul\":21205:21236   */\n      dup2\n      and\n        /* \"#utility.yul\":21195:21237   */\n      dup2\n      eq\n        /* \"#utility.yul\":21185:21187   */\n      tag_590\n      jumpi\n        /* \"#utility.yul\":21251:21252   */\n      0x00\n        /* \"#utility.yul\":21248:21249   */\n      dup1\n        /* \"#utility.yul\":21241:21253   */\n      revert\n        /* \"#utility.yul\":21185:21187   */\n    tag_590:\n        /* \"#utility.yul\":21175:21261   */\n      pop\n      jump\t// out\n        /* \"#utility.yul\":21266:21386   */\n    tag_462:\n        /* \"#utility.yul\":21355:21360   */\n      dup1\n        /* \"#utility.yul\":21352:21353   */\n      0x02\n        /* \"#utility.yul\":21341:21361   */\n      signextend\n        /* \"#utility.yul\":21334:21339   */\n      dup2\n        /* \"#utility.yul\":21331:21362   */\n      eq\n        /* \"#utility.yul\":21321:21323   */\n      tag_590\n      jumpi\n        /* \"#utility.yul\":21376:21377   */\n      0x00\n        /* \"#utility.yul\":21373:21374   */\n      dup1\n        /* \"#utility.yul\":21366:21378   */\n      revert\n        /* \"#utility.yul\":21391:21539   */\n    tag_466:\n      sub(shl(0x80, 0x01), 0x01)\n        /* \"#utility.yul\":21472:21477   */\n      dup2\n        /* \"#utility.yul\":21468:21514   */\n      and\n        /* \"#utility.yul\":21461:21466   */\n      dup2\n        /* \"#utility.yul\":21458:21515   */\n      eq\n        /* \"#utility.yul\":21448:21450   */\n      tag_590\n      jumpi\n        /* \"#utility.yul\":21529:21530   */\n      0x00\n        /* \"#utility.yul\":21526:21527   */\n      dup1\n        /* \"#utility.yul\":21519:21531   */\n      revert\n        /* \"#utility.yul\":21544:21665   */\n    tag_470:\n        /* \"#utility.yul\":21631:21639   */\n      0xffffff\n        /* \"#utility.yul\":21624:21629   */\n      dup2\n        /* \"#utility.yul\":21620:21640   */\n      and\n        /* \"#utility.yul\":21613:21618   */\n      dup2\n        /* \"#utility.yul\":21610:21641   */\n      eq\n        /* \"#utility.yul\":21600:21602   */\n      tag_590\n      jumpi\n        /* \"#utility.yul\":21655:21656   */\n      0x00\n        /* \"#utility.yul\":21652:21653   */\n      dup1\n        /* \"#utility.yul\":21645:21657   */\n      revert\n    stop\n    data_045d6834e6193a687012a3ad777f612279e549b6945364d9d2324f48610d3cbb 456e756d657261626c655365743a20696e646578206f7574206f6620626f756e6473\n    data_0ba7116025f1ef6b158a2bd2238e617f30e17c9e456917d901086ca4f8ad2811 416363657373436f6e74726f6c3a2073656e646572206d75737420626520616e2061646d696e20746f206772616e74\n    data_64344570eab7406ca49d34d38bf2b2496dfda914405390c5057c8b0aabf798a3 416363657373436f6e74726f6c3a2073656e646572206d75737420626520616e2061646d696e20746f207265766f6b65\n    data_c690ee39c61cd2467ca78047546d7d01e837eb538ab70dac257590f3599b654a d8aa0f3194971a2a116679f7c2090f6939c8d4e01a2a8d7e41d55e5351469e63\n    data_cb864c43dd5d441bb6271f424f11befa622c032dfd374d226e26fbbdb782b8f8 a49807205ce4d355092ef5a8a18f56e8913cf4a201fbe287825b095693c21775\n    data_fb06fa8ff2141e8ed74502f6792273793f25f0e9d3cf15344f3f5a0d4948fd4b 416363657373436f6e74726f6c3a2063616e206f6e6c792072656e6f756e636520726f6c657320666f722073656c66\n\n    auxdata: 0xa26469706673582212205bc20b42fdadeaaa814715bc956fc34198550bedbb946c2a55bf2662efa65b5864736f6c63430007060033\n}\n",
				"bytecode": {
					"linkReferences": {},
					"object": "60c06040523480156200001157600080fd5b5060405162002bf038038062002bf0833981016040819052620000349162000239565b6001600160601b0319606085811b821660805284901b1660a0526200006960008051602062002bd083398151915280620000d3565b6200009360008051602062002bb083398151915260008051602062002bd0833981519152620000d3565b620000ae60008051602062002bd08339815191528362000125565b620000c960008051602062002bb08339815191528262000125565b50505050620002b9565b600082815260208190526040808220600201549051839285917fbd79b86ffe0ab8e8776151514217cd7cacd52c909f66475c3af44e129f0b00ff9190a460009182526020829052604090912060020155565b62000131828262000135565b5050565b6000828152602081815260409091206200015a918390620014f3620001ae821b17901c565b1562000131576200016a620001ce565b6001600160a01b0316816001600160a01b0316837f2f8788117e7eff1d82e926ec794901d17c78024a50270940304540a733656f0d60405160405180910390a45050565b6000620001c5836001600160a01b038416620001d2565b90505b92915050565b3390565b6000620001e0838362000221565b6200021857508154600181810184556000848152602080822090930184905584548482528286019093526040902091909155620001c8565b506000620001c8565b60009081526001919091016020526040902054151590565b600080600080608085870312156200024f578384fd5b84516200025c81620002a0565b60208601519094506200026f81620002a0565b60408601519093506200028281620002a0565b60608601519092506200029581620002a0565b939692955090935050565b6001600160a01b0381168114620002b657600080fd5b50565b60805160601c60a05160601c61287d6200033360003980610a415280610b515280610b7c5280610e6d5280610e9c5280610fef52806110af5250806105b452806105df52806107c952806108ea5280610cbf5280610e0f5280610e3e5280610f12528061117752806113ef5280611661525061287d6000f3fe608060405234801561001057600080fd5b50600436106101cf5760003560e01c80638e5f597711610104578063b4580507116100a2578063d547741f11610071578063d547741f146103e5578063dce008af146103f8578063dd37019d1461040b578063e1f21c671461042e576101cf565b8063b458050714610395578063c31c9c07146103a8578063c691b0a1146103b0578063ca15c873146103d2576101cf565b8063a217fddf116100de578063a217fddf1461034e578063a824355814610356578063b02c43d014610369578063b44a27221461038d576101cf565b80638e5f5977146102fb5780639010d07c1461030e57806391d148541461032e576101cf565b806336568abe116101715780634c8c73141161014b5780634c8c7314146102ba57806357706e74146102cd57806375b238fc146102e05780637d42c461146102e8576101cf565b806336568abe146102735780633a483cb0146102865780633ef4c3d4146102a7576101cf565b80631c8c9980116101ad5780631c8c998014610227578063248a9ca31461023a57806325eb6e6f1461024d5780632f2ff15d14610260576101cf565b806307bd0265146101d45780630d71bdc3146101f2578063150b7a0214610207575b600080fd5b6101dc610441565b6040516101e99190612434565b60405180910390f35b610205610200366004611f52565b610453565b005b61021a610215366004611f92565b6104a5565b6040516101e9919061243d565b610205610235366004611e18565b6104c2565b6101dc610248366004612071565b61055d565b61020561025b36600461202c565b610575565b61020561026e366004612089565b61060a565b610205610281366004612089565b610671565b61029961029436600461211c565b6106d2565b6040516101e99291906126bb565b6102056102b5366004612089565b61089a565b6101dc6102c8366004611ee3565b610986565b6102056102db36600461202c565b610b12565b6101dc610ba1565b6102056102f63660046121cb565b610bb3565b610299610309366004612144565b610c1a565b61032161031c3660046120ad565b610d92565b6040516101e9919061238c565b61034161033c366004612089565b610db3565b6040516101e99190612429565b6101dc610dcb565b610205610364366004611e18565b610dd0565b61037c610377366004612071565b610ec5565b6040516101e99594939291906123a0565b610321610f10565b6101dc6103a3366004611ee3565b610f34565b6103216110ad565b6103c36103be3660046121f6565b6110d1565b6040516101e99392919061264c565b6101dc6103e0366004612071565b611250565b6102056103f3366004612089565b611267565b61020561040636600461202c565b6112c0565b61041e610419366004611e50565b611311565b6040516101e99493929190612697565b61020561043c366004611f52565b6114af565b6000805160206127d983398151915281565b61046b6000805160206127f983398151915233610db3565b15156001146104955760405162461bcd60e51b815260040161048c906124a2565b60405180910390fd5b6104a0838383611508565b505050565b60006104b084611656565b50630a85bd0160e11b95945050505050565b6104da6000805160206127f983398151915233610db3565b15156001146104fb5760405162461bcd60e51b815260040161048c906124a2565b60405163f2fde38b60e01b81526001600160a01b0383169063f2fde38b9061052790849060040161238c565b600060405180830381600087803b15801561054157600080fd5b505af1158015610555573d6000803e3d6000fd5b505050505050565b6000818152602081905260409020600201545b919050565b61058d6000805160206127f983398151915233610db3565b15156001146105ae5760405162461bcd60e51b815260040161048c906124a2565b6105d9847f0000000000000000000000000000000000000000000000000000000000000000846118ae565b610604837f0000000000000000000000000000000000000000000000000000000000000000836118ae565b50505050565b6000828152602081905260409020600201546106289061033c6119f5565b6106635760405162461bcd60e51b815260040180806020018281038252602f81526020018061277a602f913960400191505060405180910390fd5b61066d82826119f9565b5050565b6106796119f5565b6001600160a01b0316816001600160a01b0316146106c85760405162461bcd60e51b815260040180806020018281038252602f815260200180612819602f913960400191505060405180910390fd5b61066d8282611a62565b6000806106ed6000805160206127f983398151915233610db3565b15156001148061071657506107106000805160206127d983398151915233610db3565b15156001145b6107325760405162461bcd60e51b815260040161048c90612475565b60018315151415610776576107556000805160206127f983398151915233610db3565b15156001146107765760405162461bcd60e51b815260040161048c906124a2565b60006040518060800160405280868152602001856107945730610796565b335b6001600160a01b0390811682526001600160801b0360208301819052604092830152905163fc6f786560e01b81529192507f0000000000000000000000000000000000000000000000000000000000000000169063fc6f7865906107fe9084906004016124c5565b6040805180830381600087803b15801561081757600080fd5b505af115801561082b573d6000803e3d6000fd5b505050506040513d601f19601f8201168201806040525081019061084f91906121a8565b60405191945092507feaa34316c1ac0ac2b8445632fef75dad91f846cc69c40a558ccfd6e5700bb79a9061088a9087908690869089906126c9565b60405180910390a1509250929050565b6108b26000805160206127f983398151915233610db3565b15156001146108d35760405162461bcd60e51b815260040161048c906124a2565b604051632142170760e11b81526001600160a01b037f000000000000000000000000000000000000000000000000000000000000000016906342842e0e90610923903090859087906004016123dc565b600060405180830381600087803b15801561093d57600080fd5b505af1158015610951573d6000803e3d6000fd5b5050506000928352505060016020819052604090912080546001600160a01b03191681550180546001600160e81b0319169055565b60006109a06000805160206127f983398151915233610db3565b1515600114806109c957506109c36000805160206127d983398151915233610db3565b15156001145b6109e55760405162461bcd60e51b815260040161048c90612475565b60408051610100810182526001600160a01b03808a168252888116602083015262ffffff88168284015230606083015242608083015260a0820187905260c0820186905284811660e08301529151631b67c43360e31b815290917f0000000000000000000000000000000000000000000000000000000000000000169063db3e219890610a7690849060040161254b565b602060405180830381600087803b158015610a9057600080fd5b505af1158015610aa4573d6000803e3d6000fd5b505050506040513d601f19601f82011682018060405250810190610ac89190612104565b91507f1f2c1de040604eaf4a8c72b05bd7c16fae213f15cbde69ecf70dd3b97fef1f2f88888488604051610aff9493929190612400565b60405180910390a1509695505050505050565b610b2a6000805160206127f983398151915233610db3565b1515600114610b4b5760405162461bcd60e51b815260040161048c906124a2565b610b76847f0000000000000000000000000000000000000000000000000000000000000000846118ae565b610604837f0000000000000000000000000000000000000000000000000000000000000000836118ae565b6000805160206127f983398151915281565b610bcb6000805160206127f983398151915233610db3565b1515600114610bec5760405162461bcd60e51b815260040161048c906124a2565b600083815260016020819052604090912080549101546104a0916001600160a01b03908116911684846112c0565b600080610c356000805160206127f983398151915233610db3565b151560011480610c5e5750610c586000805160206127d983398151915233610db3565b15156001145b610c7a5760405162461bcd60e51b815260040161048c90612475565b6040805160a0810182528781526001600160801b0387166020820152808201869052606081018590524260808201529051630624e65f60e11b81526001600160a01b037f00000000000000000000000000000000000000000000000000000000000000001690630c49ccbe90610cf4908490600401612508565b6040805180830381600087803b158015610d0d57600080fd5b505af1158015610d21573d6000803e3d6000fd5b505050506040513d601f19601f82011682018060405250810190610d4591906121a8565b60405191945092507fc79cb6614f7bcc31f0121c4db623a782836f42b2d8e5290a19340bdbc25032f790610d80908990869086908b906126e6565b60405180910390a15094509492505050565b6000828152602081905260408120610daa9083611acb565b90505b92915050565b6000828152602081905260408120610daa9083611ad7565b600081565b610de86000805160206127f983398151915233610db3565b1515600114610e095760405162461bcd60e51b815260040161048c906124a2565b610e38827f0000000000000000000000000000000000000000000000000000000000000000600160ff1b6118ae565b610e67817f0000000000000000000000000000000000000000000000000000000000000000600160ff1b6118ae565b610e96827f0000000000000000000000000000000000000000000000000000000000000000600160ff1b6118ae565b61066d817f0000000000000000000000000000000000000000000000000000000000000000600160ff1b6118ae565b600160208190526000918252604090912080549101546001600160a01b039182169181169062ffffff600160a01b82041690600160b81b8104600290810b91600160d01b9004900b85565b7f000000000000000000000000000000000000000000000000000000000000000081565b6000610f4e6000805160206127f983398151915233610db3565b151560011480610f775750610f716000805160206127d983398151915233610db3565b15156001145b610f935760405162461bcd60e51b815260040161048c90612475565b60408051610100810182526001600160a01b03808a168252888116602083015262ffffff88168284015230606083015242608083015260a0820187905260c0820186905284811660e0830152915163414bf38960e01b815290917f0000000000000000000000000000000000000000000000000000000000000000169063414bf3899061102490849060040161254b565b602060405180830381600087803b15801561103e57600080fd5b505af1158015611052573d6000803e3d6000fd5b505050506040513d601f19601f820116820180604052508101906110769190612104565b91507f1f2c1de040604eaf4a8c72b05bd7c16fae213f15cbde69ecf70dd3b97fef1f2f88888785604051610aff9493929190612400565b7f000000000000000000000000000000000000000000000000000000000000000081565b60008060006110ee6000805160206127f983398151915233610db3565b15156001148061111757506111116000805160206127d983398151915233610db3565b15156001145b6111335760405162461bcd60e51b815260040161048c90612475565b6040805160c0810182528981526020810189905280820188905260608101879052608081018690524260a0820152905163219f5d1760e01b81526001600160a01b037f0000000000000000000000000000000000000000000000000000000000000000169063219f5d17906111ac90849060040161255a565b606060405180830381600087803b1580156111c657600080fd5b505af11580156111da573d6000803e3d6000fd5b505050506040513d601f19601f820116820180604052508101906111fe91906120ce565b60405192965090945092507f2d6edbed0a944a56e78d8ced0bc4794533b38938655f47c5a423559a1163b1049061123c908b908690869089906126e6565b60405180910390a150955095509592505050565b6000818152602081905260408120610dad90611aec565b6000828152602081905260409020600201546112859061033c6119f5565b6106c85760405162461bcd60e51b81526004018080602001828103825260308152602001806127a96030913960400191505060405180910390fd5b6112d86000805160206127f983398151915233610db3565b15156001146112f95760405162461bcd60e51b815260040161048c906124a2565b61130584333085611af7565b61060483333084611af7565b60008060008061132f6000805160206127f983398151915233610db3565b15156001148061135857506113526000805160206127d983398151915233610db3565b15156001145b6113745760405162461bcd60e51b815260040161048c90612475565b60006040518061016001604052808f6001600160a01b031681526020018e6001600160a01b031681526020018d62ffffff1681526020018c60020b81526020018b60020b81526020018a8152602001898152602001888152602001878152602001306001600160a01b031681526020014260640181525090507f00000000000000000000000000000000000000000000000000000000000000006001600160a01b03166388316456826040518263ffffffff1660e01b8152600401611439919061259e565b608060405180830381600087803b15801561145357600080fd5b505af1158015611467573d6000803e3d6000fd5b505050506040513d601f19601f8201168201806040525081019061148b919061216b565b9297509095509350915061149e85611656565b509950995099509995505050505050565b6114c76000805160206127f983398151915233610db3565b15156001146114e85760405162461bcd60e51b815260040161048c906124a2565b6104a08383836118ae565b6000610daa836001600160a01b038416611c47565b604080516001600160a01b038481166024830152604480830185905283518084039091018152606490920183526020820180516001600160e01b031663a9059cbb60e01b1781529251825160009485949389169392918291908083835b602083106115845780518252601f199092019160209182019101611565565b6001836020036101000a0380198251168184511680821785525050505050509050019150506000604051808303816000865af19150503d80600081146115e6576040519150601f19603f3d011682016040523d82523d6000602084013e6115eb565b606091505b5091509150818015611619575080511580611619575080806020019051602081101561161657600080fd5b50515b61164f576040805162461bcd60e51b815260206004820152600260248201526114d560f21b604482015290519081900360640190fd5b5050505050565b6000806000806000807f00000000000000000000000000000000000000000000000000000000000000006001600160a01b03166399fbab88886040518263ffffffff1660e01b81526004016116ab9190612434565b6101806040518083038186803b1580156116c457600080fd5b505afa1580156116d8573d6000803e3d6000fd5b505050506040513d601f19601f820116820180604052508101906116fc9190612230565b505050505096509650965096509650965050306001600160a01b0316866001600160a01b03161461173f5760405162461bcd60e51b815260040161048c90612452565b6040518060a00160405280866001600160a01b03168152602001856001600160a01b031681526020018462ffffff1681526020018360020b81526020018260020b8152506001600089815260200190815260200160002060008201518160000160006101000a8154816001600160a01b0302191690836001600160a01b0316021790555060208201518160010160006101000a8154816001600160a01b0302191690836001600160a01b0316021790555060408201518160010160146101000a81548162ffffff021916908362ffffff16021790555060608201518160010160176101000a81548162ffffff021916908360020b62ffffff160217905550608082015181600101601a6101000a81548162ffffff021916908360020b62ffffff1602179055509050507fc98b6cef6bcb7a4f274ab1045ead0065d8a07df11b545d8dc8bd25f58b39d0718786868660405161189d949392919061266d565b60405180910390a150505050505050565b604080516001600160a01b038481166024830152604480830185905283518084039091018152606490920183526020820180516001600160e01b031663095ea7b360e01b1781529251825160009485949389169392918291908083835b6020831061192a5780518252601f19909201916020918201910161190b565b6001836020036101000a0380198251168184511680821785525050505050509050019150506000604051808303816000865af19150503d806000811461198c576040519150601f19603f3d011682016040523d82523d6000602084013e611991565b606091505b50915091508180156119bf5750805115806119bf57508080602001905160208110156119bc57600080fd5b50515b61164f576040805162461bcd60e51b8152602060048201526002602482015261534160f01b604482015290519081900360640190fd5b3390565b6000828152602081905260409020611a1190826114f3565b1561066d57611a1e6119f5565b6001600160a01b0316816001600160a01b0316837f2f8788117e7eff1d82e926ec794901d17c78024a50270940304540a733656f0d60405160405180910390a45050565b6000828152602081905260409020611a7a9082611c91565b1561066d57611a876119f5565b6001600160a01b0316816001600160a01b0316837ff6391f5c32d9c69d2a47ea670b442974b53935d1edc7fd64eb21e047a839171b60405160405180910390a45050565b6000610daa8383611ca6565b6000610daa836001600160a01b038416611d0a565b6000610dad82611d22565b604080516001600160a01b0385811660248301528481166044830152606480830185905283518084039091018152608490920183526020820180516001600160e01b03166323b872dd60e01b178152925182516000948594938a169392918291908083835b60208310611b7b5780518252601f199092019160209182019101611b5c565b6001836020036101000a0380198251168184511680821785525050505050509050019150506000604051808303816000865af19150503d8060008114611bdd576040519150601f19603f3d011682016040523d82523d6000602084013e611be2565b606091505b5091509150818015611c10575080511580611c105750808060200190516020811015611c0d57600080fd5b50515b610555576040805162461bcd60e51b815260206004820152600360248201526229aa2360e91b604482015290519081900360640190fd5b6000611c538383611d0a565b611c8957508154600181810184556000848152602080822090930184905584548482528286019093526040902091909155610dad565b506000610dad565b6000610daa836001600160a01b038416611d26565b81546000908210611ce85760405162461bcd60e51b81526004018080602001828103825260228152602001806127586022913960400191505060405180910390fd5b826000018281548110611cf757fe5b9060005260206000200154905092915050565b60009081526001919091016020526040902054151590565b5490565b60008181526001830160205260408120548015611de25783546000198083019190810190600090879083908110611d5957fe5b9060005260206000200154905080876000018481548110611d7657fe5b600091825260208083209091019290925582815260018981019092526040902090840190558654879080611da657fe5b60019003818190600052602060002001600090559055866001016000878152602001908152602001600020600090556001945050505050610dad565b6000915050610dad565b80516105708161270a565b805161057081612722565b805161057081612731565b805161057081612746565b60008060408385031215611e2a578182fd5b8235611e358161270a565b91506020830135611e458161270a565b809150509250929050565b60008060008060008060008060006101208a8c031215611e6e578485fd5b8935611e798161270a565b985060208a0135611e898161270a565b975060408a0135611e9981612746565b965060608a0135611ea981612722565b955060808a0135611eb981612722565b989b979a50959894979660a0860135965060c08601359560e0810135955061010001359350915050565b60008060008060008060c08789031215611efb578182fd5b8635611f068161270a565b95506020870135611f168161270a565b94506040870135611f2681612746565b9350606087013592506080870135915060a0870135611f448161270a565b809150509295509295509295565b600080600060608486031215611f66578283fd5b8335611f718161270a565b92506020840135611f818161270a565b929592945050506040919091013590565b600080600080600060808688031215611fa9578081fd5b8535611fb48161270a565b94506020860135611fc48161270a565b935060408601359250606086013567ffffffffffffffff80821115611fe7578283fd5b818801915088601f830112611ffa578283fd5b813581811115612008578384fd5b896020828501011115612019578384fd5b9699959850939650602001949392505050565b60008060008060808587031215612041578384fd5b843561204c8161270a565b9350602085013561205c8161270a565b93969395505050506040820135916060013590565b600060208284031215612082578081fd5b5035919050565b6000806040838503121561209b578182fd5b823591506020830135611e458161270a565b600080604083850312156120bf578182fd5b50508035926020909101359150565b6000806000606084860312156120e2578081fd5b83516120ed81612731565b602085015160409095015190969495509392505050565b600060208284031215612115578081fd5b5051919050565b6000806040838503121561212e578182fd5b8235915060208301358015158114611e45578182fd5b60008060008060808587031215612159578182fd5b84359350602085013561205c81612731565b60008060008060808587031215612180578182fd5b84519350602085015161219281612731565b6040860151606090960151949790965092505050565b600080604083850312156121ba578182fd5b505080516020909101519092909150565b6000806000606084860312156121df578081fd5b505081359360208301359350604090920135919050565b600080600080600060a0868803121561220d578283fd5b505083359560208501359550604085013594606081013594506080013592509050565b6000806000806000806000806000806000806101808d8f031215612252578586fd5b8c516bffffffffffffffffffffffff8116811461226d578687fd5b9b5061227b60208e01611dec565b9a5061228960408e01611dec565b995061229760608e01611dec565b98506122a560808e01611e0d565b97506122b360a08e01611df7565b96506122c160c08e01611df7565b95506122cf60e08e01611e02565b94506101008d015193506101208d015192506122ee6101408e01611e02565b91506122fd6101608e01611e02565b90509295989b509295989b509295989b565b6001600160a01b03169052565b60020b9052565b80516001600160a01b03908116835260208083015182169084015260408083015162ffffff16908401526060808301518216908401526080808301519084015260a0828101519084015260c0808301519084015260e09182015116910152565b62ffffff169052565b6001600160a01b0391909116815260200190565b6001600160a01b03958616815293909416602084015262ffffff919091166040830152600290810b60608301529190910b608082015260a00190565b6001600160a01b039384168152919092166020820152604081019190915260600190565b6001600160a01b0394851681529290931660208301526040820152606081019190915260800190565b901515815260200190565b90815260200190565b6001600160e01b031991909116815260200190565b602080825260099082015268139bdd0813dddb995960ba1b604082015260600190565b6020808252601390820152722737ba1020b236b4b727b922bc32b1baba37b960691b604082015260600190565b6020808252600990820152682737ba1020b236b4b760b91b604082015260600190565b815181526020808301516001600160a01b0316908201526040808301516001600160801b0390811691830191909152606092830151169181019190915260800190565b600060a082019050825182526001600160801b03602084015116602083015260408301516040830152606083015160608301526080830151608083015292915050565b6101008101610dad8284612323565b600060c082019050825182526020830151602083015260408301516040830152606083015160608301526080830151608083015260a083015160a083015292915050565b6000610160820190506125b282845161230f565b60208301516125c4602084018261230f565b5060408301516125d76040840182612383565b5060608301516125ea606084018261231c565b5060808301516125fd608084018261231c565b5060a083015160a083015260c083015160c083015260e083015160e08301526101008084015181840152506101208084015161263b8285018261230f565b505061014092830151919092015290565b6001600160801b039390931683526020830191909152604082015260600190565b9384526001600160a01b0392831660208501529116604083015262ffffff16606082015260800190565b9384526001600160801b039290921660208401526040830152606082015260800190565b918252602082015260400190565b938452602084019290925260408301521515606082015260800190565b938452602084019290925260408301526001600160801b0316606082015260800190565b6001600160a01b038116811461271f57600080fd5b50565b8060020b811461271f57600080fd5b6001600160801b038116811461271f57600080fd5b62ffffff8116811461271f57600080fdfe456e756d657261626c655365743a20696e646578206f7574206f6620626f756e6473416363657373436f6e74726f6c3a2073656e646572206d75737420626520616e2061646d696e20746f206772616e74416363657373436f6e74726f6c3a2073656e646572206d75737420626520616e2061646d696e20746f207265766f6b65d8aa0f3194971a2a116679f7c2090f6939c8d4e01a2a8d7e41d55e5351469e63a49807205ce4d355092ef5a8a18f56e8913cf4a201fbe287825b095693c21775416363657373436f6e74726f6c3a2063616e206f6e6c792072656e6f756e636520726f6c657320666f722073656c66a26469706673582212205bc20b42fdadeaaa814715bc956fc34198550bedbb946c2a55bf2662efa65b5864736f6c63430007060033d8aa0f3194971a2a116679f7c2090f6939c8d4e01a2a8d7e41d55e5351469e63a49807205ce4d355092ef5a8a18f56e8913cf4a201fbe287825b095693c21775",
					"opcodes": "PUSH1 0xC0 PUSH1 0x40 MSTORE CALLVALUE DUP1 ISZERO PUSH3 0x11 JUMPI PUSH1 0x0 DUP1 REVERT JUMPDEST POP PUSH1 0x40 MLOAD PUSH3 0x2BF0 CODESIZE SUB DUP1 PUSH3 0x2BF0 DUP4 CODECOPY DUP2 ADD PUSH1 0x40 DUP2 SWAP1 MSTORE PUSH3 0x34 SWAP2 PUSH3 0x239 JUMP JUMPDEST PUSH1 0x1 PUSH1 0x1 PUSH1 0x60 SHL SUB NOT PUSH1 0x60 DUP6 DUP2 SHL DUP3 AND PUSH1 0x80 MSTORE DUP5 SWAP1 SHL AND PUSH1 0xA0 MSTORE PUSH3 0x69 PUSH1 0x0 DUP1 MLOAD PUSH1 0x20 PUSH3 0x2BD0 DUP4 CODECOPY DUP2 MLOAD SWAP2 MSTORE DUP1 PUSH3 0xD3 JUMP JUMPDEST PUSH3 0x93 PUSH1 0x0 DUP1 MLOAD PUSH1 0x20 PUSH3 0x2BB0 DUP4 CODECOPY DUP2 MLOAD SWAP2 MSTORE PUSH1 0x0 DUP1 MLOAD PUSH1 0x20 PUSH3 0x2BD0 DUP4 CODECOPY DUP2 MLOAD SWAP2 MSTORE PUSH3 0xD3 JUMP JUMPDEST PUSH3 0xAE PUSH1 0x0 DUP1 MLOAD PUSH1 0x20 PUSH3 0x2BD0 DUP4 CODECOPY DUP2 MLOAD SWAP2 MSTORE DUP4 PUSH3 0x125 JUMP JUMPDEST PUSH3 0xC9 PUSH1 0x0 DUP1 MLOAD PUSH1 0x20 PUSH3 0x2BB0 DUP4 CODECOPY DUP2 MLOAD SWAP2 MSTORE DUP3 PUSH3 0x125 JUMP JUMPDEST POP POP POP POP PUSH3 0x2B9 JUMP JUMPDEST PUSH1 0x0 DUP3 DUP2 MSTORE PUSH1 0x20 DUP2 SWAP1 MSTORE PUSH1 0x40 DUP1 DUP3 KECCAK256 PUSH1 0x2 ADD SLOAD SWAP1 MLOAD DUP4 SWAP3 DUP6 SWAP2 PUSH32 0xBD79B86FFE0AB8E8776151514217CD7CACD52C909F66475C3AF44E129F0B00FF SWAP2 SWAP1 LOG4 PUSH1 0x0 SWAP2 DUP3 MSTORE PUSH1 0x20 DUP3 SWAP1 MSTORE PUSH1 0x40 SWAP1 SWAP2 KECCAK256 PUSH1 0x2 ADD SSTORE JUMP JUMPDEST PUSH3 0x131 DUP3 DUP3 PUSH3 0x135 JUMP JUMPDEST POP POP JUMP JUMPDEST PUSH1 0x0 DUP3 DUP2 MSTORE PUSH1 0x20 DUP2 DUP2 MSTORE PUSH1 0x40 SWAP1 SWAP2 KECCAK256 PUSH3 0x15A SWAP2 DUP4 SWAP1 PUSH3 0x14F3 PUSH3 0x1AE DUP3 SHL OR SWAP1 SHR JUMP JUMPDEST ISZERO PUSH3 0x131 JUMPI PUSH3 0x16A PUSH3 0x1CE JUMP JUMPDEST PUSH1 0x1 PUSH1 0x1 PUSH1 0xA0 SHL SUB AND DUP2 PUSH1 0x1 PUSH1 0x1 PUSH1 0xA0 SHL SUB AND DUP4 PUSH32 0x2F8788117E7EFF1D82E926EC794901D17C78024A50270940304540A733656F0D PUSH1 0x40 MLOAD PUSH1 0x40 MLOAD DUP1 SWAP2 SUB SWAP1 LOG4 POP POP JUMP JUMPDEST PUSH1 0x0 PUSH3 0x1C5 DUP4 PUSH1 0x1 PUSH1 0x1 PUSH1 0xA0 SHL SUB DUP5 AND PUSH3 0x1D2 JUMP JUMPDEST SWAP1 POP JUMPDEST SWAP3 SWAP2 POP POP JUMP JUMPDEST CALLER SWAP1 JUMP JUMPDEST PUSH1 0x0 PUSH3 0x1E0 DUP4 DUP4 PUSH3 0x221 JUMP JUMPDEST PUSH3 0x218 JUMPI POP DUP2 SLOAD PUSH1 0x1 DUP2 DUP2 ADD DUP5 SSTORE PUSH1 0x0 DUP5 DUP2 MSTORE PUSH1 0x20 DUP1 DUP3 KECCAK256 SWAP1 SWAP4 ADD DUP5 SWAP1 SSTORE DUP5 SLOAD DUP5 DUP3 MSTORE DUP3 DUP7 ADD SWAP1 SWAP4 MSTORE PUSH1 0x40 SWAP1 KECCAK256 SWAP2 SWAP1 SWAP2 SSTORE PUSH3 0x1C8 JUMP JUMPDEST POP PUSH1 0x0 PUSH3 0x1C8 JUMP JUMPDEST PUSH1 0x0 SWAP1 DUP2 MSTORE PUSH1 0x1 SWAP2 SWAP1 SWAP2 ADD PUSH1 0x20 MSTORE PUSH1 0x40 SWAP1 KECCAK256 SLOAD ISZERO ISZERO SWAP1 JUMP JUMPDEST PUSH1 0x0 DUP1 PUSH1 0x0 DUP1 PUSH1 0x80 DUP6 DUP8 SUB SLT ISZERO PUSH3 0x24F JUMPI DUP4 DUP5 REVERT JUMPDEST DUP5 MLOAD PUSH3 0x25C DUP2 PUSH3 0x2A0 JUMP JUMPDEST PUSH1 0x20 DUP7 ADD MLOAD SWAP1 SWAP5 POP PUSH3 0x26F DUP2 PUSH3 0x2A0 JUMP JUMPDEST PUSH1 0x40 DUP7 ADD MLOAD SWAP1 SWAP4 POP PUSH3 0x282 DUP2 PUSH3 0x2A0 JUMP JUMPDEST PUSH1 0x60 DUP7 ADD MLOAD SWAP1 SWAP3 POP PUSH3 0x295 DUP2 PUSH3 0x2A0 JUMP JUMPDEST SWAP4 SWAP7 SWAP3 SWAP6 POP SWAP1 SWAP4 POP POP JUMP JUMPDEST PUSH1 0x1 PUSH1 0x1 PUSH1 0xA0 SHL SUB DUP2 AND DUP2 EQ PUSH3 0x2B6 JUMPI PUSH1 0x0 DUP1 REVERT JUMPDEST POP JUMP JUMPDEST PUSH1 0x80 MLOAD PUSH1 0x60 SHR PUSH1 0xA0 MLOAD PUSH1 0x60 SHR PUSH2 0x287D PUSH3 0x333 PUSH1 0x0 CODECOPY DUP1 PUSH2 0xA41 MSTORE DUP1 PUSH2 0xB51 MSTORE DUP1 PUSH2 0xB7C MSTORE DUP1 PUSH2 0xE6D MSTORE DUP1 PUSH2 0xE9C MSTORE DUP1 PUSH2 0xFEF MSTORE DUP1 PUSH2 0x10AF MSTORE POP DUP1 PUSH2 0x5B4 MSTORE DUP1 PUSH2 0x5DF MSTORE DUP1 PUSH2 0x7C9 MSTORE DUP1 PUSH2 0x8EA MSTORE DUP1 PUSH2 0xCBF MSTORE DUP1 PUSH2 0xE0F MSTORE DUP1 PUSH2 0xE3E MSTORE DUP1 PUSH2 0xF12 MSTORE DUP1 PUSH2 0x1177 MSTORE DUP1 PUSH2 0x13EF MSTORE DUP1 PUSH2 0x1661 MSTORE POP PUSH2 0x287D PUSH1 0x0 RETURN INVALID PUSH1 0x80 PUSH1 0x40 MSTORE CALLVALUE DUP1 ISZERO PUSH2 0x10 JUMPI PUSH1 0x0 DUP1 REVERT JUMPDEST POP PUSH1 0x4 CALLDATASIZE LT PUSH2 0x1CF JUMPI PUSH1 0x0 CALLDATALOAD PUSH1 0xE0 SHR DUP1 PUSH4 0x8E5F5977 GT PUSH2 0x104 JUMPI DUP1 PUSH4 0xB4580507 GT PUSH2 0xA2 JUMPI DUP1 PUSH4 0xD547741F GT PUSH2 0x71 JUMPI DUP1 PUSH4 0xD547741F EQ PUSH2 0x3E5 JUMPI DUP1 PUSH4 0xDCE008AF EQ PUSH2 0x3F8 JUMPI DUP1 PUSH4 0xDD37019D EQ PUSH2 0x40B JUMPI DUP1 PUSH4 0xE1F21C67 EQ PUSH2 0x42E JUMPI PUSH2 0x1CF JUMP JUMPDEST DUP1 PUSH4 0xB4580507 EQ PUSH2 0x395 JUMPI DUP1 PUSH4 0xC31C9C07 EQ PUSH2 0x3A8 JUMPI DUP1 PUSH4 0xC691B0A1 EQ PUSH2 0x3B0 JUMPI DUP1 PUSH4 0xCA15C873 EQ PUSH2 0x3D2 JUMPI PUSH2 0x1CF JUMP JUMPDEST DUP1 PUSH4 0xA217FDDF GT PUSH2 0xDE JUMPI DUP1 PUSH4 0xA217FDDF EQ PUSH2 0x34E JUMPI DUP1 PUSH4 0xA8243558 EQ PUSH2 0x356 JUMPI DUP1 PUSH4 0xB02C43D0 EQ PUSH2 0x369 JUMPI DUP1 PUSH4 0xB44A2722 EQ PUSH2 0x38D JUMPI PUSH2 0x1CF JUMP JUMPDEST DUP1 PUSH4 0x8E5F5977 EQ PUSH2 0x2FB JUMPI DUP1 PUSH4 0x9010D07C EQ PUSH2 0x30E JUMPI DUP1 PUSH4 0x91D14854 EQ PUSH2 0x32E JUMPI PUSH2 0x1CF JUMP JUMPDEST DUP1 PUSH4 0x36568ABE GT PUSH2 0x171 JUMPI DUP1 PUSH4 0x4C8C7314 GT PUSH2 0x14B JUMPI DUP1 PUSH4 0x4C8C7314 EQ PUSH2 0x2BA JUMPI DUP1 PUSH4 0x57706E74 EQ PUSH2 0x2CD JUMPI DUP1 PUSH4 0x75B238FC EQ PUSH2 0x2E0 JUMPI DUP1 PUSH4 0x7D42C461 EQ PUSH2 0x2E8 JUMPI PUSH2 0x1CF JUMP JUMPDEST DUP1 PUSH4 0x36568ABE EQ PUSH2 0x273 JUMPI DUP1 PUSH4 0x3A483CB0 EQ PUSH2 0x286 JUMPI DUP1 PUSH4 0x3EF4C3D4 EQ PUSH2 0x2A7 JUMPI PUSH2 0x1CF JUMP JUMPDEST DUP1 PUSH4 0x1C8C9980 GT PUSH2 0x1AD JUMPI DUP1 PUSH4 0x1C8C9980 EQ PUSH2 0x227 JUMPI DUP1 PUSH4 0x248A9CA3 EQ PUSH2 0x23A JUMPI DUP1 PUSH4 0x25EB6E6F EQ PUSH2 0x24D JUMPI DUP1 PUSH4 0x2F2FF15D EQ PUSH2 0x260 JUMPI PUSH2 0x1CF JUMP JUMPDEST DUP1 PUSH4 0x7BD0265 EQ PUSH2 0x1D4 JUMPI DUP1 PUSH4 0xD71BDC3 EQ PUSH2 0x1F2 JUMPI DUP1 PUSH4 0x150B7A02 EQ PUSH2 0x207 JUMPI JUMPDEST PUSH1 0x0 DUP1 REVERT JUMPDEST PUSH2 0x1DC PUSH2 0x441 JUMP JUMPDEST PUSH1 0x40 MLOAD PUSH2 0x1E9 SWAP2 SWAP1 PUSH2 0x2434 JUMP JUMPDEST PUSH1 0x40 MLOAD DUP1 SWAP2 SUB SWAP1 RETURN JUMPDEST PUSH2 0x205 PUSH2 0x200 CALLDATASIZE PUSH1 0x4 PUSH2 0x1F52 JUMP JUMPDEST PUSH2 0x453 JUMP JUMPDEST STOP JUMPDEST PUSH2 0x21A PUSH2 0x215 CALLDATASIZE PUSH1 0x4 PUSH2 0x1F92 JUMP JUMPDEST PUSH2 0x4A5 JUMP JUMPDEST PUSH1 0x40 MLOAD PUSH2 0x1E9 SWAP2 SWAP1 PUSH2 0x243D JUMP JUMPDEST PUSH2 0x205 PUSH2 0x235 CALLDATASIZE PUSH1 0x4 PUSH2 0x1E18 JUMP JUMPDEST PUSH2 0x4C2 JUMP JUMPDEST PUSH2 0x1DC PUSH2 0x248 CALLDATASIZE PUSH1 0x4 PUSH2 0x2071 JUMP JUMPDEST PUSH2 0x55D JUMP JUMPDEST PUSH2 0x205 PUSH2 0x25B CALLDATASIZE PUSH1 0x4 PUSH2 0x202C JUMP JUMPDEST PUSH2 0x575 JUMP JUMPDEST PUSH2 0x205 PUSH2 0x26E CALLDATASIZE PUSH1 0x4 PUSH2 0x2089 JUMP JUMPDEST PUSH2 0x60A JUMP JUMPDEST PUSH2 0x205 PUSH2 0x281 CALLDATASIZE PUSH1 0x4 PUSH2 0x2089 JUMP JUMPDEST PUSH2 0x671 JUMP JUMPDEST PUSH2 0x299 PUSH2 0x294 CALLDATASIZE PUSH1 0x4 PUSH2 0x211C JUMP JUMPDEST PUSH2 0x6D2 JUMP JUMPDEST PUSH1 0x40 MLOAD PUSH2 0x1E9 SWAP3 SWAP2 SWAP1 PUSH2 0x26BB JUMP JUMPDEST PUSH2 0x205 PUSH2 0x2B5 CALLDATASIZE PUSH1 0x4 PUSH2 0x2089 JUMP JUMPDEST PUSH2 0x89A JUMP JUMPDEST PUSH2 0x1DC PUSH2 0x2C8 CALLDATASIZE PUSH1 0x4 PUSH2 0x1EE3 JUMP JUMPDEST PUSH2 0x986 JUMP JUMPDEST PUSH2 0x205 PUSH2 0x2DB CALLDATASIZE PUSH1 0x4 PUSH2 0x202C JUMP JUMPDEST PUSH2 0xB12 JUMP JUMPDEST PUSH2 0x1DC PUSH2 0xBA1 JUMP JUMPDEST PUSH2 0x205 PUSH2 0x2F6 CALLDATASIZE PUSH1 0x4 PUSH2 0x21CB JUMP JUMPDEST PUSH2 0xBB3 JUMP JUMPDEST PUSH2 0x299 PUSH2 0x309 CALLDATASIZE PUSH1 0x4 PUSH2 0x2144 JUMP JUMPDEST PUSH2 0xC1A JUMP JUMPDEST PUSH2 0x321 PUSH2 0x31C CALLDATASIZE PUSH1 0x4 PUSH2 0x20AD JUMP JUMPDEST PUSH2 0xD92 JUMP JUMPDEST PUSH1 0x40 MLOAD PUSH2 0x1E9 SWAP2 SWAP1 PUSH2 0x238C JUMP JUMPDEST PUSH2 0x341 PUSH2 0x33C CALLDATASIZE PUSH1 0x4 PUSH2 0x2089 JUMP JUMPDEST PUSH2 0xDB3 JUMP JUMPDEST PUSH1 0x40 MLOAD PUSH2 0x1E9 SWAP2 SWAP1 PUSH2 0x2429 JUMP JUMPDEST PUSH2 0x1DC PUSH2 0xDCB JUMP JUMPDEST PUSH2 0x205 PUSH2 0x364 CALLDATASIZE PUSH1 0x4 PUSH2 0x1E18 JUMP JUMPDEST PUSH2 0xDD0 JUMP JUMPDEST PUSH2 0x37C PUSH2 0x377 CALLDATASIZE PUSH1 0x4 PUSH2 0x2071 JUMP JUMPDEST PUSH2 0xEC5 JUMP JUMPDEST PUSH1 0x40 MLOAD PUSH2 0x1E9 SWAP6 SWAP5 SWAP4 SWAP3 SWAP2 SWAP1 PUSH2 0x23A0 JUMP JUMPDEST PUSH2 0x321 PUSH2 0xF10 JUMP JUMPDEST PUSH2 0x1DC PUSH2 0x3A3 CALLDATASIZE PUSH1 0x4 PUSH2 0x1EE3 JUMP JUMPDEST PUSH2 0xF34 JUMP JUMPDEST PUSH2 0x321 PUSH2 0x10AD JUMP JUMPDEST PUSH2 0x3C3 PUSH2 0x3BE CALLDATASIZE PUSH1 0x4 PUSH2 0x21F6 JUMP JUMPDEST PUSH2 0x10D1 JUMP JUMPDEST PUSH1 0x40 MLOAD PUSH2 0x1E9 SWAP4 SWAP3 SWAP2 SWAP1 PUSH2 0x264C JUMP JUMPDEST PUSH2 0x1DC PUSH2 0x3E0 CALLDATASIZE PUSH1 0x4 PUSH2 0x2071 JUMP JUMPDEST PUSH2 0x1250 JUMP JUMPDEST PUSH2 0x205 PUSH2 0x3F3 CALLDATASIZE PUSH1 0x4 PUSH2 0x2089 JUMP JUMPDEST PUSH2 0x1267 JUMP JUMPDEST PUSH2 0x205 PUSH2 0x406 CALLDATASIZE PUSH1 0x4 PUSH2 0x202C JUMP JUMPDEST PUSH2 0x12C0 JUMP JUMPDEST PUSH2 0x41E PUSH2 0x419 CALLDATASIZE PUSH1 0x4 PUSH2 0x1E50 JUMP JUMPDEST PUSH2 0x1311 JUMP JUMPDEST PUSH1 0x40 MLOAD PUSH2 0x1E9 SWAP5 SWAP4 SWAP3 SWAP2 SWAP1 PUSH2 0x2697 JUMP JUMPDEST PUSH2 0x205 PUSH2 0x43C CALLDATASIZE PUSH1 0x4 PUSH2 0x1F52 JUMP JUMPDEST PUSH2 0x14AF JUMP JUMPDEST PUSH1 0x0 DUP1 MLOAD PUSH1 0x20 PUSH2 0x27D9 DUP4 CODECOPY DUP2 MLOAD SWAP2 MSTORE DUP2 JUMP JUMPDEST PUSH2 0x46B PUSH1 0x0 DUP1 MLOAD PUSH1 0x20 PUSH2 0x27F9 DUP4 CODECOPY DUP2 MLOAD SWAP2 MSTORE CALLER PUSH2 0xDB3 JUMP JUMPDEST ISZERO ISZERO PUSH1 0x1 EQ PUSH2 0x495 JUMPI PUSH1 0x40 MLOAD PUSH3 0x461BCD PUSH1 0xE5 SHL DUP2 MSTORE PUSH1 0x4 ADD PUSH2 0x48C SWAP1 PUSH2 0x24A2 JUMP JUMPDEST PUSH1 0x40 MLOAD DUP1 SWAP2 SUB SWAP1 REVERT JUMPDEST PUSH2 0x4A0 DUP4 DUP4 DUP4 PUSH2 0x1508 JUMP JUMPDEST POP POP POP JUMP JUMPDEST PUSH1 0x0 PUSH2 0x4B0 DUP5 PUSH2 0x1656 JUMP JUMPDEST POP PUSH4 0xA85BD01 PUSH1 0xE1 SHL SWAP6 SWAP5 POP POP POP POP POP JUMP JUMPDEST PUSH2 0x4DA PUSH1 0x0 DUP1 MLOAD PUSH1 0x20 PUSH2 0x27F9 DUP4 CODECOPY DUP2 MLOAD SWAP2 MSTORE CALLER PUSH2 0xDB3 JUMP JUMPDEST ISZERO ISZERO PUSH1 0x1 EQ PUSH2 0x4FB JUMPI PUSH1 0x40 MLOAD PUSH3 0x461BCD PUSH1 0xE5 SHL DUP2 MSTORE PUSH1 0x4 ADD PUSH2 0x48C SWAP1 PUSH2 0x24A2 JUMP JUMPDEST PUSH1 0x40 MLOAD PUSH4 0xF2FDE38B PUSH1 0xE0 SHL DUP2 MSTORE PUSH1 0x1 PUSH1 0x1 PUSH1 0xA0 SHL SUB DUP4 AND SWAP1 PUSH4 0xF2FDE38B SWAP1 PUSH2 0x527 SWAP1 DUP5 SWAP1 PUSH1 0x4 ADD PUSH2 0x238C JUMP JUMPDEST PUSH1 0x0 PUSH1 0x40 MLOAD DUP1 DUP4 SUB DUP2 PUSH1 0x0 DUP8 DUP1 EXTCODESIZE ISZERO DUP1 ISZERO PUSH2 0x541 JUMPI PUSH1 0x0 DUP1 REVERT JUMPDEST POP GAS CALL ISZERO DUP1 ISZERO PUSH2 0x555 JUMPI RETURNDATASIZE PUSH1 0x0 DUP1 RETURNDATACOPY RETURNDATASIZE PUSH1 0x0 REVERT JUMPDEST POP POP POP POP POP POP JUMP JUMPDEST PUSH1 0x0 DUP2 DUP2 MSTORE PUSH1 0x20 DUP2 SWAP1 MSTORE PUSH1 0x40 SWAP1 KECCAK256 PUSH1 0x2 ADD SLOAD JUMPDEST SWAP2 SWAP1 POP JUMP JUMPDEST PUSH2 0x58D PUSH1 0x0 DUP1 MLOAD PUSH1 0x20 PUSH2 0x27F9 DUP4 CODECOPY DUP2 MLOAD SWAP2 MSTORE CALLER PUSH2 0xDB3 JUMP JUMPDEST ISZERO ISZERO PUSH1 0x1 EQ PUSH2 0x5AE JUMPI PUSH1 0x40 MLOAD PUSH3 0x461BCD PUSH1 0xE5 SHL DUP2 MSTORE PUSH1 0x4 ADD PUSH2 0x48C SWAP1 PUSH2 0x24A2 JUMP JUMPDEST PUSH2 0x5D9 DUP5 PUSH32 0x0 DUP5 PUSH2 0x18AE JUMP JUMPDEST PUSH2 0x604 DUP4 PUSH32 0x0 DUP4 PUSH2 0x18AE JUMP JUMPDEST POP POP POP POP JUMP JUMPDEST PUSH1 0x0 DUP3 DUP2 MSTORE PUSH1 0x20 DUP2 SWAP1 MSTORE PUSH1 0x40 SWAP1 KECCAK256 PUSH1 0x2 ADD SLOAD PUSH2 0x628 SWAP1 PUSH2 0x33C PUSH2 0x19F5 JUMP JUMPDEST PUSH2 0x663 JUMPI PUSH1 0x40 MLOAD PUSH3 0x461BCD PUSH1 0xE5 SHL DUP2 MSTORE PUSH1 0x4 ADD DUP1 DUP1 PUSH1 0x20 ADD DUP3 DUP2 SUB DUP3 MSTORE PUSH1 0x2F DUP2 MSTORE PUSH1 0x20 ADD DUP1 PUSH2 0x277A PUSH1 0x2F SWAP2 CODECOPY PUSH1 0x40 ADD SWAP2 POP POP PUSH1 0x40 MLOAD DUP1 SWAP2 SUB SWAP1 REVERT JUMPDEST PUSH2 0x66D DUP3 DUP3 PUSH2 0x19F9 JUMP JUMPDEST POP POP JUMP JUMPDEST PUSH2 0x679 PUSH2 0x19F5 JUMP JUMPDEST PUSH1 0x1 PUSH1 0x1 PUSH1 0xA0 SHL SUB AND DUP2 PUSH1 0x1 PUSH1 0x1 PUSH1 0xA0 SHL SUB AND EQ PUSH2 0x6C8 JUMPI PUSH1 0x40 MLOAD PUSH3 0x461BCD PUSH1 0xE5 SHL DUP2 MSTORE PUSH1 0x4 ADD DUP1 DUP1 PUSH1 0x20 ADD DUP3 DUP2 SUB DUP3 MSTORE PUSH1 0x2F DUP2 MSTORE PUSH1 0x20 ADD DUP1 PUSH2 0x2819 PUSH1 0x2F SWAP2 CODECOPY PUSH1 0x40 ADD SWAP2 POP POP PUSH1 0x40 MLOAD DUP1 SWAP2 SUB SWAP1 REVERT JUMPDEST PUSH2 0x66D DUP3 DUP3 PUSH2 0x1A62 JUMP JUMPDEST PUSH1 0x0 DUP1 PUSH2 0x6ED PUSH1 0x0 DUP1 MLOAD PUSH1 0x20 PUSH2 0x27F9 DUP4 CODECOPY DUP2 MLOAD SWAP2 MSTORE CALLER PUSH2 0xDB3 JUMP JUMPDEST ISZERO ISZERO PUSH1 0x1 EQ DUP1 PUSH2 0x716 JUMPI POP PUSH2 0x710 PUSH1 0x0 DUP1 MLOAD PUSH1 0x20 PUSH2 0x27D9 DUP4 CODECOPY DUP2 MLOAD SWAP2 MSTORE CALLER PUSH2 0xDB3 JUMP JUMPDEST ISZERO ISZERO PUSH1 0x1 EQ JUMPDEST PUSH2 0x732 JUMPI PUSH1 0x40 MLOAD PUSH3 0x461BCD PUSH1 0xE5 SHL DUP2 MSTORE PUSH1 0x4 ADD PUSH2 0x48C SWAP1 PUSH2 0x2475 JUMP JUMPDEST PUSH1 0x1 DUP4 ISZERO ISZERO EQ ISZERO PUSH2 0x776 JUMPI PUSH2 0x755 PUSH1 0x0 DUP1 MLOAD PUSH1 0x20 PUSH2 0x27F9 DUP4 CODECOPY DUP2 MLOAD SWAP2 MSTORE CALLER PUSH2 0xDB3 JUMP JUMPDEST ISZERO ISZERO PUSH1 0x1 EQ PUSH2 0x776 JUMPI PUSH1 0x40 MLOAD PUSH3 0x461BCD PUSH1 0xE5 SHL DUP2 MSTORE PUSH1 0x4 ADD PUSH2 0x48C SWAP1 PUSH2 0x24A2 JUMP JUMPDEST PUSH1 0x0 PUSH1 0x40 MLOAD DUP1 PUSH1 0x80 ADD PUSH1 0x40 MSTORE DUP1 DUP7 DUP2 MSTORE PUSH1 0x20 ADD DUP6 PUSH2 0x794 JUMPI ADDRESS PUSH2 0x796 JUMP JUMPDEST CALLER JUMPDEST PUSH1 0x1 PUSH1 0x1 PUSH1 0xA0 SHL SUB SWAP1 DUP2 AND DUP3 MSTORE PUSH1 0x1 PUSH1 0x1 PUSH1 0x80 SHL SUB PUSH1 0x20 DUP4 ADD DUP2 SWAP1 MSTORE PUSH1 0x40 SWAP3 DUP4 ADD MSTORE SWAP1 MLOAD PUSH4 0xFC6F7865 PUSH1 0xE0 SHL DUP2 MSTORE SWAP2 SWAP3 POP PUSH32 0x0 AND SWAP1 PUSH4 0xFC6F7865 SWAP1 PUSH2 0x7FE SWAP1 DUP5 SWAP1 PUSH1 0x4 ADD PUSH2 0x24C5 JUMP JUMPDEST PUSH1 0x40 DUP1 MLOAD DUP1 DUP4 SUB DUP2 PUSH1 0x0 DUP8 DUP1 EXTCODESIZE ISZERO DUP1 ISZERO PUSH2 0x817 JUMPI PUSH1 0x0 DUP1 REVERT JUMPDEST POP GAS CALL ISZERO DUP1 ISZERO PUSH2 0x82B JUMPI RETURNDATASIZE PUSH1 0x0 DUP1 RETURNDATACOPY RETURNDATASIZE PUSH1 0x0 REVERT JUMPDEST POP POP POP POP PUSH1 0x40 MLOAD RETURNDATASIZE PUSH1 0x1F NOT PUSH1 0x1F DUP3 ADD AND DUP3 ADD DUP1 PUSH1 0x40 MSTORE POP DUP2 ADD SWAP1 PUSH2 0x84F SWAP2 SWAP1 PUSH2 0x21A8 JUMP JUMPDEST PUSH1 0x40 MLOAD SWAP2 SWAP5 POP SWAP3 POP PUSH32 0xEAA34316C1AC0AC2B8445632FEF75DAD91F846CC69C40A558CCFD6E5700BB79A SWAP1 PUSH2 0x88A SWAP1 DUP8 SWAP1 DUP7 SWAP1 DUP7 SWAP1 DUP10 SWAP1 PUSH2 0x26C9 JUMP JUMPDEST PUSH1 0x40 MLOAD DUP1 SWAP2 SUB SWAP1 LOG1 POP SWAP3 POP SWAP3 SWAP1 POP JUMP JUMPDEST PUSH2 0x8B2 PUSH1 0x0 DUP1 MLOAD PUSH1 0x20 PUSH2 0x27F9 DUP4 CODECOPY DUP2 MLOAD SWAP2 MSTORE CALLER PUSH2 0xDB3 JUMP JUMPDEST ISZERO ISZERO PUSH1 0x1 EQ PUSH2 0x8D3 JUMPI PUSH1 0x40 MLOAD PUSH3 0x461BCD PUSH1 0xE5 SHL DUP2 MSTORE PUSH1 0x4 ADD PUSH2 0x48C SWAP1 PUSH2 0x24A2 JUMP JUMPDEST PUSH1 0x40 MLOAD PUSH4 0x21421707 PUSH1 0xE1 SHL DUP2 MSTORE PUSH1 0x1 PUSH1 0x1 PUSH1 0xA0 SHL SUB PUSH32 0x0 AND SWAP1 PUSH4 0x42842E0E SWAP1 PUSH2 0x923 SWAP1 ADDRESS SWAP1 DUP6 SWAP1 DUP8 SWAP1 PUSH1 0x4 ADD PUSH2 0x23DC JUMP JUMPDEST PUSH1 0x0 PUSH1 0x40 MLOAD DUP1 DUP4 SUB DUP2 PUSH1 0x0 DUP8 DUP1 EXTCODESIZE ISZERO DUP1 ISZERO PUSH2 0x93D JUMPI PUSH1 0x0 DUP1 REVERT JUMPDEST POP GAS CALL ISZERO DUP1 ISZERO PUSH2 0x951 JUMPI RETURNDATASIZE PUSH1 0x0 DUP1 RETURNDATACOPY RETURNDATASIZE PUSH1 0x0 REVERT JUMPDEST POP POP POP PUSH1 0x0 SWAP3 DUP4 MSTORE POP POP PUSH1 0x1 PUSH1 0x20 DUP2 SWAP1 MSTORE PUSH1 0x40 SWAP1 SWAP2 KECCAK256 DUP1 SLOAD PUSH1 0x1 PUSH1 0x1 PUSH1 0xA0 SHL SUB NOT AND DUP2 SSTORE ADD DUP1 SLOAD PUSH1 0x1 PUSH1 0x1 PUSH1 0xE8 SHL SUB NOT AND SWAP1 SSTORE JUMP JUMPDEST PUSH1 0x0 PUSH2 0x9A0 PUSH1 0x0 DUP1 MLOAD PUSH1 0x20 PUSH2 0x27F9 DUP4 CODECOPY DUP2 MLOAD SWAP2 MSTORE CALLER PUSH2 0xDB3 JUMP JUMPDEST ISZERO ISZERO PUSH1 0x1 EQ DUP1 PUSH2 0x9C9 JUMPI POP PUSH2 0x9C3 PUSH1 0x0 DUP1 MLOAD PUSH1 0x20 PUSH2 0x27D9 DUP4 CODECOPY DUP2 MLOAD SWAP2 MSTORE CALLER PUSH2 0xDB3 JUMP JUMPDEST ISZERO ISZERO PUSH1 0x1 EQ JUMPDEST PUSH2 0x9E5 JUMPI PUSH1 0x40 MLOAD PUSH3 0x461BCD PUSH1 0xE5 SHL DUP2 MSTORE PUSH1 0x4 ADD PUSH2 0x48C SWAP1 PUSH2 0x2475 JUMP JUMPDEST PUSH1 0x40 DUP1 MLOAD PUSH2 0x100 DUP2 ADD DUP3 MSTORE PUSH1 0x1 PUSH1 0x1 PUSH1 0xA0 SHL SUB DUP1 DUP11 AND DUP3 MSTORE DUP9 DUP2 AND PUSH1 0x20 DUP4 ADD MSTORE PUSH3 0xFFFFFF DUP9 AND DUP3 DUP5 ADD MSTORE ADDRESS PUSH1 0x60 DUP4 ADD MSTORE TIMESTAMP PUSH1 0x80 DUP4 ADD MSTORE PUSH1 0xA0 DUP3 ADD DUP8 SWAP1 MSTORE PUSH1 0xC0 DUP3 ADD DUP7 SWAP1 MSTORE DUP5 DUP2 AND PUSH1 0xE0 DUP4 ADD MSTORE SWAP2 MLOAD PUSH4 0x1B67C433 PUSH1 0xE3 SHL DUP2 MSTORE SWAP1 SWAP2 PUSH32 0x0 AND SWAP1 PUSH4 0xDB3E2198 SWAP1 PUSH2 0xA76 SWAP1 DUP5 SWAP1 PUSH1 0x4 ADD PUSH2 0x254B JUMP JUMPDEST PUSH1 0x20 PUSH1 0x40 MLOAD DUP1 DUP4 SUB DUP2 PUSH1 0x0 DUP8 DUP1 EXTCODESIZE ISZERO DUP1 ISZERO PUSH2 0xA90 JUMPI PUSH1 0x0 DUP1 REVERT JUMPDEST POP GAS CALL ISZERO DUP1 ISZERO PUSH2 0xAA4 JUMPI RETURNDATASIZE PUSH1 0x0 DUP1 RETURNDATACOPY RETURNDATASIZE PUSH1 0x0 REVERT JUMPDEST POP POP POP POP PUSH1 0x40 MLOAD RETURNDATASIZE PUSH1 0x1F NOT PUSH1 0x1F DUP3 ADD AND DUP3 ADD DUP1 PUSH1 0x40 MSTORE POP DUP2 ADD SWAP1 PUSH2 0xAC8 SWAP2 SWAP1 PUSH2 0x2104 JUMP JUMPDEST SWAP2 POP PUSH32 0x1F2C1DE040604EAF4A8C72B05BD7C16FAE213F15CBDE69ECF70DD3B97FEF1F2F DUP9 DUP9 DUP5 DUP9 PUSH1 0x40 MLOAD PUSH2 0xAFF SWAP5 SWAP4 SWAP3 SWAP2 SWAP1 PUSH2 0x2400 JUMP JUMPDEST PUSH1 0x40 MLOAD DUP1 SWAP2 SUB SWAP1 LOG1 POP SWAP7 SWAP6 POP POP POP POP POP POP JUMP JUMPDEST PUSH2 0xB2A PUSH1 0x0 DUP1 MLOAD PUSH1 0x20 PUSH2 0x27F9 DUP4 CODECOPY DUP2 MLOAD SWAP2 MSTORE CALLER PUSH2 0xDB3 JUMP JUMPDEST ISZERO ISZERO PUSH1 0x1 EQ PUSH2 0xB4B JUMPI PUSH1 0x40 MLOAD PUSH3 0x461BCD PUSH1 0xE5 SHL DUP2 MSTORE PUSH1 0x4 ADD PUSH2 0x48C SWAP1 PUSH2 0x24A2 JUMP JUMPDEST PUSH2 0xB76 DUP5 PUSH32 0x0 DUP5 PUSH2 0x18AE JUMP JUMPDEST PUSH2 0x604 DUP4 PUSH32 0x0 DUP4 PUSH2 0x18AE JUMP JUMPDEST PUSH1 0x0 DUP1 MLOAD PUSH1 0x20 PUSH2 0x27F9 DUP4 CODECOPY DUP2 MLOAD SWAP2 MSTORE DUP2 JUMP JUMPDEST PUSH2 0xBCB PUSH1 0x0 DUP1 MLOAD PUSH1 0x20 PUSH2 0x27F9 DUP4 CODECOPY DUP2 MLOAD SWAP2 MSTORE CALLER PUSH2 0xDB3 JUMP JUMPDEST ISZERO ISZERO PUSH1 0x1 EQ PUSH2 0xBEC JUMPI PUSH1 0x40 MLOAD PUSH3 0x461BCD PUSH1 0xE5 SHL DUP2 MSTORE PUSH1 0x4 ADD PUSH2 0x48C SWAP1 PUSH2 0x24A2 JUMP JUMPDEST PUSH1 0x0 DUP4 DUP2 MSTORE PUSH1 0x1 PUSH1 0x20 DUP2 SWAP1 MSTORE PUSH1 0x40 SWAP1 SWAP2 KECCAK256 DUP1 SLOAD SWAP2 ADD SLOAD PUSH2 0x4A0 SWAP2 PUSH1 0x1 PUSH1 0x1 PUSH1 0xA0 SHL SUB SWAP1 DUP2 AND SWAP2 AND DUP5 DUP5 PUSH2 0x12C0 JUMP JUMPDEST PUSH1 0x0 DUP1 PUSH2 0xC35 PUSH1 0x0 DUP1 MLOAD PUSH1 0x20 PUSH2 0x27F9 DUP4 CODECOPY DUP2 MLOAD SWAP2 MSTORE CALLER PUSH2 0xDB3 JUMP JUMPDEST ISZERO ISZERO PUSH1 0x1 EQ DUP1 PUSH2 0xC5E JUMPI POP PUSH2 0xC58 PUSH1 0x0 DUP1 MLOAD PUSH1 0x20 PUSH2 0x27D9 DUP4 CODECOPY DUP2 MLOAD SWAP2 MSTORE CALLER PUSH2 0xDB3 JUMP JUMPDEST ISZERO ISZERO PUSH1 0x1 EQ JUMPDEST PUSH2 0xC7A JUMPI PUSH1 0x40 MLOAD PUSH3 0x461BCD PUSH1 0xE5 SHL DUP2 MSTORE PUSH1 0x4 ADD PUSH2 0x48C SWAP1 PUSH2 0x2475 JUMP JUMPDEST PUSH1 0x40 DUP1 MLOAD PUSH1 0xA0 DUP2 ADD DUP3 MSTORE DUP8 DUP2 MSTORE PUSH1 0x1 PUSH1 0x1 PUSH1 0x80 SHL SUB DUP8 AND PUSH1 0x20 DUP3 ADD MSTORE DUP1 DUP3 ADD DUP7 SWAP1 MSTORE PUSH1 0x60 DUP2 ADD DUP6 SWAP1 MSTORE TIMESTAMP PUSH1 0x80 DUP3 ADD MSTORE SWAP1 MLOAD PUSH4 0x624E65F PUSH1 0xE1 SHL DUP2 MSTORE PUSH1 0x1 PUSH1 0x1 PUSH1 0xA0 SHL SUB PUSH32 0x0 AND SWAP1 PUSH4 0xC49CCBE SWAP1 PUSH2 0xCF4 SWAP1 DUP5 SWAP1 PUSH1 0x4 ADD PUSH2 0x2508 JUMP JUMPDEST PUSH1 0x40 DUP1 MLOAD DUP1 DUP4 SUB DUP2 PUSH1 0x0 DUP8 DUP1 EXTCODESIZE ISZERO DUP1 ISZERO PUSH2 0xD0D JUMPI PUSH1 0x0 DUP1 REVERT JUMPDEST POP GAS CALL ISZERO DUP1 ISZERO PUSH2 0xD21 JUMPI RETURNDATASIZE PUSH1 0x0 DUP1 RETURNDATACOPY RETURNDATASIZE PUSH1 0x0 REVERT JUMPDEST POP POP POP POP PUSH1 0x40 MLOAD RETURNDATASIZE PUSH1 0x1F NOT PUSH1 0x1F DUP3 ADD AND DUP3 ADD DUP1 PUSH1 0x40 MSTORE POP DUP2 ADD SWAP1 PUSH2 0xD45 SWAP2 SWAP1 PUSH2 0x21A8 JUMP JUMPDEST PUSH1 0x40 MLOAD SWAP2 SWAP5 POP SWAP3 POP PUSH32 0xC79CB6614F7BCC31F0121C4DB623A782836F42B2D8E5290A19340BDBC25032F7 SWAP1 PUSH2 0xD80 SWAP1 DUP10 SWAP1 DUP7 SWAP1 DUP7 SWAP1 DUP12 SWAP1 PUSH2 0x26E6 JUMP JUMPDEST PUSH1 0x40 MLOAD DUP1 SWAP2 SUB SWAP1 LOG1 POP SWAP5 POP SWAP5 SWAP3 POP POP POP JUMP JUMPDEST PUSH1 0x0 DUP3 DUP2 MSTORE PUSH1 0x20 DUP2 SWAP1 MSTORE PUSH1 0x40 DUP2 KECCAK256 PUSH2 0xDAA SWAP1 DUP4 PUSH2 0x1ACB JUMP JUMPDEST SWAP1 POP JUMPDEST SWAP3 SWAP2 POP POP JUMP JUMPDEST PUSH1 0x0 DUP3 DUP2 MSTORE PUSH1 0x20 DUP2 SWAP1 MSTORE PUSH1 0x40 DUP2 KECCAK256 PUSH2 0xDAA SWAP1 DUP4 PUSH2 0x1AD7 JUMP JUMPDEST PUSH1 0x0 DUP2 JUMP JUMPDEST PUSH2 0xDE8 PUSH1 0x0 DUP1 MLOAD PUSH1 0x20 PUSH2 0x27F9 DUP4 CODECOPY DUP2 MLOAD SWAP2 MSTORE CALLER PUSH2 0xDB3 JUMP JUMPDEST ISZERO ISZERO PUSH1 0x1 EQ PUSH2 0xE09 JUMPI PUSH1 0x40 MLOAD PUSH3 0x461BCD PUSH1 0xE5 SHL DUP2 MSTORE PUSH1 0x4 ADD PUSH2 0x48C SWAP1 PUSH2 0x24A2 JUMP JUMPDEST PUSH2 0xE38 DUP3 PUSH32 0x0 PUSH1 0x1 PUSH1 0xFF SHL PUSH2 0x18AE JUMP JUMPDEST PUSH2 0xE67 DUP2 PUSH32 0x0 PUSH1 0x1 PUSH1 0xFF SHL PUSH2 0x18AE JUMP JUMPDEST PUSH2 0xE96 DUP3 PUSH32 0x0 PUSH1 0x1 PUSH1 0xFF SHL PUSH2 0x18AE JUMP JUMPDEST PUSH2 0x66D DUP2 PUSH32 0x0 PUSH1 0x1 PUSH1 0xFF SHL PUSH2 0x18AE JUMP JUMPDEST PUSH1 0x1 PUSH1 0x20 DUP2 SWAP1 MSTORE PUSH1 0x0 SWAP2 DUP3 MSTORE PUSH1 0x40 SWAP1 SWAP2 KECCAK256 DUP1 SLOAD SWAP2 ADD SLOAD PUSH1 0x1 PUSH1 0x1 PUSH1 0xA0 SHL SUB SWAP2 DUP3 AND SWAP2 DUP2 AND SWAP1 PUSH3 0xFFFFFF PUSH1 0x1 PUSH1 0xA0 SHL DUP3 DIV AND SWAP1 PUSH1 0x1 PUSH1 0xB8 SHL DUP2 DIV PUSH1 0x2 SWAP1 DUP2 SIGNEXTEND SWAP2 PUSH1 0x1 PUSH1 0xD0 SHL SWAP1 DIV SWAP1 SIGNEXTEND DUP6 JUMP JUMPDEST PUSH32 0x0 DUP2 JUMP JUMPDEST PUSH1 0x0 PUSH2 0xF4E PUSH1 0x0 DUP1 MLOAD PUSH1 0x20 PUSH2 0x27F9 DUP4 CODECOPY DUP2 MLOAD SWAP2 MSTORE CALLER PUSH2 0xDB3 JUMP JUMPDEST ISZERO ISZERO PUSH1 0x1 EQ DUP1 PUSH2 0xF77 JUMPI POP PUSH2 0xF71 PUSH1 0x0 DUP1 MLOAD PUSH1 0x20 PUSH2 0x27D9 DUP4 CODECOPY DUP2 MLOAD SWAP2 MSTORE CALLER PUSH2 0xDB3 JUMP JUMPDEST ISZERO ISZERO PUSH1 0x1 EQ JUMPDEST PUSH2 0xF93 JUMPI PUSH1 0x40 MLOAD PUSH3 0x461BCD PUSH1 0xE5 SHL DUP2 MSTORE PUSH1 0x4 ADD PUSH2 0x48C SWAP1 PUSH2 0x2475 JUMP JUMPDEST PUSH1 0x40 DUP1 MLOAD PUSH2 0x100 DUP2 ADD DUP3 MSTORE PUSH1 0x1 PUSH1 0x1 PUSH1 0xA0 SHL SUB DUP1 DUP11 AND DUP3 MSTORE DUP9 DUP2 AND PUSH1 0x20 DUP4 ADD MSTORE PUSH3 0xFFFFFF DUP9 AND DUP3 DUP5 ADD MSTORE ADDRESS PUSH1 0x60 DUP4 ADD MSTORE TIMESTAMP PUSH1 0x80 DUP4 ADD MSTORE PUSH1 0xA0 DUP3 ADD DUP8 SWAP1 MSTORE PUSH1 0xC0 DUP3 ADD DUP7 SWAP1 MSTORE DUP5 DUP2 AND PUSH1 0xE0 DUP4 ADD MSTORE SWAP2 MLOAD PUSH4 0x414BF389 PUSH1 0xE0 SHL DUP2 MSTORE SWAP1 SWAP2 PUSH32 0x0 AND SWAP1 PUSH4 0x414BF389 SWAP1 PUSH2 0x1024 SWAP1 DUP5 SWAP1 PUSH1 0x4 ADD PUSH2 0x254B JUMP JUMPDEST PUSH1 0x20 PUSH1 0x40 MLOAD DUP1 DUP4 SUB DUP2 PUSH1 0x0 DUP8 DUP1 EXTCODESIZE ISZERO DUP1 ISZERO PUSH2 0x103E JUMPI PUSH1 0x0 DUP1 REVERT JUMPDEST POP GAS CALL ISZERO DUP1 ISZERO PUSH2 0x1052 JUMPI RETURNDATASIZE PUSH1 0x0 DUP1 RETURNDATACOPY RETURNDATASIZE PUSH1 0x0 REVERT JUMPDEST POP POP POP POP PUSH1 0x40 MLOAD RETURNDATASIZE PUSH1 0x1F NOT PUSH1 0x1F DUP3 ADD AND DUP3 ADD DUP1 PUSH1 0x40 MSTORE POP DUP2 ADD SWAP1 PUSH2 0x1076 SWAP2 SWAP1 PUSH2 0x2104 JUMP JUMPDEST SWAP2 POP PUSH32 0x1F2C1DE040604EAF4A8C72B05BD7C16FAE213F15CBDE69ECF70DD3B97FEF1F2F DUP9 DUP9 DUP8 DUP6 PUSH1 0x40 MLOAD PUSH2 0xAFF SWAP5 SWAP4 SWAP3 SWAP2 SWAP1 PUSH2 0x2400 JUMP JUMPDEST PUSH32 0x0 DUP2 JUMP JUMPDEST PUSH1 0x0 DUP1 PUSH1 0x0 PUSH2 0x10EE PUSH1 0x0 DUP1 MLOAD PUSH1 0x20 PUSH2 0x27F9 DUP4 CODECOPY DUP2 MLOAD SWAP2 MSTORE CALLER PUSH2 0xDB3 JUMP JUMPDEST ISZERO ISZERO PUSH1 0x1 EQ DUP1 PUSH2 0x1117 JUMPI POP PUSH2 0x1111 PUSH1 0x0 DUP1 MLOAD PUSH1 0x20 PUSH2 0x27D9 DUP4 CODECOPY DUP2 MLOAD SWAP2 MSTORE CALLER PUSH2 0xDB3 JUMP JUMPDEST ISZERO ISZERO PUSH1 0x1 EQ JUMPDEST PUSH2 0x1133 JUMPI PUSH1 0x40 MLOAD PUSH3 0x461BCD PUSH1 0xE5 SHL DUP2 MSTORE PUSH1 0x4 ADD PUSH2 0x48C SWAP1 PUSH2 0x2475 JUMP JUMPDEST PUSH1 0x40 DUP1 MLOAD PUSH1 0xC0 DUP2 ADD DUP3 MSTORE DUP10 DUP2 MSTORE PUSH1 0x20 DUP2 ADD DUP10 SWAP1 MSTORE DUP1 DUP3 ADD DUP9 SWAP1 MSTORE PUSH1 0x60 DUP2 ADD DUP8 SWAP1 MSTORE PUSH1 0x80 DUP2 ADD DUP7 SWAP1 MSTORE TIMESTAMP PUSH1 0xA0 DUP3 ADD MSTORE SWAP1 MLOAD PUSH4 0x219F5D17 PUSH1 0xE0 SHL DUP2 MSTORE PUSH1 0x1 PUSH1 0x1 PUSH1 0xA0 SHL SUB PUSH32 0x0 AND SWAP1 PUSH4 0x219F5D17 SWAP1 PUSH2 0x11AC SWAP1 DUP5 SWAP1 PUSH1 0x4 ADD PUSH2 0x255A JUMP JUMPDEST PUSH1 0x60 PUSH1 0x40 MLOAD DUP1 DUP4 SUB DUP2 PUSH1 0x0 DUP8 DUP1 EXTCODESIZE ISZERO DUP1 ISZERO PUSH2 0x11C6 JUMPI PUSH1 0x0 DUP1 REVERT JUMPDEST POP GAS CALL ISZERO DUP1 ISZERO PUSH2 0x11DA JUMPI RETURNDATASIZE PUSH1 0x0 DUP1 RETURNDATACOPY RETURNDATASIZE PUSH1 0x0 REVERT JUMPDEST POP POP POP POP PUSH1 0x40 MLOAD RETURNDATASIZE PUSH1 0x1F NOT PUSH1 0x1F DUP3 ADD AND DUP3 ADD DUP1 PUSH1 0x40 MSTORE POP DUP2 ADD SWAP1 PUSH2 0x11FE SWAP2 SWAP1 PUSH2 0x20CE JUMP JUMPDEST PUSH1 0x40 MLOAD SWAP3 SWAP7 POP SWAP1 SWAP5 POP SWAP3 POP PUSH32 0x2D6EDBED0A944A56E78D8CED0BC4794533B38938655F47C5A423559A1163B104 SWAP1 PUSH2 0x123C SWAP1 DUP12 SWAP1 DUP7 SWAP1 DUP7 SWAP1 DUP10 SWAP1 PUSH2 0x26E6 JUMP JUMPDEST PUSH1 0x40 MLOAD DUP1 SWAP2 SUB SWAP1 LOG1 POP SWAP6 POP SWAP6 POP SWAP6 SWAP3 POP POP POP JUMP JUMPDEST PUSH1 0x0 DUP2 DUP2 MSTORE PUSH1 0x20 DUP2 SWAP1 MSTORE PUSH1 0x40 DUP2 KECCAK256 PUSH2 0xDAD SWAP1 PUSH2 0x1AEC JUMP JUMPDEST PUSH1 0x0 DUP3 DUP2 MSTORE PUSH1 0x20 DUP2 SWAP1 MSTORE PUSH1 0x40 SWAP1 KECCAK256 PUSH1 0x2 ADD SLOAD PUSH2 0x1285 SWAP1 PUSH2 0x33C PUSH2 0x19F5 JUMP JUMPDEST PUSH2 0x6C8 JUMPI PUSH1 0x40 MLOAD PUSH3 0x461BCD PUSH1 0xE5 SHL DUP2 MSTORE PUSH1 0x4 ADD DUP1 DUP1 PUSH1 0x20 ADD DUP3 DUP2 SUB DUP3 MSTORE PUSH1 0x30 DUP2 MSTORE PUSH1 0x20 ADD DUP1 PUSH2 0x27A9 PUSH1 0x30 SWAP2 CODECOPY PUSH1 0x40 ADD SWAP2 POP POP PUSH1 0x40 MLOAD DUP1 SWAP2 SUB SWAP1 REVERT JUMPDEST PUSH2 0x12D8 PUSH1 0x0 DUP1 MLOAD PUSH1 0x20 PUSH2 0x27F9 DUP4 CODECOPY DUP2 MLOAD SWAP2 MSTORE CALLER PUSH2 0xDB3 JUMP JUMPDEST ISZERO ISZERO PUSH1 0x1 EQ PUSH2 0x12F9 JUMPI PUSH1 0x40 MLOAD PUSH3 0x461BCD PUSH1 0xE5 SHL DUP2 MSTORE PUSH1 0x4 ADD PUSH2 0x48C SWAP1 PUSH2 0x24A2 JUMP JUMPDEST PUSH2 0x1305 DUP5 CALLER ADDRESS DUP6 PUSH2 0x1AF7 JUMP JUMPDEST PUSH2 0x604 DUP4 CALLER ADDRESS DUP5 PUSH2 0x1AF7 JUMP JUMPDEST PUSH1 0x0 DUP1 PUSH1 0x0 DUP1 PUSH2 0x132F PUSH1 0x0 DUP1 MLOAD PUSH1 0x20 PUSH2 0x27F9 DUP4 CODECOPY DUP2 MLOAD SWAP2 MSTORE CALLER PUSH2 0xDB3 JUMP JUMPDEST ISZERO ISZERO PUSH1 0x1 EQ DUP1 PUSH2 0x1358 JUMPI POP PUSH2 0x1352 PUSH1 0x0 DUP1 MLOAD PUSH1 0x20 PUSH2 0x27D9 DUP4 CODECOPY DUP2 MLOAD SWAP2 MSTORE CALLER PUSH2 0xDB3 JUMP JUMPDEST ISZERO ISZERO PUSH1 0x1 EQ JUMPDEST PUSH2 0x1374 JUMPI PUSH1 0x40 MLOAD PUSH3 0x461BCD PUSH1 0xE5 SHL DUP2 MSTORE PUSH1 0x4 ADD PUSH2 0x48C SWAP1 PUSH2 0x2475 JUMP JUMPDEST PUSH1 0x0 PUSH1 0x40 MLOAD DUP1 PUSH2 0x160 ADD PUSH1 0x40 MSTORE DUP1 DUP16 PUSH1 0x1 PUSH1 0x1 PUSH1 0xA0 SHL SUB AND DUP2 MSTORE PUSH1 0x20 ADD DUP15 PUSH1 0x1 PUSH1 0x1 PUSH1 0xA0 SHL SUB AND DUP2 MSTORE PUSH1 0x20 ADD DUP14 PUSH3 0xFFFFFF AND DUP2 MSTORE PUSH1 0x20 ADD DUP13 PUSH1 0x2 SIGNEXTEND DUP2 MSTORE PUSH1 0x20 ADD DUP12 PUSH1 0x2 SIGNEXTEND DUP2 MSTORE PUSH1 0x20 ADD DUP11 DUP2 MSTORE PUSH1 0x20 ADD DUP10 DUP2 MSTORE PUSH1 0x20 ADD DUP9 DUP2 MSTORE PUSH1 0x20 ADD DUP8 DUP2 MSTORE PUSH1 0x20 ADD ADDRESS PUSH1 0x1 PUSH1 0x1 PUSH1 0xA0 SHL SUB AND DUP2 MSTORE PUSH1 0x20 ADD TIMESTAMP PUSH1 0x64 ADD DUP2 MSTORE POP SWAP1 POP PUSH32 0x0 PUSH1 0x1 PUSH1 0x1 PUSH1 0xA0 SHL SUB AND PUSH4 0x88316456 DUP3 PUSH1 0x40 MLOAD DUP3 PUSH4 0xFFFFFFFF AND PUSH1 0xE0 SHL DUP2 MSTORE PUSH1 0x4 ADD PUSH2 0x1439 SWAP2 SWAP1 PUSH2 0x259E JUMP JUMPDEST PUSH1 0x80 PUSH1 0x40 MLOAD DUP1 DUP4 SUB DUP2 PUSH1 0x0 DUP8 DUP1 EXTCODESIZE ISZERO DUP1 ISZERO PUSH2 0x1453 JUMPI PUSH1 0x0 DUP1 REVERT JUMPDEST POP GAS CALL ISZERO DUP1 ISZERO PUSH2 0x1467 JUMPI RETURNDATASIZE PUSH1 0x0 DUP1 RETURNDATACOPY RETURNDATASIZE PUSH1 0x0 REVERT JUMPDEST POP POP POP POP PUSH1 0x40 MLOAD RETURNDATASIZE PUSH1 0x1F NOT PUSH1 0x1F DUP3 ADD AND DUP3 ADD DUP1 PUSH1 0x40 MSTORE POP DUP2 ADD SWAP1 PUSH2 0x148B SWAP2 SWAP1 PUSH2 0x216B JUMP JUMPDEST SWAP3 SWAP8 POP SWAP1 SWAP6 POP SWAP4 POP SWAP2 POP PUSH2 0x149E DUP6 PUSH2 0x1656 JUMP JUMPDEST POP SWAP10 POP SWAP10 POP SWAP10 POP SWAP10 SWAP6 POP POP POP POP POP POP JUMP JUMPDEST PUSH2 0x14C7 PUSH1 0x0 DUP1 MLOAD PUSH1 0x20 PUSH2 0x27F9 DUP4 CODECOPY DUP2 MLOAD SWAP2 MSTORE CALLER PUSH2 0xDB3 JUMP JUMPDEST ISZERO ISZERO PUSH1 0x1 EQ PUSH2 0x14E8 JUMPI PUSH1 0x40 MLOAD PUSH3 0x461BCD PUSH1 0xE5 SHL DUP2 MSTORE PUSH1 0x4 ADD PUSH2 0x48C SWAP1 PUSH2 0x24A2 JUMP JUMPDEST PUSH2 0x4A0 DUP4 DUP4 DUP4 PUSH2 0x18AE JUMP JUMPDEST PUSH1 0x0 PUSH2 0xDAA DUP4 PUSH1 0x1 PUSH1 0x1 PUSH1 0xA0 SHL SUB DUP5 AND PUSH2 0x1C47 JUMP JUMPDEST PUSH1 0x40 DUP1 MLOAD PUSH1 0x1 PUSH1 0x1 PUSH1 0xA0 SHL SUB DUP5 DUP2 AND PUSH1 0x24 DUP4 ADD MSTORE PUSH1 0x44 DUP1 DUP4 ADD DUP6 SWAP1 MSTORE DUP4 MLOAD DUP1 DUP5 SUB SWAP1 SWAP2 ADD DUP2 MSTORE PUSH1 0x64 SWAP1 SWAP3 ADD DUP4 MSTORE PUSH1 0x20 DUP3 ADD DUP1 MLOAD PUSH1 0x1 PUSH1 0x1 PUSH1 0xE0 SHL SUB AND PUSH4 0xA9059CBB PUSH1 0xE0 SHL OR DUP2 MSTORE SWAP3 MLOAD DUP3 MLOAD PUSH1 0x0 SWAP5 DUP6 SWAP5 SWAP4 DUP10 AND SWAP4 SWAP3 SWAP2 DUP3 SWAP2 SWAP1 DUP1 DUP4 DUP4 JUMPDEST PUSH1 0x20 DUP4 LT PUSH2 0x1584 JUMPI DUP1 MLOAD DUP3 MSTORE PUSH1 0x1F NOT SWAP1 SWAP3 ADD SWAP2 PUSH1 0x20 SWAP2 DUP3 ADD SWAP2 ADD PUSH2 0x1565 JUMP JUMPDEST PUSH1 0x1 DUP4 PUSH1 0x20 SUB PUSH2 0x100 EXP SUB DUP1 NOT DUP3 MLOAD AND DUP2 DUP5 MLOAD AND DUP1 DUP3 OR DUP6 MSTORE POP POP POP POP POP POP SWAP1 POP ADD SWAP2 POP POP PUSH1 0x0 PUSH1 0x40 MLOAD DUP1 DUP4 SUB DUP2 PUSH1 0x0 DUP7 GAS CALL SWAP2 POP POP RETURNDATASIZE DUP1 PUSH1 0x0 DUP2 EQ PUSH2 0x15E6 JUMPI PUSH1 0x40 MLOAD SWAP2 POP PUSH1 0x1F NOT PUSH1 0x3F RETURNDATASIZE ADD AND DUP3 ADD PUSH1 0x40 MSTORE RETURNDATASIZE DUP3 MSTORE RETURNDATASIZE PUSH1 0x0 PUSH1 0x20 DUP5 ADD RETURNDATACOPY PUSH2 0x15EB JUMP JUMPDEST PUSH1 0x60 SWAP2 POP JUMPDEST POP SWAP2 POP SWAP2 POP DUP2 DUP1 ISZERO PUSH2 0x1619 JUMPI POP DUP1 MLOAD ISZERO DUP1 PUSH2 0x1619 JUMPI POP DUP1 DUP1 PUSH1 0x20 ADD SWAP1 MLOAD PUSH1 0x20 DUP2 LT ISZERO PUSH2 0x1616 JUMPI PUSH1 0x0 DUP1 REVERT JUMPDEST POP MLOAD JUMPDEST PUSH2 0x164F JUMPI PUSH1 0x40 DUP1 MLOAD PUSH3 0x461BCD PUSH1 0xE5 SHL DUP2 MSTORE PUSH1 0x20 PUSH1 0x4 DUP3 ADD MSTORE PUSH1 0x2 PUSH1 0x24 DUP3 ADD MSTORE PUSH2 0x14D5 PUSH1 0xF2 SHL PUSH1 0x44 DUP3 ADD MSTORE SWAP1 MLOAD SWAP1 DUP2 SWAP1 SUB PUSH1 0x64 ADD SWAP1 REVERT JUMPDEST POP POP POP POP POP JUMP JUMPDEST PUSH1 0x0 DUP1 PUSH1 0x0 DUP1 PUSH1 0x0 DUP1 PUSH32 0x0 PUSH1 0x1 PUSH1 0x1 PUSH1 0xA0 SHL SUB AND PUSH4 0x99FBAB88 DUP9 PUSH1 0x40 MLOAD DUP3 PUSH4 0xFFFFFFFF AND PUSH1 0xE0 SHL DUP2 MSTORE PUSH1 0x4 ADD PUSH2 0x16AB SWAP2 SWAP1 PUSH2 0x2434 JUMP JUMPDEST PUSH2 0x180 PUSH1 0x40 MLOAD DUP1 DUP4 SUB DUP2 DUP7 DUP1 EXTCODESIZE ISZERO DUP1 ISZERO PUSH2 0x16C4 JUMPI PUSH1 0x0 DUP1 REVERT JUMPDEST POP GAS STATICCALL ISZERO DUP1 ISZERO PUSH2 0x16D8 JUMPI RETURNDATASIZE PUSH1 0x0 DUP1 RETURNDATACOPY RETURNDATASIZE PUSH1 0x0 REVERT JUMPDEST POP POP POP POP PUSH1 0x40 MLOAD RETURNDATASIZE PUSH1 0x1F NOT PUSH1 0x1F DUP3 ADD AND DUP3 ADD DUP1 PUSH1 0x40 MSTORE POP DUP2 ADD SWAP1 PUSH2 0x16FC SWAP2 SWAP1 PUSH2 0x2230 JUMP JUMPDEST POP POP POP POP POP SWAP7 POP SWAP7 POP SWAP7 POP SWAP7 POP SWAP7 POP SWAP7 POP POP ADDRESS PUSH1 0x1 PUSH1 0x1 PUSH1 0xA0 SHL SUB AND DUP7 PUSH1 0x1 PUSH1 0x1 PUSH1 0xA0 SHL SUB AND EQ PUSH2 0x173F JUMPI PUSH1 0x40 MLOAD PUSH3 0x461BCD PUSH1 0xE5 SHL DUP2 MSTORE PUSH1 0x4 ADD PUSH2 0x48C SWAP1 PUSH2 0x2452 JUMP JUMPDEST PUSH1 0x40 MLOAD DUP1 PUSH1 0xA0 ADD PUSH1 0x40 MSTORE DUP1 DUP7 PUSH1 0x1 PUSH1 0x1 PUSH1 0xA0 SHL SUB AND DUP2 MSTORE PUSH1 0x20 ADD DUP6 PUSH1 0x1 PUSH1 0x1 PUSH1 0xA0 SHL SUB AND DUP2 MSTORE PUSH1 0x20 ADD DUP5 PUSH3 0xFFFFFF AND DUP2 MSTORE PUSH1 0x20 ADD DUP4 PUSH1 0x2 SIGNEXTEND DUP2 MSTORE PUSH1 0x20 ADD DUP3 PUSH1 0x2 SIGNEXTEND DUP2 MSTORE POP PUSH1 0x1 PUSH1 0x0 DUP10 DUP2 MSTORE PUSH1 0x20 ADD SWAP1 DUP2 MSTORE PUSH1 0x20 ADD PUSH1 0x0 KECCAK256 PUSH1 0x0 DUP3 ADD MLOAD DUP2 PUSH1 0x0 ADD PUSH1 0x0 PUSH2 0x100 EXP DUP2 SLOAD DUP2 PUSH1 0x1 PUSH1 0x1 PUSH1 0xA0 SHL SUB MUL NOT AND SWAP1 DUP4 PUSH1 0x1 PUSH1 0x1 PUSH1 0xA0 SHL SUB AND MUL OR SWAP1 SSTORE POP PUSH1 0x20 DUP3 ADD MLOAD DUP2 PUSH1 0x1 ADD PUSH1 0x0 PUSH2 0x100 EXP DUP2 SLOAD DUP2 PUSH1 0x1 PUSH1 0x1 PUSH1 0xA0 SHL SUB MUL NOT AND SWAP1 DUP4 PUSH1 0x1 PUSH1 0x1 PUSH1 0xA0 SHL SUB AND MUL OR SWAP1 SSTORE POP PUSH1 0x40 DUP3 ADD MLOAD DUP2 PUSH1 0x1 ADD PUSH1 0x14 PUSH2 0x100 EXP DUP2 SLOAD DUP2 PUSH3 0xFFFFFF MUL NOT AND SWAP1 DUP4 PUSH3 0xFFFFFF AND MUL OR SWAP1 SSTORE POP PUSH1 0x60 DUP3 ADD MLOAD DUP2 PUSH1 0x1 ADD PUSH1 0x17 PUSH2 0x100 EXP DUP2 SLOAD DUP2 PUSH3 0xFFFFFF MUL NOT AND SWAP1 DUP4 PUSH1 0x2 SIGNEXTEND PUSH3 0xFFFFFF AND MUL OR SWAP1 SSTORE POP PUSH1 0x80 DUP3 ADD MLOAD DUP2 PUSH1 0x1 ADD PUSH1 0x1A PUSH2 0x100 EXP DUP2 SLOAD DUP2 PUSH3 0xFFFFFF MUL NOT AND SWAP1 DUP4 PUSH1 0x2 SIGNEXTEND PUSH3 0xFFFFFF AND MUL OR SWAP1 SSTORE POP SWAP1 POP POP PUSH32 0xC98B6CEF6BCB7A4F274AB1045EAD0065D8A07DF11B545D8DC8BD25F58B39D071 DUP8 DUP7 DUP7 DUP7 PUSH1 0x40 MLOAD PUSH2 0x189D SWAP5 SWAP4 SWAP3 SWAP2 SWAP1 PUSH2 0x266D JUMP JUMPDEST PUSH1 0x40 MLOAD DUP1 SWAP2 SUB SWAP1 LOG1 POP POP POP POP POP POP POP JUMP JUMPDEST PUSH1 0x40 DUP1 MLOAD PUSH1 0x1 PUSH1 0x1 PUSH1 0xA0 SHL SUB DUP5 DUP2 AND PUSH1 0x24 DUP4 ADD MSTORE PUSH1 0x44 DUP1 DUP4 ADD DUP6 SWAP1 MSTORE DUP4 MLOAD DUP1 DUP5 SUB SWAP1 SWAP2 ADD DUP2 MSTORE PUSH1 0x64 SWAP1 SWAP3 ADD DUP4 MSTORE PUSH1 0x20 DUP3 ADD DUP1 MLOAD PUSH1 0x1 PUSH1 0x1 PUSH1 0xE0 SHL SUB AND PUSH4 0x95EA7B3 PUSH1 0xE0 SHL OR DUP2 MSTORE SWAP3 MLOAD DUP3 MLOAD PUSH1 0x0 SWAP5 DUP6 SWAP5 SWAP4 DUP10 AND SWAP4 SWAP3 SWAP2 DUP3 SWAP2 SWAP1 DUP1 DUP4 DUP4 JUMPDEST PUSH1 0x20 DUP4 LT PUSH2 0x192A JUMPI DUP1 MLOAD DUP3 MSTORE PUSH1 0x1F NOT SWAP1 SWAP3 ADD SWAP2 PUSH1 0x20 SWAP2 DUP3 ADD SWAP2 ADD PUSH2 0x190B JUMP JUMPDEST PUSH1 0x1 DUP4 PUSH1 0x20 SUB PUSH2 0x100 EXP SUB DUP1 NOT DUP3 MLOAD AND DUP2 DUP5 MLOAD AND DUP1 DUP3 OR DUP6 MSTORE POP POP POP POP POP POP SWAP1 POP ADD SWAP2 POP POP PUSH1 0x0 PUSH1 0x40 MLOAD DUP1 DUP4 SUB DUP2 PUSH1 0x0 DUP7 GAS CALL SWAP2 POP POP RETURNDATASIZE DUP1 PUSH1 0x0 DUP2 EQ PUSH2 0x198C JUMPI PUSH1 0x40 MLOAD SWAP2 POP PUSH1 0x1F NOT PUSH1 0x3F RETURNDATASIZE ADD AND DUP3 ADD PUSH1 0x40 MSTORE RETURNDATASIZE DUP3 MSTORE RETURNDATASIZE PUSH1 0x0 PUSH1 0x20 DUP5 ADD RETURNDATACOPY PUSH2 0x1991 JUMP JUMPDEST PUSH1 0x60 SWAP2 POP JUMPDEST POP SWAP2 POP SWAP2 POP DUP2 DUP1 ISZERO PUSH2 0x19BF JUMPI POP DUP1 MLOAD ISZERO DUP1 PUSH2 0x19BF JUMPI POP DUP1 DUP1 PUSH1 0x20 ADD SWAP1 MLOAD PUSH1 0x20 DUP2 LT ISZERO PUSH2 0x19BC JUMPI PUSH1 0x0 DUP1 REVERT JUMPDEST POP MLOAD JUMPDEST PUSH2 0x164F JUMPI PUSH1 0x40 DUP1 MLOAD PUSH3 0x461BCD PUSH1 0xE5 SHL DUP2 MSTORE PUSH1 0x20 PUSH1 0x4 DUP3 ADD MSTORE PUSH1 0x2 PUSH1 0x24 DUP3 ADD MSTORE PUSH2 0x5341 PUSH1 0xF0 SHL PUSH1 0x44 DUP3 ADD MSTORE SWAP1 MLOAD SWAP1 DUP2 SWAP1 SUB PUSH1 0x64 ADD SWAP1 REVERT JUMPDEST CALLER SWAP1 JUMP JUMPDEST PUSH1 0x0 DUP3 DUP2 MSTORE PUSH1 0x20 DUP2 SWAP1 MSTORE PUSH1 0x40 SWAP1 KECCAK256 PUSH2 0x1A11 SWAP1 DUP3 PUSH2 0x14F3 JUMP JUMPDEST ISZERO PUSH2 0x66D JUMPI PUSH2 0x1A1E PUSH2 0x19F5 JUMP JUMPDEST PUSH1 0x1 PUSH1 0x1 PUSH1 0xA0 SHL SUB AND DUP2 PUSH1 0x1 PUSH1 0x1 PUSH1 0xA0 SHL SUB AND DUP4 PUSH32 0x2F8788117E7EFF1D82E926EC794901D17C78024A50270940304540A733656F0D PUSH1 0x40 MLOAD PUSH1 0x40 MLOAD DUP1 SWAP2 SUB SWAP1 LOG4 POP POP JUMP JUMPDEST PUSH1 0x0 DUP3 DUP2 MSTORE PUSH1 0x20 DUP2 SWAP1 MSTORE PUSH1 0x40 SWAP1 KECCAK256 PUSH2 0x1A7A SWAP1 DUP3 PUSH2 0x1C91 JUMP JUMPDEST ISZERO PUSH2 0x66D JUMPI PUSH2 0x1A87 PUSH2 0x19F5 JUMP JUMPDEST PUSH1 0x1 PUSH1 0x1 PUSH1 0xA0 SHL SUB AND DUP2 PUSH1 0x1 PUSH1 0x1 PUSH1 0xA0 SHL SUB AND DUP4 PUSH32 0xF6391F5C32D9C69D2A47EA670B442974B53935D1EDC7FD64EB21E047A839171B PUSH1 0x40 MLOAD PUSH1 0x40 MLOAD DUP1 SWAP2 SUB SWAP1 LOG4 POP POP JUMP JUMPDEST PUSH1 0x0 PUSH2 0xDAA DUP4 DUP4 PUSH2 0x1CA6 JUMP JUMPDEST PUSH1 0x0 PUSH2 0xDAA DUP4 PUSH1 0x1 PUSH1 0x1 PUSH1 0xA0 SHL SUB DUP5 AND PUSH2 0x1D0A JUMP JUMPDEST PUSH1 0x0 PUSH2 0xDAD DUP3 PUSH2 0x1D22 JUMP JUMPDEST PUSH1 0x40 DUP1 MLOAD PUSH1 0x1 PUSH1 0x1 PUSH1 0xA0 SHL SUB DUP6 DUP2 AND PUSH1 0x24 DUP4 ADD MSTORE DUP5 DUP2 AND PUSH1 0x44 DUP4 ADD MSTORE PUSH1 0x64 DUP1 DUP4 ADD DUP6 SWAP1 MSTORE DUP4 MLOAD DUP1 DUP5 SUB SWAP1 SWAP2 ADD DUP2 MSTORE PUSH1 0x84 SWAP1 SWAP3 ADD DUP4 MSTORE PUSH1 0x20 DUP3 ADD DUP1 MLOAD PUSH1 0x1 PUSH1 0x1 PUSH1 0xE0 SHL SUB AND PUSH4 0x23B872DD PUSH1 0xE0 SHL OR DUP2 MSTORE SWAP3 MLOAD DUP3 MLOAD PUSH1 0x0 SWAP5 DUP6 SWAP5 SWAP4 DUP11 AND SWAP4 SWAP3 SWAP2 DUP3 SWAP2 SWAP1 DUP1 DUP4 DUP4 JUMPDEST PUSH1 0x20 DUP4 LT PUSH2 0x1B7B JUMPI DUP1 MLOAD DUP3 MSTORE PUSH1 0x1F NOT SWAP1 SWAP3 ADD SWAP2 PUSH1 0x20 SWAP2 DUP3 ADD SWAP2 ADD PUSH2 0x1B5C JUMP JUMPDEST PUSH1 0x1 DUP4 PUSH1 0x20 SUB PUSH2 0x100 EXP SUB DUP1 NOT DUP3 MLOAD AND DUP2 DUP5 MLOAD AND DUP1 DUP3 OR DUP6 MSTORE POP POP POP POP POP POP SWAP1 POP ADD SWAP2 POP POP PUSH1 0x0 PUSH1 0x40 MLOAD DUP1 DUP4 SUB DUP2 PUSH1 0x0 DUP7 GAS CALL SWAP2 POP POP RETURNDATASIZE DUP1 PUSH1 0x0 DUP2 EQ PUSH2 0x1BDD JUMPI PUSH1 0x40 MLOAD SWAP2 POP PUSH1 0x1F NOT PUSH1 0x3F RETURNDATASIZE ADD AND DUP3 ADD PUSH1 0x40 MSTORE RETURNDATASIZE DUP3 MSTORE RETURNDATASIZE PUSH1 0x0 PUSH1 0x20 DUP5 ADD RETURNDATACOPY PUSH2 0x1BE2 JUMP JUMPDEST PUSH1 0x60 SWAP2 POP JUMPDEST POP SWAP2 POP SWAP2 POP DUP2 DUP1 ISZERO PUSH2 0x1C10 JUMPI POP DUP1 MLOAD ISZERO DUP1 PUSH2 0x1C10 JUMPI POP DUP1 DUP1 PUSH1 0x20 ADD SWAP1 MLOAD PUSH1 0x20 DUP2 LT ISZERO PUSH2 0x1C0D JUMPI PUSH1 0x0 DUP1 REVERT JUMPDEST POP MLOAD JUMPDEST PUSH2 0x555 JUMPI PUSH1 0x40 DUP1 MLOAD PUSH3 0x461BCD PUSH1 0xE5 SHL DUP2 MSTORE PUSH1 0x20 PUSH1 0x4 DUP3 ADD MSTORE PUSH1 0x3 PUSH1 0x24 DUP3 ADD MSTORE PUSH3 0x29AA23 PUSH1 0xE9 SHL PUSH1 0x44 DUP3 ADD MSTORE SWAP1 MLOAD SWAP1 DUP2 SWAP1 SUB PUSH1 0x64 ADD SWAP1 REVERT JUMPDEST PUSH1 0x0 PUSH2 0x1C53 DUP4 DUP4 PUSH2 0x1D0A JUMP JUMPDEST PUSH2 0x1C89 JUMPI POP DUP2 SLOAD PUSH1 0x1 DUP2 DUP2 ADD DUP5 SSTORE PUSH1 0x0 DUP5 DUP2 MSTORE PUSH1 0x20 DUP1 DUP3 KECCAK256 SWAP1 SWAP4 ADD DUP5 SWAP1 SSTORE DUP5 SLOAD DUP5 DUP3 MSTORE DUP3 DUP7 ADD SWAP1 SWAP4 MSTORE PUSH1 0x40 SWAP1 KECCAK256 SWAP2 SWAP1 SWAP2 SSTORE PUSH2 0xDAD JUMP JUMPDEST POP PUSH1 0x0 PUSH2 0xDAD JUMP JUMPDEST PUSH1 0x0 PUSH2 0xDAA DUP4 PUSH1 0x1 PUSH1 0x1 PUSH1 0xA0 SHL SUB DUP5 AND PUSH2 0x1D26 JUMP JUMPDEST DUP2 SLOAD PUSH1 0x0 SWAP1 DUP3 LT PUSH2 0x1CE8 JUMPI PUSH1 0x40 MLOAD PUSH3 0x461BCD PUSH1 0xE5 SHL DUP2 MSTORE PUSH1 0x4 ADD DUP1 DUP1 PUSH1 0x20 ADD DUP3 DUP2 SUB DUP3 MSTORE PUSH1 0x22 DUP2 MSTORE PUSH1 0x20 ADD DUP1 PUSH2 0x2758 PUSH1 0x22 SWAP2 CODECOPY PUSH1 0x40 ADD SWAP2 POP POP PUSH1 0x40 MLOAD DUP1 SWAP2 SUB SWAP1 REVERT JUMPDEST DUP3 PUSH1 0x0 ADD DUP3 DUP2 SLOAD DUP2 LT PUSH2 0x1CF7 JUMPI INVALID JUMPDEST SWAP1 PUSH1 0x0 MSTORE PUSH1 0x20 PUSH1 0x0 KECCAK256 ADD SLOAD SWAP1 POP SWAP3 SWAP2 POP POP JUMP JUMPDEST PUSH1 0x0 SWAP1 DUP2 MSTORE PUSH1 0x1 SWAP2 SWAP1 SWAP2 ADD PUSH1 0x20 MSTORE PUSH1 0x40 SWAP1 KECCAK256 SLOAD ISZERO ISZERO SWAP1 JUMP JUMPDEST SLOAD SWAP1 JUMP JUMPDEST PUSH1 0x0 DUP2 DUP2 MSTORE PUSH1 0x1 DUP4 ADD PUSH1 0x20 MSTORE PUSH1 0x40 DUP2 KECCAK256 SLOAD DUP1 ISZERO PUSH2 0x1DE2 JUMPI DUP4 SLOAD PUSH1 0x0 NOT DUP1 DUP4 ADD SWAP2 SWAP1 DUP2 ADD SWAP1 PUSH1 0x0 SWAP1 DUP8 SWAP1 DUP4 SWAP1 DUP2 LT PUSH2 0x1D59 JUMPI INVALID JUMPDEST SWAP1 PUSH1 0x0 MSTORE PUSH1 0x20 PUSH1 0x0 KECCAK256 ADD SLOAD SWAP1 POP DUP1 DUP8 PUSH1 0x0 ADD DUP5 DUP2 SLOAD DUP2 LT PUSH2 0x1D76 JUMPI INVALID JUMPDEST PUSH1 0x0 SWAP2 DUP3 MSTORE PUSH1 0x20 DUP1 DUP4 KECCAK256 SWAP1 SWAP2 ADD SWAP3 SWAP1 SWAP3 SSTORE DUP3 DUP2 MSTORE PUSH1 0x1 DUP10 DUP2 ADD SWAP1 SWAP3 MSTORE PUSH1 0x40 SWAP1 KECCAK256 SWAP1 DUP5 ADD SWAP1 SSTORE DUP7 SLOAD DUP8 SWAP1 DUP1 PUSH2 0x1DA6 JUMPI INVALID JUMPDEST PUSH1 0x1 SWAP1 SUB DUP2 DUP2 SWAP1 PUSH1 0x0 MSTORE PUSH1 0x20 PUSH1 0x0 KECCAK256 ADD PUSH1 0x0 SWAP1 SSTORE SWAP1 SSTORE DUP7 PUSH1 0x1 ADD PUSH1 0x0 DUP8 DUP2 MSTORE PUSH1 0x20 ADD SWAP1 DUP2 MSTORE PUSH1 0x20 ADD PUSH1 0x0 KECCAK256 PUSH1 0x0 SWAP1 SSTORE PUSH1 0x1 SWAP5 POP POP POP POP POP PUSH2 0xDAD JUMP JUMPDEST PUSH1 0x0 SWAP2 POP POP PUSH2 0xDAD JUMP JUMPDEST DUP1 MLOAD PUSH2 0x570 DUP2 PUSH2 0x270A JUMP JUMPDEST DUP1 MLOAD PUSH2 0x570 DUP2 PUSH2 0x2722 JUMP JUMPDEST DUP1 MLOAD PUSH2 0x570 DUP2 PUSH2 0x2731 JUMP JUMPDEST DUP1 MLOAD PUSH2 0x570 DUP2 PUSH2 0x2746 JUMP JUMPDEST PUSH1 0x0 DUP1 PUSH1 0x40 DUP4 DUP6 SUB SLT ISZERO PUSH2 0x1E2A JUMPI DUP2 DUP3 REVERT JUMPDEST DUP3 CALLDATALOAD PUSH2 0x1E35 DUP2 PUSH2 0x270A JUMP JUMPDEST SWAP2 POP PUSH1 0x20 DUP4 ADD CALLDATALOAD PUSH2 0x1E45 DUP2 PUSH2 0x270A JUMP JUMPDEST DUP1 SWAP2 POP POP SWAP3 POP SWAP3 SWAP1 POP JUMP JUMPDEST PUSH1 0x0 DUP1 PUSH1 0x0 DUP1 PUSH1 0x0 DUP1 PUSH1 0x0 DUP1 PUSH1 0x0 PUSH2 0x120 DUP11 DUP13 SUB SLT ISZERO PUSH2 0x1E6E JUMPI DUP5 DUP6 REVERT JUMPDEST DUP10 CALLDATALOAD PUSH2 0x1E79 DUP2 PUSH2 0x270A JUMP JUMPDEST SWAP9 POP PUSH1 0x20 DUP11 ADD CALLDATALOAD PUSH2 0x1E89 DUP2 PUSH2 0x270A JUMP JUMPDEST SWAP8 POP PUSH1 0x40 DUP11 ADD CALLDATALOAD PUSH2 0x1E99 DUP2 PUSH2 0x2746 JUMP JUMPDEST SWAP7 POP PUSH1 0x60 DUP11 ADD CALLDATALOAD PUSH2 0x1EA9 DUP2 PUSH2 0x2722 JUMP JUMPDEST SWAP6 POP PUSH1 0x80 DUP11 ADD CALLDATALOAD PUSH2 0x1EB9 DUP2 PUSH2 0x2722 JUMP JUMPDEST SWAP9 SWAP12 SWAP8 SWAP11 POP SWAP6 SWAP9 SWAP5 SWAP8 SWAP7 PUSH1 0xA0 DUP7 ADD CALLDATALOAD SWAP7 POP PUSH1 0xC0 DUP7 ADD CALLDATALOAD SWAP6 PUSH1 0xE0 DUP2 ADD CALLDATALOAD SWAP6 POP PUSH2 0x100 ADD CALLDATALOAD SWAP4 POP SWAP2 POP POP JUMP JUMPDEST PUSH1 0x0 DUP1 PUSH1 0x0 DUP1 PUSH1 0x0 DUP1 PUSH1 0xC0 DUP8 DUP10 SUB SLT ISZERO PUSH2 0x1EFB JUMPI DUP2 DUP3 REVERT JUMPDEST DUP7 CALLDATALOAD PUSH2 0x1F06 DUP2 PUSH2 0x270A JUMP JUMPDEST SWAP6 POP PUSH1 0x20 DUP8 ADD CALLDATALOAD PUSH2 0x1F16 DUP2 PUSH2 0x270A JUMP JUMPDEST SWAP5 POP PUSH1 0x40 DUP8 ADD CALLDATALOAD PUSH2 0x1F26 DUP2 PUSH2 0x2746 JUMP JUMPDEST SWAP4 POP PUSH1 0x60 DUP8 ADD CALLDATALOAD SWAP3 POP PUSH1 0x80 DUP8 ADD CALLDATALOAD SWAP2 POP PUSH1 0xA0 DUP8 ADD CALLDATALOAD PUSH2 0x1F44 DUP2 PUSH2 0x270A JUMP JUMPDEST DUP1 SWAP2 POP POP SWAP3 SWAP6 POP SWAP3 SWAP6 POP SWAP3 SWAP6 JUMP JUMPDEST PUSH1 0x0 DUP1 PUSH1 0x0 PUSH1 0x60 DUP5 DUP7 SUB SLT ISZERO PUSH2 0x1F66 JUMPI DUP3 DUP4 REVERT JUMPDEST DUP4 CALLDATALOAD PUSH2 0x1F71 DUP2 PUSH2 0x270A JUMP JUMPDEST SWAP3 POP PUSH1 0x20 DUP5 ADD CALLDATALOAD PUSH2 0x1F81 DUP2 PUSH2 0x270A JUMP JUMPDEST SWAP3 SWAP6 SWAP3 SWAP5 POP POP POP PUSH1 0x40 SWAP2 SWAP1 SWAP2 ADD CALLDATALOAD SWAP1 JUMP JUMPDEST PUSH1 0x0 DUP1 PUSH1 0x0 DUP1 PUSH1 0x0 PUSH1 0x80 DUP7 DUP9 SUB SLT ISZERO PUSH2 0x1FA9 JUMPI DUP1 DUP2 REVERT JUMPDEST DUP6 CALLDATALOAD PUSH2 0x1FB4 DUP2 PUSH2 0x270A JUMP JUMPDEST SWAP5 POP PUSH1 0x20 DUP7 ADD CALLDATALOAD PUSH2 0x1FC4 DUP2 PUSH2 0x270A JUMP JUMPDEST SWAP4 POP PUSH1 0x40 DUP7 ADD CALLDATALOAD SWAP3 POP PUSH1 0x60 DUP7 ADD CALLDATALOAD PUSH8 0xFFFFFFFFFFFFFFFF DUP1 DUP3 GT ISZERO PUSH2 0x1FE7 JUMPI DUP3 DUP4 REVERT JUMPDEST DUP2 DUP9 ADD SWAP2 POP DUP9 PUSH1 0x1F DUP4 ADD SLT PUSH2 0x1FFA JUMPI DUP3 DUP4 REVERT JUMPDEST DUP2 CALLDATALOAD DUP2 DUP2 GT ISZERO PUSH2 0x2008 JUMPI DUP4 DUP5 REVERT JUMPDEST DUP10 PUSH1 0x20 DUP3 DUP6 ADD ADD GT ISZERO PUSH2 0x2019 JUMPI DUP4 DUP5 REVERT JUMPDEST SWAP7 SWAP10 SWAP6 SWAP9 POP SWAP4 SWAP7 POP PUSH1 0x20 ADD SWAP5 SWAP4 SWAP3 POP POP POP JUMP JUMPDEST PUSH1 0x0 DUP1 PUSH1 0x0 DUP1 PUSH1 0x80 DUP6 DUP8 SUB SLT ISZERO PUSH2 0x2041 JUMPI DUP4 DUP5 REVERT JUMPDEST DUP5 CALLDATALOAD PUSH2 0x204C DUP2 PUSH2 0x270A JUMP JUMPDEST SWAP4 POP PUSH1 0x20 DUP6 ADD CALLDATALOAD PUSH2 0x205C DUP2 PUSH2 0x270A JUMP JUMPDEST SWAP4 SWAP7 SWAP4 SWAP6 POP POP POP POP PUSH1 0x40 DUP3 ADD CALLDATALOAD SWAP2 PUSH1 0x60 ADD CALLDATALOAD SWAP1 JUMP JUMPDEST PUSH1 0x0 PUSH1 0x20 DUP3 DUP5 SUB SLT ISZERO PUSH2 0x2082 JUMPI DUP1 DUP2 REVERT JUMPDEST POP CALLDATALOAD SWAP2 SWAP1 POP JUMP JUMPDEST PUSH1 0x0 DUP1 PUSH1 0x40 DUP4 DUP6 SUB SLT ISZERO PUSH2 0x209B JUMPI DUP2 DUP3 REVERT JUMPDEST DUP3 CALLDATALOAD SWAP2 POP PUSH1 0x20 DUP4 ADD CALLDATALOAD PUSH2 0x1E45 DUP2 PUSH2 0x270A JUMP JUMPDEST PUSH1 0x0 DUP1 PUSH1 0x40 DUP4 DUP6 SUB SLT ISZERO PUSH2 0x20BF JUMPI DUP2 DUP3 REVERT JUMPDEST POP POP DUP1 CALLDATALOAD SWAP3 PUSH1 0x20 SWAP1 SWAP2 ADD CALLDATALOAD SWAP2 POP JUMP JUMPDEST PUSH1 0x0 DUP1 PUSH1 0x0 PUSH1 0x60 DUP5 DUP7 SUB SLT ISZERO PUSH2 0x20E2 JUMPI DUP1 DUP2 REVERT JUMPDEST DUP4 MLOAD PUSH2 0x20ED DUP2 PUSH2 0x2731 JUMP JUMPDEST PUSH1 0x20 DUP6 ADD MLOAD PUSH1 0x40 SWAP1 SWAP6 ADD MLOAD SWAP1 SWAP7 SWAP5 SWAP6 POP SWAP4 SWAP3 POP POP POP JUMP JUMPDEST PUSH1 0x0 PUSH1 0x20 DUP3 DUP5 SUB SLT ISZERO PUSH2 0x2115 JUMPI DUP1 DUP2 REVERT JUMPDEST POP MLOAD SWAP2 SWAP1 POP JUMP JUMPDEST PUSH1 0x0 DUP1 PUSH1 0x40 DUP4 DUP6 SUB SLT ISZERO PUSH2 0x212E JUMPI DUP2 DUP3 REVERT JUMPDEST DUP3 CALLDATALOAD SWAP2 POP PUSH1 0x20 DUP4 ADD CALLDATALOAD DUP1 ISZERO ISZERO DUP2 EQ PUSH2 0x1E45 JUMPI DUP2 DUP3 REVERT JUMPDEST PUSH1 0x0 DUP1 PUSH1 0x0 DUP1 PUSH1 0x80 DUP6 DUP8 SUB SLT ISZERO PUSH2 0x2159 JUMPI DUP2 DUP3 REVERT JUMPDEST DUP5 CALLDATALOAD SWAP4 POP PUSH1 0x20 DUP6 ADD CALLDATALOAD PUSH2 0x205C DUP2 PUSH2 0x2731 JUMP JUMPDEST PUSH1 0x0 DUP1 PUSH1 0x0 DUP1 PUSH1 0x80 DUP6 DUP8 SUB SLT ISZERO PUSH2 0x2180 JUMPI DUP2 DUP3 REVERT JUMPDEST DUP5 MLOAD SWAP4 POP PUSH1 0x20 DUP6 ADD MLOAD PUSH2 0x2192 DUP2 PUSH2 0x2731 JUMP JUMPDEST PUSH1 0x40 DUP7 ADD MLOAD PUSH1 0x60 SWAP1 SWAP7 ADD MLOAD SWAP5 SWAP8 SWAP1 SWAP7 POP SWAP3 POP POP POP JUMP JUMPDEST PUSH1 0x0 DUP1 PUSH1 0x40 DUP4 DUP6 SUB SLT ISZERO PUSH2 0x21BA JUMPI DUP2 DUP3 REVERT JUMPDEST POP POP DUP1 MLOAD PUSH1 0x20 SWAP1 SWAP2 ADD MLOAD SWAP1 SWAP3 SWAP1 SWAP2 POP JUMP JUMPDEST PUSH1 0x0 DUP1 PUSH1 0x0 PUSH1 0x60 DUP5 DUP7 SUB SLT ISZERO PUSH2 0x21DF JUMPI DUP1 DUP2 REVERT JUMPDEST POP POP DUP2 CALLDATALOAD SWAP4 PUSH1 0x20 DUP4 ADD CALLDATALOAD SWAP4 POP PUSH1 0x40 SWAP1 SWAP3 ADD CALLDATALOAD SWAP2 SWAP1 POP JUMP JUMPDEST PUSH1 0x0 DUP1 PUSH1 0x0 DUP1 PUSH1 0x0 PUSH1 0xA0 DUP7 DUP9 SUB SLT ISZERO PUSH2 0x220D JUMPI DUP3 DUP4 REVERT JUMPDEST POP POP DUP4 CALLDATALOAD SWAP6 PUSH1 0x20 DUP6 ADD CALLDATALOAD SWAP6 POP PUSH1 0x40 DUP6 ADD CALLDATALOAD SWAP5 PUSH1 0x60 DUP2 ADD CALLDATALOAD SWAP5 POP PUSH1 0x80 ADD CALLDATALOAD SWAP3 POP SWAP1 POP JUMP JUMPDEST PUSH1 0x0 DUP1 PUSH1 0x0 DUP1 PUSH1 0x0 DUP1 PUSH1 0x0 DUP1 PUSH1 0x0 DUP1 PUSH1 0x0 DUP1 PUSH2 0x180 DUP14 DUP16 SUB SLT ISZERO PUSH2 0x2252 JUMPI DUP6 DUP7 REVERT JUMPDEST DUP13 MLOAD PUSH12 0xFFFFFFFFFFFFFFFFFFFFFFFF DUP2 AND DUP2 EQ PUSH2 0x226D JUMPI DUP7 DUP8 REVERT JUMPDEST SWAP12 POP PUSH2 0x227B PUSH1 0x20 DUP15 ADD PUSH2 0x1DEC JUMP JUMPDEST SWAP11 POP PUSH2 0x2289 PUSH1 0x40 DUP15 ADD PUSH2 0x1DEC JUMP JUMPDEST SWAP10 POP PUSH2 0x2297 PUSH1 0x60 DUP15 ADD PUSH2 0x1DEC JUMP JUMPDEST SWAP9 POP PUSH2 0x22A5 PUSH1 0x80 DUP15 ADD PUSH2 0x1E0D JUMP JUMPDEST SWAP8 POP PUSH2 0x22B3 PUSH1 0xA0 DUP15 ADD PUSH2 0x1DF7 JUMP JUMPDEST SWAP7 POP PUSH2 0x22C1 PUSH1 0xC0 DUP15 ADD PUSH2 0x1DF7 JUMP JUMPDEST SWAP6 POP PUSH2 0x22CF PUSH1 0xE0 DUP15 ADD PUSH2 0x1E02 JUMP JUMPDEST SWAP5 POP PUSH2 0x100 DUP14 ADD MLOAD SWAP4 POP PUSH2 0x120 DUP14 ADD MLOAD SWAP3 POP PUSH2 0x22EE PUSH2 0x140 DUP15 ADD PUSH2 0x1E02 JUMP JUMPDEST SWAP2 POP PUSH2 0x22FD PUSH2 0x160 DUP15 ADD PUSH2 0x1E02 JUMP JUMPDEST SWAP1 POP SWAP3 SWAP6 SWAP9 SWAP12 POP SWAP3 SWAP6 SWAP9 SWAP12 POP SWAP3 SWAP6 SWAP9 SWAP12 JUMP JUMPDEST PUSH1 0x1 PUSH1 0x1 PUSH1 0xA0 SHL SUB AND SWAP1 MSTORE JUMP JUMPDEST PUSH1 0x2 SIGNEXTEND SWAP1 MSTORE JUMP JUMPDEST DUP1 MLOAD PUSH1 0x1 PUSH1 0x1 PUSH1 0xA0 SHL SUB SWAP1 DUP2 AND DUP4 MSTORE PUSH1 0x20 DUP1 DUP4 ADD MLOAD DUP3 AND SWAP1 DUP5 ADD MSTORE PUSH1 0x40 DUP1 DUP4 ADD MLOAD PUSH3 0xFFFFFF AND SWAP1 DUP5 ADD MSTORE PUSH1 0x60 DUP1 DUP4 ADD MLOAD DUP3 AND SWAP1 DUP5 ADD MSTORE PUSH1 0x80 DUP1 DUP4 ADD MLOAD SWAP1 DUP5 ADD MSTORE PUSH1 0xA0 DUP3 DUP2 ADD MLOAD SWAP1 DUP5 ADD MSTORE PUSH1 0xC0 DUP1 DUP4 ADD MLOAD SWAP1 DUP5 ADD MSTORE PUSH1 0xE0 SWAP2 DUP3 ADD MLOAD AND SWAP2 ADD MSTORE JUMP JUMPDEST PUSH3 0xFFFFFF AND SWAP1 MSTORE JUMP JUMPDEST PUSH1 0x1 PUSH1 0x1 PUSH1 0xA0 SHL SUB SWAP2 SWAP1 SWAP2 AND DUP2 MSTORE PUSH1 0x20 ADD SWAP1 JUMP JUMPDEST PUSH1 0x1 PUSH1 0x1 PUSH1 0xA0 SHL SUB SWAP6 DUP7 AND DUP2 MSTORE SWAP4 SWAP1 SWAP5 AND PUSH1 0x20 DUP5 ADD MSTORE PUSH3 0xFFFFFF SWAP2 SWAP1 SWAP2 AND PUSH1 0x40 DUP4 ADD MSTORE PUSH1 0x2 SWAP1 DUP2 SIGNEXTEND PUSH1 0x60 DUP4 ADD MSTORE SWAP2 SWAP1 SWAP2 SIGNEXTEND PUSH1 0x80 DUP3 ADD MSTORE PUSH1 0xA0 ADD SWAP1 JUMP JUMPDEST PUSH1 0x1 PUSH1 0x1 PUSH1 0xA0 SHL SUB SWAP4 DUP5 AND DUP2 MSTORE SWAP2 SWAP1 SWAP3 AND PUSH1 0x20 DUP3 ADD MSTORE PUSH1 0x40 DUP2 ADD SWAP2 SWAP1 SWAP2 MSTORE PUSH1 0x60 ADD SWAP1 JUMP JUMPDEST PUSH1 0x1 PUSH1 0x1 PUSH1 0xA0 SHL SUB SWAP5 DUP6 AND DUP2 MSTORE SWAP3 SWAP1 SWAP4 AND PUSH1 0x20 DUP4 ADD MSTORE PUSH1 0x40 DUP3 ADD MSTORE PUSH1 0x60 DUP2 ADD SWAP2 SWAP1 SWAP2 MSTORE PUSH1 0x80 ADD SWAP1 JUMP JUMPDEST SWAP1 ISZERO ISZERO DUP2 MSTORE PUSH1 0x20 ADD SWAP1 JUMP JUMPDEST SWAP1 DUP2 MSTORE PUSH1 0x20 ADD SWAP1 JUMP JUMPDEST PUSH1 0x1 PUSH1 0x1 PUSH1 0xE0 SHL SUB NOT SWAP2 SWAP1 SWAP2 AND DUP2 MSTORE PUSH1 0x20 ADD SWAP1 JUMP JUMPDEST PUSH1 0x20 DUP1 DUP3 MSTORE PUSH1 0x9 SWAP1 DUP3 ADD MSTORE PUSH9 0x139BDD0813DDDB9959 PUSH1 0xBA SHL PUSH1 0x40 DUP3 ADD MSTORE PUSH1 0x60 ADD SWAP1 JUMP JUMPDEST PUSH1 0x20 DUP1 DUP3 MSTORE PUSH1 0x13 SWAP1 DUP3 ADD MSTORE PUSH19 0x2737BA1020B236B4B727B922BC32B1BABA37B9 PUSH1 0x69 SHL PUSH1 0x40 DUP3 ADD MSTORE PUSH1 0x60 ADD SWAP1 JUMP JUMPDEST PUSH1 0x20 DUP1 DUP3 MSTORE PUSH1 0x9 SWAP1 DUP3 ADD MSTORE PUSH9 0x2737BA1020B236B4B7 PUSH1 0xB9 SHL PUSH1 0x40 DUP3 ADD MSTORE PUSH1 0x60 ADD SWAP1 JUMP JUMPDEST DUP2 MLOAD DUP2 MSTORE PUSH1 0x20 DUP1 DUP4 ADD MLOAD PUSH1 0x1 PUSH1 0x1 PUSH1 0xA0 SHL SUB AND SWAP1 DUP3 ADD MSTORE PUSH1 0x40 DUP1 DUP4 ADD MLOAD PUSH1 0x1 PUSH1 0x1 PUSH1 0x80 SHL SUB SWAP1 DUP2 AND SWAP2 DUP4 ADD SWAP2 SWAP1 SWAP2 MSTORE PUSH1 0x60 SWAP3 DUP4 ADD MLOAD AND SWAP2 DUP2 ADD SWAP2 SWAP1 SWAP2 MSTORE PUSH1 0x80 ADD SWAP1 JUMP JUMPDEST PUSH1 0x0 PUSH1 0xA0 DUP3 ADD SWAP1 POP DUP3 MLOAD DUP3 MSTORE PUSH1 0x1 PUSH1 0x1 PUSH1 0x80 SHL SUB PUSH1 0x20 DUP5 ADD MLOAD AND PUSH1 0x20 DUP4 ADD MSTORE PUSH1 0x40 DUP4 ADD MLOAD PUSH1 0x40 DUP4 ADD MSTORE PUSH1 0x60 DUP4 ADD MLOAD PUSH1 0x60 DUP4 ADD MSTORE PUSH1 0x80 DUP4 ADD MLOAD PUSH1 0x80 DUP4 ADD MSTORE SWAP3 SWAP2 POP POP JUMP JUMPDEST PUSH2 0x100 DUP2 ADD PUSH2 0xDAD DUP3 DUP5 PUSH2 0x2323 JUMP JUMPDEST PUSH1 0x0 PUSH1 0xC0 DUP3 ADD SWAP1 POP DUP3 MLOAD DUP3 MSTORE PUSH1 0x20 DUP4 ADD MLOAD PUSH1 0x20 DUP4 ADD MSTORE PUSH1 0x40 DUP4 ADD MLOAD PUSH1 0x40 DUP4 ADD MSTORE PUSH1 0x60 DUP4 ADD MLOAD PUSH1 0x60 DUP4 ADD MSTORE PUSH1 0x80 DUP4 ADD MLOAD PUSH1 0x80 DUP4 ADD MSTORE PUSH1 0xA0 DUP4 ADD MLOAD PUSH1 0xA0 DUP4 ADD MSTORE SWAP3 SWAP2 POP POP JUMP JUMPDEST PUSH1 0x0 PUSH2 0x160 DUP3 ADD SWAP1 POP PUSH2 0x25B2 DUP3 DUP5 MLOAD PUSH2 0x230F JUMP JUMPDEST PUSH1 0x20 DUP4 ADD MLOAD PUSH2 0x25C4 PUSH1 0x20 DUP5 ADD DUP3 PUSH2 0x230F JUMP JUMPDEST POP PUSH1 0x40 DUP4 ADD MLOAD PUSH2 0x25D7 PUSH1 0x40 DUP5 ADD DUP3 PUSH2 0x2383 JUMP JUMPDEST POP PUSH1 0x60 DUP4 ADD MLOAD PUSH2 0x25EA PUSH1 0x60 DUP5 ADD DUP3 PUSH2 0x231C JUMP JUMPDEST POP PUSH1 0x80 DUP4 ADD MLOAD PUSH2 0x25FD PUSH1 0x80 DUP5 ADD DUP3 PUSH2 0x231C JUMP JUMPDEST POP PUSH1 0xA0 DUP4 ADD MLOAD PUSH1 0xA0 DUP4 ADD MSTORE PUSH1 0xC0 DUP4 ADD MLOAD PUSH1 0xC0 DUP4 ADD MSTORE PUSH1 0xE0 DUP4 ADD MLOAD PUSH1 0xE0 DUP4 ADD MSTORE PUSH2 0x100 DUP1 DUP5 ADD MLOAD DUP2 DUP5 ADD MSTORE POP PUSH2 0x120 DUP1 DUP5 ADD MLOAD PUSH2 0x263B DUP3 DUP6 ADD DUP3 PUSH2 0x230F JUMP JUMPDEST POP POP PUSH2 0x140 SWAP3 DUP4 ADD MLOAD SWAP2 SWAP1 SWAP3 ADD MSTORE SWAP1 JUMP JUMPDEST PUSH1 0x1 PUSH1 0x1 PUSH1 0x80 SHL SUB SWAP4 SWAP1 SWAP4 AND DUP4 MSTORE PUSH1 0x20 DUP4 ADD SWAP2 SWAP1 SWAP2 MSTORE PUSH1 0x40 DUP3 ADD MSTORE PUSH1 0x60 ADD SWAP1 JUMP JUMPDEST SWAP4 DUP5 MSTORE PUSH1 0x1 PUSH1 0x1 PUSH1 0xA0 SHL SUB SWAP3 DUP4 AND PUSH1 0x20 DUP6 ADD MSTORE SWAP2 AND PUSH1 0x40 DUP4 ADD MSTORE PUSH3 0xFFFFFF AND PUSH1 0x60 DUP3 ADD MSTORE PUSH1 0x80 ADD SWAP1 JUMP JUMPDEST SWAP4 DUP5 MSTORE PUSH1 0x1 PUSH1 0x1 PUSH1 0x80 SHL SUB SWAP3 SWAP1 SWAP3 AND PUSH1 0x20 DUP5 ADD MSTORE PUSH1 0x40 DUP4 ADD MSTORE PUSH1 0x60 DUP3 ADD MSTORE PUSH1 0x80 ADD SWAP1 JUMP JUMPDEST SWAP2 DUP3 MSTORE PUSH1 0x20 DUP3 ADD MSTORE PUSH1 0x40 ADD SWAP1 JUMP JUMPDEST SWAP4 DUP5 MSTORE PUSH1 0x20 DUP5 ADD SWAP3 SWAP1 SWAP3 MSTORE PUSH1 0x40 DUP4 ADD MSTORE ISZERO ISZERO PUSH1 0x60 DUP3 ADD MSTORE PUSH1 0x80 ADD SWAP1 JUMP JUMPDEST SWAP4 DUP5 MSTORE PUSH1 0x20 DUP5 ADD SWAP3 SWAP1 SWAP3 MSTORE PUSH1 0x40 DUP4 ADD MSTORE PUSH1 0x1 PUSH1 0x1 PUSH1 0x80 SHL SUB AND PUSH1 0x60 DUP3 ADD MSTORE PUSH1 0x80 ADD SWAP1 JUMP JUMPDEST PUSH1 0x1 PUSH1 0x1 PUSH1 0xA0 SHL SUB DUP2 AND DUP2 EQ PUSH2 0x271F JUMPI PUSH1 0x0 DUP1 REVERT JUMPDEST POP JUMP JUMPDEST DUP1 PUSH1 0x2 SIGNEXTEND DUP2 EQ PUSH2 0x271F JUMPI PUSH1 0x0 DUP1 REVERT JUMPDEST PUSH1 0x1 PUSH1 0x1 PUSH1 0x80 SHL SUB DUP2 AND DUP2 EQ PUSH2 0x271F JUMPI PUSH1 0x0 DUP1 REVERT JUMPDEST PUSH3 0xFFFFFF DUP2 AND DUP2 EQ PUSH2 0x271F JUMPI PUSH1 0x0 DUP1 REVERT INVALID GASLIMIT PUSH15 0x756D657261626C655365743A20696E PUSH5 0x6578206F75 PUSH21 0x206F6620626F756E6473416363657373436F6E7472 PUSH16 0x6C3A2073656E646572206D7573742062 PUSH6 0x20616E206164 PUSH14 0x696E20746F206772616E74416363 PUSH6 0x7373436F6E74 PUSH19 0x6F6C3A2073656E646572206D75737420626520 PUSH2 0x6E20 PUSH2 0x646D PUSH10 0x6E20746F207265766F6B PUSH6 0xD8AA0F319497 BYTE 0x2A GT PUSH7 0x79F7C2090F6939 0xC8 0xD4 0xE0 BYTE 0x2A DUP14 PUSH31 0x41D55E5351469E63A49807205CE4D355092EF5A8A18F56E8913CF4A201FBE2 DUP8 DUP3 JUMPDEST MULMOD JUMP SWAP4 0xC2 OR PUSH22 0x416363657373436F6E74726F6C3A2063616E206F6E6C PUSH26 0x2072656E6F756E636520726F6C657320666F722073656C66A264 PUSH10 0x706673582212205BC20B TIMESTAMP REVERT 0xAD 0xEA 0xAA DUP2 SELFBALANCE ISZERO 0xBC SWAP6 PUSH16 0xC34198550BEDBB946C2A55BF2662EFA6 JUMPDEST PC PUSH5 0x736F6C6343 STOP SMOD MOD STOP CALLER 0xD8 0xAA 0xF BALANCE SWAP5 SWAP8 BYTE 0x2A GT PUSH7 0x79F7C2090F6939 0xC8 0xD4 0xE0 BYTE 0x2A DUP14 PUSH31 0x41D55E5351469E63A49807205CE4D355092EF5A8A18F56E8913CF4A201FBE2 DUP8 DUP3 JUMPDEST MULMOD JUMP SWAP4 0xC2 OR PUSH22 0x0 "
				},
				"gasEstimates": {
					"creation": {
						"codeDepositCost": "2073000",
						"executionCost": "infinite",
						"totalCost": "infinite"
					},
					"external": {
						"ADMIN_ROLE()": "infinite",
						"DEFAULT_ADMIN_ROLE()": "273",
						"EXECUTOR_ROLE()": "infinite",
						"approve(address,address,uint256)": "infinite",
						"approveInfinity(address,address)": "infinite",
						"approveManager(address,address,uint256,uint256)": "infinite",
						"approveRouter(address,address,uint256,uint256)": "infinite",
						"collectFees(uint256,bool)": "infinite",
						"decreaseLiquidity(uint256,uint128,uint256,uint256)": "infinite",
						"deposits(uint256)": "2347",
						"getRoleAdmin(bytes32)": "1254",
						"getRoleMember(bytes32,uint256)": "infinite",
						"getRoleMemberCount(bytes32)": "infinite",
						"grantRole(bytes32,address)": "infinite",
						"hasRole(bytes32,address)": "infinite",
						"increaseLiquidity(uint256,uint256,uint256,uint256,uint256)": "infinite",
						"mintNewPosition(address,address,uint24,int24,int24,uint256,uint256,uint256,uint256)": "infinite",
						"nonfungiblePositionManager()": "infinite",
						"onERC721Received(address,address,uint256,bytes)": "infinite",
						"redeemNFT(uint256,address)": "infinite",
						"redeemOwnership(address,address)": "infinite",
						"redeemToken(address,address,uint256)": "infinite",
						"renounceRole(bytes32,address)": "infinite",
						"revokeRole(bytes32,address)": "infinite",
						"swapExactInputSingle(address,address,uint24,uint256,uint256,uint160)": "infinite",
						"swapExactOutputSingle(address,address,uint24,uint256,uint256,uint160)": "infinite",
						"swapRouter()": "infinite",
						"transferForDeposit(uint256,uint256,uint256)": "infinite",
						"transferForTokens(address,address,uint256,uint256)": "infinite"
					},
					"internal": {
						"_createDeposit(uint256)": "infinite"
					}
				},
				"methodIdentifiers": {
					"ADMIN_ROLE()": "75b238fc",
					"DEFAULT_ADMIN_ROLE()": "a217fddf",
					"EXECUTOR_ROLE()": "07bd0265",
					"approve(address,address,uint256)": "e1f21c67",
					"approveInfinity(address,address)": "a8243558",
					"approveManager(address,address,uint256,uint256)": "25eb6e6f",
					"approveRouter(address,address,uint256,uint256)": "57706e74",
					"collectFees(uint256,bool)": "3a483cb0",
					"decreaseLiquidity(uint256,uint128,uint256,uint256)": "8e5f5977",
					"deposits(uint256)": "b02c43d0",
					"getRoleAdmin(bytes32)": "248a9ca3",
					"getRoleMember(bytes32,uint256)": "9010d07c",
					"getRoleMemberCount(bytes32)": "ca15c873",
					"grantRole(bytes32,address)": "2f2ff15d",
					"hasRole(bytes32,address)": "91d14854",
					"increaseLiquidity(uint256,uint256,uint256,uint256,uint256)": "c691b0a1",
					"mintNewPosition(address,address,uint24,int24,int24,uint256,uint256,uint256,uint256)": "dd37019d",
					"nonfungiblePositionManager()": "b44a2722",
					"onERC721Received(address,address,uint256,bytes)": "150b7a02",
					"redeemNFT(uint256,address)": "3ef4c3d4",
					"redeemOwnership(address,address)": "1c8c9980",
					"redeemToken(address,address,uint256)": "0d71bdc3",
					"renounceRole(bytes32,address)": "36568abe",
					"revokeRole(bytes32,address)": "d547741f",
					"swapExactInputSingle(address,address,uint24,uint256,uint256,uint160)": "b4580507",
					"swapExactOutputSingle(address,address,uint24,uint256,uint256,uint160)": "4c8c7314",
					"swapRouter()": "c31c9c07",
					"transferForDeposit(uint256,uint256,uint256)": "7d42c461",
					"transferForTokens(address,address,uint256,uint256)": "dce008af"
				}
			},
			"storageLayout": {
				"storage": [
					{
						"astId": 22,
						"contract": "contracts/LiquidityController.sol:LiquidityController",
						"label": "_roles",
						"offset": 0,
						"slot": "0",
						"type": "t_mapping(t_bytes32,t_struct(RoleData)18_storage)"
					},
					{
						"astId": 2191,
						"contract": "contracts/LiquidityController.sol:LiquidityController",
						"label": "deposits",
						"offset": 0,
						"slot": "1",
						"type": "t_mapping(t_uint256,t_struct(Deposit)2187_storage)"
					}
				],
				"types": {
					"t_address": {
						"encoding": "inplace",
						"label": "address",
						"numberOfBytes": "20"
					},
					"t_array(t_bytes32)dyn_storage": {
						"base": "t_bytes32",
						"encoding": "dynamic_array",
						"label": "bytes32[]",
						"numberOfBytes": "32"
					},
					"t_bytes32": {
						"encoding": "inplace",
						"label": "bytes32",
						"numberOfBytes": "32"
					},
					"t_int24": {
						"encoding": "inplace",
						"label": "int24",
						"numberOfBytes": "3"
					},
					"t_mapping(t_bytes32,t_struct(RoleData)18_storage)": {
						"encoding": "mapping",
						"key": "t_bytes32",
						"label": "mapping(bytes32 => struct AccessControl.RoleData)",
						"numberOfBytes": "32",
						"value": "t_struct(RoleData)18_storage"
					},
					"t_mapping(t_bytes32,t_uint256)": {
						"encoding": "mapping",
						"key": "t_bytes32",
						"label": "mapping(bytes32 => uint256)",
						"numberOfBytes": "32",
						"value": "t_uint256"
					},
					"t_mapping(t_uint256,t_struct(Deposit)2187_storage)": {
						"encoding": "mapping",
						"key": "t_uint256",
						"label": "mapping(uint256 => struct LiquidityController.Deposit)",
						"numberOfBytes": "32",
						"value": "t_struct(Deposit)2187_storage"
					},
					"t_struct(AddressSet)1269_storage": {
						"encoding": "inplace",
						"label": "struct EnumerableSet.AddressSet",
						"members": [
							{
								"astId": 1268,
								"contract": "contracts/LiquidityController.sol:LiquidityController",
								"label": "_inner",
								"offset": 0,
								"slot": "0",
								"type": "t_struct(Set)1004_storage"
							}
						],
						"numberOfBytes": "64"
					},
					"t_struct(Deposit)2187_storage": {
						"encoding": "inplace",
						"label": "struct LiquidityController.Deposit",
						"members": [
							{
								"astId": 2178,
								"contract": "contracts/LiquidityController.sol:LiquidityController",
								"label": "token0",
								"offset": 0,
								"slot": "0",
								"type": "t_address"
							},
							{
								"astId": 2180,
								"contract": "contracts/LiquidityController.sol:LiquidityController",
								"label": "token1",
								"offset": 0,
								"slot": "1",
								"type": "t_address"
							},
							{
								"astId": 2182,
								"contract": "contracts/LiquidityController.sol:LiquidityController",
								"label": "fee",
								"offset": 20,
								"slot": "1",
								"type": "t_uint24"
							},
							{
								"astId": 2184,
								"contract": "contracts/LiquidityController.sol:LiquidityController",
								"label": "tickLower",
								"offset": 23,
								"slot": "1",
								"type": "t_int24"
							},
							{
								"astId": 2186,
								"contract": "contracts/LiquidityController.sol:LiquidityController",
								"label": "tickUpper",
								"offset": 26,
								"slot": "1",
								"type": "t_int24"
							}
						],
						"numberOfBytes": "64"
					},
					"t_struct(RoleData)18_storage": {
						"encoding": "inplace",
						"label": "struct AccessControl.RoleData",
						"members": [
							{
								"astId": 15,
								"contract": "contracts/LiquidityController.sol:LiquidityController",
								"label": "members",
								"offset": 0,
								"slot": "0",
								"type": "t_struct(AddressSet)1269_storage"
							},
							{
								"astId": 17,
								"contract": "contracts/LiquidityController.sol:LiquidityController",
								"label": "adminRole",
								"offset": 0,
								"slot": "2",
								"type": "t_bytes32"
							}
						],
						"numberOfBytes": "96"
					},
					"t_struct(Set)1004_storage": {
						"encoding": "inplace",
						"label": "struct EnumerableSet.Set",
						"members": [
							{
								"astId": 999,
								"contract": "contracts/LiquidityController.sol:LiquidityController",
								"label": "_values",
								"offset": 0,
								"slot": "0",
								"type": "t_array(t_bytes32)dyn_storage"
							},
							{
								"astId": 1003,
								"contract": "contracts/LiquidityController.sol:LiquidityController",
								"label": "_indexes",
								"offset": 0,
								"slot": "1",
								"type": "t_mapping(t_bytes32,t_uint256)"
							}
						],
						"numberOfBytes": "64"
					},
					"t_uint24": {
						"encoding": "inplace",
						"label": "uint24",
						"numberOfBytes": "3"
					},
					"t_uint256": {
						"encoding": "inplace",
						"label": "uint256",
						"numberOfBytes": "32"
					}
				}
			},
			"userdoc": {
				"kind": "user",
				"methods": {},
				"version": 1
			}
		}
	}
}