{
	"data": {
		"bytecode": {
			"linkReferences": {},
			"object": "60c06040523480156200001157600080fd5b5060405162002bf038038062002bf0833981016040819052620000349162000239565b6001600160601b0319606085811b821660805284901b1660a0526200006960008051602062002bd083398151915280620000d3565b6200009360008051602062002bb083398151915260008051602062002bd0833981519152620000d3565b620000ae60008051602062002bd08339815191528362000125565b620000c960008051602062002bb08339815191528262000125565b50505050620002b9565b600082815260208190526040808220600201549051839285917fbd79b86ffe0ab8e8776151514217cd7cacd52c909f66475c3af44e129f0b00ff9190a460009182526020829052604090912060020155565b62000131828262000135565b5050565b6000828152602081815260409091206200015a918390620014f3620001ae821b17901c565b1562000131576200016a620001ce565b6001600160a01b0316816001600160a01b0316837f2f8788117e7eff1d82e926ec794901d17c78024a50270940304540a733656f0d60405160405180910390a45050565b6000620001c5836001600160a01b038416620001d2565b90505b92915050565b3390565b6000620001e0838362000221565b6200021857508154600181810184556000848152602080822090930184905584548482528286019093526040902091909155620001c8565b506000620001c8565b60009081526001919091016020526040902054151590565b600080600080608085870312156200024f578384fd5b84516200025c81620002a0565b60208601519094506200026f81620002a0565b60408601519093506200028281620002a0565b60608601519092506200029581620002a0565b939692955090935050565b6001600160a01b0381168114620002b657600080fd5b50565b60805160601c60a05160601c61287d6200033360003980610a415280610b515280610b7c5280610e6d5280610e9c5280610fef52806110af5250806105b452806105df52806107c952806108ea5280610cbf5280610e0f5280610e3e5280610f12528061117752806113ef5280611661525061287d6000f3fe608060405234801561001057600080fd5b50600436106101cf5760003560e01c80638e5f597711610104578063b4580507116100a2578063d547741f11610071578063d547741f146103e5578063dce008af146103f8578063dd37019d1461040b578063e1f21c671461042e576101cf565b8063b458050714610395578063c31c9c07146103a8578063c691b0a1146103b0578063ca15c873146103d2576101cf565b8063a217fddf116100de578063a217fddf1461034e578063a824355814610356578063b02c43d014610369578063b44a27221461038d576101cf565b80638e5f5977146102fb5780639010d07c1461030e57806391d148541461032e576101cf565b806336568abe116101715780634c8c73141161014b5780634c8c7314146102ba57806357706e74146102cd57806375b238fc146102e05780637d42c461146102e8576101cf565b806336568abe146102735780633a483cb0146102865780633ef4c3d4146102a7576101cf565b80631c8c9980116101ad5780631c8c998014610227578063248a9ca31461023a57806325eb6e6f1461024d5780632f2ff15d14610260576101cf565b806307bd0265146101d45780630d71bdc3146101f2578063150b7a0214610207575b600080fd5b6101dc610441565b6040516101e99190612434565b60405180910390f35b610205610200366004611f52565b610453565b005b61021a610215366004611f92565b6104a5565b6040516101e9919061243d565b610205610235366004611e18565b6104c2565b6101dc610248366004612071565b61055d565b61020561025b36600461202c565b610575565b61020561026e366004612089565b61060a565b610205610281366004612089565b610671565b61029961029436600461211c565b6106d2565b6040516101e99291906126bb565b6102056102b5366004612089565b61089a565b6101dc6102c8366004611ee3565b610986565b6102056102db36600461202c565b610b12565b6101dc610ba1565b6102056102f63660046121cb565b610bb3565b610299610309366004612144565b610c1a565b61032161031c3660046120ad565b610d92565b6040516101e9919061238c565b61034161033c366004612089565b610db3565b6040516101e99190612429565b6101dc610dcb565b610205610364366004611e18565b610dd0565b61037c610377366004612071565b610ec5565b6040516101e99594939291906123a0565b610321610f10565b6101dc6103a3366004611ee3565b610f34565b6103216110ad565b6103c36103be3660046121f6565b6110d1565b6040516101e99392919061264c565b6101dc6103e0366004612071565b611250565b6102056103f3366004612089565b611267565b61020561040636600461202c565b6112c0565b61041e610419366004611e50565b611311565b6040516101e99493929190612697565b61020561043c366004611f52565b6114af565b6000805160206127d983398151915281565b61046b6000805160206127f983398151915233610db3565b15156001146104955760405162461bcd60e51b815260040161048c906124a2565b60405180910390fd5b6104a0838383611508565b505050565b60006104b084611656565b50630a85bd0160e11b95945050505050565b6104da6000805160206127f983398151915233610db3565b15156001146104fb5760405162461bcd60e51b815260040161048c906124a2565b60405163f2fde38b60e01b81526001600160a01b0383169063f2fde38b9061052790849060040161238c565b600060405180830381600087803b15801561054157600080fd5b505af1158015610555573d6000803e3d6000fd5b505050505050565b6000818152602081905260409020600201545b919050565b61058d6000805160206127f983398151915233610db3565b15156001146105ae5760405162461bcd60e51b815260040161048c906124a2565b6105d9847f0000000000000000000000000000000000000000000000000000000000000000846118ae565b610604837f0000000000000000000000000000000000000000000000000000000000000000836118ae565b50505050565b6000828152602081905260409020600201546106289061033c6119f5565b6106635760405162461bcd60e51b815260040180806020018281038252602f81526020018061277a602f913960400191505060405180910390fd5b61066d82826119f9565b5050565b6106796119f5565b6001600160a01b0316816001600160a01b0316146106c85760405162461bcd60e51b815260040180806020018281038252602f815260200180612819602f913960400191505060405180910390fd5b61066d8282611a62565b6000806106ed6000805160206127f983398151915233610db3565b15156001148061071657506107106000805160206127d983398151915233610db3565b15156001145b6107325760405162461bcd60e51b815260040161048c90612475565b60018315151415610776576107556000805160206127f983398151915233610db3565b15156001146107765760405162461bcd60e51b815260040161048c906124a2565b60006040518060800160405280868152602001856107945730610796565b335b6001600160a01b0390811682526001600160801b0360208301819052604092830152905163fc6f786560e01b81529192507f0000000000000000000000000000000000000000000000000000000000000000169063fc6f7865906107fe9084906004016124c5565b6040805180830381600087803b15801561081757600080fd5b505af115801561082b573d6000803e3d6000fd5b505050506040513d601f19601f8201168201806040525081019061084f91906121a8565b60405191945092507feaa34316c1ac0ac2b8445632fef75dad91f846cc69c40a558ccfd6e5700bb79a9061088a9087908690869089906126c9565b60405180910390a1509250929050565b6108b26000805160206127f983398151915233610db3565b15156001146108d35760405162461bcd60e51b815260040161048c906124a2565b604051632142170760e11b81526001600160a01b037f000000000000000000000000000000000000000000000000000000000000000016906342842e0e90610923903090859087906004016123dc565b600060405180830381600087803b15801561093d57600080fd5b505af1158015610951573d6000803e3d6000fd5b5050506000928352505060016020819052604090912080546001600160a01b03191681550180546001600160e81b0319169055565b60006109a06000805160206127f983398151915233610db3565b1515600114806109c957506109c36000805160206127d983398151915233610db3565b15156001145b6109e55760405162461bcd60e51b815260040161048c90612475565b60408051610100810182526001600160a01b03808a168252888116602083015262ffffff88168284015230606083015242608083015260a0820187905260c0820186905284811660e08301529151631b67c43360e31b815290917f0000000000000000000000000000000000000000000000000000000000000000169063db3e219890610a7690849060040161254b565b602060405180830381600087803b158015610a9057600080fd5b505af1158015610aa4573d6000803e3d6000fd5b505050506040513d601f19601f82011682018060405250810190610ac89190612104565b91507f1f2c1de040604eaf4a8c72b05bd7c16fae213f15cbde69ecf70dd3b97fef1f2f88888488604051610aff9493929190612400565b60405180910390a1509695505050505050565b610b2a6000805160206127f983398151915233610db3565b1515600114610b4b5760405162461bcd60e51b815260040161048c906124a2565b610b76847f0000000000000000000000000000000000000000000000000000000000000000846118ae565b610604837f0000000000000000000000000000000000000000000000000000000000000000836118ae565b6000805160206127f983398151915281565b610bcb6000805160206127f983398151915233610db3565b1515600114610bec5760405162461bcd60e51b815260040161048c906124a2565b600083815260016020819052604090912080549101546104a0916001600160a01b03908116911684846112c0565b600080610c356000805160206127f983398151915233610db3565b151560011480610c5e5750610c586000805160206127d983398151915233610db3565b15156001145b610c7a5760405162461bcd60e51b815260040161048c90612475565b6040805160a0810182528781526001600160801b0387166020820152808201869052606081018590524260808201529051630624e65f60e11b81526001600160a01b037f00000000000000000000000000000000000000000000000000000000000000001690630c49ccbe90610cf4908490600401612508565b6040805180830381600087803b158015610d0d57600080fd5b505af1158015610d21573d6000803e3d6000fd5b505050506040513d601f19601f82011682018060405250810190610d4591906121a8565b60405191945092507fc79cb6614f7bcc31f0121c4db623a782836f42b2d8e5290a19340bdbc25032f790610d80908990869086908b906126e6565b60405180910390a15094509492505050565b6000828152602081905260408120610daa9083611acb565b90505b92915050565b6000828152602081905260408120610daa9083611ad7565b600081565b610de86000805160206127f983398151915233610db3565b1515600114610e095760405162461bcd60e51b815260040161048c906124a2565b610e38827f0000000000000000000000000000000000000000000000000000000000000000600160ff1b6118ae565b610e67817f0000000000000000000000000000000000000000000000000000000000000000600160ff1b6118ae565b610e96827f0000000000000000000000000000000000000000000000000000000000000000600160ff1b6118ae565b61066d817f0000000000000000000000000000000000000000000000000000000000000000600160ff1b6118ae565b600160208190526000918252604090912080549101546001600160a01b039182169181169062ffffff600160a01b82041690600160b81b8104600290810b91600160d01b9004900b85565b7f000000000000000000000000000000000000000000000000000000000000000081565b6000610f4e6000805160206127f983398151915233610db3565b151560011480610f775750610f716000805160206127d983398151915233610db3565b15156001145b610f935760405162461bcd60e51b815260040161048c90612475565b60408051610100810182526001600160a01b03808a168252888116602083015262ffffff88168284015230606083015242608083015260a0820187905260c0820186905284811660e0830152915163414bf38960e01b815290917f0000000000000000000000000000000000000000000000000000000000000000169063414bf3899061102490849060040161254b565b602060405180830381600087803b15801561103e57600080fd5b505af1158015611052573d6000803e3d6000fd5b505050506040513d601f19601f820116820180604052508101906110769190612104565b91507f1f2c1de040604eaf4a8c72b05bd7c16fae213f15cbde69ecf70dd3b97fef1f2f88888785604051610aff9493929190612400565b7f000000000000000000000000000000000000000000000000000000000000000081565b60008060006110ee6000805160206127f983398151915233610db3565b15156001148061111757506111116000805160206127d983398151915233610db3565b15156001145b6111335760405162461bcd60e51b815260040161048c90612475565b6040805160c0810182528981526020810189905280820188905260608101879052608081018690524260a0820152905163219f5d1760e01b81526001600160a01b037f0000000000000000000000000000000000000000000000000000000000000000169063219f5d17906111ac90849060040161255a565b606060405180830381600087803b1580156111c657600080fd5b505af11580156111da573d6000803e3d6000fd5b505050506040513d601f19601f820116820180604052508101906111fe91906120ce565b60405192965090945092507f2d6edbed0a944a56e78d8ced0bc4794533b38938655f47c5a423559a1163b1049061123c908b908690869089906126e6565b60405180910390a150955095509592505050565b6000818152602081905260408120610dad90611aec565b6000828152602081905260409020600201546112859061033c6119f5565b6106c85760405162461bcd60e51b81526004018080602001828103825260308152602001806127a96030913960400191505060405180910390fd5b6112d86000805160206127f983398151915233610db3565b15156001146112f95760405162461bcd60e51b815260040161048c906124a2565b61130584333085611af7565b61060483333084611af7565b60008060008061132f6000805160206127f983398151915233610db3565b15156001148061135857506113526000805160206127d983398151915233610db3565b15156001145b6113745760405162461bcd60e51b815260040161048c90612475565b60006040518061016001604052808f6001600160a01b031681526020018e6001600160a01b031681526020018d62ffffff1681526020018c60020b81526020018b60020b81526020018a8152602001898152602001888152602001878152602001306001600160a01b031681526020014260640181525090507f00000000000000000000000000000000000000000000000000000000000000006001600160a01b03166388316456826040518263ffffffff1660e01b8152600401611439919061259e565b608060405180830381600087803b15801561145357600080fd5b505af1158015611467573d6000803e3d6000fd5b505050506040513d601f19601f8201168201806040525081019061148b919061216b565b9297509095509350915061149e85611656565b509950995099509995505050505050565b6114c76000805160206127f983398151915233610db3565b15156001146114e85760405162461bcd60e51b815260040161048c906124a2565b6104a08383836118ae565b6000610daa836001600160a01b038416611c47565b604080516001600160a01b038481166024830152604480830185905283518084039091018152606490920183526020820180516001600160e01b031663a9059cbb60e01b1781529251825160009485949389169392918291908083835b602083106115845780518252601f199092019160209182019101611565565b6001836020036101000a0380198251168184511680821785525050505050509050019150506000604051808303816000865af19150503d80600081146115e6576040519150601f19603f3d011682016040523d82523d6000602084013e6115eb565b606091505b5091509150818015611619575080511580611619575080806020019051602081101561161657600080fd5b50515b61164f576040805162461bcd60e51b815260206004820152600260248201526114d560f21b604482015290519081900360640190fd5b5050505050565b6000806000806000807f00000000000000000000000000000000000000000000000000000000000000006001600160a01b03166399fbab88886040518263ffffffff1660e01b81526004016116ab9190612434565b6101806040518083038186803b1580156116c457600080fd5b505afa1580156116d8573d6000803e3d6000fd5b505050506040513d601f19601f820116820180604052508101906116fc9190612230565b505050505096509650965096509650965050306001600160a01b0316866001600160a01b03161461173f5760405162461bcd60e51b815260040161048c90612452565b6040518060a00160405280866001600160a01b03168152602001856001600160a01b031681526020018462ffffff1681526020018360020b81526020018260020b8152506001600089815260200190815260200160002060008201518160000160006101000a8154816001600160a01b0302191690836001600160a01b0316021790555060208201518160010160006101000a8154816001600160a01b0302191690836001600160a01b0316021790555060408201518160010160146101000a81548162ffffff021916908362ffffff16021790555060608201518160010160176101000a81548162ffffff021916908360020b62ffffff160217905550608082015181600101601a6101000a81548162ffffff021916908360020b62ffffff1602179055509050507fc98b6cef6bcb7a4f274ab1045ead0065d8a07df11b545d8dc8bd25f58b39d0718786868660405161189d949392919061266d565b60405180910390a150505050505050565b604080516001600160a01b038481166024830152604480830185905283518084039091018152606490920183526020820180516001600160e01b031663095ea7b360e01b1781529251825160009485949389169392918291908083835b6020831061192a5780518252601f19909201916020918201910161190b565b6001836020036101000a0380198251168184511680821785525050505050509050019150506000604051808303816000865af19150503d806000811461198c576040519150601f19603f3d011682016040523d82523d6000602084013e611991565b606091505b50915091508180156119bf5750805115806119bf57508080602001905160208110156119bc57600080fd5b50515b61164f576040805162461bcd60e51b8152602060048201526002602482015261534160f01b604482015290519081900360640190fd5b3390565b6000828152602081905260409020611a1190826114f3565b1561066d57611a1e6119f5565b6001600160a01b0316816001600160a01b0316837f2f8788117e7eff1d82e926ec794901d17c78024a50270940304540a733656f0d60405160405180910390a45050565b6000828152602081905260409020611a7a9082611c91565b1561066d57611a876119f5565b6001600160a01b0316816001600160a01b0316837ff6391f5c32d9c69d2a47ea670b442974b53935d1edc7fd64eb21e047a839171b60405160405180910390a45050565b6000610daa8383611ca6565b6000610daa836001600160a01b038416611d0a565b6000610dad82611d22565b604080516001600160a01b0385811660248301528481166044830152606480830185905283518084039091018152608490920183526020820180516001600160e01b03166323b872dd60e01b178152925182516000948594938a169392918291908083835b60208310611b7b5780518252601f199092019160209182019101611b5c565b6001836020036101000a0380198251168184511680821785525050505050509050019150506000604051808303816000865af19150503d8060008114611bdd576040519150601f19603f3d011682016040523d82523d6000602084013e611be2565b606091505b5091509150818015611c10575080511580611c105750808060200190516020811015611c0d57600080fd5b50515b610555576040805162461bcd60e51b815260206004820152600360248201526229aa2360e91b604482015290519081900360640190fd5b6000611c538383611d0a565b611c8957508154600181810184556000848152602080822090930184905584548482528286019093526040902091909155610dad565b506000610dad565b6000610daa836001600160a01b038416611d26565b81546000908210611ce85760405162461bcd60e51b81526004018080602001828103825260228152602001806127586022913960400191505060405180910390fd5b826000018281548110611cf757fe5b9060005260206000200154905092915050565b60009081526001919091016020526040902054151590565b5490565b60008181526001830160205260408120548015611de25783546000198083019190810190600090879083908110611d5957fe5b9060005260206000200154905080876000018481548110611d7657fe5b600091825260208083209091019290925582815260018981019092526040902090840190558654879080611da657fe5b60019003818190600052602060002001600090559055866001016000878152602001908152602001600020600090556001945050505050610dad565b6000915050610dad565b80516105708161270a565b805161057081612722565b805161057081612731565b805161057081612746565b60008060408385031215611e2a578182fd5b8235611e358161270a565b91506020830135611e458161270a565b809150509250929050565b60008060008060008060008060006101208a8c031215611e6e578485fd5b8935611e798161270a565b985060208a0135611e898161270a565b975060408a0135611e9981612746565b965060608a0135611ea981612722565b955060808a0135611eb981612722565b989b979a50959894979660a0860135965060c08601359560e0810135955061010001359350915050565b60008060008060008060c08789031215611efb578182fd5b8635611f068161270a565b95506020870135611f168161270a565b94506040870135611f2681612746565b9350606087013592506080870135915060a0870135611f448161270a565b809150509295509295509295565b600080600060608486031215611f66578283fd5b8335611f718161270a565b92506020840135611f818161270a565b929592945050506040919091013590565b600080600080600060808688031215611fa9578081fd5b8535611fb48161270a565b94506020860135611fc48161270a565b935060408601359250606086013567ffffffffffffffff80821115611fe7578283fd5b818801915088601f830112611ffa578283fd5b813581811115612008578384fd5b896020828501011115612019578384fd5b9699959850939650602001949392505050565b60008060008060808587031215612041578384fd5b843561204c8161270a565b9350602085013561205c8161270a565b93969395505050506040820135916060013590565b600060208284031215612082578081fd5b5035919050565b6000806040838503121561209b578182fd5b823591506020830135611e458161270a565b600080604083850312156120bf578182fd5b50508035926020909101359150565b6000806000606084860312156120e2578081fd5b83516120ed81612731565b602085015160409095015190969495509392505050565b600060208284031215612115578081fd5b5051919050565b6000806040838503121561212e578182fd5b8235915060208301358015158114611e45578182fd5b60008060008060808587031215612159578182fd5b84359350602085013561205c81612731565b60008060008060808587031215612180578182fd5b84519350602085015161219281612731565b6040860151606090960151949790965092505050565b600080604083850312156121ba578182fd5b505080516020909101519092909150565b6000806000606084860312156121df578081fd5b505081359360208301359350604090920135919050565b600080600080600060a0868803121561220d578283fd5b505083359560208501359550604085013594606081013594506080013592509050565b6000806000806000806000806000806000806101808d8f031215612252578586fd5b8c516bffffffffffffffffffffffff8116811461226d578687fd5b9b5061227b60208e01611dec565b9a5061228960408e01611dec565b995061229760608e01611dec565b98506122a560808e01611e0d565b97506122b360a08e01611df7565b96506122c160c08e01611df7565b95506122cf60e08e01611e02565b94506101008d015193506101208d015192506122ee6101408e01611e02565b91506122fd6101608e01611e02565b90509295989b509295989b509295989b565b6001600160a01b03169052565b60020b9052565b80516001600160a01b03908116835260208083015182169084015260408083015162ffffff16908401526060808301518216908401526080808301519084015260a0828101519084015260c0808301519084015260e09182015116910152565b62ffffff169052565b6001600160a01b0391909116815260200190565b6001600160a01b03958616815293909416602084015262ffffff919091166040830152600290810b60608301529190910b608082015260a00190565b6001600160a01b039384168152919092166020820152604081019190915260600190565b6001600160a01b0394851681529290931660208301526040820152606081019190915260800190565b901515815260200190565b90815260200190565b6001600160e01b031991909116815260200190565b602080825260099082015268139bdd0813dddb995960ba1b604082015260600190565b6020808252601390820152722737ba1020b236b4b727b922bc32b1baba37b960691b604082015260600190565b6020808252600990820152682737ba1020b236b4b760b91b604082015260600190565b815181526020808301516001600160a01b0316908201526040808301516001600160801b0390811691830191909152606092830151169181019190915260800190565b600060a082019050825182526001600160801b03602084015116602083015260408301516040830152606083015160608301526080830151608083015292915050565b6101008101610dad8284612323565b600060c082019050825182526020830151602083015260408301516040830152606083015160608301526080830151608083015260a083015160a083015292915050565b6000610160820190506125b282845161230f565b60208301516125c4602084018261230f565b5060408301516125d76040840182612383565b5060608301516125ea606084018261231c565b5060808301516125fd608084018261231c565b5060a083015160a083015260c083015160c083015260e083015160e08301526101008084015181840152506101208084015161263b8285018261230f565b505061014092830151919092015290565b6001600160801b039390931683526020830191909152604082015260600190565b9384526001600160a01b0392831660208501529116604083015262ffffff16606082015260800190565b9384526001600160801b039290921660208401526040830152606082015260800190565b918252602082015260400190565b938452602084019290925260408301521515606082015260800190565b938452602084019290925260408301526001600160801b0316606082015260800190565b6001600160a01b038116811461271f57600080fd5b50565b8060020b811461271f57600080fd5b6001600160801b038116811461271f57600080fd5b62ffffff8116811461271f57600080fdfe456e756d657261626c655365743a20696e646578206f7574206f6620626f756e6473416363657373436f6e74726f6c3a2073656e646572206d75737420626520616e2061646d696e20746f206772616e74416363657373436f6e74726f6c3a2073656e646572206d75737420626520616e2061646d696e20746f207265766f6b65d8aa0f3194971a2a116679f7c2090f6939c8d4e01a2a8d7e41d55e5351469e63a49807205ce4d355092ef5a8a18f56e8913cf4a201fbe287825b095693c21775416363657373436f6e74726f6c3a2063616e206f6e6c792072656e6f756e636520726f6c657320666f722073656c66a26469706673582212205bc20b42fdadeaaa814715bc956fc34198550bedbb946c2a55bf2662efa65b5864736f6c63430007060033d8aa0f3194971a2a116679f7c2090f6939c8d4e01a2a8d7e41d55e5351469e63a49807205ce4d355092ef5a8a18f56e8913cf4a201fbe287825b095693c21775",
			"opcodes": "PUSH1 0xC0 PUSH1 0x40 MSTORE CALLVALUE DUP1 ISZERO PUSH3 0x11 JUMPI PUSH1 0x0 DUP1 REVERT JUMPDEST POP PUSH1 0x40 MLOAD PUSH3 0x2BF0 CODESIZE SUB DUP1 PUSH3 0x2BF0 DUP4 CODECOPY DUP2 ADD PUSH1 0x40 DUP2 SWAP1 MSTORE PUSH3 0x34 SWAP2 PUSH3 0x239 JUMP JUMPDEST PUSH1 0x1 PUSH1 0x1 PUSH1 0x60 SHL SUB NOT PUSH1 0x60 DUP6 DUP2 SHL DUP3 AND PUSH1 0x80 MSTORE DUP5 SWAP1 SHL AND PUSH1 0xA0 MSTORE PUSH3 0x69 PUSH1 0x0 DUP1 MLOAD PUSH1 0x20 PUSH3 0x2BD0 DUP4 CODECOPY DUP2 MLOAD SWAP2 MSTORE DUP1 PUSH3 0xD3 JUMP JUMPDEST PUSH3 0x93 PUSH1 0x0 DUP1 MLOAD PUSH1 0x20 PUSH3 0x2BB0 DUP4 CODECOPY DUP2 MLOAD SWAP2 MSTORE PUSH1 0x0 DUP1 MLOAD PUSH1 0x20 PUSH3 0x2BD0 DUP4 CODECOPY DUP2 MLOAD SWAP2 MSTORE PUSH3 0xD3 JUMP JUMPDEST PUSH3 0xAE PUSH1 0x0 DUP1 MLOAD PUSH1 0x20 PUSH3 0x2BD0 DUP4 CODECOPY DUP2 MLOAD SWAP2 MSTORE DUP4 PUSH3 0x125 JUMP JUMPDEST PUSH3 0xC9 PUSH1 0x0 DUP1 MLOAD PUSH1 0x20 PUSH3 0x2BB0 DUP4 CODECOPY DUP2 MLOAD SWAP2 MSTORE DUP3 PUSH3 0x125 JUMP JUMPDEST POP POP POP POP PUSH3 0x2B9 JUMP JUMPDEST PUSH1 0x0 DUP3 DUP2 MSTORE PUSH1 0x20 DUP2 SWAP1 MSTORE PUSH1 0x40 DUP1 DUP3 KECCAK256 PUSH1 0x2 ADD SLOAD SWAP1 MLOAD DUP4 SWAP3 DUP6 SWAP2 PUSH32 0xBD79B86FFE0AB8E8776151514217CD7CACD52C909F66475C3AF44E129F0B00FF SWAP2 SWAP1 LOG4 PUSH1 0x0 SWAP2 DUP3 MSTORE PUSH1 0x20 DUP3 SWAP1 MSTORE PUSH1 0x40 SWAP1 SWAP2 KECCAK256 PUSH1 0x2 ADD SSTORE JUMP JUMPDEST PUSH3 0x131 DUP3 DUP3 PUSH3 0x135 JUMP JUMPDEST POP POP JUMP JUMPDEST PUSH1 0x0 DUP3 DUP2 MSTORE PUSH1 0x20 DUP2 DUP2 MSTORE PUSH1 0x40 SWAP1 SWAP2 KECCAK256 PUSH3 0x15A SWAP2 DUP4 SWAP1 PUSH3 0x14F3 PUSH3 0x1AE DUP3 SHL OR SWAP1 SHR JUMP JUMPDEST ISZERO PUSH3 0x131 JUMPI PUSH3 0x16A PUSH3 0x1CE JUMP JUMPDEST PUSH1 0x1 PUSH1 0x1 PUSH1 0xA0 SHL SUB AND DUP2 PUSH1 0x1 PUSH1 0x1 PUSH1 0xA0 SHL SUB AND DUP4 PUSH32 0x2F8788117E7EFF1D82E926EC794901D17C78024A50270940304540A733656F0D PUSH1 0x40 MLOAD PUSH1 0x40 MLOAD DUP1 SWAP2 SUB SWAP1 LOG4 POP POP JUMP JUMPDEST PUSH1 0x0 PUSH3 0x1C5 DUP4 PUSH1 0x1 PUSH1 0x1 PUSH1 0xA0 SHL SUB DUP5 AND PUSH3 0x1D2 JUMP JUMPDEST SWAP1 POP JUMPDEST SWAP3 SWAP2 POP POP JUMP JUMPDEST CALLER SWAP1 JUMP JUMPDEST PUSH1 0x0 PUSH3 0x1E0 DUP4 DUP4 PUSH3 0x221 JUMP JUMPDEST PUSH3 0x218 JUMPI POP DUP2 SLOAD PUSH1 0x1 DUP2 DUP2 ADD DUP5 SSTORE PUSH1 0x0 DUP5 DUP2 MSTORE PUSH1 0x20 DUP1 DUP3 KECCAK256 SWAP1 SWAP4 ADD DUP5 SWAP1 SSTORE DUP5 SLOAD DUP5 DUP3 MSTORE DUP3 DUP7 ADD SWAP1 SWAP4 MSTORE PUSH1 0x40 SWAP1 KECCAK256 SWAP2 SWAP1 SWAP2 SSTORE PUSH3 0x1C8 JUMP JUMPDEST POP PUSH1 0x0 PUSH3 0x1C8 JUMP JUMPDEST PUSH1 0x0 SWAP1 DUP2 MSTORE PUSH1 0x1 SWAP2 SWAP1 SWAP2 ADD PUSH1 0x20 MSTORE PUSH1 0x40 SWAP1 KECCAK256 SLOAD ISZERO ISZERO SWAP1 JUMP JUMPDEST PUSH1 0x0 DUP1 PUSH1 0x0 DUP1 PUSH1 0x80 DUP6 DUP8 SUB SLT ISZERO PUSH3 0x24F JUMPI DUP4 DUP5 REVERT JUMPDEST DUP5 MLOAD PUSH3 0x25C DUP2 PUSH3 0x2A0 JUMP JUMPDEST PUSH1 0x20 DUP7 ADD MLOAD SWAP1 SWAP5 POP PUSH3 0x26F DUP2 PUSH3 0x2A0 JUMP JUMPDEST PUSH1 0x40 DUP7 ADD MLOAD SWAP1 SWAP4 POP PUSH3 0x282 DUP2 PUSH3 0x2A0 JUMP JUMPDEST PUSH1 0x60 DUP7 ADD MLOAD SWAP1 SWAP3 POP PUSH3 0x295 DUP2 PUSH3 0x2A0 JUMP JUMPDEST SWAP4 SWAP7 SWAP3 SWAP6 POP SWAP1 SWAP4 POP POP JUMP JUMPDEST PUSH1 0x1 PUSH1 0x1 PUSH1 0xA0 SHL SUB DUP2 AND DUP2 EQ PUSH3 0x2B6 JUMPI PUSH1 0x0 DUP1 REVERT JUMPDEST POP JUMP JUMPDEST PUSH1 0x80 MLOAD PUSH1 0x60 SHR PUSH1 0xA0 MLOAD PUSH1 0x60 SHR PUSH2 0x287D PUSH3 0x333 PUSH1 0x0 CODECOPY DUP1 PUSH2 0xA41 MSTORE DUP1 PUSH2 0xB51 MSTORE DUP1 PUSH2 0xB7C MSTORE DUP1 PUSH2 0xE6D MSTORE DUP1 PUSH2 0xE9C MSTORE DUP1 PUSH2 0xFEF MSTORE DUP1 PUSH2 0x10AF MSTORE POP DUP1 PUSH2 0x5B4 MSTORE DUP1 PUSH2 0x5DF MSTORE DUP1 PUSH2 0x7C9 MSTORE DUP1 PUSH2 0x8EA MSTORE DUP1 PUSH2 0xCBF MSTORE DUP1 PUSH2 0xE0F MSTORE DUP1 PUSH2 0xE3E MSTORE DUP1 PUSH2 0xF12 MSTORE DUP1 PUSH2 0x1177 MSTORE DUP1 PUSH2 0x13EF MSTORE DUP1 PUSH2 0x1661 MSTORE POP PUSH2 0x287D PUSH1 0x0 RETURN INVALID PUSH1 0x80 PUSH1 0x40 MSTORE CALLVALUE DUP1 ISZERO PUSH2 0x10 JUMPI PUSH1 0x0 DUP1 REVERT JUMPDEST POP PUSH1 0x4 CALLDATASIZE LT PUSH2 0x1CF JUMPI PUSH1 0x0 CALLDATALOAD PUSH1 0xE0 SHR DUP1 PUSH4 0x8E5F5977 GT PUSH2 0x104 JUMPI DUP1 PUSH4 0xB4580507 GT PUSH2 0xA2 JUMPI DUP1 PUSH4 0xD547741F GT PUSH2 0x71 JUMPI DUP1 PUSH4 0xD547741F EQ PUSH2 0x3E5 JUMPI DUP1 PUSH4 0xDCE008AF EQ PUSH2 0x3F8 JUMPI DUP1 PUSH4 0xDD37019D EQ PUSH2 0x40B JUMPI DUP1 PUSH4 0xE1F21C67 EQ PUSH2 0x42E JUMPI PUSH2 0x1CF JUMP JUMPDEST DUP1 PUSH4 0xB4580507 EQ PUSH2 0x395 JUMPI DUP1 PUSH4 0xC31C9C07 EQ PUSH2 0x3A8 JUMPI DUP1 PUSH4 0xC691B0A1 EQ PUSH2 0x3B0 JUMPI DUP1 PUSH4 0xCA15C873 EQ PUSH2 0x3D2 JUMPI PUSH2 0x1CF JUMP JUMPDEST DUP1 PUSH4 0xA217FDDF GT PUSH2 0xDE JUMPI DUP1 PUSH4 0xA217FDDF EQ PUSH2 0x34E JUMPI DUP1 PUSH4 0xA8243558 EQ PUSH2 0x356 JUMPI DUP1 PUSH4 0xB02C43D0 EQ PUSH2 0x369 JUMPI DUP1 PUSH4 0xB44A2722 EQ PUSH2 0x38D JUMPI PUSH2 0x1CF JUMP JUMPDEST DUP1 PUSH4 0x8E5F5977 EQ PUSH2 0x2FB JUMPI DUP1 PUSH4 0x9010D07C EQ PUSH2 0x30E JUMPI DUP1 PUSH4 0x91D14854 EQ PUSH2 0x32E JUMPI PUSH2 0x1CF JUMP JUMPDEST DUP1 PUSH4 0x36568ABE GT PUSH2 0x171 JUMPI DUP1 PUSH4 0x4C8C7314 GT PUSH2 0x14B JUMPI DUP1 PUSH4 0x4C8C7314 EQ PUSH2 0x2BA JUMPI DUP1 PUSH4 0x57706E74 EQ PUSH2 0x2CD JUMPI DUP1 PUSH4 0x75B238FC EQ PUSH2 0x2E0 JUMPI DUP1 PUSH4 0x7D42C461 EQ PUSH2 0x2E8 JUMPI PUSH2 0x1CF JUMP JUMPDEST DUP1 PUSH4 0x36568ABE EQ PUSH2 0x273 JUMPI DUP1 PUSH4 0x3A483CB0 EQ PUSH2 0x286 JUMPI DUP1 PUSH4 0x3EF4C3D4 EQ PUSH2 0x2A7 JUMPI PUSH2 0x1CF JUMP JUMPDEST DUP1 PUSH4 0x1C8C9980 GT PUSH2 0x1AD JUMPI DUP1 PUSH4 0x1C8C9980 EQ PUSH2 0x227 JUMPI DUP1 PUSH4 0x248A9CA3 EQ PUSH2 0x23A JUMPI DUP1 PUSH4 0x25EB6E6F EQ PUSH2 0x24D JUMPI DUP1 PUSH4 0x2F2FF15D EQ PUSH2 0x260 JUMPI PUSH2 0x1CF JUMP JUMPDEST DUP1 PUSH4 0x7BD0265 EQ PUSH2 0x1D4 JUMPI DUP1 PUSH4 0xD71BDC3 EQ PUSH2 0x1F2 JUMPI DUP1 PUSH4 0x150B7A02 EQ PUSH2 0x207 JUMPI JUMPDEST PUSH1 0x0 DUP1 REVERT JUMPDEST PUSH2 0x1DC PUSH2 0x441 JUMP JUMPDEST PUSH1 0x40 MLOAD PUSH2 0x1E9 SWAP2 SWAP1 PUSH2 0x2434 JUMP JUMPDEST PUSH1 0x40 MLOAD DUP1 SWAP2 SUB SWAP1 RETURN JUMPDEST PUSH2 0x205 PUSH2 0x200 CALLDATASIZE PUSH1 0x4 PUSH2 0x1F52 JUMP JUMPDEST PUSH2 0x453 JUMP JUMPDEST STOP JUMPDEST PUSH2 0x21A PUSH2 0x215 CALLDATASIZE PUSH1 0x4 PUSH2 0x1F92 JUMP JUMPDEST PUSH2 0x4A5 JUMP JUMPDEST PUSH1 0x40 MLOAD PUSH2 0x1E9 SWAP2 SWAP1 PUSH2 0x243D JUMP JUMPDEST PUSH2 0x205 PUSH2 0x235 CALLDATASIZE PUSH1 0x4 PUSH2 0x1E18 JUMP JUMPDEST PUSH2 0x4C2 JUMP JUMPDEST PUSH2 0x1DC PUSH2 0x248 CALLDATASIZE PUSH1 0x4 PUSH2 0x2071 JUMP JUMPDEST PUSH2 0x55D JUMP JUMPDEST PUSH2 0x205 PUSH2 0x25B CALLDATASIZE PUSH1 0x4 PUSH2 0x202C JUMP JUMPDEST PUSH2 0x575 JUMP JUMPDEST PUSH2 0x205 PUSH2 0x26E CALLDATASIZE PUSH1 0x4 PUSH2 0x2089 JUMP JUMPDEST PUSH2 0x60A JUMP JUMPDEST PUSH2 0x205 PUSH2 0x281 CALLDATASIZE PUSH1 0x4 PUSH2 0x2089 JUMP JUMPDEST PUSH2 0x671 JUMP JUMPDEST PUSH2 0x299 PUSH2 0x294 CALLDATASIZE PUSH1 0x4 PUSH2 0x211C JUMP JUMPDEST PUSH2 0x6D2 JUMP JUMPDEST PUSH1 0x40 MLOAD PUSH2 0x1E9 SWAP3 SWAP2 SWAP1 PUSH2 0x26BB JUMP JUMPDEST PUSH2 0x205 PUSH2 0x2B5 CALLDATASIZE PUSH1 0x4 PUSH2 0x2089 JUMP JUMPDEST PUSH2 0x89A JUMP JUMPDEST PUSH2 0x1DC PUSH2 0x2C8 CALLDATASIZE PUSH1 0x4 PUSH2 0x1EE3 JUMP JUMPDEST PUSH2 0x986 JUMP JUMPDEST PUSH2 0x205 PUSH2 0x2DB CALLDATASIZE PUSH1 0x4 PUSH2 0x202C JUMP JUMPDEST PUSH2 0xB12 JUMP JUMPDEST PUSH2 0x1DC PUSH2 0xBA1 JUMP JUMPDEST PUSH2 0x205 PUSH2 0x2F6 CALLDATASIZE PUSH1 0x4 PUSH2 0x21CB JUMP JUMPDEST PUSH2 0xBB3 JUMP JUMPDEST PUSH2 0x299 PUSH2 0x309 CALLDATASIZE PUSH1 0x4 PUSH2 0x2144 JUMP JUMPDEST PUSH2 0xC1A JUMP JUMPDEST PUSH2 0x321 PUSH2 0x31C CALLDATASIZE PUSH1 0x4 PUSH2 0x20AD JUMP JUMPDEST PUSH2 0xD92 JUMP JUMPDEST PUSH1 0x40 MLOAD PUSH2 0x1E9 SWAP2 SWAP1 PUSH2 0x238C JUMP JUMPDEST PUSH2 0x341 PUSH2 0x33C CALLDATASIZE PUSH1 0x4 PUSH2 0x2089 JUMP JUMPDEST PUSH2 0xDB3 JUMP JUMPDEST PUSH1 0x40 MLOAD PUSH2 0x1E9 SWAP2 SWAP1 PUSH2 0x2429 JUMP JUMPDEST PUSH2 0x1DC PUSH2 0xDCB JUMP JUMPDEST PUSH2 0x205 PUSH2 0x364 CALLDATASIZE PUSH1 0x4 PUSH2 0x1E18 JUMP JUMPDEST PUSH2 0xDD0 JUMP JUMPDEST PUSH2 0x37C PUSH2 0x377 CALLDATASIZE PUSH1 0x4 PUSH2 0x2071 JUMP JUMPDEST PUSH2 0xEC5 JUMP JUMPDEST PUSH1 0x40 MLOAD PUSH2 0x1E9 SWAP6 SWAP5 SWAP4 SWAP3 SWAP2 SWAP1 PUSH2 0x23A0 JUMP JUMPDEST PUSH2 0x321 PUSH2 0xF10 JUMP JUMPDEST PUSH2 0x1DC PUSH2 0x3A3 CALLDATASIZE PUSH1 0x4 PUSH2 0x1EE3 JUMP JUMPDEST PUSH2 0xF34 JUMP JUMPDEST PUSH2 0x321 PUSH2 0x10AD JUMP JUMPDEST PUSH2 0x3C3 PUSH2 0x3BE CALLDATASIZE PUSH1 0x4 PUSH2 0x21F6 JUMP JUMPDEST PUSH2 0x10D1 JUMP JUMPDEST PUSH1 0x40 MLOAD PUSH2 0x1E9 SWAP4 SWAP3 SWAP2 SWAP1 PUSH2 0x264C JUMP JUMPDEST PUSH2 0x1DC PUSH2 0x3E0 CALLDATASIZE PUSH1 0x4 PUSH2 0x2071 JUMP JUMPDEST PUSH2 0x1250 JUMP JUMPDEST PUSH2 0x205 PUSH2 0x3F3 CALLDATASIZE PUSH1 0x4 PUSH2 0x2089 JUMP JUMPDEST PUSH2 0x1267 JUMP JUMPDEST PUSH2 0x205 PUSH2 0x406 CALLDATASIZE PUSH1 0x4 PUSH2 0x202C JUMP JUMPDEST PUSH2 0x12C0 JUMP JUMPDEST PUSH2 0x41E PUSH2 0x419 CALLDATASIZE PUSH1 0x4 PUSH2 0x1E50 JUMP JUMPDEST PUSH2 0x1311 JUMP JUMPDEST PUSH1 0x40 MLOAD PUSH2 0x1E9 SWAP5 SWAP4 SWAP3 SWAP2 SWAP1 PUSH2 0x2697 JUMP JUMPDEST PUSH2 0x205 PUSH2 0x43C CALLDATASIZE PUSH1 0x4 PUSH2 0x1F52 JUMP JUMPDEST PUSH2 0x14AF JUMP JUMPDEST PUSH1 0x0 DUP1 MLOAD PUSH1 0x20 PUSH2 0x27D9 DUP4 CODECOPY DUP2 MLOAD SWAP2 MSTORE DUP2 JUMP JUMPDEST PUSH2 0x46B PUSH1 0x0 DUP1 MLOAD PUSH1 0x20 PUSH2 0x27F9 DUP4 CODECOPY DUP2 MLOAD SWAP2 MSTORE CALLER PUSH2 0xDB3 JUMP JUMPDEST ISZERO ISZERO PUSH1 0x1 EQ PUSH2 0x495 JUMPI PUSH1 0x40 MLOAD PUSH3 0x461BCD PUSH1 0xE5 SHL DUP2 MSTORE PUSH1 0x4 ADD PUSH2 0x48C SWAP1 PUSH2 0x24A2 JUMP JUMPDEST PUSH1 0x40 MLOAD DUP1 SWAP2 SUB SWAP1 REVERT JUMPDEST PUSH2 0x4A0 DUP4 DUP4 DUP4 PUSH2 0x1508 JUMP JUMPDEST POP POP POP JUMP JUMPDEST PUSH1 0x0 PUSH2 0x4B0 DUP5 PUSH2 0x1656 JUMP JUMPDEST POP PUSH4 0xA85BD01 PUSH1 0xE1 SHL SWAP6 SWAP5 POP POP POP POP POP JUMP JUMPDEST PUSH2 0x4DA PUSH1 0x0 DUP1 MLOAD PUSH1 0x20 PUSH2 0x27F9 DUP4 CODECOPY DUP2 MLOAD SWAP2 MSTORE CALLER PUSH2 0xDB3 JUMP JUMPDEST ISZERO ISZERO PUSH1 0x1 EQ PUSH2 0x4FB JUMPI PUSH1 0x40 MLOAD PUSH3 0x461BCD PUSH1 0xE5 SHL DUP2 MSTORE PUSH1 0x4 ADD PUSH2 0x48C SWAP1 PUSH2 0x24A2 JUMP JUMPDEST PUSH1 0x40 MLOAD PUSH4 0xF2FDE38B PUSH1 0xE0 SHL DUP2 MSTORE PUSH1 0x1 PUSH1 0x1 PUSH1 0xA0 SHL SUB DUP4 AND SWAP1 PUSH4 0xF2FDE38B SWAP1 PUSH2 0x527 SWAP1 DUP5 SWAP1 PUSH1 0x4 ADD PUSH2 0x238C JUMP JUMPDEST PUSH1 0x0 PUSH1 0x40 MLOAD DUP1 DUP4 SUB DUP2 PUSH1 0x0 DUP8 DUP1 EXTCODESIZE ISZERO DUP1 ISZERO PUSH2 0x541 JUMPI PUSH1 0x0 DUP1 REVERT JUMPDEST POP GAS CALL ISZERO DUP1 ISZERO PUSH2 0x555 JUMPI RETURNDATASIZE PUSH1 0x0 DUP1 RETURNDATACOPY RETURNDATASIZE PUSH1 0x0 REVERT JUMPDEST POP POP POP POP POP POP JUMP JUMPDEST PUSH1 0x0 DUP2 DUP2 MSTORE PUSH1 0x20 DUP2 SWAP1 MSTORE PUSH1 0x40 SWAP1 KECCAK256 PUSH1 0x2 ADD SLOAD JUMPDEST SWAP2 SWAP1 POP JUMP JUMPDEST PUSH2 0x58D PUSH1 0x0 DUP1 MLOAD PUSH1 0x20 PUSH2 0x27F9 DUP4 CODECOPY DUP2 MLOAD SWAP2 MSTORE CALLER PUSH2 0xDB3 JUMP JUMPDEST ISZERO ISZERO PUSH1 0x1 EQ PUSH2 0x5AE JUMPI PUSH1 0x40 MLOAD PUSH3 0x461BCD PUSH1 0xE5 SHL DUP2 MSTORE PUSH1 0x4 ADD PUSH2 0x48C SWAP1 PUSH2 0x24A2 JUMP JUMPDEST PUSH2 0x5D9 DUP5 PUSH32 0x0 DUP5 PUSH2 0x18AE JUMP JUMPDEST PUSH2 0x604 DUP4 PUSH32 0x0 DUP4 PUSH2 0x18AE JUMP JUMPDEST POP POP POP POP JUMP JUMPDEST PUSH1 0x0 DUP3 DUP2 MSTORE PUSH1 0x20 DUP2 SWAP1 MSTORE PUSH1 0x40 SWAP1 KECCAK256 PUSH1 0x2 ADD SLOAD PUSH2 0x628 SWAP1 PUSH2 0x33C PUSH2 0x19F5 JUMP JUMPDEST PUSH2 0x663 JUMPI PUSH1 0x40 MLOAD PUSH3 0x461BCD PUSH1 0xE5 SHL DUP2 MSTORE PUSH1 0x4 ADD DUP1 DUP1 PUSH1 0x20 ADD DUP3 DUP2 SUB DUP3 MSTORE PUSH1 0x2F DUP2 MSTORE PUSH1 0x20 ADD DUP1 PUSH2 0x277A PUSH1 0x2F SWAP2 CODECOPY PUSH1 0x40 ADD SWAP2 POP POP PUSH1 0x40 MLOAD DUP1 SWAP2 SUB SWAP1 REVERT JUMPDEST PUSH2 0x66D DUP3 DUP3 PUSH2 0x19F9 JUMP JUMPDEST POP POP JUMP JUMPDEST PUSH2 0x679 PUSH2 0x19F5 JUMP JUMPDEST PUSH1 0x1 PUSH1 0x1 PUSH1 0xA0 SHL SUB AND DUP2 PUSH1 0x1 PUSH1 0x1 PUSH1 0xA0 SHL SUB AND EQ PUSH2 0x6C8 JUMPI PUSH1 0x40 MLOAD PUSH3 0x461BCD PUSH1 0xE5 SHL DUP2 MSTORE PUSH1 0x4 ADD DUP1 DUP1 PUSH1 0x20 ADD DUP3 DUP2 SUB DUP3 MSTORE PUSH1 0x2F DUP2 MSTORE PUSH1 0x20 ADD DUP1 PUSH2 0x2819 PUSH1 0x2F SWAP2 CODECOPY PUSH1 0x40 ADD SWAP2 POP POP PUSH1 0x40 MLOAD DUP1 SWAP2 SUB SWAP1 REVERT JUMPDEST PUSH2 0x66D DUP3 DUP3 PUSH2 0x1A62 JUMP JUMPDEST PUSH1 0x0 DUP1 PUSH2 0x6ED PUSH1 0x0 DUP1 MLOAD PUSH1 0x20 PUSH2 0x27F9 DUP4 CODECOPY DUP2 MLOAD SWAP2 MSTORE CALLER PUSH2 0xDB3 JUMP JUMPDEST ISZERO ISZERO PUSH1 0x1 EQ DUP1 PUSH2 0x716 JUMPI POP PUSH2 0x710 PUSH1 0x0 DUP1 MLOAD PUSH1 0x20 PUSH2 0x27D9 DUP4 CODECOPY DUP2 MLOAD SWAP2 MSTORE CALLER PUSH2 0xDB3 JUMP JUMPDEST ISZERO ISZERO PUSH1 0x1 EQ JUMPDEST PUSH2 0x732 JUMPI PUSH1 0x40 MLOAD PUSH3 0x461BCD PUSH1 0xE5 SHL DUP2 MSTORE PUSH1 0x4 ADD PUSH2 0x48C SWAP1 PUSH2 0x2475 JUMP JUMPDEST PUSH1 0x1 DUP4 ISZERO ISZERO EQ ISZERO PUSH2 0x776 JUMPI PUSH2 0x755 PUSH1 0x0 DUP1 MLOAD PUSH1 0x20 PUSH2 0x27F9 DUP4 CODECOPY DUP2 MLOAD SWAP2 MSTORE CALLER PUSH2 0xDB3 JUMP JUMPDEST ISZERO ISZERO PUSH1 0x1 EQ PUSH2 0x776 JUMPI PUSH1 0x40 MLOAD PUSH3 0x461BCD PUSH1 0xE5 SHL DUP2 MSTORE PUSH1 0x4 ADD PUSH2 0x48C SWAP1 PUSH2 0x24A2 JUMP JUMPDEST PUSH1 0x0 PUSH1 0x40 MLOAD DUP1 PUSH1 0x80 ADD PUSH1 0x40 MSTORE DUP1 DUP7 DUP2 MSTORE PUSH1 0x20 ADD DUP6 PUSH2 0x794 JUMPI ADDRESS PUSH2 0x796 JUMP JUMPDEST CALLER JUMPDEST PUSH1 0x1 PUSH1 0x1 PUSH1 0xA0 SHL SUB SWAP1 DUP2 AND DUP3 MSTORE PUSH1 0x1 PUSH1 0x1 PUSH1 0x80 SHL SUB PUSH1 0x20 DUP4 ADD DUP2 SWAP1 MSTORE PUSH1 0x40 SWAP3 DUP4 ADD MSTORE SWAP1 MLOAD PUSH4 0xFC6F7865 PUSH1 0xE0 SHL DUP2 MSTORE SWAP2 SWAP3 POP PUSH32 0x0 AND SWAP1 PUSH4 0xFC6F7865 SWAP1 PUSH2 0x7FE SWAP1 DUP5 SWAP1 PUSH1 0x4 ADD PUSH2 0x24C5 JUMP JUMPDEST PUSH1 0x40 DUP1 MLOAD DUP1 DUP4 SUB DUP2 PUSH1 0x0 DUP8 DUP1 EXTCODESIZE ISZERO DUP1 ISZERO PUSH2 0x817 JUMPI PUSH1 0x0 DUP1 REVERT JUMPDEST POP GAS CALL ISZERO DUP1 ISZERO PUSH2 0x82B JUMPI RETURNDATASIZE PUSH1 0x0 DUP1 RETURNDATACOPY RETURNDATASIZE PUSH1 0x0 REVERT JUMPDEST POP POP POP POP PUSH1 0x40 MLOAD RETURNDATASIZE PUSH1 0x1F NOT PUSH1 0x1F DUP3 ADD AND DUP3 ADD DUP1 PUSH1 0x40 MSTORE POP DUP2 ADD SWAP1 PUSH2 0x84F SWAP2 SWAP1 PUSH2 0x21A8 JUMP JUMPDEST PUSH1 0x40 MLOAD SWAP2 SWAP5 POP SWAP3 POP PUSH32 0xEAA34316C1AC0AC2B8445632FEF75DAD91F846CC69C40A558CCFD6E5700BB79A SWAP1 PUSH2 0x88A SWAP1 DUP8 SWAP1 DUP7 SWAP1 DUP7 SWAP1 DUP10 SWAP1 PUSH2 0x26C9 JUMP JUMPDEST PUSH1 0x40 MLOAD DUP1 SWAP2 SUB SWAP1 LOG1 POP SWAP3 POP SWAP3 SWAP1 POP JUMP JUMPDEST PUSH2 0x8B2 PUSH1 0x0 DUP1 MLOAD PUSH1 0x20 PUSH2 0x27F9 DUP4 CODECOPY DUP2 MLOAD SWAP2 MSTORE CALLER PUSH2 0xDB3 JUMP JUMPDEST ISZERO ISZERO PUSH1 0x1 EQ PUSH2 0x8D3 JUMPI PUSH1 0x40 MLOAD PUSH3 0x461BCD PUSH1 0xE5 SHL DUP2 MSTORE PUSH1 0x4 ADD PUSH2 0x48C SWAP1 PUSH2 0x24A2 JUMP JUMPDEST PUSH1 0x40 MLOAD PUSH4 0x21421707 PUSH1 0xE1 SHL DUP2 MSTORE PUSH1 0x1 PUSH1 0x1 PUSH1 0xA0 SHL SUB PUSH32 0x0 AND SWAP1 PUSH4 0x42842E0E SWAP1 PUSH2 0x923 SWAP1 ADDRESS SWAP1 DUP6 SWAP1 DUP8 SWAP1 PUSH1 0x4 ADD PUSH2 0x23DC JUMP JUMPDEST PUSH1 0x0 PUSH1 0x40 MLOAD DUP1 DUP4 SUB DUP2 PUSH1 0x0 DUP8 DUP1 EXTCODESIZE ISZERO DUP1 ISZERO PUSH2 0x93D JUMPI PUSH1 0x0 DUP1 REVERT JUMPDEST POP GAS CALL ISZERO DUP1 ISZERO PUSH2 0x951 JUMPI RETURNDATASIZE PUSH1 0x0 DUP1 RETURNDATACOPY RETURNDATASIZE PUSH1 0x0 REVERT JUMPDEST POP POP POP PUSH1 0x0 SWAP3 DUP4 MSTORE POP POP PUSH1 0x1 PUSH1 0x20 DUP2 SWAP1 MSTORE PUSH1 0x40 SWAP1 SWAP2 KECCAK256 DUP1 SLOAD PUSH1 0x1 PUSH1 0x1 PUSH1 0xA0 SHL SUB NOT AND DUP2 SSTORE ADD DUP1 SLOAD PUSH1 0x1 PUSH1 0x1 PUSH1 0xE8 SHL SUB NOT AND SWAP1 SSTORE JUMP JUMPDEST PUSH1 0x0 PUSH2 0x9A0 PUSH1 0x0 DUP1 MLOAD PUSH1 0x20 PUSH2 0x27F9 DUP4 CODECOPY DUP2 MLOAD SWAP2 MSTORE CALLER PUSH2 0xDB3 JUMP JUMPDEST ISZERO ISZERO PUSH1 0x1 EQ DUP1 PUSH2 0x9C9 JUMPI POP PUSH2 0x9C3 PUSH1 0x0 DUP1 MLOAD PUSH1 0x20 PUSH2 0x27D9 DUP4 CODECOPY DUP2 MLOAD SWAP2 MSTORE CALLER PUSH2 0xDB3 JUMP JUMPDEST ISZERO ISZERO PUSH1 0x1 EQ JUMPDEST PUSH2 0x9E5 JUMPI PUSH1 0x40 MLOAD PUSH3 0x461BCD PUSH1 0xE5 SHL DUP2 MSTORE PUSH1 0x4 ADD PUSH2 0x48C SWAP1 PUSH2 0x2475 JUMP JUMPDEST PUSH1 0x40 DUP1 MLOAD PUSH2 0x100 DUP2 ADD DUP3 MSTORE PUSH1 0x1 PUSH1 0x1 PUSH1 0xA0 SHL SUB DUP1 DUP11 AND DUP3 MSTORE DUP9 DUP2 AND PUSH1 0x20 DUP4 ADD MSTORE PUSH3 0xFFFFFF DUP9 AND DUP3 DUP5 ADD MSTORE ADDRESS PUSH1 0x60 DUP4 ADD MSTORE TIMESTAMP PUSH1 0x80 DUP4 ADD MSTORE PUSH1 0xA0 DUP3 ADD DUP8 SWAP1 MSTORE PUSH1 0xC0 DUP3 ADD DUP7 SWAP1 MSTORE DUP5 DUP2 AND PUSH1 0xE0 DUP4 ADD MSTORE SWAP2 MLOAD PUSH4 0x1B67C433 PUSH1 0xE3 SHL DUP2 MSTORE SWAP1 SWAP2 PUSH32 0x0 AND SWAP1 PUSH4 0xDB3E2198 SWAP1 PUSH2 0xA76 SWAP1 DUP5 SWAP1 PUSH1 0x4 ADD PUSH2 0x254B JUMP JUMPDEST PUSH1 0x20 PUSH1 0x40 MLOAD DUP1 DUP4 SUB DUP2 PUSH1 0x0 DUP8 DUP1 EXTCODESIZE ISZERO DUP1 ISZERO PUSH2 0xA90 JUMPI PUSH1 0x0 DUP1 REVERT JUMPDEST POP GAS CALL ISZERO DUP1 ISZERO PUSH2 0xAA4 JUMPI RETURNDATASIZE PUSH1 0x0 DUP1 RETURNDATACOPY RETURNDATASIZE PUSH1 0x0 REVERT JUMPDEST POP POP POP POP PUSH1 0x40 MLOAD RETURNDATASIZE PUSH1 0x1F NOT PUSH1 0x1F DUP3 ADD AND DUP3 ADD DUP1 PUSH1 0x40 MSTORE POP DUP2 ADD SWAP1 PUSH2 0xAC8 SWAP2 SWAP1 PUSH2 0x2104 JUMP JUMPDEST SWAP2 POP PUSH32 0x1F2C1DE040604EAF4A8C72B05BD7C16FAE213F15CBDE69ECF70DD3B97FEF1F2F DUP9 DUP9 DUP5 DUP9 PUSH1 0x40 MLOAD PUSH2 0xAFF SWAP5 SWAP4 SWAP3 SWAP2 SWAP1 PUSH2 0x2400 JUMP JUMPDEST PUSH1 0x40 MLOAD DUP1 SWAP2 SUB SWAP1 LOG1 POP SWAP7 SWAP6 POP POP POP POP POP POP JUMP JUMPDEST PUSH2 0xB2A PUSH1 0x0 DUP1 MLOAD PUSH1 0x20 PUSH2 0x27F9 DUP4 CODECOPY DUP2 MLOAD SWAP2 MSTORE CALLER PUSH2 0xDB3 JUMP JUMPDEST ISZERO ISZERO PUSH1 0x1 EQ PUSH2 0xB4B JUMPI PUSH1 0x40 MLOAD PUSH3 0x461BCD PUSH1 0xE5 SHL DUP2 MSTORE PUSH1 0x4 ADD PUSH2 0x48C SWAP1 PUSH2 0x24A2 JUMP JUMPDEST PUSH2 0xB76 DUP5 PUSH32 0x0 DUP5 PUSH2 0x18AE JUMP JUMPDEST PUSH2 0x604 DUP4 PUSH32 0x0 DUP4 PUSH2 0x18AE JUMP JUMPDEST PUSH1 0x0 DUP1 MLOAD PUSH1 0x20 PUSH2 0x27F9 DUP4 CODECOPY DUP2 MLOAD SWAP2 MSTORE DUP2 JUMP JUMPDEST PUSH2 0xBCB PUSH1 0x0 DUP1 MLOAD PUSH1 0x20 PUSH2 0x27F9 DUP4 CODECOPY DUP2 MLOAD SWAP2 MSTORE CALLER PUSH2 0xDB3 JUMP JUMPDEST ISZERO ISZERO PUSH1 0x1 EQ PUSH2 0xBEC JUMPI PUSH1 0x40 MLOAD PUSH3 0x461BCD PUSH1 0xE5 SHL DUP2 MSTORE PUSH1 0x4 ADD PUSH2 0x48C SWAP1 PUSH2 0x24A2 JUMP JUMPDEST PUSH1 0x0 DUP4 DUP2 MSTORE PUSH1 0x1 PUSH1 0x20 DUP2 SWAP1 MSTORE PUSH1 0x40 SWAP1 SWAP2 KECCAK256 DUP1 SLOAD SWAP2 ADD SLOAD PUSH2 0x4A0 SWAP2 PUSH1 0x1 PUSH1 0x1 PUSH1 0xA0 SHL SUB SWAP1 DUP2 AND SWAP2 AND DUP5 DUP5 PUSH2 0x12C0 JUMP JUMPDEST PUSH1 0x0 DUP1 PUSH2 0xC35 PUSH1 0x0 DUP1 MLOAD PUSH1 0x20 PUSH2 0x27F9 DUP4 CODECOPY DUP2 MLOAD SWAP2 MSTORE CALLER PUSH2 0xDB3 JUMP JUMPDEST ISZERO ISZERO PUSH1 0x1 EQ DUP1 PUSH2 0xC5E JUMPI POP PUSH2 0xC58 PUSH1 0x0 DUP1 MLOAD PUSH1 0x20 PUSH2 0x27D9 DUP4 CODECOPY DUP2 MLOAD SWAP2 MSTORE CALLER PUSH2 0xDB3 JUMP JUMPDEST ISZERO ISZERO PUSH1 0x1 EQ JUMPDEST PUSH2 0xC7A JUMPI PUSH1 0x40 MLOAD PUSH3 0x461BCD PUSH1 0xE5 SHL DUP2 MSTORE PUSH1 0x4 ADD PUSH2 0x48C SWAP1 PUSH2 0x2475 JUMP JUMPDEST PUSH1 0x40 DUP1 MLOAD PUSH1 0xA0 DUP2 ADD DUP3 MSTORE DUP8 DUP2 MSTORE PUSH1 0x1 PUSH1 0x1 PUSH1 0x80 SHL SUB DUP8 AND PUSH1 0x20 DUP3 ADD MSTORE DUP1 DUP3 ADD DUP7 SWAP1 MSTORE PUSH1 0x60 DUP2 ADD DUP6 SWAP1 MSTORE TIMESTAMP PUSH1 0x80 DUP3 ADD MSTORE SWAP1 MLOAD PUSH4 0x624E65F PUSH1 0xE1 SHL DUP2 MSTORE PUSH1 0x1 PUSH1 0x1 PUSH1 0xA0 SHL SUB PUSH32 0x0 AND SWAP1 PUSH4 0xC49CCBE SWAP1 PUSH2 0xCF4 SWAP1 DUP5 SWAP1 PUSH1 0x4 ADD PUSH2 0x2508 JUMP JUMPDEST PUSH1 0x40 DUP1 MLOAD DUP1 DUP4 SUB DUP2 PUSH1 0x0 DUP8 DUP1 EXTCODESIZE ISZERO DUP1 ISZERO PUSH2 0xD0D JUMPI PUSH1 0x0 DUP1 REVERT JUMPDEST POP GAS CALL ISZERO DUP1 ISZERO PUSH2 0xD21 JUMPI RETURNDATASIZE PUSH1 0x0 DUP1 RETURNDATACOPY RETURNDATASIZE PUSH1 0x0 REVERT JUMPDEST POP POP POP POP PUSH1 0x40 MLOAD RETURNDATASIZE PUSH1 0x1F NOT PUSH1 0x1F DUP3 ADD AND DUP3 ADD DUP1 PUSH1 0x40 MSTORE POP DUP2 ADD SWAP1 PUSH2 0xD45 SWAP2 SWAP1 PUSH2 0x21A8 JUMP JUMPDEST PUSH1 0x40 MLOAD SWAP2 SWAP5 POP SWAP3 POP PUSH32 0xC79CB6614F7BCC31F0121C4DB623A782836F42B2D8E5290A19340BDBC25032F7 SWAP1 PUSH2 0xD80 SWAP1 DUP10 SWAP1 DUP7 SWAP1 DUP7 SWAP1 DUP12 SWAP1 PUSH2 0x26E6 JUMP JUMPDEST PUSH1 0x40 MLOAD DUP1 SWAP2 SUB SWAP1 LOG1 POP SWAP5 POP SWAP5 SWAP3 POP POP POP JUMP JUMPDEST PUSH1 0x0 DUP3 DUP2 MSTORE PUSH1 0x20 DUP2 SWAP1 MSTORE PUSH1 0x40 DUP2 KECCAK256 PUSH2 0xDAA SWAP1 DUP4 PUSH2 0x1ACB JUMP JUMPDEST SWAP1 POP JUMPDEST SWAP3 SWAP2 POP POP JUMP JUMPDEST PUSH1 0x0 DUP3 DUP2 MSTORE PUSH1 0x20 DUP2 SWAP1 MSTORE PUSH1 0x40 DUP2 KECCAK256 PUSH2 0xDAA SWAP1 DUP4 PUSH2 0x1AD7 JUMP JUMPDEST PUSH1 0x0 DUP2 JUMP JUMPDEST PUSH2 0xDE8 PUSH1 0x0 DUP1 MLOAD PUSH1 0x20 PUSH2 0x27F9 DUP4 CODECOPY DUP2 MLOAD SWAP2 MSTORE CALLER PUSH2 0xDB3 JUMP JUMPDEST ISZERO ISZERO PUSH1 0x1 EQ PUSH2 0xE09 JUMPI PUSH1 0x40 MLOAD PUSH3 0x461BCD PUSH1 0xE5 SHL DUP2 MSTORE PUSH1 0x4 ADD PUSH2 0x48C SWAP1 PUSH2 0x24A2 JUMP JUMPDEST PUSH2 0xE38 DUP3 PUSH32 0x0 PUSH1 0x1 PUSH1 0xFF SHL PUSH2 0x18AE JUMP JUMPDEST PUSH2 0xE67 DUP2 PUSH32 0x0 PUSH1 0x1 PUSH1 0xFF SHL PUSH2 0x18AE JUMP JUMPDEST PUSH2 0xE96 DUP3 PUSH32 0x0 PUSH1 0x1 PUSH1 0xFF SHL PUSH2 0x18AE JUMP JUMPDEST PUSH2 0x66D DUP2 PUSH32 0x0 PUSH1 0x1 PUSH1 0xFF SHL PUSH2 0x18AE JUMP JUMPDEST PUSH1 0x1 PUSH1 0x20 DUP2 SWAP1 MSTORE PUSH1 0x0 SWAP2 DUP3 MSTORE PUSH1 0x40 SWAP1 SWAP2 KECCAK256 DUP1 SLOAD SWAP2 ADD SLOAD PUSH1 0x1 PUSH1 0x1 PUSH1 0xA0 SHL SUB SWAP2 DUP3 AND SWAP2 DUP2 AND SWAP1 PUSH3 0xFFFFFF PUSH1 0x1 PUSH1 0xA0 SHL DUP3 DIV AND SWAP1 PUSH1 0x1 PUSH1 0xB8 SHL DUP2 DIV PUSH1 0x2 SWAP1 DUP2 SIGNEXTEND SWAP2 PUSH1 0x1 PUSH1 0xD0 SHL SWAP1 DIV SWAP1 SIGNEXTEND DUP6 JUMP JUMPDEST PUSH32 0x0 DUP2 JUMP JUMPDEST PUSH1 0x0 PUSH2 0xF4E PUSH1 0x0 DUP1 MLOAD PUSH1 0x20 PUSH2 0x27F9 DUP4 CODECOPY DUP2 MLOAD SWAP2 MSTORE CALLER PUSH2 0xDB3 JUMP JUMPDEST ISZERO ISZERO PUSH1 0x1 EQ DUP1 PUSH2 0xF77 JUMPI POP PUSH2 0xF71 PUSH1 0x0 DUP1 MLOAD PUSH1 0x20 PUSH2 0x27D9 DUP4 CODECOPY DUP2 MLOAD SWAP2 MSTORE CALLER PUSH2 0xDB3 JUMP JUMPDEST ISZERO ISZERO PUSH1 0x1 EQ JUMPDEST PUSH2 0xF93 JUMPI PUSH1 0x40 MLOAD PUSH3 0x461BCD PUSH1 0xE5 SHL DUP2 MSTORE PUSH1 0x4 ADD PUSH2 0x48C SWAP1 PUSH2 0x2475 JUMP JUMPDEST PUSH1 0x40 DUP1 MLOAD PUSH2 0x100 DUP2 ADD DUP3 MSTORE PUSH1 0x1 PUSH1 0x1 PUSH1 0xA0 SHL SUB DUP1 DUP11 AND DUP3 MSTORE DUP9 DUP2 AND PUSH1 0x20 DUP4 ADD MSTORE PUSH3 0xFFFFFF DUP9 AND DUP3 DUP5 ADD MSTORE ADDRESS PUSH1 0x60 DUP4 ADD MSTORE TIMESTAMP PUSH1 0x80 DUP4 ADD MSTORE PUSH1 0xA0 DUP3 ADD DUP8 SWAP1 MSTORE PUSH1 0xC0 DUP3 ADD DUP7 SWAP1 MSTORE DUP5 DUP2 AND PUSH1 0xE0 DUP4 ADD MSTORE SWAP2 MLOAD PUSH4 0x414BF389 PUSH1 0xE0 SHL DUP2 MSTORE SWAP1 SWAP2 PUSH32 0x0 AND SWAP1 PUSH4 0x414BF389 SWAP1 PUSH2 0x1024 SWAP1 DUP5 SWAP1 PUSH1 0x4 ADD PUSH2 0x254B JUMP JUMPDEST PUSH1 0x20 PUSH1 0x40 MLOAD DUP1 DUP4 SUB DUP2 PUSH1 0x0 DUP8 DUP1 EXTCODESIZE ISZERO DUP1 ISZERO PUSH2 0x103E JUMPI PUSH1 0x0 DUP1 REVERT JUMPDEST POP GAS CALL ISZERO DUP1 ISZERO PUSH2 0x1052 JUMPI RETURNDATASIZE PUSH1 0x0 DUP1 RETURNDATACOPY RETURNDATASIZE PUSH1 0x0 REVERT JUMPDEST POP POP POP POP PUSH1 0x40 MLOAD RETURNDATASIZE PUSH1 0x1F NOT PUSH1 0x1F DUP3 ADD AND DUP3 ADD DUP1 PUSH1 0x40 MSTORE POP DUP2 ADD SWAP1 PUSH2 0x1076 SWAP2 SWAP1 PUSH2 0x2104 JUMP JUMPDEST SWAP2 POP PUSH32 0x1F2C1DE040604EAF4A8C72B05BD7C16FAE213F15CBDE69ECF70DD3B97FEF1F2F DUP9 DUP9 DUP8 DUP6 PUSH1 0x40 MLOAD PUSH2 0xAFF SWAP5 SWAP4 SWAP3 SWAP2 SWAP1 PUSH2 0x2400 JUMP JUMPDEST PUSH32 0x0 DUP2 JUMP JUMPDEST PUSH1 0x0 DUP1 PUSH1 0x0 PUSH2 0x10EE PUSH1 0x0 DUP1 MLOAD PUSH1 0x20 PUSH2 0x27F9 DUP4 CODECOPY DUP2 MLOAD SWAP2 MSTORE CALLER PUSH2 0xDB3 JUMP JUMPDEST ISZERO ISZERO PUSH1 0x1 EQ DUP1 PUSH2 0x1117 JUMPI POP PUSH2 0x1111 PUSH1 0x0 DUP1 MLOAD PUSH1 0x20 PUSH2 0x27D9 DUP4 CODECOPY DUP2 MLOAD SWAP2 MSTORE CALLER PUSH2 0xDB3 JUMP JUMPDEST ISZERO ISZERO PUSH1 0x1 EQ JUMPDEST PUSH2 0x1133 JUMPI PUSH1 0x40 MLOAD PUSH3 0x461BCD PUSH1 0xE5 SHL DUP2 MSTORE PUSH1 0x4 ADD PUSH2 0x48C SWAP1 PUSH2 0x2475 JUMP JUMPDEST PUSH1 0x40 DUP1 MLOAD PUSH1 0xC0 DUP2 ADD DUP3 MSTORE DUP10 DUP2 MSTORE PUSH1 0x20 DUP2 ADD DUP10 SWAP1 MSTORE DUP1 DUP3 ADD DUP9 SWAP1 MSTORE PUSH1 0x60 DUP2 ADD DUP8 SWAP1 MSTORE PUSH1 0x80 DUP2 ADD DUP7 SWAP1 MSTORE TIMESTAMP PUSH1 0xA0 DUP3 ADD MSTORE SWAP1 MLOAD PUSH4 0x219F5D17 PUSH1 0xE0 SHL DUP2 MSTORE PUSH1 0x1 PUSH1 0x1 PUSH1 0xA0 SHL SUB PUSH32 0x0 AND SWAP1 PUSH4 0x219F5D17 SWAP1 PUSH2 0x11AC SWAP1 DUP5 SWAP1 PUSH1 0x4 ADD PUSH2 0x255A JUMP JUMPDEST PUSH1 0x60 PUSH1 0x40 MLOAD DUP1 DUP4 SUB DUP2 PUSH1 0x0 DUP8 DUP1 EXTCODESIZE ISZERO DUP1 ISZERO PUSH2 0x11C6 JUMPI PUSH1 0x0 DUP1 REVERT JUMPDEST POP GAS CALL ISZERO DUP1 ISZERO PUSH2 0x11DA JUMPI RETURNDATASIZE PUSH1 0x0 DUP1 RETURNDATACOPY RETURNDATASIZE PUSH1 0x0 REVERT JUMPDEST POP POP POP POP PUSH1 0x40 MLOAD RETURNDATASIZE PUSH1 0x1F NOT PUSH1 0x1F DUP3 ADD AND DUP3 ADD DUP1 PUSH1 0x40 MSTORE POP DUP2 ADD SWAP1 PUSH2 0x11FE SWAP2 SWAP1 PUSH2 0x20CE JUMP JUMPDEST PUSH1 0x40 MLOAD SWAP3 SWAP7 POP SWAP1 SWAP5 POP SWAP3 POP PUSH32 0x2D6EDBED0A944A56E78D8CED0BC4794533B38938655F47C5A423559A1163B104 SWAP1 PUSH2 0x123C SWAP1 DUP12 SWAP1 DUP7 SWAP1 DUP7 SWAP1 DUP10 SWAP1 PUSH2 0x26E6 JUMP JUMPDEST PUSH1 0x40 MLOAD DUP1 SWAP2 SUB SWAP1 LOG1 POP SWAP6 POP SWAP6 POP SWAP6 SWAP3 POP POP POP JUMP JUMPDEST PUSH1 0x0 DUP2 DUP2 MSTORE PUSH1 0x20 DUP2 SWAP1 MSTORE PUSH1 0x40 DUP2 KECCAK256 PUSH2 0xDAD SWAP1 PUSH2 0x1AEC JUMP JUMPDEST PUSH1 0x0 DUP3 DUP2 MSTORE PUSH1 0x20 DUP2 SWAP1 MSTORE PUSH1 0x40 SWAP1 KECCAK256 PUSH1 0x2 ADD SLOAD PUSH2 0x1285 SWAP1 PUSH2 0x33C PUSH2 0x19F5 JUMP JUMPDEST PUSH2 0x6C8 JUMPI PUSH1 0x40 MLOAD PUSH3 0x461BCD PUSH1 0xE5 SHL DUP2 MSTORE PUSH1 0x4 ADD DUP1 DUP1 PUSH1 0x20 ADD DUP3 DUP2 SUB DUP3 MSTORE PUSH1 0x30 DUP2 MSTORE PUSH1 0x20 ADD DUP1 PUSH2 0x27A9 PUSH1 0x30 SWAP2 CODECOPY PUSH1 0x40 ADD SWAP2 POP POP PUSH1 0x40 MLOAD DUP1 SWAP2 SUB SWAP1 REVERT JUMPDEST PUSH2 0x12D8 PUSH1 0x0 DUP1 MLOAD PUSH1 0x20 PUSH2 0x27F9 DUP4 CODECOPY DUP2 MLOAD SWAP2 MSTORE CALLER PUSH2 0xDB3 JUMP JUMPDEST ISZERO ISZERO PUSH1 0x1 EQ PUSH2 0x12F9 JUMPI PUSH1 0x40 MLOAD PUSH3 0x461BCD PUSH1 0xE5 SHL DUP2 MSTORE PUSH1 0x4 ADD PUSH2 0x48C SWAP1 PUSH2 0x24A2 JUMP JUMPDEST PUSH2 0x1305 DUP5 CALLER ADDRESS DUP6 PUSH2 0x1AF7 JUMP JUMPDEST PUSH2 0x604 DUP4 CALLER ADDRESS DUP5 PUSH2 0x1AF7 JUMP JUMPDEST PUSH1 0x0 DUP1 PUSH1 0x0 DUP1 PUSH2 0x132F PUSH1 0x0 DUP1 MLOAD PUSH1 0x20 PUSH2 0x27F9 DUP4 CODECOPY DUP2 MLOAD SWAP2 MSTORE CALLER PUSH2 0xDB3 JUMP JUMPDEST ISZERO ISZERO PUSH1 0x1 EQ DUP1 PUSH2 0x1358 JUMPI POP PUSH2 0x1352 PUSH1 0x0 DUP1 MLOAD PUSH1 0x20 PUSH2 0x27D9 DUP4 CODECOPY DUP2 MLOAD SWAP2 MSTORE CALLER PUSH2 0xDB3 JUMP JUMPDEST ISZERO ISZERO PUSH1 0x1 EQ JUMPDEST PUSH2 0x1374 JUMPI PUSH1 0x40 MLOAD PUSH3 0x461BCD PUSH1 0xE5 SHL DUP2 MSTORE PUSH1 0x4 ADD PUSH2 0x48C SWAP1 PUSH2 0x2475 JUMP JUMPDEST PUSH1 0x0 PUSH1 0x40 MLOAD DUP1 PUSH2 0x160 ADD PUSH1 0x40 MSTORE DUP1 DUP16 PUSH1 0x1 PUSH1 0x1 PUSH1 0xA0 SHL SUB AND DUP2 MSTORE PUSH1 0x20 ADD DUP15 PUSH1 0x1 PUSH1 0x1 PUSH1 0xA0 SHL SUB AND DUP2 MSTORE PUSH1 0x20 ADD DUP14 PUSH3 0xFFFFFF AND DUP2 MSTORE PUSH1 0x20 ADD DUP13 PUSH1 0x2 SIGNEXTEND DUP2 MSTORE PUSH1 0x20 ADD DUP12 PUSH1 0x2 SIGNEXTEND DUP2 MSTORE PUSH1 0x20 ADD DUP11 DUP2 MSTORE PUSH1 0x20 ADD DUP10 DUP2 MSTORE PUSH1 0x20 ADD DUP9 DUP2 MSTORE PUSH1 0x20 ADD DUP8 DUP2 MSTORE PUSH1 0x20 ADD ADDRESS PUSH1 0x1 PUSH1 0x1 PUSH1 0xA0 SHL SUB AND DUP2 MSTORE PUSH1 0x20 ADD TIMESTAMP PUSH1 0x64 ADD DUP2 MSTORE POP SWAP1 POP PUSH32 0x0 PUSH1 0x1 PUSH1 0x1 PUSH1 0xA0 SHL SUB AND PUSH4 0x88316456 DUP3 PUSH1 0x40 MLOAD DUP3 PUSH4 0xFFFFFFFF AND PUSH1 0xE0 SHL DUP2 MSTORE PUSH1 0x4 ADD PUSH2 0x1439 SWAP2 SWAP1 PUSH2 0x259E JUMP JUMPDEST PUSH1 0x80 PUSH1 0x40 MLOAD DUP1 DUP4 SUB DUP2 PUSH1 0x0 DUP8 DUP1 EXTCODESIZE ISZERO DUP1 ISZERO PUSH2 0x1453 JUMPI PUSH1 0x0 DUP1 REVERT JUMPDEST POP GAS CALL ISZERO DUP1 ISZERO PUSH2 0x1467 JUMPI RETURNDATASIZE PUSH1 0x0 DUP1 RETURNDATACOPY RETURNDATASIZE PUSH1 0x0 REVERT JUMPDEST POP POP POP POP PUSH1 0x40 MLOAD RETURNDATASIZE PUSH1 0x1F NOT PUSH1 0x1F DUP3 ADD AND DUP3 ADD DUP1 PUSH1 0x40 MSTORE POP DUP2 ADD SWAP1 PUSH2 0x148B SWAP2 SWAP1 PUSH2 0x216B JUMP JUMPDEST SWAP3 SWAP8 POP SWAP1 SWAP6 POP SWAP4 POP SWAP2 POP PUSH2 0x149E DUP6 PUSH2 0x1656 JUMP JUMPDEST POP SWAP10 POP SWAP10 POP SWAP10 POP SWAP10 SWAP6 POP POP POP POP POP POP JUMP JUMPDEST PUSH2 0x14C7 PUSH1 0x0 DUP1 MLOAD PUSH1 0x20 PUSH2 0x27F9 DUP4 CODECOPY DUP2 MLOAD SWAP2 MSTORE CALLER PUSH2 0xDB3 JUMP JUMPDEST ISZERO ISZERO PUSH1 0x1 EQ PUSH2 0x14E8 JUMPI PUSH1 0x40 MLOAD PUSH3 0x461BCD PUSH1 0xE5 SHL DUP2 MSTORE PUSH1 0x4 ADD PUSH2 0x48C SWAP1 PUSH2 0x24A2 JUMP JUMPDEST PUSH2 0x4A0 DUP4 DUP4 DUP4 PUSH2 0x18AE JUMP JUMPDEST PUSH1 0x0 PUSH2 0xDAA DUP4 PUSH1 0x1 PUSH1 0x1 PUSH1 0xA0 SHL SUB DUP5 AND PUSH2 0x1C47 JUMP JUMPDEST PUSH1 0x40 DUP1 MLOAD PUSH1 0x1 PUSH1 0x1 PUSH1 0xA0 SHL SUB DUP5 DUP2 AND PUSH1 0x24 DUP4 ADD MSTORE PUSH1 0x44 DUP1 DUP4 ADD DUP6 SWAP1 MSTORE DUP4 MLOAD DUP1 DUP5 SUB SWAP1 SWAP2 ADD DUP2 MSTORE PUSH1 0x64 SWAP1 SWAP3 ADD DUP4 MSTORE PUSH1 0x20 DUP3 ADD DUP1 MLOAD PUSH1 0x1 PUSH1 0x1 PUSH1 0xE0 SHL SUB AND PUSH4 0xA9059CBB PUSH1 0xE0 SHL OR DUP2 MSTORE SWAP3 MLOAD DUP3 MLOAD PUSH1 0x0 SWAP5 DUP6 SWAP5 SWAP4 DUP10 AND SWAP4 SWAP3 SWAP2 DUP3 SWAP2 SWAP1 DUP1 DUP4 DUP4 JUMPDEST PUSH1 0x20 DUP4 LT PUSH2 0x1584 JUMPI DUP1 MLOAD DUP3 MSTORE PUSH1 0x1F NOT SWAP1 SWAP3 ADD SWAP2 PUSH1 0x20 SWAP2 DUP3 ADD SWAP2 ADD PUSH2 0x1565 JUMP JUMPDEST PUSH1 0x1 DUP4 PUSH1 0x20 SUB PUSH2 0x100 EXP SUB DUP1 NOT DUP3 MLOAD AND DUP2 DUP5 MLOAD AND DUP1 DUP3 OR DUP6 MSTORE POP POP POP POP POP POP SWAP1 POP ADD SWAP2 POP POP PUSH1 0x0 PUSH1 0x40 MLOAD DUP1 DUP4 SUB DUP2 PUSH1 0x0 DUP7 GAS CALL SWAP2 POP POP RETURNDATASIZE DUP1 PUSH1 0x0 DUP2 EQ PUSH2 0x15E6 JUMPI PUSH1 0x40 MLOAD SWAP2 POP PUSH1 0x1F NOT PUSH1 0x3F RETURNDATASIZE ADD AND DUP3 ADD PUSH1 0x40 MSTORE RETURNDATASIZE DUP3 MSTORE RETURNDATASIZE PUSH1 0x0 PUSH1 0x20 DUP5 ADD RETURNDATACOPY PUSH2 0x15EB JUMP JUMPDEST PUSH1 0x60 SWAP2 POP JUMPDEST POP SWAP2 POP SWAP2 POP DUP2 DUP1 ISZERO PUSH2 0x1619 JUMPI POP DUP1 MLOAD ISZERO DUP1 PUSH2 0x1619 JUMPI POP DUP1 DUP1 PUSH1 0x20 ADD SWAP1 MLOAD PUSH1 0x20 DUP2 LT ISZERO PUSH2 0x1616 JUMPI PUSH1 0x0 DUP1 REVERT JUMPDEST POP MLOAD JUMPDEST PUSH2 0x164F JUMPI PUSH1 0x40 DUP1 MLOAD PUSH3 0x461BCD PUSH1 0xE5 SHL DUP2 MSTORE PUSH1 0x20 PUSH1 0x4 DUP3 ADD MSTORE PUSH1 0x2 PUSH1 0x24 DUP3 ADD MSTORE PUSH2 0x14D5 PUSH1 0xF2 SHL PUSH1 0x44 DUP3 ADD MSTORE SWAP1 MLOAD SWAP1 DUP2 SWAP1 SUB PUSH1 0x64 ADD SWAP1 REVERT JUMPDEST POP POP POP POP POP JUMP JUMPDEST PUSH1 0x0 DUP1 PUSH1 0x0 DUP1 PUSH1 0x0 DUP1 PUSH32 0x0 PUSH1 0x1 PUSH1 0x1 PUSH1 0xA0 SHL SUB AND PUSH4 0x99FBAB88 DUP9 PUSH1 0x40 MLOAD DUP3 PUSH4 0xFFFFFFFF AND PUSH1 0xE0 SHL DUP2 MSTORE PUSH1 0x4 ADD PUSH2 0x16AB SWAP2 SWAP1 PUSH2 0x2434 JUMP JUMPDEST PUSH2 0x180 PUSH1 0x40 MLOAD DUP1 DUP4 SUB DUP2 DUP7 DUP1 EXTCODESIZE ISZERO DUP1 ISZERO PUSH2 0x16C4 JUMPI PUSH1 0x0 DUP1 REVERT JUMPDEST POP GAS STATICCALL ISZERO DUP1 ISZERO PUSH2 0x16D8 JUMPI RETURNDATASIZE PUSH1 0x0 DUP1 RETURNDATACOPY RETURNDATASIZE PUSH1 0x0 REVERT JUMPDEST POP POP POP POP PUSH1 0x40 MLOAD RETURNDATASIZE PUSH1 0x1F NOT PUSH1 0x1F DUP3 ADD AND DUP3 ADD DUP1 PUSH1 0x40 MSTORE POP DUP2 ADD SWAP1 PUSH2 0x16FC SWAP2 SWAP1 PUSH2 0x2230 JUMP JUMPDEST POP POP POP POP POP SWAP7 POP SWAP7 POP SWAP7 POP SWAP7 POP SWAP7 POP SWAP7 POP POP ADDRESS PUSH1 0x1 PUSH1 0x1 PUSH1 0xA0 SHL SUB AND DUP7 PUSH1 0x1 PUSH1 0x1 PUSH1 0xA0 SHL SUB AND EQ PUSH2 0x173F JUMPI PUSH1 0x40 MLOAD PUSH3 0x461BCD PUSH1 0xE5 SHL DUP2 MSTORE PUSH1 0x4 ADD PUSH2 0x48C SWAP1 PUSH2 0x2452 JUMP JUMPDEST PUSH1 0x40 MLOAD DUP1 PUSH1 0xA0 ADD PUSH1 0x40 MSTORE DUP1 DUP7 PUSH1 0x1 PUSH1 0x1 PUSH1 0xA0 SHL SUB AND DUP2 MSTORE PUSH1 0x20 ADD DUP6 PUSH1 0x1 PUSH1 0x1 PUSH1 0xA0 SHL SUB AND DUP2 MSTORE PUSH1 0x20 ADD DUP5 PUSH3 0xFFFFFF AND DUP2 MSTORE PUSH1 0x20 ADD DUP4 PUSH1 0x2 SIGNEXTEND DUP2 MSTORE PUSH1 0x20 ADD DUP3 PUSH1 0x2 SIGNEXTEND DUP2 MSTORE POP PUSH1 0x1 PUSH1 0x0 DUP10 DUP2 MSTORE PUSH1 0x20 ADD SWAP1 DUP2 MSTORE PUSH1 0x20 ADD PUSH1 0x0 KECCAK256 PUSH1 0x0 DUP3 ADD MLOAD DUP2 PUSH1 0x0 ADD PUSH1 0x0 PUSH2 0x100 EXP DUP2 SLOAD DUP2 PUSH1 0x1 PUSH1 0x1 PUSH1 0xA0 SHL SUB MUL NOT AND SWAP1 DUP4 PUSH1 0x1 PUSH1 0x1 PUSH1 0xA0 SHL SUB AND MUL OR SWAP1 SSTORE POP PUSH1 0x20 DUP3 ADD MLOAD DUP2 PUSH1 0x1 ADD PUSH1 0x0 PUSH2 0x100 EXP DUP2 SLOAD DUP2 PUSH1 0x1 PUSH1 0x1 PUSH1 0xA0 SHL SUB MUL NOT AND SWAP1 DUP4 PUSH1 0x1 PUSH1 0x1 PUSH1 0xA0 SHL SUB AND MUL OR SWAP1 SSTORE POP PUSH1 0x40 DUP3 ADD MLOAD DUP2 PUSH1 0x1 ADD PUSH1 0x14 PUSH2 0x100 EXP DUP2 SLOAD DUP2 PUSH3 0xFFFFFF MUL NOT AND SWAP1 DUP4 PUSH3 0xFFFFFF AND MUL OR SWAP1 SSTORE POP PUSH1 0x60 DUP3 ADD MLOAD DUP2 PUSH1 0x1 ADD PUSH1 0x17 PUSH2 0x100 EXP DUP2 SLOAD DUP2 PUSH3 0xFFFFFF MUL NOT AND SWAP1 DUP4 PUSH1 0x2 SIGNEXTEND PUSH3 0xFFFFFF AND MUL OR SWAP1 SSTORE POP PUSH1 0x80 DUP3 ADD MLOAD DUP2 PUSH1 0x1 ADD PUSH1 0x1A PUSH2 0x100 EXP DUP2 SLOAD DUP2 PUSH3 0xFFFFFF MUL NOT AND SWAP1 DUP4 PUSH1 0x2 SIGNEXTEND PUSH3 0xFFFFFF AND MUL OR SWAP1 SSTORE POP SWAP1 POP POP PUSH32 0xC98B6CEF6BCB7A4F274AB1045EAD0065D8A07DF11B545D8DC8BD25F58B39D071 DUP8 DUP7 DUP7 DUP7 PUSH1 0x40 MLOAD PUSH2 0x189D SWAP5 SWAP4 SWAP3 SWAP2 SWAP1 PUSH2 0x266D JUMP JUMPDEST PUSH1 0x40 MLOAD DUP1 SWAP2 SUB SWAP1 LOG1 POP POP POP POP POP POP POP JUMP JUMPDEST PUSH1 0x40 DUP1 MLOAD PUSH1 0x1 PUSH1 0x1 PUSH1 0xA0 SHL SUB DUP5 DUP2 AND PUSH1 0x24 DUP4 ADD MSTORE PUSH1 0x44 DUP1 DUP4 ADD DUP6 SWAP1 MSTORE DUP4 MLOAD DUP1 DUP5 SUB SWAP1 SWAP2 ADD DUP2 MSTORE PUSH1 0x64 SWAP1 SWAP3 ADD DUP4 MSTORE PUSH1 0x20 DUP3 ADD DUP1 MLOAD PUSH1 0x1 PUSH1 0x1 PUSH1 0xE0 SHL SUB AND PUSH4 0x95EA7B3 PUSH1 0xE0 SHL OR DUP2 MSTORE SWAP3 MLOAD DUP3 MLOAD PUSH1 0x0 SWAP5 DUP6 SWAP5 SWAP4 DUP10 AND SWAP4 SWAP3 SWAP2 DUP3 SWAP2 SWAP1 DUP1 DUP4 DUP4 JUMPDEST PUSH1 0x20 DUP4 LT PUSH2 0x192A JUMPI DUP1 MLOAD DUP3 MSTORE PUSH1 0x1F NOT SWAP1 SWAP3 ADD SWAP2 PUSH1 0x20 SWAP2 DUP3 ADD SWAP2 ADD PUSH2 0x190B JUMP JUMPDEST PUSH1 0x1 DUP4 PUSH1 0x20 SUB PUSH2 0x100 EXP SUB DUP1 NOT DUP3 MLOAD AND DUP2 DUP5 MLOAD AND DUP1 DUP3 OR DUP6 MSTORE POP POP POP POP POP POP SWAP1 POP ADD SWAP2 POP POP PUSH1 0x0 PUSH1 0x40 MLOAD DUP1 DUP4 SUB DUP2 PUSH1 0x0 DUP7 GAS CALL SWAP2 POP POP RETURNDATASIZE DUP1 PUSH1 0x0 DUP2 EQ PUSH2 0x198C JUMPI PUSH1 0x40 MLOAD SWAP2 POP PUSH1 0x1F NOT PUSH1 0x3F RETURNDATASIZE ADD AND DUP3 ADD PUSH1 0x40 MSTORE RETURNDATASIZE DUP3 MSTORE RETURNDATASIZE PUSH1 0x0 PUSH1 0x20 DUP5 ADD RETURNDATACOPY PUSH2 0x1991 JUMP JUMPDEST PUSH1 0x60 SWAP2 POP JUMPDEST POP SWAP2 POP SWAP2 POP DUP2 DUP1 ISZERO PUSH2 0x19BF JUMPI POP DUP1 MLOAD ISZERO DUP1 PUSH2 0x19BF JUMPI POP DUP1 DUP1 PUSH1 0x20 ADD SWAP1 MLOAD PUSH1 0x20 DUP2 LT ISZERO PUSH2 0x19BC JUMPI PUSH1 0x0 DUP1 REVERT JUMPDEST POP MLOAD JUMPDEST PUSH2 0x164F JUMPI PUSH1 0x40 DUP1 MLOAD PUSH3 0x461BCD PUSH1 0xE5 SHL DUP2 MSTORE PUSH1 0x20 PUSH1 0x4 DUP3 ADD MSTORE PUSH1 0x2 PUSH1 0x24 DUP3 ADD MSTORE PUSH2 0x5341 PUSH1 0xF0 SHL PUSH1 0x44 DUP3 ADD MSTORE SWAP1 MLOAD SWAP1 DUP2 SWAP1 SUB PUSH1 0x64 ADD SWAP1 REVERT JUMPDEST CALLER SWAP1 JUMP JUMPDEST PUSH1 0x0 DUP3 DUP2 MSTORE PUSH1 0x20 DUP2 SWAP1 MSTORE PUSH1 0x40 SWAP1 KECCAK256 PUSH2 0x1A11 SWAP1 DUP3 PUSH2 0x14F3 JUMP JUMPDEST ISZERO PUSH2 0x66D JUMPI PUSH2 0x1A1E PUSH2 0x19F5 JUMP JUMPDEST PUSH1 0x1 PUSH1 0x1 PUSH1 0xA0 SHL SUB AND DUP2 PUSH1 0x1 PUSH1 0x1 PUSH1 0xA0 SHL SUB AND DUP4 PUSH32 0x2F8788117E7EFF1D82E926EC794901D17C78024A50270940304540A733656F0D PUSH1 0x40 MLOAD PUSH1 0x40 MLOAD DUP1 SWAP2 SUB SWAP1 LOG4 POP POP JUMP JUMPDEST PUSH1 0x0 DUP3 DUP2 MSTORE PUSH1 0x20 DUP2 SWAP1 MSTORE PUSH1 0x40 SWAP1 KECCAK256 PUSH2 0x1A7A SWAP1 DUP3 PUSH2 0x1C91 JUMP JUMPDEST ISZERO PUSH2 0x66D JUMPI PUSH2 0x1A87 PUSH2 0x19F5 JUMP JUMPDEST PUSH1 0x1 PUSH1 0x1 PUSH1 0xA0 SHL SUB AND DUP2 PUSH1 0x1 PUSH1 0x1 PUSH1 0xA0 SHL SUB AND DUP4 PUSH32 0xF6391F5C32D9C69D2A47EA670B442974B53935D1EDC7FD64EB21E047A839171B PUSH1 0x40 MLOAD PUSH1 0x40 MLOAD DUP1 SWAP2 SUB SWAP1 LOG4 POP POP JUMP JUMPDEST PUSH1 0x0 PUSH2 0xDAA DUP4 DUP4 PUSH2 0x1CA6 JUMP JUMPDEST PUSH1 0x0 PUSH2 0xDAA DUP4 PUSH1 0x1 PUSH1 0x1 PUSH1 0xA0 SHL SUB DUP5 AND PUSH2 0x1D0A JUMP JUMPDEST PUSH1 0x0 PUSH2 0xDAD DUP3 PUSH2 0x1D22 JUMP JUMPDEST PUSH1 0x40 DUP1 MLOAD PUSH1 0x1 PUSH1 0x1 PUSH1 0xA0 SHL SUB DUP6 DUP2 AND PUSH1 0x24 DUP4 ADD MSTORE DUP5 DUP2 AND PUSH1 0x44 DUP4 ADD MSTORE PUSH1 0x64 DUP1 DUP4 ADD DUP6 SWAP1 MSTORE DUP4 MLOAD DUP1 DUP5 SUB SWAP1 SWAP2 ADD DUP2 MSTORE PUSH1 0x84 SWAP1 SWAP3 ADD DUP4 MSTORE PUSH1 0x20 DUP3 ADD DUP1 MLOAD PUSH1 0x1 PUSH1 0x1 PUSH1 0xE0 SHL SUB AND PUSH4 0x23B872DD PUSH1 0xE0 SHL OR DUP2 MSTORE SWAP3 MLOAD DUP3 MLOAD PUSH1 0x0 SWAP5 DUP6 SWAP5 SWAP4 DUP11 AND SWAP4 SWAP3 SWAP2 DUP3 SWAP2 SWAP1 DUP1 DUP4 DUP4 JUMPDEST PUSH1 0x20 DUP4 LT PUSH2 0x1B7B JUMPI DUP1 MLOAD DUP3 MSTORE PUSH1 0x1F NOT SWAP1 SWAP3 ADD SWAP2 PUSH1 0x20 SWAP2 DUP3 ADD SWAP2 ADD PUSH2 0x1B5C JUMP JUMPDEST PUSH1 0x1 DUP4 PUSH1 0x20 SUB PUSH2 0x100 EXP SUB DUP1 NOT DUP3 MLOAD AND DUP2 DUP5 MLOAD AND DUP1 DUP3 OR DUP6 MSTORE POP POP POP POP POP POP SWAP1 POP ADD SWAP2 POP POP PUSH1 0x0 PUSH1 0x40 MLOAD DUP1 DUP4 SUB DUP2 PUSH1 0x0 DUP7 GAS CALL SWAP2 POP POP RETURNDATASIZE DUP1 PUSH1 0x0 DUP2 EQ PUSH2 0x1BDD JUMPI PUSH1 0x40 MLOAD SWAP2 POP PUSH1 0x1F NOT PUSH1 0x3F RETURNDATASIZE ADD AND DUP3 ADD PUSH1 0x40 MSTORE RETURNDATASIZE DUP3 MSTORE RETURNDATASIZE PUSH1 0x0 PUSH1 0x20 DUP5 ADD RETURNDATACOPY PUSH2 0x1BE2 JUMP JUMPDEST PUSH1 0x60 SWAP2 POP JUMPDEST POP SWAP2 POP SWAP2 POP DUP2 DUP1 ISZERO PUSH2 0x1C10 JUMPI POP DUP1 MLOAD ISZERO DUP1 PUSH2 0x1C10 JUMPI POP DUP1 DUP1 PUSH1 0x20 ADD SWAP1 MLOAD PUSH1 0x20 DUP2 LT ISZERO PUSH2 0x1C0D JUMPI PUSH1 0x0 DUP1 REVERT JUMPDEST POP MLOAD JUMPDEST PUSH2 0x555 JUMPI PUSH1 0x40 DUP1 MLOAD PUSH3 0x461BCD PUSH1 0xE5 SHL DUP2 MSTORE PUSH1 0x20 PUSH1 0x4 DUP3 ADD MSTORE PUSH1 0x3 PUSH1 0x24 DUP3 ADD MSTORE PUSH3 0x29AA23 PUSH1 0xE9 SHL PUSH1 0x44 DUP3 ADD MSTORE SWAP1 MLOAD SWAP1 DUP2 SWAP1 SUB PUSH1 0x64 ADD SWAP1 REVERT JUMPDEST PUSH1 0x0 PUSH2 0x1C53 DUP4 DUP4 PUSH2 0x1D0A JUMP JUMPDEST PUSH2 0x1C89 JUMPI POP DUP2 SLOAD PUSH1 0x1 DUP2 DUP2 ADD DUP5 SSTORE PUSH1 0x0 DUP5 DUP2 MSTORE PUSH1 0x20 DUP1 DUP3 KECCAK256 SWAP1 SWAP4 ADD DUP5 SWAP1 SSTORE DUP5 SLOAD DUP5 DUP3 MSTORE DUP3 DUP7 ADD SWAP1 SWAP4 MSTORE PUSH1 0x40 SWAP1 KECCAK256 SWAP2 SWAP1 SWAP2 SSTORE PUSH2 0xDAD JUMP JUMPDEST POP PUSH1 0x0 PUSH2 0xDAD JUMP JUMPDEST PUSH1 0x0 PUSH2 0xDAA DUP4 PUSH1 0x1 PUSH1 0x1 PUSH1 0xA0 SHL SUB DUP5 AND PUSH2 0x1D26 JUMP JUMPDEST DUP2 SLOAD PUSH1 0x0 SWAP1 DUP3 LT PUSH2 0x1CE8 JUMPI PUSH1 0x40 MLOAD PUSH3 0x461BCD PUSH1 0xE5 SHL DUP2 MSTORE PUSH1 0x4 ADD DUP1 DUP1 PUSH1 0x20 ADD DUP3 DUP2 SUB DUP3 MSTORE PUSH1 0x22 DUP2 MSTORE PUSH1 0x20 ADD DUP1 PUSH2 0x2758 PUSH1 0x22 SWAP2 CODECOPY PUSH1 0x40 ADD SWAP2 POP POP PUSH1 0x40 MLOAD DUP1 SWAP2 SUB SWAP1 REVERT JUMPDEST DUP3 PUSH1 0x0 ADD DUP3 DUP2 SLOAD DUP2 LT PUSH2 0x1CF7 JUMPI INVALID JUMPDEST SWAP1 PUSH1 0x0 MSTORE PUSH1 0x20 PUSH1 0x0 KECCAK256 ADD SLOAD SWAP1 POP SWAP3 SWAP2 POP POP JUMP JUMPDEST PUSH1 0x0 SWAP1 DUP2 MSTORE PUSH1 0x1 SWAP2 SWAP1 SWAP2 ADD PUSH1 0x20 MSTORE PUSH1 0x40 SWAP1 KECCAK256 SLOAD ISZERO ISZERO SWAP1 JUMP JUMPDEST SLOAD SWAP1 JUMP JUMPDEST PUSH1 0x0 DUP2 DUP2 MSTORE PUSH1 0x1 DUP4 ADD PUSH1 0x20 MSTORE PUSH1 0x40 DUP2 KECCAK256 SLOAD DUP1 ISZERO PUSH2 0x1DE2 JUMPI DUP4 SLOAD PUSH1 0x0 NOT DUP1 DUP4 ADD SWAP2 SWAP1 DUP2 ADD SWAP1 PUSH1 0x0 SWAP1 DUP8 SWAP1 DUP4 SWAP1 DUP2 LT PUSH2 0x1D59 JUMPI INVALID JUMPDEST SWAP1 PUSH1 0x0 MSTORE PUSH1 0x20 PUSH1 0x0 KECCAK256 ADD SLOAD SWAP1 POP DUP1 DUP8 PUSH1 0x0 ADD DUP5 DUP2 SLOAD DUP2 LT PUSH2 0x1D76 JUMPI INVALID JUMPDEST PUSH1 0x0 SWAP2 DUP3 MSTORE PUSH1 0x20 DUP1 DUP4 KECCAK256 SWAP1 SWAP2 ADD SWAP3 SWAP1 SWAP3 SSTORE DUP3 DUP2 MSTORE PUSH1 0x1 DUP10 DUP2 ADD SWAP1 SWAP3 MSTORE PUSH1 0x40 SWAP1 KECCAK256 SWAP1 DUP5 ADD SWAP1 SSTORE DUP7 SLOAD DUP8 SWAP1 DUP1 PUSH2 0x1DA6 JUMPI INVALID JUMPDEST PUSH1 0x1 SWAP1 SUB DUP2 DUP2 SWAP1 PUSH1 0x0 MSTORE PUSH1 0x20 PUSH1 0x0 KECCAK256 ADD PUSH1 0x0 SWAP1 SSTORE SWAP1 SSTORE DUP7 PUSH1 0x1 ADD PUSH1 0x0 DUP8 DUP2 MSTORE PUSH1 0x20 ADD SWAP1 DUP2 MSTORE PUSH1 0x20 ADD PUSH1 0x0 KECCAK256 PUSH1 0x0 SWAP1 SSTORE PUSH1 0x1 SWAP5 POP POP POP POP POP PUSH2 0xDAD JUMP JUMPDEST PUSH1 0x0 SWAP2 POP POP PUSH2 0xDAD JUMP JUMPDEST DUP1 MLOAD PUSH2 0x570 DUP2 PUSH2 0x270A JUMP JUMPDEST DUP1 MLOAD PUSH2 0x570 DUP2 PUSH2 0x2722 JUMP JUMPDEST DUP1 MLOAD PUSH2 0x570 DUP2 PUSH2 0x2731 JUMP JUMPDEST DUP1 MLOAD PUSH2 0x570 DUP2 PUSH2 0x2746 JUMP JUMPDEST PUSH1 0x0 DUP1 PUSH1 0x40 DUP4 DUP6 SUB SLT ISZERO PUSH2 0x1E2A JUMPI DUP2 DUP3 REVERT JUMPDEST DUP3 CALLDATALOAD PUSH2 0x1E35 DUP2 PUSH2 0x270A JUMP JUMPDEST SWAP2 POP PUSH1 0x20 DUP4 ADD CALLDATALOAD PUSH2 0x1E45 DUP2 PUSH2 0x270A JUMP JUMPDEST DUP1 SWAP2 POP POP SWAP3 POP SWAP3 SWAP1 POP JUMP JUMPDEST PUSH1 0x0 DUP1 PUSH1 0x0 DUP1 PUSH1 0x0 DUP1 PUSH1 0x0 DUP1 PUSH1 0x0 PUSH2 0x120 DUP11 DUP13 SUB SLT ISZERO PUSH2 0x1E6E JUMPI DUP5 DUP6 REVERT JUMPDEST DUP10 CALLDATALOAD PUSH2 0x1E79 DUP2 PUSH2 0x270A JUMP JUMPDEST SWAP9 POP PUSH1 0x20 DUP11 ADD CALLDATALOAD PUSH2 0x1E89 DUP2 PUSH2 0x270A JUMP JUMPDEST SWAP8 POP PUSH1 0x40 DUP11 ADD CALLDATALOAD PUSH2 0x1E99 DUP2 PUSH2 0x2746 JUMP JUMPDEST SWAP7 POP PUSH1 0x60 DUP11 ADD CALLDATALOAD PUSH2 0x1EA9 DUP2 PUSH2 0x2722 JUMP JUMPDEST SWAP6 POP PUSH1 0x80 DUP11 ADD CALLDATALOAD PUSH2 0x1EB9 DUP2 PUSH2 0x2722 JUMP JUMPDEST SWAP9 SWAP12 SWAP8 SWAP11 POP SWAP6 SWAP9 SWAP5 SWAP8 SWAP7 PUSH1 0xA0 DUP7 ADD CALLDATALOAD SWAP7 POP PUSH1 0xC0 DUP7 ADD CALLDATALOAD SWAP6 PUSH1 0xE0 DUP2 ADD CALLDATALOAD SWAP6 POP PUSH2 0x100 ADD CALLDATALOAD SWAP4 POP SWAP2 POP POP JUMP JUMPDEST PUSH1 0x0 DUP1 PUSH1 0x0 DUP1 PUSH1 0x0 DUP1 PUSH1 0xC0 DUP8 DUP10 SUB SLT ISZERO PUSH2 0x1EFB JUMPI DUP2 DUP3 REVERT JUMPDEST DUP7 CALLDATALOAD PUSH2 0x1F06 DUP2 PUSH2 0x270A JUMP JUMPDEST SWAP6 POP PUSH1 0x20 DUP8 ADD CALLDATALOAD PUSH2 0x1F16 DUP2 PUSH2 0x270A JUMP JUMPDEST SWAP5 POP PUSH1 0x40 DUP8 ADD CALLDATALOAD PUSH2 0x1F26 DUP2 PUSH2 0x2746 JUMP JUMPDEST SWAP4 POP PUSH1 0x60 DUP8 ADD CALLDATALOAD SWAP3 POP PUSH1 0x80 DUP8 ADD CALLDATALOAD SWAP2 POP PUSH1 0xA0 DUP8 ADD CALLDATALOAD PUSH2 0x1F44 DUP2 PUSH2 0x270A JUMP JUMPDEST DUP1 SWAP2 POP POP SWAP3 SWAP6 POP SWAP3 SWAP6 POP SWAP3 SWAP6 JUMP JUMPDEST PUSH1 0x0 DUP1 PUSH1 0x0 PUSH1 0x60 DUP5 DUP7 SUB SLT ISZERO PUSH2 0x1F66 JUMPI DUP3 DUP4 REVERT JUMPDEST DUP4 CALLDATALOAD PUSH2 0x1F71 DUP2 PUSH2 0x270A JUMP JUMPDEST SWAP3 POP PUSH1 0x20 DUP5 ADD CALLDATALOAD PUSH2 0x1F81 DUP2 PUSH2 0x270A JUMP JUMPDEST SWAP3 SWAP6 SWAP3 SWAP5 POP POP POP PUSH1 0x40 SWAP2 SWAP1 SWAP2 ADD CALLDATALOAD SWAP1 JUMP JUMPDEST PUSH1 0x0 DUP1 PUSH1 0x0 DUP1 PUSH1 0x0 PUSH1 0x80 DUP7 DUP9 SUB SLT ISZERO PUSH2 0x1FA9 JUMPI DUP1 DUP2 REVERT JUMPDEST DUP6 CALLDATALOAD PUSH2 0x1FB4 DUP2 PUSH2 0x270A JUMP JUMPDEST SWAP5 POP PUSH1 0x20 DUP7 ADD CALLDATALOAD PUSH2 0x1FC4 DUP2 PUSH2 0x270A JUMP JUMPDEST SWAP4 POP PUSH1 0x40 DUP7 ADD CALLDATALOAD SWAP3 POP PUSH1 0x60 DUP7 ADD CALLDATALOAD PUSH8 0xFFFFFFFFFFFFFFFF DUP1 DUP3 GT ISZERO PUSH2 0x1FE7 JUMPI DUP3 DUP4 REVERT JUMPDEST DUP2 DUP9 ADD SWAP2 POP DUP9 PUSH1 0x1F DUP4 ADD SLT PUSH2 0x1FFA JUMPI DUP3 DUP4 REVERT JUMPDEST DUP2 CALLDATALOAD DUP2 DUP2 GT ISZERO PUSH2 0x2008 JUMPI DUP4 DUP5 REVERT JUMPDEST DUP10 PUSH1 0x20 DUP3 DUP6 ADD ADD GT ISZERO PUSH2 0x2019 JUMPI DUP4 DUP5 REVERT JUMPDEST SWAP7 SWAP10 SWAP6 SWAP9 POP SWAP4 SWAP7 POP PUSH1 0x20 ADD SWAP5 SWAP4 SWAP3 POP POP POP JUMP JUMPDEST PUSH1 0x0 DUP1 PUSH1 0x0 DUP1 PUSH1 0x80 DUP6 DUP8 SUB SLT ISZERO PUSH2 0x2041 JUMPI DUP4 DUP5 REVERT JUMPDEST DUP5 CALLDATALOAD PUSH2 0x204C DUP2 PUSH2 0x270A JUMP JUMPDEST SWAP4 POP PUSH1 0x20 DUP6 ADD CALLDATALOAD PUSH2 0x205C DUP2 PUSH2 0x270A JUMP JUMPDEST SWAP4 SWAP7 SWAP4 SWAP6 POP POP POP POP PUSH1 0x40 DUP3 ADD CALLDATALOAD SWAP2 PUSH1 0x60 ADD CALLDATALOAD SWAP1 JUMP JUMPDEST PUSH1 0x0 PUSH1 0x20 DUP3 DUP5 SUB SLT ISZERO PUSH2 0x2082 JUMPI DUP1 DUP2 REVERT JUMPDEST POP CALLDATALOAD SWAP2 SWAP1 POP JUMP JUMPDEST PUSH1 0x0 DUP1 PUSH1 0x40 DUP4 DUP6 SUB SLT ISZERO PUSH2 0x209B JUMPI DUP2 DUP3 REVERT JUMPDEST DUP3 CALLDATALOAD SWAP2 POP PUSH1 0x20 DUP4 ADD CALLDATALOAD PUSH2 0x1E45 DUP2 PUSH2 0x270A JUMP JUMPDEST PUSH1 0x0 DUP1 PUSH1 0x40 DUP4 DUP6 SUB SLT ISZERO PUSH2 0x20BF JUMPI DUP2 DUP3 REVERT JUMPDEST POP POP DUP1 CALLDATALOAD SWAP3 PUSH1 0x20 SWAP1 SWAP2 ADD CALLDATALOAD SWAP2 POP JUMP JUMPDEST PUSH1 0x0 DUP1 PUSH1 0x0 PUSH1 0x60 DUP5 DUP7 SUB SLT ISZERO PUSH2 0x20E2 JUMPI DUP1 DUP2 REVERT JUMPDEST DUP4 MLOAD PUSH2 0x20ED DUP2 PUSH2 0x2731 JUMP JUMPDEST PUSH1 0x20 DUP6 ADD MLOAD PUSH1 0x40 SWAP1 SWAP6 ADD MLOAD SWAP1 SWAP7 SWAP5 SWAP6 POP SWAP4 SWAP3 POP POP POP JUMP JUMPDEST PUSH1 0x0 PUSH1 0x20 DUP3 DUP5 SUB SLT ISZERO PUSH2 0x2115 JUMPI DUP1 DUP2 REVERT JUMPDEST POP MLOAD SWAP2 SWAP1 POP JUMP JUMPDEST PUSH1 0x0 DUP1 PUSH1 0x40 DUP4 DUP6 SUB SLT ISZERO PUSH2 0x212E JUMPI DUP2 DUP3 REVERT JUMPDEST DUP3 CALLDATALOAD SWAP2 POP PUSH1 0x20 DUP4 ADD CALLDATALOAD DUP1 ISZERO ISZERO DUP2 EQ PUSH2 0x1E45 JUMPI DUP2 DUP3 REVERT JUMPDEST PUSH1 0x0 DUP1 PUSH1 0x0 DUP1 PUSH1 0x80 DUP6 DUP8 SUB SLT ISZERO PUSH2 0x2159 JUMPI DUP2 DUP3 REVERT JUMPDEST DUP5 CALLDATALOAD SWAP4 POP PUSH1 0x20 DUP6 ADD CALLDATALOAD PUSH2 0x205C DUP2 PUSH2 0x2731 JUMP JUMPDEST PUSH1 0x0 DUP1 PUSH1 0x0 DUP1 PUSH1 0x80 DUP6 DUP8 SUB SLT ISZERO PUSH2 0x2180 JUMPI DUP2 DUP3 REVERT JUMPDEST DUP5 MLOAD SWAP4 POP PUSH1 0x20 DUP6 ADD MLOAD PUSH2 0x2192 DUP2 PUSH2 0x2731 JUMP JUMPDEST PUSH1 0x40 DUP7 ADD MLOAD PUSH1 0x60 SWAP1 SWAP7 ADD MLOAD SWAP5 SWAP8 SWAP1 SWAP7 POP SWAP3 POP POP POP JUMP JUMPDEST PUSH1 0x0 DUP1 PUSH1 0x40 DUP4 DUP6 SUB SLT ISZERO PUSH2 0x21BA JUMPI DUP2 DUP3 REVERT JUMPDEST POP POP DUP1 MLOAD PUSH1 0x20 SWAP1 SWAP2 ADD MLOAD SWAP1 SWAP3 SWAP1 SWAP2 POP JUMP JUMPDEST PUSH1 0x0 DUP1 PUSH1 0x0 PUSH1 0x60 DUP5 DUP7 SUB SLT ISZERO PUSH2 0x21DF JUMPI DUP1 DUP2 REVERT JUMPDEST POP POP DUP2 CALLDATALOAD SWAP4 PUSH1 0x20 DUP4 ADD CALLDATALOAD SWAP4 POP PUSH1 0x40 SWAP1 SWAP3 ADD CALLDATALOAD SWAP2 SWAP1 POP JUMP JUMPDEST PUSH1 0x0 DUP1 PUSH1 0x0 DUP1 PUSH1 0x0 PUSH1 0xA0 DUP7 DUP9 SUB SLT ISZERO PUSH2 0x220D JUMPI DUP3 DUP4 REVERT JUMPDEST POP POP DUP4 CALLDATALOAD SWAP6 PUSH1 0x20 DUP6 ADD CALLDATALOAD SWAP6 POP PUSH1 0x40 DUP6 ADD CALLDATALOAD SWAP5 PUSH1 0x60 DUP2 ADD CALLDATALOAD SWAP5 POP PUSH1 0x80 ADD CALLDATALOAD SWAP3 POP SWAP1 POP JUMP JUMPDEST PUSH1 0x0 DUP1 PUSH1 0x0 DUP1 PUSH1 0x0 DUP1 PUSH1 0x0 DUP1 PUSH1 0x0 DUP1 PUSH1 0x0 DUP1 PUSH2 0x180 DUP14 DUP16 SUB SLT ISZERO PUSH2 0x2252 JUMPI DUP6 DUP7 REVERT JUMPDEST DUP13 MLOAD PUSH12 0xFFFFFFFFFFFFFFFFFFFFFFFF DUP2 AND DUP2 EQ PUSH2 0x226D JUMPI DUP7 DUP8 REVERT JUMPDEST SWAP12 POP PUSH2 0x227B PUSH1 0x20 DUP15 ADD PUSH2 0x1DEC JUMP JUMPDEST SWAP11 POP PUSH2 0x2289 PUSH1 0x40 DUP15 ADD PUSH2 0x1DEC JUMP JUMPDEST SWAP10 POP PUSH2 0x2297 PUSH1 0x60 DUP15 ADD PUSH2 0x1DEC JUMP JUMPDEST SWAP9 POP PUSH2 0x22A5 PUSH1 0x80 DUP15 ADD PUSH2 0x1E0D JUMP JUMPDEST SWAP8 POP PUSH2 0x22B3 PUSH1 0xA0 DUP15 ADD PUSH2 0x1DF7 JUMP JUMPDEST SWAP7 POP PUSH2 0x22C1 PUSH1 0xC0 DUP15 ADD PUSH2 0x1DF7 JUMP JUMPDEST SWAP6 POP PUSH2 0x22CF PUSH1 0xE0 DUP15 ADD PUSH2 0x1E02 JUMP JUMPDEST SWAP5 POP PUSH2 0x100 DUP14 ADD MLOAD SWAP4 POP PUSH2 0x120 DUP14 ADD MLOAD SWAP3 POP PUSH2 0x22EE PUSH2 0x140 DUP15 ADD PUSH2 0x1E02 JUMP JUMPDEST SWAP2 POP PUSH2 0x22FD PUSH2 0x160 DUP15 ADD PUSH2 0x1E02 JUMP JUMPDEST SWAP1 POP SWAP3 SWAP6 SWAP9 SWAP12 POP SWAP3 SWAP6 SWAP9 SWAP12 POP SWAP3 SWAP6 SWAP9 SWAP12 JUMP JUMPDEST PUSH1 0x1 PUSH1 0x1 PUSH1 0xA0 SHL SUB AND SWAP1 MSTORE JUMP JUMPDEST PUSH1 0x2 SIGNEXTEND SWAP1 MSTORE JUMP JUMPDEST DUP1 MLOAD PUSH1 0x1 PUSH1 0x1 PUSH1 0xA0 SHL SUB SWAP1 DUP2 AND DUP4 MSTORE PUSH1 0x20 DUP1 DUP4 ADD MLOAD DUP3 AND SWAP1 DUP5 ADD MSTORE PUSH1 0x40 DUP1 DUP4 ADD MLOAD PUSH3 0xFFFFFF AND SWAP1 DUP5 ADD MSTORE PUSH1 0x60 DUP1 DUP4 ADD MLOAD DUP3 AND SWAP1 DUP5 ADD MSTORE PUSH1 0x80 DUP1 DUP4 ADD MLOAD SWAP1 DUP5 ADD MSTORE PUSH1 0xA0 DUP3 DUP2 ADD MLOAD SWAP1 DUP5 ADD MSTORE PUSH1 0xC0 DUP1 DUP4 ADD MLOAD SWAP1 DUP5 ADD MSTORE PUSH1 0xE0 SWAP2 DUP3 ADD MLOAD AND SWAP2 ADD MSTORE JUMP JUMPDEST PUSH3 0xFFFFFF AND SWAP1 MSTORE JUMP JUMPDEST PUSH1 0x1 PUSH1 0x1 PUSH1 0xA0 SHL SUB SWAP2 SWAP1 SWAP2 AND DUP2 MSTORE PUSH1 0x20 ADD SWAP1 JUMP JUMPDEST PUSH1 0x1 PUSH1 0x1 PUSH1 0xA0 SHL SUB SWAP6 DUP7 AND DUP2 MSTORE SWAP4 SWAP1 SWAP5 AND PUSH1 0x20 DUP5 ADD MSTORE PUSH3 0xFFFFFF SWAP2 SWAP1 SWAP2 AND PUSH1 0x40 DUP4 ADD MSTORE PUSH1 0x2 SWAP1 DUP2 SIGNEXTEND PUSH1 0x60 DUP4 ADD MSTORE SWAP2 SWAP1 SWAP2 SIGNEXTEND PUSH1 0x80 DUP3 ADD MSTORE PUSH1 0xA0 ADD SWAP1 JUMP JUMPDEST PUSH1 0x1 PUSH1 0x1 PUSH1 0xA0 SHL SUB SWAP4 DUP5 AND DUP2 MSTORE SWAP2 SWAP1 SWAP3 AND PUSH1 0x20 DUP3 ADD MSTORE PUSH1 0x40 DUP2 ADD SWAP2 SWAP1 SWAP2 MSTORE PUSH1 0x60 ADD SWAP1 JUMP JUMPDEST PUSH1 0x1 PUSH1 0x1 PUSH1 0xA0 SHL SUB SWAP5 DUP6 AND DUP2 MSTORE SWAP3 SWAP1 SWAP4 AND PUSH1 0x20 DUP4 ADD MSTORE PUSH1 0x40 DUP3 ADD MSTORE PUSH1 0x60 DUP2 ADD SWAP2 SWAP1 SWAP2 MSTORE PUSH1 0x80 ADD SWAP1 JUMP JUMPDEST SWAP1 ISZERO ISZERO DUP2 MSTORE PUSH1 0x20 ADD SWAP1 JUMP JUMPDEST SWAP1 DUP2 MSTORE PUSH1 0x20 ADD SWAP1 JUMP JUMPDEST PUSH1 0x1 PUSH1 0x1 PUSH1 0xE0 SHL SUB NOT SWAP2 SWAP1 SWAP2 AND DUP2 MSTORE PUSH1 0x20 ADD SWAP1 JUMP JUMPDEST PUSH1 0x20 DUP1 DUP3 MSTORE PUSH1 0x9 SWAP1 DUP3 ADD MSTORE PUSH9 0x139BDD0813DDDB9959 PUSH1 0xBA SHL PUSH1 0x40 DUP3 ADD MSTORE PUSH1 0x60 ADD SWAP1 JUMP JUMPDEST PUSH1 0x20 DUP1 DUP3 MSTORE PUSH1 0x13 SWAP1 DUP3 ADD MSTORE PUSH19 0x2737BA1020B236B4B727B922BC32B1BABA37B9 PUSH1 0x69 SHL PUSH1 0x40 DUP3 ADD MSTORE PUSH1 0x60 ADD SWAP1 JUMP JUMPDEST PUSH1 0x20 DUP1 DUP3 MSTORE PUSH1 0x9 SWAP1 DUP3 ADD MSTORE PUSH9 0x2737BA1020B236B4B7 PUSH1 0xB9 SHL PUSH1 0x40 DUP3 ADD MSTORE PUSH1 0x60 ADD SWAP1 JUMP JUMPDEST DUP2 MLOAD DUP2 MSTORE PUSH1 0x20 DUP1 DUP4 ADD MLOAD PUSH1 0x1 PUSH1 0x1 PUSH1 0xA0 SHL SUB AND SWAP1 DUP3 ADD MSTORE PUSH1 0x40 DUP1 DUP4 ADD MLOAD PUSH1 0x1 PUSH1 0x1 PUSH1 0x80 SHL SUB SWAP1 DUP2 AND SWAP2 DUP4 ADD SWAP2 SWAP1 SWAP2 MSTORE PUSH1 0x60 SWAP3 DUP4 ADD MLOAD AND SWAP2 DUP2 ADD SWAP2 SWAP1 SWAP2 MSTORE PUSH1 0x80 ADD SWAP1 JUMP JUMPDEST PUSH1 0x0 PUSH1 0xA0 DUP3 ADD SWAP1 POP DUP3 MLOAD DUP3 MSTORE PUSH1 0x1 PUSH1 0x1 PUSH1 0x80 SHL SUB PUSH1 0x20 DUP5 ADD MLOAD AND PUSH1 0x20 DUP4 ADD MSTORE PUSH1 0x40 DUP4 ADD MLOAD PUSH1 0x40 DUP4 ADD MSTORE PUSH1 0x60 DUP4 ADD MLOAD PUSH1 0x60 DUP4 ADD MSTORE PUSH1 0x80 DUP4 ADD MLOAD PUSH1 0x80 DUP4 ADD MSTORE SWAP3 SWAP2 POP POP JUMP JUMPDEST PUSH2 0x100 DUP2 ADD PUSH2 0xDAD DUP3 DUP5 PUSH2 0x2323 JUMP JUMPDEST PUSH1 0x0 PUSH1 0xC0 DUP3 ADD SWAP1 POP DUP3 MLOAD DUP3 MSTORE PUSH1 0x20 DUP4 ADD MLOAD PUSH1 0x20 DUP4 ADD MSTORE PUSH1 0x40 DUP4 ADD MLOAD PUSH1 0x40 DUP4 ADD MSTORE PUSH1 0x60 DUP4 ADD MLOAD PUSH1 0x60 DUP4 ADD MSTORE PUSH1 0x80 DUP4 ADD MLOAD PUSH1 0x80 DUP4 ADD MSTORE PUSH1 0xA0 DUP4 ADD MLOAD PUSH1 0xA0 DUP4 ADD MSTORE SWAP3 SWAP2 POP POP JUMP JUMPDEST PUSH1 0x0 PUSH2 0x160 DUP3 ADD SWAP1 POP PUSH2 0x25B2 DUP3 DUP5 MLOAD PUSH2 0x230F JUMP JUMPDEST PUSH1 0x20 DUP4 ADD MLOAD PUSH2 0x25C4 PUSH1 0x20 DUP5 ADD DUP3 PUSH2 0x230F JUMP JUMPDEST POP PUSH1 0x40 DUP4 ADD MLOAD PUSH2 0x25D7 PUSH1 0x40 DUP5 ADD DUP3 PUSH2 0x2383 JUMP JUMPDEST POP PUSH1 0x60 DUP4 ADD MLOAD PUSH2 0x25EA PUSH1 0x60 DUP5 ADD DUP3 PUSH2 0x231C JUMP JUMPDEST POP PUSH1 0x80 DUP4 ADD MLOAD PUSH2 0x25FD PUSH1 0x80 DUP5 ADD DUP3 PUSH2 0x231C JUMP JUMPDEST POP PUSH1 0xA0 DUP4 ADD MLOAD PUSH1 0xA0 DUP4 ADD MSTORE PUSH1 0xC0 DUP4 ADD MLOAD PUSH1 0xC0 DUP4 ADD MSTORE PUSH1 0xE0 DUP4 ADD MLOAD PUSH1 0xE0 DUP4 ADD MSTORE PUSH2 0x100 DUP1 DUP5 ADD MLOAD DUP2 DUP5 ADD MSTORE POP PUSH2 0x120 DUP1 DUP5 ADD MLOAD PUSH2 0x263B DUP3 DUP6 ADD DUP3 PUSH2 0x230F JUMP JUMPDEST POP POP PUSH2 0x140 SWAP3 DUP4 ADD MLOAD SWAP2 SWAP1 SWAP3 ADD MSTORE SWAP1 JUMP JUMPDEST PUSH1 0x1 PUSH1 0x1 PUSH1 0x80 SHL SUB SWAP4 SWAP1 SWAP4 AND DUP4 MSTORE PUSH1 0x20 DUP4 ADD SWAP2 SWAP1 SWAP2 MSTORE PUSH1 0x40 DUP3 ADD MSTORE PUSH1 0x60 ADD SWAP1 JUMP JUMPDEST SWAP4 DUP5 MSTORE PUSH1 0x1 PUSH1 0x1 PUSH1 0xA0 SHL SUB SWAP3 DUP4 AND PUSH1 0x20 DUP6 ADD MSTORE SWAP2 AND PUSH1 0x40 DUP4 ADD MSTORE PUSH3 0xFFFFFF AND PUSH1 0x60 DUP3 ADD MSTORE PUSH1 0x80 ADD SWAP1 JUMP JUMPDEST SWAP4 DUP5 MSTORE PUSH1 0x1 PUSH1 0x1 PUSH1 0x80 SHL SUB SWAP3 SWAP1 SWAP3 AND PUSH1 0x20 DUP5 ADD MSTORE PUSH1 0x40 DUP4 ADD MSTORE PUSH1 0x60 DUP3 ADD MSTORE PUSH1 0x80 ADD SWAP1 JUMP JUMPDEST SWAP2 DUP3 MSTORE PUSH1 0x20 DUP3 ADD MSTORE PUSH1 0x40 ADD SWAP1 JUMP JUMPDEST SWAP4 DUP5 MSTORE PUSH1 0x20 DUP5 ADD SWAP3 SWAP1 SWAP3 MSTORE PUSH1 0x40 DUP4 ADD MSTORE ISZERO ISZERO PUSH1 0x60 DUP3 ADD MSTORE PUSH1 0x80 ADD SWAP1 JUMP JUMPDEST SWAP4 DUP5 MSTORE PUSH1 0x20 DUP5 ADD SWAP3 SWAP1 SWAP3 MSTORE PUSH1 0x40 DUP4 ADD MSTORE PUSH1 0x1 PUSH1 0x1 PUSH1 0x80 SHL SUB AND PUSH1 0x60 DUP3 ADD MSTORE PUSH1 0x80 ADD SWAP1 JUMP JUMPDEST PUSH1 0x1 PUSH1 0x1 PUSH1 0xA0 SHL SUB DUP2 AND DUP2 EQ PUSH2 0x271F JUMPI PUSH1 0x0 DUP1 REVERT JUMPDEST POP JUMP JUMPDEST DUP1 PUSH1 0x2 SIGNEXTEND DUP2 EQ PUSH2 0x271F JUMPI PUSH1 0x0 DUP1 REVERT JUMPDEST PUSH1 0x1 PUSH1 0x1 PUSH1 0x80 SHL SUB DUP2 AND DUP2 EQ PUSH2 0x271F JUMPI PUSH1 0x0 DUP1 REVERT JUMPDEST PUSH3 0xFFFFFF DUP2 AND DUP2 EQ PUSH2 0x271F JUMPI PUSH1 0x0 DUP1 REVERT INVALID GASLIMIT PUSH15 0x756D657261626C655365743A20696E PUSH5 0x6578206F75 PUSH21 0x206F6620626F756E6473416363657373436F6E7472 PUSH16 0x6C3A2073656E646572206D7573742062 PUSH6 0x20616E206164 PUSH14 0x696E20746F206772616E74416363 PUSH6 0x7373436F6E74 PUSH19 0x6F6C3A2073656E646572206D75737420626520 PUSH2 0x6E20 PUSH2 0x646D PUSH10 0x6E20746F207265766F6B PUSH6 0xD8AA0F319497 BYTE 0x2A GT PUSH7 0x79F7C2090F6939 0xC8 0xD4 0xE0 BYTE 0x2A DUP14 PUSH31 0x41D55E5351469E63A49807205CE4D355092EF5A8A18F56E8913CF4A201FBE2 DUP8 DUP3 JUMPDEST MULMOD JUMP SWAP4 0xC2 OR PUSH22 0x416363657373436F6E74726F6C3A2063616E206F6E6C PUSH26 0x2072656E6F756E636520726F6C657320666F722073656C66A264 PUSH10 0x706673582212205BC20B TIMESTAMP REVERT 0xAD 0xEA 0xAA DUP2 SELFBALANCE ISZERO 0xBC SWAP6 PUSH16 0xC34198550BEDBB946C2A55BF2662EFA6 JUMPDEST PC PUSH5 0x736F6C6343 STOP SMOD MOD STOP CALLER 0xD8 0xAA 0xF BALANCE SWAP5 SWAP8 BYTE 0x2A GT PUSH7 0x79F7C2090F6939 0xC8 0xD4 0xE0 BYTE 0x2A DUP14 PUSH31 0x41D55E5351469E63A49807205CE4D355092EF5A8A18F56E8913CF4A201FBE2 DUP8 DUP3 JUMPDEST MULMOD JUMP SWAP4 0xC2 OR PUSH22 0x0 "
		},
		"gasEstimates": {
			"creation": {
				"codeDepositCost": "2073000",
				"executionCost": "infinite",
				"totalCost": "infinite"
			},
			"external": {
				"ADMIN_ROLE()": "infinite",
				"DEFAULT_ADMIN_ROLE()": "273",
				"EXECUTOR_ROLE()": "infinite",
				"approve(address,address,uint256)": "infinite",
				"approveInfinity(address,address)": "infinite",
				"approveManager(address,address,uint256,uint256)": "infinite",
				"approveRouter(address,address,uint256,uint256)": "infinite",
				"collectFees(uint256,bool)": "infinite",
				"decreaseLiquidity(uint256,uint128,uint256,uint256)": "infinite",
				"deposits(uint256)": "2347",
				"getRoleAdmin(bytes32)": "1254",
				"getRoleMember(bytes32,uint256)": "infinite",
				"getRoleMemberCount(bytes32)": "infinite",
				"grantRole(bytes32,address)": "infinite",
				"hasRole(bytes32,address)": "infinite",
				"increaseLiquidity(uint256,uint256,uint256,uint256,uint256)": "infinite",
				"mintNewPosition(address,address,uint24,int24,int24,uint256,uint256,uint256,uint256)": "infinite",
				"nonfungiblePositionManager()": "infinite",
				"onERC721Received(address,address,uint256,bytes)": "infinite",
				"redeemNFT(uint256,address)": "infinite",
				"redeemOwnership(address,address)": "infinite",
				"redeemToken(address,address,uint256)": "infinite",
				"renounceRole(bytes32,address)": "infinite",
				"revokeRole(bytes32,address)": "infinite",
				"swapExactInputSingle(address,address,uint24,uint256,uint256,uint160)": "infinite",
				"swapExactOutputSingle(address,address,uint24,uint256,uint256,uint160)": "infinite",
				"swapRouter()": "infinite",
				"transferForDeposit(uint256,uint256,uint256)": "infinite",
				"transferForTokens(address,address,uint256,uint256)": "infinite"
			},
			"internal": {
				"_createDeposit(uint256)": "infinite"
			}
		},
		"methodIdentifiers": {
			"ADMIN_ROLE()": "75b238fc",
			"DEFAULT_ADMIN_ROLE()": "a217fddf",
			"EXECUTOR_ROLE()": "07bd0265",
			"approve(address,address,uint256)": "e1f21c67",
			"approveInfinity(address,address)": "a8243558",
			"approveManager(address,address,uint256,uint256)": "25eb6e6f",
			"approveRouter(address,address,uint256,uint256)": "57706e74",
			"collectFees(uint256,bool)": "3a483cb0",
			"decreaseLiquidity(uint256,uint128,uint256,uint256)": "8e5f5977",
			"deposits(uint256)": "b02c43d0",
			"getRoleAdmin(bytes32)": "248a9ca3",
			"getRoleMember(bytes32,uint256)": "9010d07c",
			"getRoleMemberCount(bytes32)": "ca15c873",
			"grantRole(bytes32,address)": "2f2ff15d",
			"hasRole(bytes32,address)": "91d14854",
			"increaseLiquidity(uint256,uint256,uint256,uint256,uint256)": "c691b0a1",
			"mintNewPosition(address,address,uint24,int24,int24,uint256,uint256,uint256,uint256)": "dd37019d",
			"nonfungiblePositionManager()": "b44a2722",
			"onERC721Received(address,address,uint256,bytes)": "150b7a02",
			"redeemNFT(uint256,address)": "3ef4c3d4",
			"redeemOwnership(address,address)": "1c8c9980",
			"redeemToken(address,address,uint256)": "0d71bdc3",
			"renounceRole(bytes32,address)": "36568abe",
			"revokeRole(bytes32,address)": "d547741f",
			"swapExactInputSingle(address,address,uint24,uint256,uint256,uint160)": "b4580507",
			"swapExactOutputSingle(address,address,uint24,uint256,uint256,uint160)": "4c8c7314",
			"swapRouter()": "c31c9c07",
			"transferForDeposit(uint256,uint256,uint256)": "7d42c461",
			"transferForTokens(address,address,uint256,uint256)": "dce008af"
		}
	},
	"abi": [
		{
			"inputs": [
				{
					"internalType": "contract INonfungiblePositionManager",
					"name": "_nonfungiblePositionManager",
					"type": "address"
				},
				{
					"internalType": "contract ISwapRouter",
					"name": "_swapRouter",
					"type": "address"
				},
				{
					"internalType": "address",
					"name": "_admin",
					"type": "address"
				},
				{
					"internalType": "address",
					"name": "_exec",
					"type": "address"
				}
			],
			"stateMutability": "nonpayable",
			"type": "constructor"
		},
		{
			"anonymous": false,
			"inputs": [
				{
					"indexed": false,
					"internalType": "uint256",
					"name": "tokenId",
					"type": "uint256"
				},
				{
					"indexed": false,
					"internalType": "uint256",
					"name": "amount0",
					"type": "uint256"
				},
				{
					"indexed": false,
					"internalType": "uint256",
					"name": "amount1",
					"type": "uint256"
				},
				{
					"indexed": false,
					"internalType": "bool",
					"name": "withdrawal",
					"type": "bool"
				}
			],
			"name": "CollectedFees",
			"type": "event"
		},
		{
			"anonymous": false,
			"inputs": [
				{
					"indexed": false,
					"internalType": "uint256",
					"name": "tokenId",
					"type": "uint256"
				},
				{
					"indexed": false,
					"internalType": "uint256",
					"name": "amount0",
					"type": "uint256"
				},
				{
					"indexed": false,
					"internalType": "uint256",
					"name": "amount1",
					"type": "uint256"
				},
				{
					"indexed": false,
					"internalType": "uint256",
					"name": "liquidity",
					"type": "uint256"
				}
			],
			"name": "LiquidityDecreased",
			"type": "event"
		},
		{
			"anonymous": false,
			"inputs": [
				{
					"indexed": false,
					"internalType": "uint256",
					"name": "tokenId",
					"type": "uint256"
				},
				{
					"indexed": false,
					"internalType": "uint256",
					"name": "amount0",
					"type": "uint256"
				},
				{
					"indexed": false,
					"internalType": "uint256",
					"name": "amount1",
					"type": "uint256"
				},
				{
					"indexed": false,
					"internalType": "uint256",
					"name": "liquidity",
					"type": "uint256"
				}
			],
			"name": "LiquidityIncreased",
			"type": "event"
		},
		{
			"anonymous": false,
			"inputs": [
				{
					"indexed": false,
					"internalType": "uint256",
					"name": "tokenId",
					"type": "uint256"
				},
				{
					"indexed": false,
					"internalType": "address",
					"name": "token0",
					"type": "address"
				},
				{
					"indexed": false,
					"internalType": "address",
					"name": "token1",
					"type": "address"
				},
				{
					"indexed": false,
					"internalType": "uint24",
					"name": "fee",
					"type": "uint24"
				}
			],
			"name": "NewDeposit",
			"type": "event"
		},
		{
			"anonymous": false,
			"inputs": [
				{
					"indexed": true,
					"internalType": "bytes32",
					"name": "role",
					"type": "bytes32"
				},
				{
					"indexed": true,
					"internalType": "bytes32",
					"name": "previousAdminRole",
					"type": "bytes32"
				},
				{
					"indexed": true,
					"internalType": "bytes32",
					"name": "newAdminRole",
					"type": "bytes32"
				}
			],
			"name": "RoleAdminChanged",
			"type": "event"
		},
		{
			"anonymous": false,
			"inputs": [
				{
					"indexed": true,
					"internalType": "bytes32",
					"name": "role",
					"type": "bytes32"
				},
				{
					"indexed": true,
					"internalType": "address",
					"name": "account",
					"type": "address"
				},
				{
					"indexed": true,
					"internalType": "address",
					"name": "sender",
					"type": "address"
				}
			],
			"name": "RoleGranted",
			"type": "event"
		},
		{
			"anonymous": false,
			"inputs": [
				{
					"indexed": true,
					"internalType": "bytes32",
					"name": "role",
					"type": "bytes32"
				},
				{
					"indexed": true,
					"internalType": "address",
					"name": "account",
					"type": "address"
				},
				{
					"indexed": true,
					"internalType": "address",
					"name": "sender",
					"type": "address"
				}
			],
			"name": "RoleRevoked",
			"type": "event"
		},
		{
			"anonymous": false,
			"inputs": [
				{
					"indexed": false,
					"internalType": "address",
					"name": "tokenIn",
					"type": "address"
				},
				{
					"indexed": false,
					"internalType": "address",
					"name": "tokenOut",
					"type": "address"
				},
				{
					"indexed": false,
					"internalType": "uint256",
					"name": "amountIn",
					"type": "uint256"
				},
				{
					"indexed": false,
					"internalType": "uint256",
					"name": "amountOut",
					"type": "uint256"
				}
			],
			"name": "TokenSwap",
			"type": "event"
		},
		{
			"inputs": [],
			"name": "ADMIN_ROLE",
			"outputs": [
				{
					"internalType": "bytes32",
					"name": "",
					"type": "bytes32"
				}
			],
			"stateMutability": "view",
			"type": "function"
		},
		{
			"inputs": [],
			"name": "DEFAULT_ADMIN_ROLE",
			"outputs": [
				{
					"internalType": "bytes32",
					"name": "",
					"type": "bytes32"
				}
			],
			"stateMutability": "view",
			"type": "function"
		},
		{
			"inputs": [],
			"name": "EXECUTOR_ROLE",
			"outputs": [
				{
					"internalType": "bytes32",
					"name": "",
					"type": "bytes32"
				}
			],
			"stateMutability": "view",
			"type": "function"
		},
		{
			"inputs": [
				{
					"internalType": "address",
					"name": "token",
					"type": "address"
				},
				{
					"internalType": "address",
					"name": "to",
					"type": "address"
				},
				{
					"internalType": "uint256",
					"name": "amount",
					"type": "uint256"
				}
			],
			"name": "approve",
			"outputs": [],
			"stateMutability": "nonpayable",
			"type": "function"
		},
		{
			"inputs": [
				{
					"internalType": "address",
					"name": "token0",
					"type": "address"
				},
				{
					"internalType": "address",
					"name": "token1",
					"type": "address"
				}
			],
			"name": "approveInfinity",
			"outputs": [],
			"stateMutability": "nonpayable",
			"type": "function"
		},
		{
			"inputs": [
				{
					"internalType": "address",
					"name": "token0",
					"type": "address"
				},
				{
					"internalType": "address",
					"name": "token1",
					"type": "address"
				},
				{
					"internalType": "uint256",
					"name": "amount0",
					"type": "uint256"
				},
				{
					"internalType": "uint256",
					"name": "amount1",
					"type": "uint256"
				}
			],
			"name": "approveManager",
			"outputs": [],
			"stateMutability": "nonpayable",
			"type": "function"
		},
		{
			"inputs": [
				{
					"internalType": "address",
					"name": "token0",
					"type": "address"
				},
				{
					"internalType": "address",
					"name": "token1",
					"type": "address"
				},
				{
					"internalType": "uint256",
					"name": "amount0",
					"type": "uint256"
				},
				{
					"internalType": "uint256",
					"name": "amount1",
					"type": "uint256"
				}
			],
			"name": "approveRouter",
			"outputs": [],
			"stateMutability": "nonpayable",
			"type": "function"
		},
		{
			"inputs": [
				{
					"internalType": "uint256",
					"name": "tokenId",
					"type": "uint256"
				},
				{
					"internalType": "bool",
					"name": "withdraw",
					"type": "bool"
				}
			],
			"name": "collectFees",
			"outputs": [
				{
					"internalType": "uint256",
					"name": "amount0",
					"type": "uint256"
				},
				{
					"internalType": "uint256",
					"name": "amount1",
					"type": "uint256"
				}
			],
			"stateMutability": "nonpayable",
			"type": "function"
		},
		{
			"inputs": [
				{
					"internalType": "uint256",
					"name": "tokenId",
					"type": "uint256"
				},
				{
					"internalType": "uint128",
					"name": "liquidity",
					"type": "uint128"
				},
				{
					"internalType": "uint256",
					"name": "amount0Min",
					"type": "uint256"
				},
				{
					"internalType": "uint256",
					"name": "amount1Min",
					"type": "uint256"
				}
			],
			"name": "decreaseLiquidity",
			"outputs": [
				{
					"internalType": "uint256",
					"name": "amount0",
					"type": "uint256"
				},
				{
					"internalType": "uint256",
					"name": "amount1",
					"type": "uint256"
				}
			],
			"stateMutability": "nonpayable",
			"type": "function"
		},
		{
			"inputs": [
				{
					"internalType": "uint256",
					"name": "",
					"type": "uint256"
				}
			],
			"name": "deposits",
			"outputs": [
				{
					"internalType": "address",
					"name": "token0",
					"type": "address"
				},
				{
					"internalType": "address",
					"name": "token1",
					"type": "address"
				},
				{
					"internalType": "uint24",
					"name": "fee",
					"type": "uint24"
				},
				{
					"internalType": "int24",
					"name": "tickLower",
					"type": "int24"
				},
				{
					"internalType": "int24",
					"name": "tickUpper",
					"type": "int24"
				}
			],
			"stateMutability": "view",
			"type": "function"
		},
		{
			"inputs": [
				{
					"internalType": "bytes32",
					"name": "role",
					"type": "bytes32"
				}
			],
			"name": "getRoleAdmin",
			"outputs": [
				{
					"internalType": "bytes32",
					"name": "",
					"type": "bytes32"
				}
			],
			"stateMutability": "view",
			"type": "function"
		},
		{
			"inputs": [
				{
					"internalType": "bytes32",
					"name": "role",
					"type": "bytes32"
				},
				{
					"internalType": "uint256",
					"name": "index",
					"type": "uint256"
				}
			],
			"name": "getRoleMember",
			"outputs": [
				{
					"internalType": "address",
					"name": "",
					"type": "address"
				}
			],
			"stateMutability": "view",
			"type": "function"
		},
		{
			"inputs": [
				{
					"internalType": "bytes32",
					"name": "role",
					"type": "bytes32"
				}
			],
			"name": "getRoleMemberCount",
			"outputs": [
				{
					"internalType": "uint256",
					"name": "",
					"type": "uint256"
				}
			],
			"stateMutability": "view",
			"type": "function"
		},
		{
			"inputs": [
				{
					"internalType": "bytes32",
					"name": "role",
					"type": "bytes32"
				},
				{
					"internalType": "address",
					"name": "account",
					"type": "address"
				}
			],
			"name": "grantRole",
			"outputs": [],
			"stateMutability": "nonpayable",
			"type": "function"
		},
		{
			"inputs": [
				{
					"internalType": "bytes32",
					"name": "role",
					"type": "bytes32"
				},
				{
					"internalType": "address",
					"name": "account",
					"type": "address"
				}
			],
			"name": "hasRole",
			"outputs": [
				{
					"internalType": "bool",
					"name": "",
					"type": "bool"
				}
			],
			"stateMutability": "view",
			"type": "function"
		},
		{
			"inputs": [
				{
					"internalType": "uint256",
					"name": "tokenId",
					"type": "uint256"
				},
				{
					"internalType": "uint256",
					"name": "amount0Desired",
					"type": "uint256"
				},
				{
					"internalType": "uint256",
					"name": "amount1Desired",
					"type": "uint256"
				},
				{
					"internalType": "uint256",
					"name": "amount0Min",
					"type": "uint256"
				},
				{
					"internalType": "uint256",
					"name": "amount1Min",
					"type": "uint256"
				}
			],
			"name": "increaseLiquidity",
			"outputs": [
				{
					"internalType": "uint128",
					"name": "liquidity",
					"type": "uint128"
				},
				{
					"internalType": "uint256",
					"name": "amount0",
					"type": "uint256"
				},
				{
					"internalType": "uint256",
					"name": "amount1",
					"type": "uint256"
				}
			],
			"stateMutability": "nonpayable",
			"type": "function"
		},
		{
			"inputs": [
				{
					"internalType": "address",
					"name": "token0",
					"type": "address"
				},
				{
					"internalType": "address",
					"name": "token1",
					"type": "address"
				},
				{
					"internalType": "uint24",
					"name": "fee",
					"type": "uint24"
				},
				{
					"internalType": "int24",
					"name": "tickLower",
					"type": "int24"
				},
				{
					"internalType": "int24",
					"name": "tickUpper",
					"type": "int24"
				},
				{
					"internalType": "uint256",
					"name": "amount0Desired",
					"type": "uint256"
				},
				{
					"internalType": "uint256",
					"name": "amount1Desired",
					"type": "uint256"
				},
				{
					"internalType": "uint256",
					"name": "amount0Min",
					"type": "uint256"
				},
				{
					"internalType": "uint256",
					"name": "amount1Min",
					"type": "uint256"
				}
			],
			"name": "mintNewPosition",
			"outputs": [
				{
					"internalType": "uint256",
					"name": "tokenId",
					"type": "uint256"
				},
				{
					"internalType": "uint128",
					"name": "liquidity",
					"type": "uint128"
				},
				{
					"internalType": "uint256",
					"name": "amount0",
					"type": "uint256"
				},
				{
					"internalType": "uint256",
					"name": "amount1",
					"type": "uint256"
				}
			],
			"stateMutability": "nonpayable",
			"type": "function"
		},
		{
			"inputs": [],
			"name": "nonfungiblePositionManager",
			"outputs": [
				{
					"internalType": "contract INonfungiblePositionManager",
					"name": "",
					"type": "address"
				}
			],
			"stateMutability": "view",
			"type": "function"
		},
		{
			"inputs": [
				{
					"internalType": "address",
					"name": "",
					"type": "address"
				},
				{
					"internalType": "address",
					"name": "",
					"type": "address"
				},
				{
					"internalType": "uint256",
					"name": "tokenId",
					"type": "uint256"
				},
				{
					"internalType": "bytes",
					"name": "",
					"type": "bytes"
				}
			],
			"name": "onERC721Received",
			"outputs": [
				{
					"internalType": "bytes4",
					"name": "",
					"type": "bytes4"
				}
			],
			"stateMutability": "nonpayable",
			"type": "function"
		},
		{
			"inputs": [
				{
					"internalType": "uint256",
					"name": "tokenId",
					"type": "uint256"
				},
				{
					"internalType": "address",
					"name": "to",
					"type": "address"
				}
			],
			"name": "redeemNFT",
			"outputs": [],
			"stateMutability": "nonpayable",
			"type": "function"
		},
		{
			"inputs": [
				{
					"internalType": "address",
					"name": "toTransfer",
					"type": "address"
				},
				{
					"internalType": "address",
					"name": "to",
					"type": "address"
				}
			],
			"name": "redeemOwnership",
			"outputs": [],
			"stateMutability": "nonpayable",
			"type": "function"
		},
		{
			"inputs": [
				{
					"internalType": "address",
					"name": "token",
					"type": "address"
				},
				{
					"internalType": "address",
					"name": "to",
					"type": "address"
				},
				{
					"internalType": "uint256",
					"name": "value",
					"type": "uint256"
				}
			],
			"name": "redeemToken",
			"outputs": [],
			"stateMutability": "nonpayable",
			"type": "function"
		},
		{
			"inputs": [
				{
					"internalType": "bytes32",
					"name": "role",
					"type": "bytes32"
				},
				{
					"internalType": "address",
					"name": "account",
					"type": "address"
				}
			],
			"name": "renounceRole",
			"outputs": [],
			"stateMutability": "nonpayable",
			"type": "function"
		},
		{
			"inputs": [
				{
					"internalType": "bytes32",
					"name": "role",
					"type": "bytes32"
				},
				{
					"internalType": "address",
					"name": "account",
					"type": "address"
				}
			],
			"name": "revokeRole",
			"outputs": [],
			"stateMutability": "nonpayable",
			"type": "function"
		},
		{
			"inputs": [
				{
					"internalType": "address",
					"name": "tkn0",
					"type": "address"
				},
				{
					"internalType": "address",
					"name": "tkn1",
					"type": "address"
				},
				{
					"internalType": "uint24",
					"name": "fee",
					"type": "uint24"
				},
				{
					"internalType": "uint256",
					"name": "amountIn",
					"type": "uint256"
				},
				{
					"internalType": "uint256",
					"name": "amountOutMinimum",
					"type": "uint256"
				},
				{
					"internalType": "uint160",
					"name": "sqrtPriceLimitX96",
					"type": "uint160"
				}
			],
			"name": "swapExactInputSingle",
			"outputs": [
				{
					"internalType": "uint256",
					"name": "amountOut",
					"type": "uint256"
				}
			],
			"stateMutability": "nonpayable",
			"type": "function"
		},
		{
			"inputs": [
				{
					"internalType": "address",
					"name": "tkn0",
					"type": "address"
				},
				{
					"internalType": "address",
					"name": "tkn1",
					"type": "address"
				},
				{
					"internalType": "uint24",
					"name": "fee",
					"type": "uint24"
				},
				{
					"internalType": "uint256",
					"name": "amountOut",
					"type": "uint256"
				},
				{
					"internalType": "uint256",
					"name": "amountInMaximum",
					"type": "uint256"
				},
				{
					"internalType": "uint160",
					"name": "sqrtPriceLimitX96",
					"type": "uint160"
				}
			],
			"name": "swapExactOutputSingle",
			"outputs": [
				{
					"internalType": "uint256",
					"name": "amountIn",
					"type": "uint256"
				}
			],
			"stateMutability": "nonpayable",
			"type": "function"
		},
		{
			"inputs": [],
			"name": "swapRouter",
			"outputs": [
				{
					"internalType": "contract ISwapRouter",
					"name": "",
					"type": "address"
				}
			],
			"stateMutability": "view",
			"type": "function"
		},
		{
			"inputs": [
				{
					"internalType": "uint256",
					"name": "tokenId",
					"type": "uint256"
				},
				{
					"internalType": "uint256",
					"name": "amount0",
					"type": "uint256"
				},
				{
					"internalType": "uint256",
					"name": "amount1",
					"type": "uint256"
				}
			],
			"name": "transferForDeposit",
			"outputs": [],
			"stateMutability": "nonpayable",
			"type": "function"
		},
		{
			"inputs": [
				{
					"internalType": "address",
					"name": "token0",
					"type": "address"
				},
				{
					"internalType": "address",
					"name": "token1",
					"type": "address"
				},
				{
					"internalType": "uint256",
					"name": "amount0",
					"type": "uint256"
				},
				{
					"internalType": "uint256",
					"name": "amount1",
					"type": "uint256"
				}
			],
			"name": "transferForTokens",
			"outputs": [],
			"stateMutability": "nonpayable",
			"type": "function"
		}
	]
}