{
	"data": {
		"bytecode": {
			"linkReferences": {},
			"object": "608060405234801561000f575f80fd5b5060405161103c38038061103c83398101604081905261002e9161029e565b6100455f8051602061101c833981519152806100ee565b6100695f80516020610ffc8339815191525f8051602061101c8339815191526100ee565b6100a07f829b824e2329e205435d941c9f13baf578548505283d29261236d8e6596d46365f80516020610ffc8339815191526100ee565b6100b75f8051602061101c83398151915284610138565b506100cf5f80516020610ffc83398151915233610138565b506100db8260016101e1565b6100e68160016101e1565b5050506102de565b5f82815260208190526040808220600101805490849055905190918391839186917fbd79b86ffe0ab8e8776151514217cd7cacd52c909f66475c3af44e129f0b00ff9190a4505050565b5f828152602081815260408083206001600160a01b038516845290915281205460ff166101d8575f838152602081815260408083206001600160a01b03861684529091529020805460ff191660011790556101903390565b6001600160a01b0316826001600160a01b0316847f2f8788117e7eff1d82e926ec794901d17c78024a50270940304540a733656f0d60405160405180910390a45060016101db565b505f5b92915050565b6001600160a01b0382165f9081526002602052604090205481151560ff909116151503610221576040516306923abf60e01b815260040160405180910390fd5b6001600160a01b0382165f81815260026020908152604091829020805460ff19168515159081179091558251938452908301527fb60d1edb7d200355e50dd0ee2aca8a073ef23cda05de7d7a672013b99ac77ee0910160405180910390a15050565b80516001600160a01b0381168114610299575f80fd5b919050565b5f805f606084860312156102b0575f80fd5b6102b984610283565b92506102c760208501610283565b91506102d560408501610283565b90509250925092565b610d11806102eb5f395ff3fe608060405234801561000f575f80fd5b50600436106100f0575f3560e01c806375b238fc11610093578063b89e45b311610063578063b89e45b314610238578063c2ec9f9b1461025a578063d547741f1461026d578063e44b755814610280575f80fd5b806375b238fc146101d057806391d14854146101f7578063a10f469e1461020a578063a217fddf14610231575f80fd5b8063248a9ca3116100ce578063248a9ca3146101735780632f2ff15d1461019557806336568abe146101aa578063529e03fe146101bd575f80fd5b806301ffc9a7146100f457806307bd02651461011c5780630aae7a6b14610151575b5f80fd5b610107610102366004610965565b610293565b60405190151581526020015b60405180910390f35b6101437fd8aa0f3194971a2a116679f7c2090f6939c8d4e01a2a8d7e41d55e5351469e6381565b604051908152602001610113565b61016461015f3660046109ae565b6102c9565b604051610113939291906109c7565b610143610181366004610a12565b5f9081526020819052604090206001015490565b6101a86101a3366004610a29565b61037c565b005b6101a86101b8366004610a29565b6103a6565b6101a86101cb366004610a53565b6103de565b6101437fa49807205ce4d355092ef5a8a18f56e8913cf4a201fbe287825b095693c2177581565b610107610205366004610a29565b61053a565b6101437f829b824e2329e205435d941c9f13baf578548505283d29261236d8e6596d463681565b6101435f81565b6101076102463660046109ae565b60026020525f908152604090205460ff1681565b6101a8610268366004610ae8565b610562565b6101a861027b366004610a29565b6106ea565b6101a861028e366004610b3a565b61070e565b5f6001600160e01b03198216637965db0b60e01b14806102c357506301ffc9a760e01b6001600160e01b03198316145b92915050565b600160208190525f91825260409091208054918101546002820180546001600160a01b0390921692916102fb90610b6f565b80601f016020809104026020016040519081016040528092919081815260200182805461032790610b6f565b80156103725780601f1061034957610100808354040283529160200191610372565b820191905f5260205f20905b81548152906001019060200180831161035557829003601f168201915b5050505050905083565b5f8281526020819052604090206001015461039681610785565b6103a08383610792565b50505050565b6001600160a01b03811633146103cf5760405163334bd91960e11b815260040160405180910390fd5b6103d98282610821565b505050565b6104087fd8aa0f3194971a2a116679f7c2090f6939c8d4e01a2a8d7e41d55e5351469e633361053a565b151560011461044c5760405162461bcd60e51b815260206004820152600b60248201526a27379022bc32b1baba37b960a91b60448201526064015b60405180910390fd5b6001600160a01b0385165f908152600160205260409020541561048257604051630ea075bf60e21b815260040160405180910390fd5b6001600160a01b038581165f90815260016020819052604090912086815590810180546001600160a01b031916928616929092179091556002016104c7828483610c06565b506104f27f829b824e2329e205435d941c9f13baf578548505283d29261236d8e6596d46368661037c565b604080516001600160a01b03871681523360208201527f3a5a00ec423040dabe80f57799a58598c7a3b374fe3bcc917901b4867b30c908910160405180910390a15050505050565b5f918252602082815260408084206001600160a01b0393909316845291905290205460ff1690565b61058c7f829b824e2329e205435d941c9f13baf578548505283d29261236d8e6596d46363361053a565b15156001146105c95760405162461bcd60e51b815260206004820152600960248201526827379026b2b6b132b960b91b6044820152606401610443565b6001600160a01b0383165f9081526002602052604081205460ff1615159003610604576040516212100360e11b815260040160405180910390fd5b335f81815260016020819052604091829020015490516323b872dd60e01b815260048101929092526001600160a01b039081166024830152604482018490528416906323b872dd906064016020604051808303815f875af115801561066b573d5f803e3d5ffd5b505050506040513d601f19601f8201168201806040525081019061068f9190610cc0565b50604080513381526001600160a01b038516602082015290810183905263ffffffff821660608201527f5afd6d433db54145da9404739b81abea48a0d7eace190277c0d266a6c6618c179060800160405180910390a1505050565b5f8281526020819052604090206001015461070481610785565b6103a08383610821565b6107387fd8aa0f3194971a2a116679f7c2090f6939c8d4e01a2a8d7e41d55e5351469e633361053a565b15156001146107775760405162461bcd60e51b815260206004820152600b60248201526a27379022bc32b1baba37b960a91b6044820152606401610443565b610781828261088a565b5050565b61078f813361092c565b50565b5f61079d838361053a565b61081a575f838152602081815260408083206001600160a01b03861684529091529020805460ff191660011790556107d23390565b6001600160a01b0316826001600160a01b0316847f2f8788117e7eff1d82e926ec794901d17c78024a50270940304540a733656f0d60405160405180910390a45060016102c3565b505f6102c3565b5f61082c838361053a565b1561081a575f838152602081815260408083206001600160a01b0386168085529252808320805460ff1916905551339286917ff6391f5c32d9c69d2a47ea670b442974b53935d1edc7fd64eb21e047a839171b9190a45060016102c3565b6001600160a01b0382165f9081526002602052604090205481151560ff9091161515036108ca576040516306923abf60e01b815260040160405180910390fd5b6001600160a01b0382165f81815260026020908152604091829020805460ff19168515159081179091558251938452908301527fb60d1edb7d200355e50dd0ee2aca8a073ef23cda05de7d7a672013b99ac77ee0910160405180910390a15050565b610936828261053a565b6107815760405163e2517d3f60e01b81526001600160a01b038216600482015260248101839052604401610443565b5f60208284031215610975575f80fd5b81356001600160e01b03198116811461098c575f80fd5b9392505050565b80356001600160a01b03811681146109a9575f80fd5b919050565b5f602082840312156109be575f80fd5b61098c82610993565b83815260018060a01b0383166020820152606060408201525f82518060608401528060208501608085015e5f608082850101526080601f19601f830116840101915050949350505050565b5f60208284031215610a22575f80fd5b5035919050565b5f8060408385031215610a3a575f80fd5b82359150610a4a60208401610993565b90509250929050565b5f805f805f60808688031215610a67575f80fd5b610a7086610993565b945060208601359350610a8560408701610993565b9250606086013567ffffffffffffffff811115610aa0575f80fd5b8601601f81018813610ab0575f80fd5b803567ffffffffffffffff811115610ac6575f80fd5b886020828401011115610ad7575f80fd5b959894975092955050506020019190565b5f805f60608486031215610afa575f80fd5b610b0384610993565b925060208401359150604084013563ffffffff81168114610b22575f80fd5b809150509250925092565b801515811461078f575f80fd5b5f8060408385031215610b4b575f80fd5b610b5483610993565b91506020830135610b6481610b2d565b809150509250929050565b600181811c90821680610b8357607f821691505b602082108103610ba157634e487b7160e01b5f52602260045260245ffd5b50919050565b634e487b7160e01b5f52604160045260245ffd5b601f8211156103d957805f5260205f20601f840160051c81016020851015610be05750805b601f840160051c820191505b81811015610bff575f8155600101610bec565b5050505050565b67ffffffffffffffff831115610c1e57610c1e610ba7565b610c3283610c2c8354610b6f565b83610bbb565b5f601f841160018114610c63575f8515610c4c5750838201355b5f19600387901b1c1916600186901b178355610bff565b5f83815260208120601f198716915b82811015610c925786850135825560209485019460019092019101610c72565b5086821015610cae575f1960f88860031b161c19848701351681555b505060018560011b0183555050505050565b5f60208284031215610cd0575f80fd5b815161098c81610b2d56fea2646970667358221220aa780c80d946346161ca673ebb5572b0c3f657fc3ec21b4b2c07ad81d458d26764736f6c634300081a0033d8aa0f3194971a2a116679f7c2090f6939c8d4e01a2a8d7e41d55e5351469e63a49807205ce4d355092ef5a8a18f56e8913cf4a201fbe287825b095693c21775",
			"opcodes": "PUSH1 0x80 PUSH1 0x40 MSTORE CALLVALUE DUP1 ISZERO PUSH2 0xF JUMPI PUSH0 DUP1 REVERT JUMPDEST POP PUSH1 0x40 MLOAD PUSH2 0x103C CODESIZE SUB DUP1 PUSH2 0x103C DUP4 CODECOPY DUP2 ADD PUSH1 0x40 DUP2 SWAP1 MSTORE PUSH2 0x2E SWAP2 PUSH2 0x29E JUMP JUMPDEST PUSH2 0x45 PUSH0 DUP1 MLOAD PUSH1 0x20 PUSH2 0x101C DUP4 CODECOPY DUP2 MLOAD SWAP2 MSTORE DUP1 PUSH2 0xEE JUMP JUMPDEST PUSH2 0x69 PUSH0 DUP1 MLOAD PUSH1 0x20 PUSH2 0xFFC DUP4 CODECOPY DUP2 MLOAD SWAP2 MSTORE PUSH0 DUP1 MLOAD PUSH1 0x20 PUSH2 0x101C DUP4 CODECOPY DUP2 MLOAD SWAP2 MSTORE PUSH2 0xEE JUMP JUMPDEST PUSH2 0xA0 PUSH32 0x829B824E2329E205435D941C9F13BAF578548505283D29261236D8E6596D4636 PUSH0 DUP1 MLOAD PUSH1 0x20 PUSH2 0xFFC DUP4 CODECOPY DUP2 MLOAD SWAP2 MSTORE PUSH2 0xEE JUMP JUMPDEST PUSH2 0xB7 PUSH0 DUP1 MLOAD PUSH1 0x20 PUSH2 0x101C DUP4 CODECOPY DUP2 MLOAD SWAP2 MSTORE DUP5 PUSH2 0x138 JUMP JUMPDEST POP PUSH2 0xCF PUSH0 DUP1 MLOAD PUSH1 0x20 PUSH2 0xFFC DUP4 CODECOPY DUP2 MLOAD SWAP2 MSTORE CALLER PUSH2 0x138 JUMP JUMPDEST POP PUSH2 0xDB DUP3 PUSH1 0x1 PUSH2 0x1E1 JUMP JUMPDEST PUSH2 0xE6 DUP2 PUSH1 0x1 PUSH2 0x1E1 JUMP JUMPDEST POP POP POP PUSH2 0x2DE JUMP JUMPDEST PUSH0 DUP3 DUP2 MSTORE PUSH1 0x20 DUP2 SWAP1 MSTORE PUSH1 0x40 DUP1 DUP3 KECCAK256 PUSH1 0x1 ADD DUP1 SLOAD SWAP1 DUP5 SWAP1 SSTORE SWAP1 MLOAD SWAP1 SWAP2 DUP4 SWAP2 DUP4 SWAP2 DUP7 SWAP2 PUSH32 0xBD79B86FFE0AB8E8776151514217CD7CACD52C909F66475C3AF44E129F0B00FF SWAP2 SWAP1 LOG4 POP POP POP JUMP JUMPDEST PUSH0 DUP3 DUP2 MSTORE PUSH1 0x20 DUP2 DUP2 MSTORE PUSH1 0x40 DUP1 DUP4 KECCAK256 PUSH1 0x1 PUSH1 0x1 PUSH1 0xA0 SHL SUB DUP6 AND DUP5 MSTORE SWAP1 SWAP2 MSTORE DUP2 KECCAK256 SLOAD PUSH1 0xFF AND PUSH2 0x1D8 JUMPI PUSH0 DUP4 DUP2 MSTORE PUSH1 0x20 DUP2 DUP2 MSTORE PUSH1 0x40 DUP1 DUP4 KECCAK256 PUSH1 0x1 PUSH1 0x1 PUSH1 0xA0 SHL SUB DUP7 AND DUP5 MSTORE SWAP1 SWAP2 MSTORE SWAP1 KECCAK256 DUP1 SLOAD PUSH1 0xFF NOT AND PUSH1 0x1 OR SWAP1 SSTORE PUSH2 0x190 CALLER SWAP1 JUMP JUMPDEST PUSH1 0x1 PUSH1 0x1 PUSH1 0xA0 SHL SUB AND DUP3 PUSH1 0x1 PUSH1 0x1 PUSH1 0xA0 SHL SUB AND DUP5 PUSH32 0x2F8788117E7EFF1D82E926EC794901D17C78024A50270940304540A733656F0D PUSH1 0x40 MLOAD PUSH1 0x40 MLOAD DUP1 SWAP2 SUB SWAP1 LOG4 POP PUSH1 0x1 PUSH2 0x1DB JUMP JUMPDEST POP PUSH0 JUMPDEST SWAP3 SWAP2 POP POP JUMP JUMPDEST PUSH1 0x1 PUSH1 0x1 PUSH1 0xA0 SHL SUB DUP3 AND PUSH0 SWAP1 DUP2 MSTORE PUSH1 0x2 PUSH1 0x20 MSTORE PUSH1 0x40 SWAP1 KECCAK256 SLOAD DUP2 ISZERO ISZERO PUSH1 0xFF SWAP1 SWAP2 AND ISZERO ISZERO SUB PUSH2 0x221 JUMPI PUSH1 0x40 MLOAD PUSH4 0x6923ABF PUSH1 0xE0 SHL DUP2 MSTORE PUSH1 0x4 ADD PUSH1 0x40 MLOAD DUP1 SWAP2 SUB SWAP1 REVERT JUMPDEST PUSH1 0x1 PUSH1 0x1 PUSH1 0xA0 SHL SUB DUP3 AND PUSH0 DUP2 DUP2 MSTORE PUSH1 0x2 PUSH1 0x20 SWAP1 DUP2 MSTORE PUSH1 0x40 SWAP2 DUP3 SWAP1 KECCAK256 DUP1 SLOAD PUSH1 0xFF NOT AND DUP6 ISZERO ISZERO SWAP1 DUP2 OR SWAP1 SWAP2 SSTORE DUP3 MLOAD SWAP4 DUP5 MSTORE SWAP1 DUP4 ADD MSTORE PUSH32 0xB60D1EDB7D200355E50DD0EE2ACA8A073EF23CDA05DE7D7A672013B99AC77EE0 SWAP2 ADD PUSH1 0x40 MLOAD DUP1 SWAP2 SUB SWAP1 LOG1 POP POP JUMP JUMPDEST DUP1 MLOAD PUSH1 0x1 PUSH1 0x1 PUSH1 0xA0 SHL SUB DUP2 AND DUP2 EQ PUSH2 0x299 JUMPI PUSH0 DUP1 REVERT JUMPDEST SWAP2 SWAP1 POP JUMP JUMPDEST PUSH0 DUP1 PUSH0 PUSH1 0x60 DUP5 DUP7 SUB SLT ISZERO PUSH2 0x2B0 JUMPI PUSH0 DUP1 REVERT JUMPDEST PUSH2 0x2B9 DUP5 PUSH2 0x283 JUMP JUMPDEST SWAP3 POP PUSH2 0x2C7 PUSH1 0x20 DUP6 ADD PUSH2 0x283 JUMP JUMPDEST SWAP2 POP PUSH2 0x2D5 PUSH1 0x40 DUP6 ADD PUSH2 0x283 JUMP JUMPDEST SWAP1 POP SWAP3 POP SWAP3 POP SWAP3 JUMP JUMPDEST PUSH2 0xD11 DUP1 PUSH2 0x2EB PUSH0 CODECOPY PUSH0 RETURN INVALID PUSH1 0x80 PUSH1 0x40 MSTORE CALLVALUE DUP1 ISZERO PUSH2 0xF JUMPI PUSH0 DUP1 REVERT JUMPDEST POP PUSH1 0x4 CALLDATASIZE LT PUSH2 0xF0 JUMPI PUSH0 CALLDATALOAD PUSH1 0xE0 SHR DUP1 PUSH4 0x75B238FC GT PUSH2 0x93 JUMPI DUP1 PUSH4 0xB89E45B3 GT PUSH2 0x63 JUMPI DUP1 PUSH4 0xB89E45B3 EQ PUSH2 0x238 JUMPI DUP1 PUSH4 0xC2EC9F9B EQ PUSH2 0x25A JUMPI DUP1 PUSH4 0xD547741F EQ PUSH2 0x26D JUMPI DUP1 PUSH4 0xE44B7558 EQ PUSH2 0x280 JUMPI PUSH0 DUP1 REVERT JUMPDEST DUP1 PUSH4 0x75B238FC EQ PUSH2 0x1D0 JUMPI DUP1 PUSH4 0x91D14854 EQ PUSH2 0x1F7 JUMPI DUP1 PUSH4 0xA10F469E EQ PUSH2 0x20A JUMPI DUP1 PUSH4 0xA217FDDF EQ PUSH2 0x231 JUMPI PUSH0 DUP1 REVERT JUMPDEST DUP1 PUSH4 0x248A9CA3 GT PUSH2 0xCE JUMPI DUP1 PUSH4 0x248A9CA3 EQ PUSH2 0x173 JUMPI DUP1 PUSH4 0x2F2FF15D EQ PUSH2 0x195 JUMPI DUP1 PUSH4 0x36568ABE EQ PUSH2 0x1AA JUMPI DUP1 PUSH4 0x529E03FE EQ PUSH2 0x1BD JUMPI PUSH0 DUP1 REVERT JUMPDEST DUP1 PUSH4 0x1FFC9A7 EQ PUSH2 0xF4 JUMPI DUP1 PUSH4 0x7BD0265 EQ PUSH2 0x11C JUMPI DUP1 PUSH4 0xAAE7A6B EQ PUSH2 0x151 JUMPI JUMPDEST PUSH0 DUP1 REVERT JUMPDEST PUSH2 0x107 PUSH2 0x102 CALLDATASIZE PUSH1 0x4 PUSH2 0x965 JUMP JUMPDEST PUSH2 0x293 JUMP JUMPDEST PUSH1 0x40 MLOAD SWAP1 ISZERO ISZERO DUP2 MSTORE PUSH1 0x20 ADD JUMPDEST PUSH1 0x40 MLOAD DUP1 SWAP2 SUB SWAP1 RETURN JUMPDEST PUSH2 0x143 PUSH32 0xD8AA0F3194971A2A116679F7C2090F6939C8D4E01A2A8D7E41D55E5351469E63 DUP2 JUMP JUMPDEST PUSH1 0x40 MLOAD SWAP1 DUP2 MSTORE PUSH1 0x20 ADD PUSH2 0x113 JUMP JUMPDEST PUSH2 0x164 PUSH2 0x15F CALLDATASIZE PUSH1 0x4 PUSH2 0x9AE JUMP JUMPDEST PUSH2 0x2C9 JUMP JUMPDEST PUSH1 0x40 MLOAD PUSH2 0x113 SWAP4 SWAP3 SWAP2 SWAP1 PUSH2 0x9C7 JUMP JUMPDEST PUSH2 0x143 PUSH2 0x181 CALLDATASIZE PUSH1 0x4 PUSH2 0xA12 JUMP JUMPDEST PUSH0 SWAP1 DUP2 MSTORE PUSH1 0x20 DUP2 SWAP1 MSTORE PUSH1 0x40 SWAP1 KECCAK256 PUSH1 0x1 ADD SLOAD SWAP1 JUMP JUMPDEST PUSH2 0x1A8 PUSH2 0x1A3 CALLDATASIZE PUSH1 0x4 PUSH2 0xA29 JUMP JUMPDEST PUSH2 0x37C JUMP JUMPDEST STOP JUMPDEST PUSH2 0x1A8 PUSH2 0x1B8 CALLDATASIZE PUSH1 0x4 PUSH2 0xA29 JUMP JUMPDEST PUSH2 0x3A6 JUMP JUMPDEST PUSH2 0x1A8 PUSH2 0x1CB CALLDATASIZE PUSH1 0x4 PUSH2 0xA53 JUMP JUMPDEST PUSH2 0x3DE JUMP JUMPDEST PUSH2 0x143 PUSH32 0xA49807205CE4D355092EF5A8A18F56E8913CF4A201FBE287825B095693C21775 DUP2 JUMP JUMPDEST PUSH2 0x107 PUSH2 0x205 CALLDATASIZE PUSH1 0x4 PUSH2 0xA29 JUMP JUMPDEST PUSH2 0x53A JUMP JUMPDEST PUSH2 0x143 PUSH32 0x829B824E2329E205435D941C9F13BAF578548505283D29261236D8E6596D4636 DUP2 JUMP JUMPDEST PUSH2 0x143 PUSH0 DUP2 JUMP JUMPDEST PUSH2 0x107 PUSH2 0x246 CALLDATASIZE PUSH1 0x4 PUSH2 0x9AE JUMP JUMPDEST PUSH1 0x2 PUSH1 0x20 MSTORE PUSH0 SWAP1 DUP2 MSTORE PUSH1 0x40 SWAP1 KECCAK256 SLOAD PUSH1 0xFF AND DUP2 JUMP JUMPDEST PUSH2 0x1A8 PUSH2 0x268 CALLDATASIZE PUSH1 0x4 PUSH2 0xAE8 JUMP JUMPDEST PUSH2 0x562 JUMP JUMPDEST PUSH2 0x1A8 PUSH2 0x27B CALLDATASIZE PUSH1 0x4 PUSH2 0xA29 JUMP JUMPDEST PUSH2 0x6EA JUMP JUMPDEST PUSH2 0x1A8 PUSH2 0x28E CALLDATASIZE PUSH1 0x4 PUSH2 0xB3A JUMP JUMPDEST PUSH2 0x70E JUMP JUMPDEST PUSH0 PUSH1 0x1 PUSH1 0x1 PUSH1 0xE0 SHL SUB NOT DUP3 AND PUSH4 0x7965DB0B PUSH1 0xE0 SHL EQ DUP1 PUSH2 0x2C3 JUMPI POP PUSH4 0x1FFC9A7 PUSH1 0xE0 SHL PUSH1 0x1 PUSH1 0x1 PUSH1 0xE0 SHL SUB NOT DUP4 AND EQ JUMPDEST SWAP3 SWAP2 POP POP JUMP JUMPDEST PUSH1 0x1 PUSH1 0x20 DUP2 SWAP1 MSTORE PUSH0 SWAP2 DUP3 MSTORE PUSH1 0x40 SWAP1 SWAP2 KECCAK256 DUP1 SLOAD SWAP2 DUP2 ADD SLOAD PUSH1 0x2 DUP3 ADD DUP1 SLOAD PUSH1 0x1 PUSH1 0x1 PUSH1 0xA0 SHL SUB SWAP1 SWAP3 AND SWAP3 SWAP2 PUSH2 0x2FB SWAP1 PUSH2 0xB6F JUMP JUMPDEST DUP1 PUSH1 0x1F ADD PUSH1 0x20 DUP1 SWAP2 DIV MUL PUSH1 0x20 ADD PUSH1 0x40 MLOAD SWAP1 DUP2 ADD PUSH1 0x40 MSTORE DUP1 SWAP3 SWAP2 SWAP1 DUP2 DUP2 MSTORE PUSH1 0x20 ADD DUP3 DUP1 SLOAD PUSH2 0x327 SWAP1 PUSH2 0xB6F JUMP JUMPDEST DUP1 ISZERO PUSH2 0x372 JUMPI DUP1 PUSH1 0x1F LT PUSH2 0x349 JUMPI PUSH2 0x100 DUP1 DUP4 SLOAD DIV MUL DUP4 MSTORE SWAP2 PUSH1 0x20 ADD SWAP2 PUSH2 0x372 JUMP JUMPDEST DUP3 ADD SWAP2 SWAP1 PUSH0 MSTORE PUSH1 0x20 PUSH0 KECCAK256 SWAP1 JUMPDEST DUP2 SLOAD DUP2 MSTORE SWAP1 PUSH1 0x1 ADD SWAP1 PUSH1 0x20 ADD DUP1 DUP4 GT PUSH2 0x355 JUMPI DUP3 SWAP1 SUB PUSH1 0x1F AND DUP3 ADD SWAP2 JUMPDEST POP POP POP POP POP SWAP1 POP DUP4 JUMP JUMPDEST PUSH0 DUP3 DUP2 MSTORE PUSH1 0x20 DUP2 SWAP1 MSTORE PUSH1 0x40 SWAP1 KECCAK256 PUSH1 0x1 ADD SLOAD PUSH2 0x396 DUP2 PUSH2 0x785 JUMP JUMPDEST PUSH2 0x3A0 DUP4 DUP4 PUSH2 0x792 JUMP JUMPDEST POP POP POP POP JUMP JUMPDEST PUSH1 0x1 PUSH1 0x1 PUSH1 0xA0 SHL SUB DUP2 AND CALLER EQ PUSH2 0x3CF JUMPI PUSH1 0x40 MLOAD PUSH4 0x334BD919 PUSH1 0xE1 SHL DUP2 MSTORE PUSH1 0x4 ADD PUSH1 0x40 MLOAD DUP1 SWAP2 SUB SWAP1 REVERT JUMPDEST PUSH2 0x3D9 DUP3 DUP3 PUSH2 0x821 JUMP JUMPDEST POP POP POP JUMP JUMPDEST PUSH2 0x408 PUSH32 0xD8AA0F3194971A2A116679F7C2090F6939C8D4E01A2A8D7E41D55E5351469E63 CALLER PUSH2 0x53A JUMP JUMPDEST ISZERO ISZERO PUSH1 0x1 EQ PUSH2 0x44C JUMPI PUSH1 0x40 MLOAD PUSH3 0x461BCD PUSH1 0xE5 SHL DUP2 MSTORE PUSH1 0x20 PUSH1 0x4 DUP3 ADD MSTORE PUSH1 0xB PUSH1 0x24 DUP3 ADD MSTORE PUSH11 0x27379022BC32B1BABA37B9 PUSH1 0xA9 SHL PUSH1 0x44 DUP3 ADD MSTORE PUSH1 0x64 ADD JUMPDEST PUSH1 0x40 MLOAD DUP1 SWAP2 SUB SWAP1 REVERT JUMPDEST PUSH1 0x1 PUSH1 0x1 PUSH1 0xA0 SHL SUB DUP6 AND PUSH0 SWAP1 DUP2 MSTORE PUSH1 0x1 PUSH1 0x20 MSTORE PUSH1 0x40 SWAP1 KECCAK256 SLOAD ISZERO PUSH2 0x482 JUMPI PUSH1 0x40 MLOAD PUSH4 0xEA075BF PUSH1 0xE2 SHL DUP2 MSTORE PUSH1 0x4 ADD PUSH1 0x40 MLOAD DUP1 SWAP2 SUB SWAP1 REVERT JUMPDEST PUSH1 0x1 PUSH1 0x1 PUSH1 0xA0 SHL SUB DUP6 DUP2 AND PUSH0 SWAP1 DUP2 MSTORE PUSH1 0x1 PUSH1 0x20 DUP2 SWAP1 MSTORE PUSH1 0x40 SWAP1 SWAP2 KECCAK256 DUP7 DUP2 SSTORE SWAP1 DUP2 ADD DUP1 SLOAD PUSH1 0x1 PUSH1 0x1 PUSH1 0xA0 SHL SUB NOT AND SWAP3 DUP7 AND SWAP3 SWAP1 SWAP3 OR SWAP1 SWAP2 SSTORE PUSH1 0x2 ADD PUSH2 0x4C7 DUP3 DUP5 DUP4 PUSH2 0xC06 JUMP JUMPDEST POP PUSH2 0x4F2 PUSH32 0x829B824E2329E205435D941C9F13BAF578548505283D29261236D8E6596D4636 DUP7 PUSH2 0x37C JUMP JUMPDEST PUSH1 0x40 DUP1 MLOAD PUSH1 0x1 PUSH1 0x1 PUSH1 0xA0 SHL SUB DUP8 AND DUP2 MSTORE CALLER PUSH1 0x20 DUP3 ADD MSTORE PUSH32 0x3A5A00EC423040DABE80F57799A58598C7A3B374FE3BCC917901B4867B30C908 SWAP2 ADD PUSH1 0x40 MLOAD DUP1 SWAP2 SUB SWAP1 LOG1 POP POP POP POP POP JUMP JUMPDEST PUSH0 SWAP2 DUP3 MSTORE PUSH1 0x20 DUP3 DUP2 MSTORE PUSH1 0x40 DUP1 DUP5 KECCAK256 PUSH1 0x1 PUSH1 0x1 PUSH1 0xA0 SHL SUB SWAP4 SWAP1 SWAP4 AND DUP5 MSTORE SWAP2 SWAP1 MSTORE SWAP1 KECCAK256 SLOAD PUSH1 0xFF AND SWAP1 JUMP JUMPDEST PUSH2 0x58C PUSH32 0x829B824E2329E205435D941C9F13BAF578548505283D29261236D8E6596D4636 CALLER PUSH2 0x53A JUMP JUMPDEST ISZERO ISZERO PUSH1 0x1 EQ PUSH2 0x5C9 JUMPI PUSH1 0x40 MLOAD PUSH3 0x461BCD PUSH1 0xE5 SHL DUP2 MSTORE PUSH1 0x20 PUSH1 0x4 DUP3 ADD MSTORE PUSH1 0x9 PUSH1 0x24 DUP3 ADD MSTORE PUSH9 0x27379026B2B6B132B9 PUSH1 0xB9 SHL PUSH1 0x44 DUP3 ADD MSTORE PUSH1 0x64 ADD PUSH2 0x443 JUMP JUMPDEST PUSH1 0x1 PUSH1 0x1 PUSH1 0xA0 SHL SUB DUP4 AND PUSH0 SWAP1 DUP2 MSTORE PUSH1 0x2 PUSH1 0x20 MSTORE PUSH1 0x40 DUP2 KECCAK256 SLOAD PUSH1 0xFF AND ISZERO ISZERO SWAP1 SUB PUSH2 0x604 JUMPI PUSH1 0x40 MLOAD PUSH3 0x121003 PUSH1 0xE1 SHL DUP2 MSTORE PUSH1 0x4 ADD PUSH1 0x40 MLOAD DUP1 SWAP2 SUB SWAP1 REVERT JUMPDEST CALLER PUSH0 DUP2 DUP2 MSTORE PUSH1 0x1 PUSH1 0x20 DUP2 SWAP1 MSTORE PUSH1 0x40 SWAP2 DUP3 SWAP1 KECCAK256 ADD SLOAD SWAP1 MLOAD PUSH4 0x23B872DD PUSH1 0xE0 SHL DUP2 MSTORE PUSH1 0x4 DUP2 ADD SWAP3 SWAP1 SWAP3 MSTORE PUSH1 0x1 PUSH1 0x1 PUSH1 0xA0 SHL SUB SWAP1 DUP2 AND PUSH1 0x24 DUP4 ADD MSTORE PUSH1 0x44 DUP3 ADD DUP5 SWAP1 MSTORE DUP5 AND SWAP1 PUSH4 0x23B872DD SWAP1 PUSH1 0x64 ADD PUSH1 0x20 PUSH1 0x40 MLOAD DUP1 DUP4 SUB DUP2 PUSH0 DUP8 GAS CALL ISZERO DUP1 ISZERO PUSH2 0x66B JUMPI RETURNDATASIZE PUSH0 DUP1 RETURNDATACOPY RETURNDATASIZE PUSH0 REVERT JUMPDEST POP POP POP POP PUSH1 0x40 MLOAD RETURNDATASIZE PUSH1 0x1F NOT PUSH1 0x1F DUP3 ADD AND DUP3 ADD DUP1 PUSH1 0x40 MSTORE POP DUP2 ADD SWAP1 PUSH2 0x68F SWAP2 SWAP1 PUSH2 0xCC0 JUMP JUMPDEST POP PUSH1 0x40 DUP1 MLOAD CALLER DUP2 MSTORE PUSH1 0x1 PUSH1 0x1 PUSH1 0xA0 SHL SUB DUP6 AND PUSH1 0x20 DUP3 ADD MSTORE SWAP1 DUP2 ADD DUP4 SWAP1 MSTORE PUSH4 0xFFFFFFFF DUP3 AND PUSH1 0x60 DUP3 ADD MSTORE PUSH32 0x5AFD6D433DB54145DA9404739B81ABEA48A0D7EACE190277C0D266A6C6618C17 SWAP1 PUSH1 0x80 ADD PUSH1 0x40 MLOAD DUP1 SWAP2 SUB SWAP1 LOG1 POP POP POP JUMP JUMPDEST PUSH0 DUP3 DUP2 MSTORE PUSH1 0x20 DUP2 SWAP1 MSTORE PUSH1 0x40 SWAP1 KECCAK256 PUSH1 0x1 ADD SLOAD PUSH2 0x704 DUP2 PUSH2 0x785 JUMP JUMPDEST PUSH2 0x3A0 DUP4 DUP4 PUSH2 0x821 JUMP JUMPDEST PUSH2 0x738 PUSH32 0xD8AA0F3194971A2A116679F7C2090F6939C8D4E01A2A8D7E41D55E5351469E63 CALLER PUSH2 0x53A JUMP JUMPDEST ISZERO ISZERO PUSH1 0x1 EQ PUSH2 0x777 JUMPI PUSH1 0x40 MLOAD PUSH3 0x461BCD PUSH1 0xE5 SHL DUP2 MSTORE PUSH1 0x20 PUSH1 0x4 DUP3 ADD MSTORE PUSH1 0xB PUSH1 0x24 DUP3 ADD MSTORE PUSH11 0x27379022BC32B1BABA37B9 PUSH1 0xA9 SHL PUSH1 0x44 DUP3 ADD MSTORE PUSH1 0x64 ADD PUSH2 0x443 JUMP JUMPDEST PUSH2 0x781 DUP3 DUP3 PUSH2 0x88A JUMP JUMPDEST POP POP JUMP JUMPDEST PUSH2 0x78F DUP2 CALLER PUSH2 0x92C JUMP JUMPDEST POP JUMP JUMPDEST PUSH0 PUSH2 0x79D DUP4 DUP4 PUSH2 0x53A JUMP JUMPDEST PUSH2 0x81A JUMPI PUSH0 DUP4 DUP2 MSTORE PUSH1 0x20 DUP2 DUP2 MSTORE PUSH1 0x40 DUP1 DUP4 KECCAK256 PUSH1 0x1 PUSH1 0x1 PUSH1 0xA0 SHL SUB DUP7 AND DUP5 MSTORE SWAP1 SWAP2 MSTORE SWAP1 KECCAK256 DUP1 SLOAD PUSH1 0xFF NOT AND PUSH1 0x1 OR SWAP1 SSTORE PUSH2 0x7D2 CALLER SWAP1 JUMP JUMPDEST PUSH1 0x1 PUSH1 0x1 PUSH1 0xA0 SHL SUB AND DUP3 PUSH1 0x1 PUSH1 0x1 PUSH1 0xA0 SHL SUB AND DUP5 PUSH32 0x2F8788117E7EFF1D82E926EC794901D17C78024A50270940304540A733656F0D PUSH1 0x40 MLOAD PUSH1 0x40 MLOAD DUP1 SWAP2 SUB SWAP1 LOG4 POP PUSH1 0x1 PUSH2 0x2C3 JUMP JUMPDEST POP PUSH0 PUSH2 0x2C3 JUMP JUMPDEST PUSH0 PUSH2 0x82C DUP4 DUP4 PUSH2 0x53A JUMP JUMPDEST ISZERO PUSH2 0x81A JUMPI PUSH0 DUP4 DUP2 MSTORE PUSH1 0x20 DUP2 DUP2 MSTORE PUSH1 0x40 DUP1 DUP4 KECCAK256 PUSH1 0x1 PUSH1 0x1 PUSH1 0xA0 SHL SUB DUP7 AND DUP1 DUP6 MSTORE SWAP3 MSTORE DUP1 DUP4 KECCAK256 DUP1 SLOAD PUSH1 0xFF NOT AND SWAP1 SSTORE MLOAD CALLER SWAP3 DUP7 SWAP2 PUSH32 0xF6391F5C32D9C69D2A47EA670B442974B53935D1EDC7FD64EB21E047A839171B SWAP2 SWAP1 LOG4 POP PUSH1 0x1 PUSH2 0x2C3 JUMP JUMPDEST PUSH1 0x1 PUSH1 0x1 PUSH1 0xA0 SHL SUB DUP3 AND PUSH0 SWAP1 DUP2 MSTORE PUSH1 0x2 PUSH1 0x20 MSTORE PUSH1 0x40 SWAP1 KECCAK256 SLOAD DUP2 ISZERO ISZERO PUSH1 0xFF SWAP1 SWAP2 AND ISZERO ISZERO SUB PUSH2 0x8CA JUMPI PUSH1 0x40 MLOAD PUSH4 0x6923ABF PUSH1 0xE0 SHL DUP2 MSTORE PUSH1 0x4 ADD PUSH1 0x40 MLOAD DUP1 SWAP2 SUB SWAP1 REVERT JUMPDEST PUSH1 0x1 PUSH1 0x1 PUSH1 0xA0 SHL SUB DUP3 AND PUSH0 DUP2 DUP2 MSTORE PUSH1 0x2 PUSH1 0x20 SWAP1 DUP2 MSTORE PUSH1 0x40 SWAP2 DUP3 SWAP1 KECCAK256 DUP1 SLOAD PUSH1 0xFF NOT AND DUP6 ISZERO ISZERO SWAP1 DUP2 OR SWAP1 SWAP2 SSTORE DUP3 MLOAD SWAP4 DUP5 MSTORE SWAP1 DUP4 ADD MSTORE PUSH32 0xB60D1EDB7D200355E50DD0EE2ACA8A073EF23CDA05DE7D7A672013B99AC77EE0 SWAP2 ADD PUSH1 0x40 MLOAD DUP1 SWAP2 SUB SWAP1 LOG1 POP POP JUMP JUMPDEST PUSH2 0x936 DUP3 DUP3 PUSH2 0x53A JUMP JUMPDEST PUSH2 0x781 JUMPI PUSH1 0x40 MLOAD PUSH4 0xE2517D3F PUSH1 0xE0 SHL DUP2 MSTORE PUSH1 0x1 PUSH1 0x1 PUSH1 0xA0 SHL SUB DUP3 AND PUSH1 0x4 DUP3 ADD MSTORE PUSH1 0x24 DUP2 ADD DUP4 SWAP1 MSTORE PUSH1 0x44 ADD PUSH2 0x443 JUMP JUMPDEST PUSH0 PUSH1 0x20 DUP3 DUP5 SUB SLT ISZERO PUSH2 0x975 JUMPI PUSH0 DUP1 REVERT JUMPDEST DUP2 CALLDATALOAD PUSH1 0x1 PUSH1 0x1 PUSH1 0xE0 SHL SUB NOT DUP2 AND DUP2 EQ PUSH2 0x98C JUMPI PUSH0 DUP1 REVERT JUMPDEST SWAP4 SWAP3 POP POP POP JUMP JUMPDEST DUP1 CALLDATALOAD PUSH1 0x1 PUSH1 0x1 PUSH1 0xA0 SHL SUB DUP2 AND DUP2 EQ PUSH2 0x9A9 JUMPI PUSH0 DUP1 REVERT JUMPDEST SWAP2 SWAP1 POP JUMP JUMPDEST PUSH0 PUSH1 0x20 DUP3 DUP5 SUB SLT ISZERO PUSH2 0x9BE JUMPI PUSH0 DUP1 REVERT JUMPDEST PUSH2 0x98C DUP3 PUSH2 0x993 JUMP JUMPDEST DUP4 DUP2 MSTORE PUSH1 0x1 DUP1 PUSH1 0xA0 SHL SUB DUP4 AND PUSH1 0x20 DUP3 ADD MSTORE PUSH1 0x60 PUSH1 0x40 DUP3 ADD MSTORE PUSH0 DUP3 MLOAD DUP1 PUSH1 0x60 DUP5 ADD MSTORE DUP1 PUSH1 0x20 DUP6 ADD PUSH1 0x80 DUP6 ADD MCOPY PUSH0 PUSH1 0x80 DUP3 DUP6 ADD ADD MSTORE PUSH1 0x80 PUSH1 0x1F NOT PUSH1 0x1F DUP4 ADD AND DUP5 ADD ADD SWAP2 POP POP SWAP5 SWAP4 POP POP POP POP JUMP JUMPDEST PUSH0 PUSH1 0x20 DUP3 DUP5 SUB SLT ISZERO PUSH2 0xA22 JUMPI PUSH0 DUP1 REVERT JUMPDEST POP CALLDATALOAD SWAP2 SWAP1 POP JUMP JUMPDEST PUSH0 DUP1 PUSH1 0x40 DUP4 DUP6 SUB SLT ISZERO PUSH2 0xA3A JUMPI PUSH0 DUP1 REVERT JUMPDEST DUP3 CALLDATALOAD SWAP2 POP PUSH2 0xA4A PUSH1 0x20 DUP5 ADD PUSH2 0x993 JUMP JUMPDEST SWAP1 POP SWAP3 POP SWAP3 SWAP1 POP JUMP JUMPDEST PUSH0 DUP1 PUSH0 DUP1 PUSH0 PUSH1 0x80 DUP7 DUP9 SUB SLT ISZERO PUSH2 0xA67 JUMPI PUSH0 DUP1 REVERT JUMPDEST PUSH2 0xA70 DUP7 PUSH2 0x993 JUMP JUMPDEST SWAP5 POP PUSH1 0x20 DUP7 ADD CALLDATALOAD SWAP4 POP PUSH2 0xA85 PUSH1 0x40 DUP8 ADD PUSH2 0x993 JUMP JUMPDEST SWAP3 POP PUSH1 0x60 DUP7 ADD CALLDATALOAD PUSH8 0xFFFFFFFFFFFFFFFF DUP2 GT ISZERO PUSH2 0xAA0 JUMPI PUSH0 DUP1 REVERT JUMPDEST DUP7 ADD PUSH1 0x1F DUP2 ADD DUP9 SGT PUSH2 0xAB0 JUMPI PUSH0 DUP1 REVERT JUMPDEST DUP1 CALLDATALOAD PUSH8 0xFFFFFFFFFFFFFFFF DUP2 GT ISZERO PUSH2 0xAC6 JUMPI PUSH0 DUP1 REVERT JUMPDEST DUP9 PUSH1 0x20 DUP3 DUP5 ADD ADD GT ISZERO PUSH2 0xAD7 JUMPI PUSH0 DUP1 REVERT JUMPDEST SWAP6 SWAP9 SWAP5 SWAP8 POP SWAP3 SWAP6 POP POP POP PUSH1 0x20 ADD SWAP2 SWAP1 JUMP JUMPDEST PUSH0 DUP1 PUSH0 PUSH1 0x60 DUP5 DUP7 SUB SLT ISZERO PUSH2 0xAFA JUMPI PUSH0 DUP1 REVERT JUMPDEST PUSH2 0xB03 DUP5 PUSH2 0x993 JUMP JUMPDEST SWAP3 POP PUSH1 0x20 DUP5 ADD CALLDATALOAD SWAP2 POP PUSH1 0x40 DUP5 ADD CALLDATALOAD PUSH4 0xFFFFFFFF DUP2 AND DUP2 EQ PUSH2 0xB22 JUMPI PUSH0 DUP1 REVERT JUMPDEST DUP1 SWAP2 POP POP SWAP3 POP SWAP3 POP SWAP3 JUMP JUMPDEST DUP1 ISZERO ISZERO DUP2 EQ PUSH2 0x78F JUMPI PUSH0 DUP1 REVERT JUMPDEST PUSH0 DUP1 PUSH1 0x40 DUP4 DUP6 SUB SLT ISZERO PUSH2 0xB4B JUMPI PUSH0 DUP1 REVERT JUMPDEST PUSH2 0xB54 DUP4 PUSH2 0x993 JUMP JUMPDEST SWAP2 POP PUSH1 0x20 DUP4 ADD CALLDATALOAD PUSH2 0xB64 DUP2 PUSH2 0xB2D JUMP JUMPDEST DUP1 SWAP2 POP POP SWAP3 POP SWAP3 SWAP1 POP JUMP JUMPDEST PUSH1 0x1 DUP2 DUP2 SHR SWAP1 DUP3 AND DUP1 PUSH2 0xB83 JUMPI PUSH1 0x7F DUP3 AND SWAP2 POP JUMPDEST PUSH1 0x20 DUP3 LT DUP2 SUB PUSH2 0xBA1 JUMPI PUSH4 0x4E487B71 PUSH1 0xE0 SHL PUSH0 MSTORE PUSH1 0x22 PUSH1 0x4 MSTORE PUSH1 0x24 PUSH0 REVERT JUMPDEST POP SWAP2 SWAP1 POP JUMP JUMPDEST PUSH4 0x4E487B71 PUSH1 0xE0 SHL PUSH0 MSTORE PUSH1 0x41 PUSH1 0x4 MSTORE PUSH1 0x24 PUSH0 REVERT JUMPDEST PUSH1 0x1F DUP3 GT ISZERO PUSH2 0x3D9 JUMPI DUP1 PUSH0 MSTORE PUSH1 0x20 PUSH0 KECCAK256 PUSH1 0x1F DUP5 ADD PUSH1 0x5 SHR DUP2 ADD PUSH1 0x20 DUP6 LT ISZERO PUSH2 0xBE0 JUMPI POP DUP1 JUMPDEST PUSH1 0x1F DUP5 ADD PUSH1 0x5 SHR DUP3 ADD SWAP2 POP JUMPDEST DUP2 DUP2 LT ISZERO PUSH2 0xBFF JUMPI PUSH0 DUP2 SSTORE PUSH1 0x1 ADD PUSH2 0xBEC JUMP JUMPDEST POP POP POP POP POP JUMP JUMPDEST PUSH8 0xFFFFFFFFFFFFFFFF DUP4 GT ISZERO PUSH2 0xC1E JUMPI PUSH2 0xC1E PUSH2 0xBA7 JUMP JUMPDEST PUSH2 0xC32 DUP4 PUSH2 0xC2C DUP4 SLOAD PUSH2 0xB6F JUMP JUMPDEST DUP4 PUSH2 0xBBB JUMP JUMPDEST PUSH0 PUSH1 0x1F DUP5 GT PUSH1 0x1 DUP2 EQ PUSH2 0xC63 JUMPI PUSH0 DUP6 ISZERO PUSH2 0xC4C JUMPI POP DUP4 DUP3 ADD CALLDATALOAD JUMPDEST PUSH0 NOT PUSH1 0x3 DUP8 SWAP1 SHL SHR NOT AND PUSH1 0x1 DUP7 SWAP1 SHL OR DUP4 SSTORE PUSH2 0xBFF JUMP JUMPDEST PUSH0 DUP4 DUP2 MSTORE PUSH1 0x20 DUP2 KECCAK256 PUSH1 0x1F NOT DUP8 AND SWAP2 JUMPDEST DUP3 DUP2 LT ISZERO PUSH2 0xC92 JUMPI DUP7 DUP6 ADD CALLDATALOAD DUP3 SSTORE PUSH1 0x20 SWAP5 DUP6 ADD SWAP5 PUSH1 0x1 SWAP1 SWAP3 ADD SWAP2 ADD PUSH2 0xC72 JUMP JUMPDEST POP DUP7 DUP3 LT ISZERO PUSH2 0xCAE JUMPI PUSH0 NOT PUSH1 0xF8 DUP9 PUSH1 0x3 SHL AND SHR NOT DUP5 DUP8 ADD CALLDATALOAD AND DUP2 SSTORE JUMPDEST POP POP PUSH1 0x1 DUP6 PUSH1 0x1 SHL ADD DUP4 SSTORE POP POP POP POP POP JUMP JUMPDEST PUSH0 PUSH1 0x20 DUP3 DUP5 SUB SLT ISZERO PUSH2 0xCD0 JUMPI PUSH0 DUP1 REVERT JUMPDEST DUP2 MLOAD PUSH2 0x98C DUP2 PUSH2 0xB2D JUMP INVALID LOG2 PUSH5 0x6970667358 0x22 SLT KECCAK256 0xAA PUSH25 0xC80D946346161CA673EBB5572B0C3F657FC3EC21B4B2C07AD DUP2 0xD4 PC 0xD2 PUSH8 0x64736F6C63430008 BYTE STOP CALLER 0xD8 0xAA 0xF BALANCE SWAP5 SWAP8 BYTE 0x2A GT PUSH7 0x79F7C2090F6939 0xC8 0xD4 0xE0 BYTE 0x2A DUP14 PUSH31 0x41D55E5351469E63A49807205CE4D355092EF5A8A18F56E8913CF4A201FBE2 DUP8 DUP3 JUMPDEST MULMOD JUMP SWAP4 0xC2 OR PUSH22 0x0 "
		},
		"gasEstimates": {
			"creation": {
				"codeDepositCost": "669000",
				"executionCost": "infinite",
				"totalCost": "infinite"
			},
			"external": {
				"ADMIN_ROLE()": "217",
				"DEFAULT_ADMIN_ROLE()": "282",
				"EXECUTOR_ROLE()": "240",
				"MEMBER_ROLE()": "261",
				"depositAndSwap(address,uint256,uint32)": "infinite",
				"getRoleAdmin(bytes32)": "2467",
				"grantRole(bytes32,address)": "infinite",
				"hasRole(bytes32,address)": "2693",
				"info(address)": "infinite",
				"isDepositToken(address)": "2539",
				"registerMember(address,uint256,address,string)": "infinite",
				"renounceRole(bytes32,address)": "29085",
				"revokeRole(bytes32,address)": "infinite",
				"setDepositToken(address,bool)": "30735",
				"supportsInterface(bytes4)": "447"
			},
			"internal": {
				"_setDepositToken(address,bool)": "infinite"
			}
		},
		"methodIdentifiers": {
			"ADMIN_ROLE()": "75b238fc",
			"DEFAULT_ADMIN_ROLE()": "a217fddf",
			"EXECUTOR_ROLE()": "07bd0265",
			"MEMBER_ROLE()": "a10f469e",
			"depositAndSwap(address,uint256,uint32)": "c2ec9f9b",
			"getRoleAdmin(bytes32)": "248a9ca3",
			"grantRole(bytes32,address)": "2f2ff15d",
			"hasRole(bytes32,address)": "91d14854",
			"info(address)": "0aae7a6b",
			"isDepositToken(address)": "b89e45b3",
			"registerMember(address,uint256,address,string)": "529e03fe",
			"renounceRole(bytes32,address)": "36568abe",
			"revokeRole(bytes32,address)": "d547741f",
			"setDepositToken(address,bool)": "e44b7558",
			"supportsInterface(bytes4)": "01ffc9a7"
		}
	},
	"abi": [
		{
			"inputs": [
				{
					"internalType": "address",
					"name": "admin",
					"type": "address"
				},
				{
					"internalType": "address",
					"name": "_usdc",
					"type": "address"
				},
				{
					"internalType": "address",
					"name": "_usdt",
					"type": "address"
				}
			],
			"stateMutability": "nonpayable",
			"type": "constructor"
		},
		{
			"inputs": [],
			"name": "AccessControlBadConfirmation",
			"type": "error"
		},
		{
			"inputs": [
				{
					"internalType": "address",
					"name": "account",
					"type": "address"
				},
				{
					"internalType": "bytes32",
					"name": "neededRole",
					"type": "bytes32"
				}
			],
			"name": "AccessControlUnauthorizedAccount",
			"type": "error"
		},
		{
			"inputs": [],
			"name": "AlreadyRegistered",
			"type": "error"
		},
		{
			"inputs": [],
			"name": "NotDepositToken",
			"type": "error"
		},
		{
			"inputs": [],
			"name": "NothingChanged",
			"type": "error"
		},
		{
			"anonymous": false,
			"inputs": [
				{
					"indexed": false,
					"internalType": "address",
					"name": "member",
					"type": "address"
				},
				{
					"indexed": false,
					"internalType": "address",
					"name": "token",
					"type": "address"
				},
				{
					"indexed": false,
					"internalType": "uint256",
					"name": "amount",
					"type": "uint256"
				},
				{
					"indexed": false,
					"internalType": "uint32",
					"name": "swapPrice",
					"type": "uint32"
				}
			],
			"name": "DepositAndSwap",
			"type": "event"
		},
		{
			"anonymous": false,
			"inputs": [
				{
					"indexed": false,
					"internalType": "address",
					"name": "token",
					"type": "address"
				},
				{
					"indexed": false,
					"internalType": "bool",
					"name": "usable",
					"type": "bool"
				}
			],
			"name": "DepositToken",
			"type": "event"
		},
		{
			"anonymous": false,
			"inputs": [
				{
					"indexed": false,
					"internalType": "address",
					"name": "member",
					"type": "address"
				},
				{
					"indexed": false,
					"internalType": "address",
					"name": "executor",
					"type": "address"
				}
			],
			"name": "MemberRegistered",
			"type": "event"
		},
		{
			"anonymous": false,
			"inputs": [
				{
					"indexed": true,
					"internalType": "bytes32",
					"name": "role",
					"type": "bytes32"
				},
				{
					"indexed": true,
					"internalType": "bytes32",
					"name": "previousAdminRole",
					"type": "bytes32"
				},
				{
					"indexed": true,
					"internalType": "bytes32",
					"name": "newAdminRole",
					"type": "bytes32"
				}
			],
			"name": "RoleAdminChanged",
			"type": "event"
		},
		{
			"anonymous": false,
			"inputs": [
				{
					"indexed": true,
					"internalType": "bytes32",
					"name": "role",
					"type": "bytes32"
				},
				{
					"indexed": true,
					"internalType": "address",
					"name": "account",
					"type": "address"
				},
				{
					"indexed": true,
					"internalType": "address",
					"name": "sender",
					"type": "address"
				}
			],
			"name": "RoleGranted",
			"type": "event"
		},
		{
			"anonymous": false,
			"inputs": [
				{
					"indexed": true,
					"internalType": "bytes32",
					"name": "role",
					"type": "bytes32"
				},
				{
					"indexed": true,
					"internalType": "address",
					"name": "account",
					"type": "address"
				},
				{
					"indexed": true,
					"internalType": "address",
					"name": "sender",
					"type": "address"
				}
			],
			"name": "RoleRevoked",
			"type": "event"
		},
		{
			"inputs": [],
			"name": "ADMIN_ROLE",
			"outputs": [
				{
					"internalType": "bytes32",
					"name": "",
					"type": "bytes32"
				}
			],
			"stateMutability": "view",
			"type": "function"
		},
		{
			"inputs": [],
			"name": "DEFAULT_ADMIN_ROLE",
			"outputs": [
				{
					"internalType": "bytes32",
					"name": "",
					"type": "bytes32"
				}
			],
			"stateMutability": "view",
			"type": "function"
		},
		{
			"inputs": [],
			"name": "EXECUTOR_ROLE",
			"outputs": [
				{
					"internalType": "bytes32",
					"name": "",
					"type": "bytes32"
				}
			],
			"stateMutability": "view",
			"type": "function"
		},
		{
			"inputs": [],
			"name": "MEMBER_ROLE",
			"outputs": [
				{
					"internalType": "bytes32",
					"name": "",
					"type": "bytes32"
				}
			],
			"stateMutability": "view",
			"type": "function"
		},
		{
			"inputs": [
				{
					"internalType": "address",
					"name": "token",
					"type": "address"
				},
				{
					"internalType": "uint256",
					"name": "amount",
					"type": "uint256"
				},
				{
					"internalType": "uint32",
					"name": "swapPrice",
					"type": "uint32"
				}
			],
			"name": "depositAndSwap",
			"outputs": [],
			"stateMutability": "nonpayable",
			"type": "function"
		},
		{
			"inputs": [
				{
					"internalType": "bytes32",
					"name": "role",
					"type": "bytes32"
				}
			],
			"name": "getRoleAdmin",
			"outputs": [
				{
					"internalType": "bytes32",
					"name": "",
					"type": "bytes32"
				}
			],
			"stateMutability": "view",
			"type": "function"
		},
		{
			"inputs": [
				{
					"internalType": "bytes32",
					"name": "role",
					"type": "bytes32"
				},
				{
					"internalType": "address",
					"name": "account",
					"type": "address"
				}
			],
			"name": "grantRole",
			"outputs": [],
			"stateMutability": "nonpayable",
			"type": "function"
		},
		{
			"inputs": [
				{
					"internalType": "bytes32",
					"name": "role",
					"type": "bytes32"
				},
				{
					"internalType": "address",
					"name": "account",
					"type": "address"
				}
			],
			"name": "hasRole",
			"outputs": [
				{
					"internalType": "bool",
					"name": "",
					"type": "bool"
				}
			],
			"stateMutability": "view",
			"type": "function"
		},
		{
			"inputs": [
				{
					"internalType": "address",
					"name": "member",
					"type": "address"
				}
			],
			"name": "info",
			"outputs": [
				{
					"internalType": "uint256",
					"name": "id",
					"type": "uint256"
				},
				{
					"internalType": "address",
					"name": "depositEth",
					"type": "address"
				},
				{
					"internalType": "string",
					"name": "depositBtc",
					"type": "string"
				}
			],
			"stateMutability": "view",
			"type": "function"
		},
		{
			"inputs": [
				{
					"internalType": "address",
					"name": "token",
					"type": "address"
				}
			],
			"name": "isDepositToken",
			"outputs": [
				{
					"internalType": "bool",
					"name": "",
					"type": "bool"
				}
			],
			"stateMutability": "view",
			"type": "function"
		},
		{
			"inputs": [
				{
					"internalType": "address",
					"name": "_newMember",
					"type": "address"
				},
				{
					"internalType": "uint256",
					"name": "_id",
					"type": "uint256"
				},
				{
					"internalType": "address",
					"name": "_depositEth",
					"type": "address"
				},
				{
					"internalType": "string",
					"name": "_depositBtc",
					"type": "string"
				}
			],
			"name": "registerMember",
			"outputs": [],
			"stateMutability": "nonpayable",
			"type": "function"
		},
		{
			"inputs": [
				{
					"internalType": "bytes32",
					"name": "role",
					"type": "bytes32"
				},
				{
					"internalType": "address",
					"name": "callerConfirmation",
					"type": "address"
				}
			],
			"name": "renounceRole",
			"outputs": [],
			"stateMutability": "nonpayable",
			"type": "function"
		},
		{
			"inputs": [
				{
					"internalType": "bytes32",
					"name": "role",
					"type": "bytes32"
				},
				{
					"internalType": "address",
					"name": "account",
					"type": "address"
				}
			],
			"name": "revokeRole",
			"outputs": [],
			"stateMutability": "nonpayable",
			"type": "function"
		},
		{
			"inputs": [
				{
					"internalType": "address",
					"name": "token",
					"type": "address"
				},
				{
					"internalType": "bool",
					"name": "usable",
					"type": "bool"
				}
			],
			"name": "setDepositToken",
			"outputs": [],
			"stateMutability": "nonpayable",
			"type": "function"
		},
		{
			"inputs": [
				{
					"internalType": "bytes4",
					"name": "interfaceId",
					"type": "bytes4"
				}
			],
			"name": "supportsInterface",
			"outputs": [
				{
					"internalType": "bool",
					"name": "",
					"type": "bool"
				}
			],
			"stateMutability": "view",
			"type": "function"
		}
	]
}